:10000000021A7F75C870E4F5CDF5CC75CBBC75CA06
:10001000CD43A820D2C8D2AF22121C041200032262
:03002300021909B6
:10002B000219F39080B81209099080B81208E912EE
:10003B0007989080BBF09080B81208E990000212EC
:10004B0007C39080BCF09080B81208E990000412AE
:10005B0007C3E5F09080BDF09080B81208E99000DE
:10006B00041207C39080BEF09080B81208E990008C
:10007B00061207C3E5F09080BFF09080B81208E934
:10008B009000061207C39080C0F07B017A8079BB89
:10009B007D061217119080C3EEF0A3EFF09080C392
:1000AB00E0A3E09080C2F0A3E0FEA3E0EE9080C15D
:1000BB00F07B017A8079BB7D087C00121B7C22903F
:1000CB0080B8EEF0A3EFF09080B8E0FEA3E0FF78ED
:1000DB000DA60608A607780DE6FE08E64E70F72279
:1000F800FFFF4457494E5435021AC6020257EC5DB9
:10010800046005E85904700302024D1202185804ED
:1001180060F6EC4860F2EC7004FDFEFF22C860DB7C
:100128002481C85009C398600250060202549850AE
:10013800CAF582E9294B4A7005AB8202024375F081
:10014800007C1A7880C3EF9BEE9AED99400DC3EFBF
:100158009BFFEE9AFEED99FDE842F0DC23ACF0D06F
:10016800E0FFD0E0FED0E0FDAB8220E7101BEB60A3
:10017800BAEC2CFCEF33FFEE33FEED33FD02022F19
:10018800E803F830E705C0F075F000EF2FFFEE3315
:10019800FEED33FD40B830E7C280AA75F020800E2E
:1001A80075F010800575F0087D007E007F003392A1
:1001B800D530D503120862EC334010EF33FFEE332D
:1001C800FEED33FDEC33FCD5F0ED22E5F0247EA204
:1001D800D513CC92E7CDCEFF22EDD2E7CD33EC3369
:1001E80092D524814006E4FFFEFDFC22FCE4CFCE3C
:1001F800CDCC24E0501174FF80EDC3CC13CCCD13CB
:10020800CDCE13CECF13CF0470F030D5DE02086206
:10021800E9D2E7C933E833F892D5EDD2E7CD33EC2C
:1002280033FC5002B2D522EC30E7100FBF000C0EA1
:10023800BE00080DBD00040BEB6014A2D5EB13FC47
:10024800ED92E7FD2274FFFCFDFEFF22E480F8A298
:10025800D574FF13FC7D80E480EFF920E73624F99C
:1002680050037907E4F42402FBE582158270021535
:1002780083DBF6E024FB501BE96014E4F0E582150B
:100288008270021583E004F0B40A08E4F0D9EE7431
:1002980001F00A22C2D522ED33EC3392D5FA602A56
:1002A800B4FF33EDC2E77BFF60067A0279C4E4222B
:1002B8007A0279CD20D5047A0279C8224E614E009F
:1002C8002B494E46002D494E4600E47A08F0A3DA41
:1002D800FC7B00740722C083C082ECC0E0EDC0E064
:1002E800EEC0E0EFC0E0EA75F010A4CAABF075F01C
:1002F8004DA42BFBE435F0FCEA2410FAEB34C5FBE3
:10030800EC34D9FCEDC2E7FF75F056A4F42411C50E
:10031800F0F434C58FF0A42AE5F03BE43CF020E784
:10032800141205D2D0E0FFD0E0FED0E0FDD0E0FC12
:100338001201068014F4041205D2D0E0FFD0E0FECA
:10034800D0E0FDD0E0FC12049CD082D083E0FAED2E
:10035800D2E7CD33EC332482FBE4C3CF33CFCE33A3
:10036800CECD33CD33DBF37B0775F00A846004F020
:10037800A31B0AE5F0F0A38FF0740AA4FFACF08E7B
:10038800F0740AA42CFEACF050010C8DF0740AA491
:100398002CFDE435F0F0A3DBDE74072202024DE801
:1003A8006480F8E933E83360110460F0ED33EC332E
:1003B8007009E8FCE9FDEAFEEBFF220460DED3EBFE
:1003C8009FEA9EE99DE8C2E78CF0C2F795F0400CE1
:1003D800E8CCF8E9CDF9EACEFAEBCFFB12021885A2
:1003E800D0F05804700320D5B3E80470075002B267
:1003F800D502025792D5EC0460F7E4CCC0E0C3986C
:10040800F8603B94186008400DD0E0FB02022FE42E
:10041800FBFAC9FC8028E830E406E4C9FBE4CAFC1E
:10042800E830E305E4C9CACBFCE854076010F8C318
:10043800E913F9EA13FAEB13FBEC13FCD8F130F5E6
:100448002FC3E49CFCEF9BFFEE9AFEED99FDD0E0F4
:10045800FBEF4E4D4C701222DB03020254EC2CFCD5
:10046800EF33FFEE33FEED33FDED30E7EB02022F05
:10047800EF2BFFEE3AFEED39FDD0E0FB50130BBB3E
:100488000003020257ED13FDEE13FEEF13FFEC130A
:10049800FC02022FEC4D6011E8497017ED33EC3384
:1004A80004600DE4FCFFFEFD22E933E8330470F834
:1004B80002024D12021858046009E4CC2481500647
:1004C800285009020257284003020254C0E0EB4AB0
:1004D8007044B98006D0E0FB020243EF4E701CBDA9
:1004E8008008EBFFEAFEE9FD80EBE98DF0A4FEE56C
:1004F800F0020585E9CDF9EAFEEBFFEF89F0A4FCEF
:10050800E5F0CE89F0A42EFFE435F0CD89F0A42DD6
:10051800FEE435F08067EF4E7005BD80D780C3EFED
:100528008BF0A4ACF0EE8BF0A42CFCE435F0F8EFE3
:100538008AF0A42CE5F038FCE433CB8DF0A42CFC35
:10054800E5F03BF8EE8AF0A42CFCE5F038F8E4334B
:10055800CF89F0A42CFCE5F038CF3400CE89F0A484
:100568002FFFE5F03EFEE433C98DF0A42EFEE5F042
:1005780039CD8AF0A42FFFE5F03EFEE43DFD33D0EF
:10058800E0FB50070BBB000F020257EC2CFCEF33CB
:10059800FFEE33FEED33FD02022F3F8000004120C5
:1005A800000042C80000447A0000461C400047C3CF
:1005B8005000497424004B1896804CBEBC205A0E3B
:1005C8001BCA6753C21C749DC5AEFB600654076006
:1005D8001C2323120600EB543860091205EC12059F
:1005E800FB12049CECF8EDF9EEFAEFCB22EB1205C6
:1005F800FB80F1543803241C9005A2FE93FC0EEEF8
:1006080093FD0EEE930ECE93FF22E709F608DFFA6C
:100618008046E709F208DFFA803E88828C83E70982
:10062800F0A3DFFA8032E309F608DFFA8078E309FD
:10063800F208DFFA807088828C83E309F0A3DFFA7E
:10064800806489828A83E0A3F608DFFA8058898269
:100658008A83E0A3F208DFFA804C80D280FA80C651
:1006680080D4806980F28033801080A680EA809AE6
:1006780080A880DA80E280CA803389828A83ECFA93
:10068800E493A3C8C582C8CCC583CCF0A3C8C582EF
:10069800C8CCC583CCDFE9DEE7800D89828A83E494
:1006A80093A3F608DFF9ECFAA9F0EDFB2289828A18
:1006B80083ECFAE0A3C8C582C8CCC583CCF0A3C834
:1006C800C582C8CCC583CCDFEADEE880DB89828AB4
:1006D80083E493A3F208DFF980CC88F0EF60010E81
:1006E8004E60C388F0ED2402B4040050B9F582EBE3
:1006F8002402B4040050AF2323458223900662737A
:10070800BB010689828A83E0225002E722BBFE02EF
:10071800E32289828A83E49322BB010CE58229F5CE
:1007280082E5833AF583E0225006E92582F8E6223D
:10073800BBFE06E92582F8E222E58229F582E583F7
:100748003AF583E49322BB010689828A83F022501A
:1007580002F722BBFE01F322F8BB010DE58229F561
:1007680082E5833AF583E8F0225006E92582C8F647
:1007780022BBFE05E92582C8F222C5F0F8A3E028CD
:10078800F0C5F0F8E582158270021583E038F02292
:10079800BB010A89828A83E0F5F0A3E0225006872C
:1007A800F009E71922BBFE07E3F5F009E3192289EE
:1007B800828A83E493F5F074019322BB0110E582E9
:1007C80029F582E5833AF583E0F5F0A3E0225009A4
:1007D800E92582F886F008E622BBFE0AE92582F8B8
:1007E800E2F5F008E222E5832AF583E993F5F0A320
:1007F800E99322BB010A89828A83F0E5F0A3F022FB
:100808005006F709A7F01922BBFE06F3E5F009F335
:100818001922F8BB0111E58229F582E5833AF583AF
:10082800E8F0E5F0A3F0225009E92582C8F608A609
:10083800F022BBFE09E92582C8F2E5F008F222EFB2
:100848002BFFEE3AFEED39FDEC38FC22C3EF9BFF9F
:10085800EE9AFEED99FDEC98FC22C3E49FFFE49E1E
:10086800FEE49DFDE49CFC22EB9FF5F0EA9E42F03D
:10087800E99D42F0E89C45F022E8600FECC313FCC8
:10088800ED13FDEE13FEEF13FFD8F122E0FCA3E019
:10089800FDA3E0FEA3E0FF22E0F8A3E0F9A3E0FA5D
:1008A800A3E0FB22ECF0A3EDF0A3EEF0A3EFF0221F
:1008B800A8828583F0D083D0821208CF1208CF1285
:1008C80008CF1208CFE473E493A3C583C5F0C583AA
:1008D800C8C582C8F0A3C583C5F0C583C8C582C88A
:1008E80022E0FBA3E0FAA3E0F922F8E0FBA3A3E0EF
:1008F800F925F0F0E582158270021583E0FA38F0E8
:1009080022EBF0A3EAF0A3E9F022D083D082F8E446
:10091800937012740193700DA3A393F8740193F567
:10092800828883E4737402936860EFA3A3A380DFD3
:10093800D083D082F8E4937012740193700DA3A34E
:1009480093F8740193F5828883E473740293B5F085
:10095800067403936860E9A3A3A3A380D87BFF7AF6
:1009680018798178227C007D007E007F301206E2B3
:100978007BFF7A1879B178017C807D017E007F0841
:100988001206E29080091208B8000000007BFF7A86
:100998001879B978127C807D017E007F301206E2DA
:1009A8007BFF7A1879E978427C807D017E007F2080
:1009B8001206E2E49080B2F0A3F0A3F0A3F0A3F053
:1009C800A3F01200197F807E257D007C00121B0B8E
:1009D800E4908138F0A3F090800DF09081321208F5
:1009E800A090813E1208941208547BE07A9379040F
:1009F8007800D3120870502290800DE0B4011B904B
:100A0800813AE0FEA3E04E601190813AE0A3E0FF56
:100A1800EE448090813AF0A3EFF090813AE0FEA393
:100A2800E0EE20E703020D5B90813AA3E0FFEE546D
:100A38007F90800EF0A3EFF07B017A80790E908092
:100A4800D1E4F0A37402F07F697E201215F4E490DB
:100A58008062F0A3F0908010F0A3F090800EE0FE8A
:100A6800A3E0FFA3E0FCA3E0C39FEC9E505A908054
:100A780062E0FEA3E02412F974803EFA7B01C00311
:100A8800C002C0017BFF7A1879179080BB12090950
:100A9800908010E0FEA3E024ECF58274803EF5839C
:100AA800E0FF9080BEE4F0A3EFF0D001D002D003C5
:100AB800120F91908062EE8FF0120782908010E4FE
:100AC80075F00112078280937BFF7A18791D908058
:100AD800D1E4F0A37410F0FF7E201215F47B017AA4
:100AE800807912908062E0FEA3E0FFEEC313FEEF70
:100AF800132402FFE43E9080D1F0A3EFF07F107E34
:100B0800201215F4E4908010F0A3F0908010E0FE1D
:100B1800A3E0C39430EE9400501C908010E0A3E052
:100B28002412F58274803EF583E4F090801075F00D
:100B38000112078280D57B017A8079ECC002C0015E
:100B480090800EE0FCA3E0FD7A80796A9080BD1267
:100B58000909D001D0021213AF9080B6E4F0A3EFD8
:100B6800F07B017A8079B69080D1E4F0A304F07F1D
:100B7800717E201215F49080B6E0FEA3E064014E69
:100B88006003020C7B7BFF7A18793E9080D1F0A33A
:100B98007404F07F967E201215F490806AE0FEA31C
:100BA800E08EF01209380BBA00010C320002000086
:100BB8000D1990806EE0FEA3E0C39402EE940050FD
:100BC80003020D19A3E0A3E0FEA3E0FCA3E0FDEE01
:100BD8004CFEEDFF908068EEF0A3EFF0908068E0A7
:100BE800FEA3E0EE30E70E908068A3E0FF908068F7
:100BF800EEF0A3EFF0908068E0FCA3E0FDE41201C2
:100C0800A8E4FBFA79207841120106908064120862
:100C1800AC7B017A8079649080D1E4F0A37402F00F
:100C28007F057E201215F4020D1990806EE0FEA358
:100C3800E0C39402EE94005003020D19A3E0A3E070
:100C4800FEA3E0FCA3E0FDEE4CFEEDFF9080B0EECD
:100C5800F0A3EFF07B017A8079B09080D1E4F0A323
:100C68007402F07F077E201215F4020D19020D1987
:100C7800020D199080B6E0FEA3E064634E70177B06
:100C8800FF7A1879469080D1F0A37404F07F967E9D
:100C9800201215F4807B9080B6E0FEA3E064624EDB
:100CA80070597BFF7A18794E9080D1F0A37404F0C4
:100CB8007F967E201215F4E490813AF0A3F090809C
:100CC8000EF0A3F0A3F0A3F0908010E0FEA3E0C321
:100CD8009440EE9400501C908010E0A3E024ECF5C2
:100CE8008274803EF583E4F090801075F00112075D
:100CF8008280D59080EA7401F080167BFF7A18799B
:100D0800569080D1E4F0A37404F07F967E201215EB
:100D1800F4E490813AF0A3F090800EF0A3F0A3F0F1
:100D2800A3F0908010E0FEA3E0C39440EE9400503E
:100D38001C908010E0A3E024ECF58274803EF583DB
:100D4800E4F090801075F00112078280D59080EA57
:100D58007401F090800DE06003020E4A908138E043
:100D6800FEA3E0C39406EE94004007E4908138F0B7
:100D7800A3F07F057E001200CA908138E0A3E075D9
:100D8800F008A42422F9E4FAFB78527C00FDFE7FE7
:100D9800081206E27B017A8179389080D1E4F0A3C9
:100DA80004F07F007E201215F47854E608E6785A9D
:100DB800F67B007A0079549080D1E4F0A304F0FF28
:100DC8007E201215F47B007A0079569080D1E4F0E9
:100DD800A304F07F027E201215F47858E6FE08E698
:100DE80025E0FFEE33FEEF2405FFE43E780FF6081A
:100DF800A6077B007A00790F9080D1E4F0A37402F3
:100E0800F07F037E201215F47B007A0079529080DF
:100E1800D1E4F0A304F07F047E201215F490800939
:100E28001208B800030D4090800D7401F07B007A21
:100E380000795212002E90813E120894908132124D
:100E480008AC90800912089474FFFBFAF9F81208AC
:100E5800479080091208AC90800DE064016003029D
:100E680009E39080EAE0B4013D7A18795D9080D179
:100E7800E4F0A37409F07F427E201215F4908138C3
:100E8800E475F001120782E490800DF09080EAF09A
:100E98009080091208B800030D4090813E12089412
:100EA8009081321208ACE4FFFEFDFC908009120824
:100EB800A0C312087060030209E37BFF7A18796FF8
:100EC8009080D1F0A37409F07F427E201215F4E4DB
:100ED800908010F0A3F0908010E0FEA3E0C394305F
:100EE800EE9400501C908010E0A3E02412F5827468
:100EF800803EF583E4F090801075F001120782803F
:100F0800D5908138E475F001120782E490800DF0E5
:100F18009080EAF090813E1208949081321208ACD9
:100F28000209E322E50824BBF582E43480F583E076
:100F38000508229080B83007039080BBE475F00163
:100F48001208F20207082000E97F2ED2008018EF6D
:100F5800540F2490D43440D4FF30040BEF24BFB492
:100F68001A0050032461FFE50960021509050CE524
:100F78000C7002050B30070E9080B8E475F0011272
:100F880008F2EF02074E021C467403D2078003E4FE
:100F9800C207F5089080B8120909E4F509F50BF5C0
:100FA8000CE50960077F20120F6F80F5750AFFC2F4
:100FB80001C200C202C203C205C206C208120F3B28
:100FC800FF700D3007057F00120F80AF0CAE0B22AB
:100FD800B4255FC2D5C204120F3BFF24D0B40A0067
:100FE800501A75F00A780930D50508B6FF0106C60B
:100FF800A426F620D5047002D20380D924CFB41ACF
:1010080000EF5004C2E5D204021272D20180C6D2A7
:101018000080C0D20280BCD2D580BAD20580B47F0D
:1010280020120F6F2002077401B5090040F1120F5A
:101038002CFF120F6F020FA9D208D2068095120F4B
:101048002CFB120F2CFA120F2CF94A4B70067970F0
:101058007A137BFF20022EE509602A7E008E8275B6
:10106800830012072160060EEE650A70F0C2D5EB08
:10107800C0E0EAC0E0E9C0E0EE1212D3D0E0F9D057
:10108800E0FAD0E0FB120708FF60AAEBC0E0EAC074
:10109800E0E9C0E0120F6FD0E02401F9D0E034009D
:1010A800FAD0E0FBE50A0460DCD50AD98087D202D1
:1010B80080A21212B560F7E50A700104120262A953
:1010C8000A600DE50A600914F50A12135DEF60F372
:1010D800EA30E702F404C3995079EAF4250A0430A7
:1010E800E701E404F50A800D1212B560C1EA050AA9
:1010F800250A120262EA9080E7F030E701E4250A47
:1011080004D50A04200501141212D3E4C0E0121316
:101118005D9080E7E0601320E70714F0120F578016
:101128002204F0D0E014C0E07F00120F57E50A60F7
:1011380007120F4E150A800B300503120F4ED0E030
:10114800020FA9D0E00480C41212B5609EE50A041B
:101158001202629080E7EAF0E50A200502600104C5
:1011680024041212D374FF04C0E012135D120F5747
:10117800E50A2005026003120F4ED0E0B50AE87FA9
:1011880045120F619080E7E07F2B30E7047F2DF454
:1011980004C0E0120F6FD0E075F00A84C0F0120F9F
:1011A80058D0E0120F58020FA9791080027908C2AE
:1011B80006C2088008D2D5790A8004790AC2D5E522
:1011C8000A047002F50AE4FAFDFEFF120F2CFC7BFC
:1011D80008200113120F2CFD7B1030000A120F2C6F
:1011E800FE120F2CFF7B20EC3382D592D55013C30F
:1011F800E43000069FFFE49EFEE42001039DFDE429
:101208009CFCE4CBF8C201EC700CCFCECDCCE8242A
:10121800F8F870F38017C3EF33FFEE33FEED33FDBC
:10122800EC33FCEB33FB994002FB0FD8E9EB3001C0
:1012380005F8D0E0C448B201C0E00AEC4D4E4F7842
:10124800207B0070C2EAB50A0040BCC0E01212D58B
:10125800D0F0D0E0200104C4C0E0C4B201C0F01254
:101268000F58D0F0D5F0EB020FA91209121046530F
:1012780011B15810174C10134211B54F11BD44113C
:10128800BD49102C4311C35510F04611504510BAF2
:1012980047139050101B2D101F2E10422B10232384
:1012A80010402013792A0FDB480000103AE50AB4F1
:1012B800FF03750A06120F2CFC120F2CFD120F2CBF
:1012C800FE120F2CFF9080E002029F790AA2D5201F
:1012D8000314300509B910020404B9080104A2D5A1
:1012E8002006025001042002689202B50900503419
:1012F800C0E07F203003197F30A2027206720550C9
:101308000F12132CC202C206C205C2087F30800F1A
:10131800300503E9C0E0120F6F300503D0E0F9D0C3
:10132800E0B509CC3005177F30B9100C120F6F7F6C
:10133800583004077F788003B90803120F6F300212
:10134800057F2D020F6F7F202008F87F2B2006F3E2
:1013580022920280CF7F00B40700500B24E0F58270
:10136800E43480F583E0FF22286E756C6C2900D286
:1013780001120F2C3001F8C201780930D50108F6A6
:10138800020FDB2D50434958120F2C2403B40500DB
:101398004001E490138B93120F60743A120F60D2DD
:1013A800037509040211B19080B81209099080BB35
:1013B800ECF0A3EDF09080B81208E9120708FF904E
:1013C80080C8E4F0A3EFF09080B81208E99000011B
:1013D800120721FF9080CAE4F0A3EFF07B017A8026
:1013E80079C89080D1E4F0A304F07F657E201215BF
:1013F800F47B017A8079CA9080D1E4F0A304F07F6D
:10140800677E201215F49080BBE0FEA3E0C394042D
:10141800EE94005039E49080C6F0A3F09080C6E0C6
:10142800FEA3E0C39440EE940050209080B81208C8
:10143800E99080C6E0A3E0F5828E83E4120760900D
:1014480080C6E475F00112078280D17F6322908004
:10145800B81208E99080BBE0FEA3E024FEFFEE345A
:10146800FF8F82F583120721FE9080B81208E99059
:1014780080BBE0FCA3E024FFFDEC34FF8D82F58304
:10148800120721FDEEEDFF9080C0EEF0A3EFF09083
:1014980080B81208E99080BBE0A3E024FEFD121793
:1014A800119080C2EEF0A3EFF09080C2E0FEA3E0BE
:1014B800FF9080C0E0FCA3E06F7002EC6E6039E43E
:1014C8009080C6F0A3F09080C6E0FEA3E0C39440ED
:1014D800EE940050209080B81208E99080C6E0A3EE
:1014E800E0F5828E83E41207609080C6E475F0010F
:1014F80012078280D17F62229080B81208E9120711
:1015080008FF9080BD1208E9E48FF01207FB908075
:10151800B81208E9900001120721FF9080BD120857
:10152800E9900002E48FF012081A9080B81208E9D6
:10153800900002120721FF9080BD1208E990000474
:10154800E48FF012081AE49080C4F0A3F09080BDF4
:101558001208E99000041207C3FF9080C4E0FCA3BE
:10156800E0C39FEC95F0504B9080B81208E990804A
:10157800C4E0FEA3E02403FFE43E8F82F583120754
:1015880021FD9080BD1208E9E92406F9E43AFA90B1
:1015980080C4E0A3E025E0FFEE33FEE92FF9EA3E40
:1015A800FAE48DF01207FB9080C4E475F00112078D
:1015B80082809AE49080C6F0A3F09080C6E0FEA3F3
:1015C800E0C39440EE940050209080B81208E9904F
:1015D80080C6E0A3E0F5828E83E41207609080C69F
:1015E800E475F00112078280D17F01229080CCEE51
:1015F800F0A3EFF0A31209099080CCE0A3E0540116
:101608009080D3F09080CCE0FEA3E0FFEEC313FE01
:10161800EF13FF9080CCEEF0A3EFF0E4F5F19080AB
:10162800CCE0FEA3E0EEF5F29080CCE0A3E0F5F389
:1016380075F40175F88F30FCFD9080D3E0603C9024
:1016480080D1E0FEA3E0D39400EE9400402D75F81D
:10165800839080CEE475F0011208F2120708F5FCB9
:101668009080CEE475F0011208F2120708F5FDD259
:10167800FE9080D174FFF5F012078275F88F908084
:10168800D1E0FEA3E0C39402EE9400404B9080CEDC
:10169800E475F0011208F2120708F5FA9080CEE41A
:1016A80075F0011208F2120708F5FB9080CEE47578
:1016B800F0011208F2120708F5FC9080CEE475F0EC
:1016C800011208F2120708F5FDD2FE9080D174FFCE
:1016D80075F0FE12078280A69080D1E0FEA3E04E4E
:1016E800602375F88C9080CEE475F0011208F21230
:1016F8000708F5FA9080CEE475F0011208F2120797
:1017080008F5FBD2FEE4F5F8229080CC1209099086
:1017180080CFEDF074FFA3F0A3F0E49080D6F0A39F
:10172800F09080CFE0FF9080D6E0FCA3E0C39FEC70
:10173800940040030217D69080CC1208E99080D616
:10174800E0FEA3E0F5828E83120721FF9080D0E0AF
:10175800FCA3E0FDECFEEF6DFF9080D0EEF0A3EF70
:10176800F0E49080D8F09080D8E0C394085052906C
:1017780080D0E0A3E05401FF9080D4E4F0A3EFF020
:101788009080D0E0FEA3E0FFEEC313FEEF13FF90BE
:1017980080D0EEF0A3EFF09080D4E0FEA3E04E609E
:1017A800189080D0E0FEA3E0FFEE64A0FEEF640195
:1017B800FF9080D0EEF0A3EFF09080D8E004F080A6
:1017C800A59080D6E475F00112078202172990804F
:1017D800D0E0FEA3E0EEFFA3E4F0A3EFF09080D00A
:1017E800A3E0FEA3E0FCA3E0FDEE4CFEEDFF90803D
:1017F800D0EEF0A3EFF09080D0E0FEA3E0FF908061
:10180800D0EEF0A3EFF09080D0E0FEA3E0FF222519
:101818003032582000202020202020202020202086
:1018280020202020202020202020202020202020B0
:101838002020202020004F4B202020200A004C652B
:101848006E6768740A004352432020200A004552FC
:10185800524F520A005265636569766564202020FC
:1018680020202020200A0054696D656F757420209F
:10187800202020202020200A000002000300000071
:10188800040004000300000002000300030002003B
:101898000200010003000000020005000300FD0033
:1018A8000100060003002F000100000000000000F6
:1018B8000000000000000000000000000000000020
:1018C8000000000000000000000000000000000010
:1018D8000000000000000000000000000000000000
:1018E80000000000000000000000000000000000F0
:1018F80000000000000000000000000000000000E0
:1019080000C0E0C0F0C083C082C0D075D000C00065
:10191800C004C005C006C0072098030219DEC2989B
:1019280090813E1208949081321208AC908000E5B4
:1019380099F090813AE0FEA3E0EE30E7030219DE69
:1019480090813AE0FEA3E0C39440EE9400503D90AD
:101958008000E0FF90813AE0FCA3E024ECF582747B
:10196800803CF583EFF090813AE475F0011207822C
:1019780090813AE0FEA3E064024E70199080EDE099
:1019880030E712780F7600087605800990813AE4EE
:10199800F0A3F080419080EBE0FF780FE6FC08E6CA
:1019A800FDC3EF9DE49C5003E004F09080EBE0FF62
:1019B800780FE6FC08E6FDEFB5051BE4B5041790C3
:1019C800813AE0FEA3E0FFEE448090813AF0A3EF75
:1019D800F09080EBE4F0D007D006D005D004D0001A
:1019E800D0D0D082D083D0F0D0E032C0E0C0F0C0F8
:1019F80083C082C0D075D000C000C001C002C0033F
:101A0800C004C005C006C007C2C674FFFFFEFDFCC7
:101A180090813E1208A0C3120870501590813E12A2
:101A28000894E47B01FAF9F812084790813E1208FD
:101A3800AC74FFFFFEFDFC90813E1208A0C31208A3
:101A480070700A90813E1208B800000000780DE618
:101A5800FE08E64E6006E61618700116D007D00696
:101A6800D005D004D003D002D001D000D0D0D0828D
:101A7800D083D0F0D0E032787FE4F6D8FD75815A73
:101A8800021AC6020965E493A3F8E493A34003F697
:101A98008001F208DFF48029E493A3F85407240CAA
:101AA800C8C333C4540F4420C8834004F45680018B
:101AB80046F6DFE4800B0102040810204080901BEA
:101AC800CEE47E019360BCA3FF543F30E509541F68
:101AD800FEE493A360010ECF54C025E060A840B88F
:101AE800E493A3FAE493A3F8E493A3C8C582C8CA0D
:101AF800C583CAF0A3C8C582C8CAC583CADFE9DEE0
:101B0800E780BE9080B81208AC43C94053B7CF43B2
:101B1800B71075D88075985053877F9080B8120891
:101B280094E41201A3A804A905AA06AB077F007EC6
:101B3800E07D447C4A1201061201E1C3E49FFF7470
:101B4800049EFEE4FCFD9080B81208AC9080B812A8
:101B580008947808120881EFE48FBA9080B81208C8
:101B680094EFE48FAAD2ACD2AF90813AF0A3F09070
:101B780080EBF0229080C51209099080C8ECF0A390
:101B8800EDF0C2ACE4A3F0A3F09080C8E0FEA3E0BF
:101B9800FFA3E0FCA3E0C39FEC9E50279080C512F2
:101BA80008E99080CAE0FEA3E0F5828E831207213F
:101BB800F5993099FDC2999080CAE475F001120731
:101BC8008280C6D2AC22020D000044813E00000093
:101BD8000045812D0102030405428136000142813E
:101BE8003C000441812C0044813200000000428105
:101BF8003800004180EA00020F000000C2AFC2D3E3
:101C0800C2D4E4F58E75C870F59375940175950284
:101C1800F5C9F5F875F901F5A843B830F59AF5A9AD
:101C2800F5B953C9FDD2BDD2BCD2AF229080E9EF3D
:101C3800F0C2ACE0F5993099FDC299D2AC229080FF
:0E1C4800E8EFF0E0FF121C349080E8E0FF228D
:00000001FF
