:1000000002199275C870E4F5CDF5CC75CBBC75CAF4
:10001000CD43A820D2C8D2AF22121B171200032250
:0300230002178041
:10002B0002190625303258200020202020202020C5
:10003B0020202020202020202020202020202020B5
:10004B00202020202020202020004F4B202020206B
:10005B000A004C656E6768740A004552524F520A8B
:10006B00005265636569766564202020202020207E
:10007B00200A0054696D656F7574202020202020A4
:10008B002020200A000002000300000004000400EE
:10009B000300000002000300030002000200010045
:1000AB0003000000020005000300FD000100060034
:1000BB0003002F0001000000000000000000000002
:1000CB000000000000000000000000000000000025
:1000DB000000000000000000000000000000000015
:1000EB0000000000000000000000000000FFFF44C3
:1000FB0057494E54350219D9020257EC5D0460057D
:10010B00E85904700302024D120218580460F6EC11
:10011B004860F2EC7004FDFEFF22C860DB2481C84E
:10012B005009C398600250060202549850CAF582D7
:10013B00E9294B4A7005AB8202024375F0007C1A29
:10014B007880C3EF9BEE9AED99400DC3EF9BFFEECA
:10015B009AFEED99FDE842F0DC23ACF0D0E0FFD045
:10016B00E0FED0E0FDAB8220E7101BEB60BAEC2C7D
:10017B00FCEF33FFEE33FEED33FD02022FE803F805
:10018B0030E705C0F075F000EF2FFFEE33FEED33D7
:10019B00FD40B830E7C280AA75F020800E75F010D4
:1001AB00800575F0087D007E007F003392D530D539
:1001BB0003120862EC334010EF33FFEE33FEED33E6
:1001CB00FDEC33FCD5F0ED22E5F0247EA2D513CC6B
:1001DB0092E7CDCEFF22EDD2E7CD33EC3392D5248F
:1001EB00814006E4FFFEFDFC22FCE4CFCECDCC2407
:1001FB00E0501174FF80EDC3CC13CCCD13CDCE13D7
:10020B00CECF13CF0470F030D5DE020862E9D2E70F
:10021B00C933E833F892D5EDD2E7CD33EC33FC504C
:10022B0002B2D522EC30E7100FBF000C0EBE000857
:10023B000DBD00040BEB6014A2D5EB13FCED92E7A4
:10024B00FD2274FFFCFDFEFF22E480F8A2D574FFB3
:10025B0013FC7D80E480EFF920E73624F950037915
:10026B0007E4F42402FBE582158270021583DBF6AA
:10027B00E024FB501BE96014E4F0E5821582700268
:10028B001583E004F0B40A08E4F0D9EE7401F00A27
:10029B0022C2D522ED33EC3392D5FA602AB4FF3368
:1002AB00EDC2E77BFF60067A0279C4E4227A027919
:1002BB00CD20D5047A0279C8224E614E002B494ECF
:1002CB0046002D494E4600E47A08F0A3DAFC7B0089
:1002DB00740722C083C082ECC0E0EDC0E0EEC0E04A
:1002EB00EFC0E0EA75F010A4CAABF075F04DA42B8B
:1002FB00FBE435F0FCEA2410FAEB34C5FBEC34D903
:10030B00FCEDC2E7FF75F056A4F42411C5F0F434EC
:10031B00C58FF0A42AE5F03BE43CF020E71412056E
:10032B00D2D0E0FFD0E0FED0E0FDD0E0FC12010621
:10033B008014F4041205D2D0E0FFD0E0FED0E0FD33
:10034B00D0E0FC12049CD082D083E0FAEDD2E7CD52
:10035B0033EC332482FBE4C3CF33CFCE33CECD3358
:10036B00CD33DBF37B0775F00A846004F0A31B0A23
:10037B00E5F0F0A38FF0740AA4FFACF08EF0740AD2
:10038B00A42CFEACF050010C8DF0740AA42CFDE4EF
:10039B0035F0F0A3DBDE74072202024DE86480F82F
:1003AB00E933E83360110460F0ED33EC337009E8A6
:1003BB00FCE9FDEAFEEBFF220460DED3EB9FEA9E35
:1003CB00E99DE8C2E78CF0C2F795F0400CE8CCF859
:1003DB00E9CDF9EACEFAEBCFFB12021885D0F05833
:1003EB0004700320D5B3E80470075002B2D50202A3
:1003FB005792D5EC0460F7E4CCC0E0C398F8603BAF
:10040B0094186008400DD0E0FB02022FE4FBFAC900
:10041B00FC8028E830E406E4C9FBE4CAFCE830E3DE
:10042B0005E4C9CACBFCE854076010F8C3E913F91B
:10043B00EA13FAEB13FBEC13FCD8F130F52FC3E402
:10044B009CFCEF9BFFEE9AFEED99FDD0E0FBEF4E8F
:10045B004D4C701222DB03020254EC2CFCEF33FFE9
:10046B00EE33FEED33FDED30E7EB02022FEF2BFF0A
:10047B00EE3AFEED39FDD0E0FB50130BBB0003024F
:10048B000257ED13FDEE13FEEF13FFEC13FC02020C
:10049B002FEC4D6011E8497017ED33EC3304600D10
:1004AB00E4FCFFFEFD22E933E8330470F802024D51
:1004BB0012021858046009E4CC2481500628500914
:1004CB00020257284003020254C0E0EB4A7044B9C1
:1004DB008006D0E0FB020243EF4E701CBD8008EBA0
:1004EB00FFEAFEE9FD80EBE98DF0A4FEE5F00205E5
:1004FB0085E9CDF9EAFEEBFFEF89F0A4FCE5F0CE40
:10050B0089F0A42EFFE435F0CD89F0A42DFEE4355F
:10051B00F08067EF4E7005BD80D780C3EF8BF0A4E2
:10052B00ACF0EE8BF0A42CFCE435F0F8EF8AF0A4E1
:10053B002CE5F038FCE433CB8DF0A42CFCE5F03B40
:10054B00F8EE8AF0A42CFCE5F038F8E433CF89F010
:10055B00A42CFCE5F038CF3400CE89F0A42FFFE5B6
:10056B00F03EFEE433C98DF0A42EFEE5F039CD8AC2
:10057B00F0A42FFFE5F03EFEE43DFD33D0E0FB5051
:10058B00070BBB000F020257EC2CFCEF33FFEE33D3
:10059B00FEED33FD02022F3F8000004120000042A0
:1005AB00C80000447A0000461C400047C350004975
:1005BB007424004B1896804CBEBC205A0E1BCA6785
:1005CB0053C21C749DC5AEFB60065407601C2323ED
:1005DB00120600EB543860091205EC1205FB1204ED
:1005EB009CECF8EDF9EEFAEFCB22EB1205FB80F168
:1005FB00543803241C9005A2FE93FC0EEE93FD0EC3
:10060B00EE930ECE93FF22E709F608DFFA8046E75A
:10061B0009F208DFFA803E88828C83E709F0A3DFBA
:10062B00FA8032E309F608DFFA8078E309F208DF93
:10063B00FA807088828C83E309F0A3DFFA806489E7
:10064B00828A83E0A3F608DFFA805889828A83E0E6
:10065B00A3F208DFFA804C80D280FA80C680D48067
:10066B006980F28033801080A680EA809A80A8800F
:10067B00DA80E280CA803389828A83ECFAE493A31E
:10068B00C8C582C8CCC583CCF0A3C8C582C8CCC5AD
:10069B0083CCDFE9DEE7800D89828A83E493A3F6BE
:1006AB0008DFF9ECFAA9F0EDFB2289828A83ECFAD8
:1006BB00E0A3C8C582C8CCC583CCF0A3C8C582C88B
:1006CB00CCC583CCDFEADEE880DB89828A83E493C6
:1006DB00A3F208DFF980CC88F0EF60010E4E60C307
:1006EB0088F0ED2402B4040050B9F582EB2402B477
:1006FB00040050AF232345822390066273BB01068F
:10070B0089828A83E0225002E722BBFE02E3228920
:10071B00828A83E49322BB010CE58229F582E5836F
:10072B003AF583E0225006E92582F8E622BBFE0665
:10073B00E92582F8E222E58229F582E5833AF58301
:10074B00E49322BB010689828A83F0225002F722AE
:10075B00BBFE01F322F8BB010DE58229F582E5838F
:10076B003AF583E8F0225006E92582C8F622BBFE53
:10077B0005E92582C8F222C5F0F8A3E028F0C5F000
:10078B00F8E582158270021583E038F022BB010A6E
:10079B0089828A83E0F5F0A3E022500687F009E70F
:1007AB001922BBFE07E3F5F009E3192289828A833C
:1007BB00E493F5F074019322BB0110E58229F582D5
:1007CB00E5833AF583E0F5F0A3E0225009E92582B1
:1007DB00F886F008E622BBFE0AE92582F8E2F5F07E
:1007EB0008E222E5832AF583E993F5F0A3E9932246
:1007FB00BB010A89828A83F0E5F0A3F0225006F749
:10080B0009A7F01922BBFE06F3E5F009F31922F84C
:10081B00BB0111E58229F582E5833AF583E8F0E522
:10082B00F0A3F0225009E92582C8F608A6F022BBF6
:10083B00FE09E92582C8F2E5F008F222EF2BFFEE64
:10084B003AFEED39FDEC38FC22C3EF9BFFEE9AFE2E
:10085B00ED99FDEC98FC22C3E49FFFE49EFEE49D22
:10086B00FDE49CFC22EB9FF5F0EA9E42F0E99D42F1
:10087B00F0E89C45F022E8600FECC313FCED13FD90
:10088B00EE13FEEF13FFD8F122E0FCA3E0FDA3E093
:10089B00FEA3E0FF22E0F8A3E0F9A3E0FAA3E0FB5C
:1008AB0022ECF0A3EDF0A3EEF0A3EFF022A88285EB
:1008BB0083F0D083D0821208CF1208CF1208CF1248
:1008CB0008CFE473E493A3C583C5F0C583C8C58281
:1008DB00C8F0A3C583C5F0C583C8C582C822E0FB99
:1008EB00A3E0FAA3E0F922F8E0FBA3A3E0F925F0DB
:1008FB00F0E582158270021583E0FA38F022EBF0F6
:10090B00A3EAF0A3E9F022D083D082F8E49370122B
:10091B00740193700DA3A393F8740193F5828883EC
:10092B00E4737402936860EFA3A3A380DFD083D03A
:10093B0082F8E4937012740193700DA3A393F8746F
:10094B000193F5828883E473740293B5F006740304
:10095B00936860E9A3A3A3A380D87BFF7A00799067
:10096B0078227C007D007E007F301206E27BFF7ACE
:10097B000079C078017C807D017E007F081206E241
:10098B009080091208B8000000007BFF7A0079C83C
:10099B0078127C807D017E007F301206E2E490802D
:1009AB0092F0A3F0A3F0A3F0A3F0A3F01200197F31
:1009BB00807E257D007C00121A1EE4908118F0A326
:1009CB00F090800DF09081121208A090811E1208F9
:1009DB00941208547B007A35790C7800D312087086
:1009EB00502290800DE0B4011B90811AE0FEA3E031
:1009FB004E601190811AE0A3E0FFEE448090811AC3
:100A0B00F0A3EFF090811AE0FEA3E0EE20E70302E3
:100A1B000CDC90811AA3E0FFEE547F90800EF0A3C4
:100A2B00EFF07B017A80790E9080B1E4F0A3740231
:100A3B00F07F697E2012155DE4908042F0A3F09068
:100A4B008010F0A3F090800EE0FEA3E0FFA3E0FC8B
:100A5B00A3E0C39FEC9E505A908042E0FEA3E0249B
:100A6B0012F974803EFA7B01C003C002C0017BFF08
:100A7B007A00792E90809B120909908010E0FEA3DA
:100A8B00E024CCF58274803EF583E0FF90809EE4F9
:100A9B00F0A3EFF0D001D002D003120EFA908042F7
:100AAB00EE8FF0120782908010E475F0011207822E
:100ABB0080937BFF7A0079349080B1E4F0A37410BB
:100ACB00F0FF7E2012155D7B017A807912908042B7
:100ADB00E0FEA3E0FFEEC313FEEF132402FFE43EA0
:100AEB009080B1F0A3EFF07F107E2012155DE490A3
:100AFB008010F0A3F0908010E0FEA3E0C39430EEE2
:100B0B009400501C908010E0A3E02412F5827480B6
:100B1B003EF583E4F090801075F00112078280D5CA
:100B2B007B017A8079CCC002C00190800EE0FCA3DF
:100B3B00E0FD7A80794A90809D120909D001D0029C
:100B4B00121318908096E4F0A3EFF07B017A807972
:100B5B00969080B1E4F0A304F07F717E2012155DB6
:100B6B00908096E0FEA3E064014E6003020C617B73
:100B7B00FF7A0079559080B1F0A37404F07F967ED4
:100B8B002012155D90804AE0FEA3E08EF01209382A
:100B9B000BA700010C1E000200000C9A90804EE087
:100BAB00FEA3E0C39402EE94005003020C9AA3E060
:100BBB00A3E0FEA3E0FCA3E0FDEE4CFEEDFF908076
:100BCB0048EEF0A3EFF0908048E0FEA3E0EE30E7B4
:100BDB000E908048A3E0FF908048EEF0A3EFF090DA
:100BEB008048E0FCA3E0FDE41201A8E4FBFA7920C5
:100BFB0078411201069080441208AC7B017A80790F
:100C0B00449080B1E4F0A37402F07F057E201215AE
:100C1B005D807C90804EE0FEA3E0C39402EE9400D6
:100C2B00406DA3E0A3E0FEA3E0FCA3E0FDEE4CFED1
:100C3B00EDFF908090EEF0A3EFF07B017A8079903E
:100C4B009080B1E4F0A37402F07F077E2012155D53
:100C5B00803D803B8039908096E0FEA3E064634E3C
:100C6B0070177BFF7A00795D9080B1F0A37404F06C
:100C7B007F967E2012155D80167BFF7A007965903A
:100C8B0080B1E4F0A37404F07F967E2012155DE42E
:100C9B0090811AF0A3F090800EF0A3F0A3F0A3F0D4
:100CAB00908010E0FEA3E0C39440EE9400501C90A3
:100CBB008010E0A3E024CCF58274803EF583E4F051
:100CCB0090801075F00112078280D59080CA740154
:100CDB00F090800DE06003020DCB908118E0FEA335
:100CEB00E0C39406EE94004007E4908118F0A3F063
:100CFB007F057E00121B47908118E0A3E075F0087A
:100D0B00A42422F9E4FAFB78527C00FDFE7F081242
:100D1B0006E27B017A8179189080B1E4F0A304F0AC
:100D2B007F007E2012155D7854E608E6785AF67B34
:100D3B00007A0079549080B1E4F0A304F0FF7E2098
:100D4B0012155D7B007A0079569080B1E4F0A30414
:100D5B00F07F027E2012155D7858E6FE08E625E04E
:100D6B00FFEE33FEEF2405FFE43E780FF608A607EF
:100D7B007B007A00790F9080B1E4F0A37402F07FCE
:100D8B00037E2012155D7B007A0079529080B1E4CE
:100D9B00F0A304F07F047E2012155D9080091208E9
:100DAB00B800030D4090800D7401F07B007A007940
:100DBB005212186A90811E1208949081121208AC7C
:100DCB0090800912089474FFFBFAF9F81208479007
:100DDB0080091208AC90800DE0640160030209D019
:100DEB009080CAE0B401317A00796C9080B1E4F064
:100DFB00A37409F07F427E2012155D908118E47573
:100E0B00F001120782E490800DF09080CAF0908080
:100E1B00091208B800030D40E4FFFEFDFC908009A9
:100E2B001208A0C312087060030209D07BFF7A007E
:100E3B00797E9080B1F0A37409F07F427E20121569
:100E4B005DE4908010F0A3F0908010E0FEA3E0C36F
:100E5B009430EE9400501C908010E0A3E02412F527
:100E6B008274803EF583E4F090801075F0011207D8
:100E7B008280D5908118E475F001120782E490808E
:100E8B000DF09080CAF00209D022E508249BF58270
:100E9B00E43480F583E005082290809830070390B6
:100EAB00809BE475F0011208F20207082000E97F2D
:100EBB002ED2008018EF540F2490D43440D4FF303E
:100ECB00040BEF24BFB41A0050032461FFE5096043
:100EDB00021509050CE50C7002050B30070E90800E
:100EEB0098E475F0011208F2EF02074E021B7A74B8
:100EFB0003D2078003E4C207F50890809812090912
:100F0B00E4F509F50BF50CE50960077F20120ED807
:100F1B0080F5750AFFC201C200C202C203C205C23C
:100F2B0006C208120EA4FF700D3007057F00120ECB
:100F3B00E9AF0CAE0B22B4255FC2D5C204120EA4CE
:100F4B00FF24D0B40A00501A75F00A780930D50581
:100F5B0008B6FF0106C6A426F620D5047002D203FC
:100F6B0080D924CFB41A00EF5004C2E5D204021189
:100F7B00DBD20180C6D20080C0D20280BCD2D58029
:100F8B00BAD20580B47F20120ED82002077401B5A7
:100F9B00090040F1120E95FF120ED8020F12D20863
:100FAB00D2068095120E95FB120E95FA120E95F93C
:100FBB004A4B700679D97A127BFF20022EE5096025
:100FCB002A7E008E8275830012072160060EEE6565
:100FDB000A70F0C2D5EBC0E0EAC0E0E9C0E0EE1267
:100FEB00123CD0E0F9D0E0FAD0E0FB120708FF602A
:100FFB00AAEBC0E0EAC0E0E9C0E0120ED8D0E024D2
:10100B0001F9D0E03400FAD0E0FBE50A0460DCD54E
:10101B000AD98087D20280A212121E60F7E50A70ED
:10102B000104120262A90A600DE50A600914F50AAF
:10103B001212C6EF60F3EA30E702F404C399507959
:10104B00EAF4250A0430E701E404F50A800D1212D4
:10105B001E60C1EA050A250A120262EA9080C7F0F7
:10106B0030E701E4250A04D50A0420050114121205
:10107B003CE4C0E01212C69080C7E0601320E70783
:10108B0014F0120EC0802204F0D0E014C0E07F00F8
:10109B00120EC0E50A6007120EB7150A800B300559
:1010AB0003120EB7D0E0020F12D0E00480C412126C
:1010BB001E609EE50A041202629080C7EAF0E50A00
:1010CB00200502600104240412123C74FF04C0E0EA
:1010DB001212C6120EC0E50A2005026003120EB7EB
:1010EB00D0E0B50AE87F45120ECA9080C7E07F2B8F
:1010FB0030E7047F2DF404C0E0120ED8D0E075F079
:10110B000A84C0F0120EC1D0E0120EC1020F127988
:10111B001080027908C206C2088008D2D5790A80ED
:10112B0004790AC2D5E50A047002F50AE4FAFDFE59
:10113B00FF120E95FC7B08200113120E95FD7B1000
:10114B0030000A120E95FE120E95FF7B20EC3382B7
:10115B00D592D55013C3E43000069FFFE49EFEE406
:10116B002001039DFDE49CFCE4CBF8C201EC700C68
:10117B00CFCECDCCE824F8F870F38017C3EF33FF54
:10118B00EE33FEED33FDEC33FCEB33FB994002FB0E
:10119B000FD8E9EB300105F8D0E0C448B201C0E04C
:1011AB000AEC4D4E4F78207B0070C2EAB50A004026
:1011BB00BCC0E012123ED0F0D0E0200104C4C0E06D
:1011CB00C4B201C0F0120EC1D0F0D5F0EB020F1279
:1011DB001209120FAF53111A580F804C0F7C42118A
:1011EB001E4F1126441126490F9543112C551059AA
:1011FB004610B94510234712F9500F842D0F882E36
:10120B000FAB2B0F8C230FA92012E22A0F4448009F
:10121B00000FA3E50AB4FF03750A06120E95FC1224
:10122B000E95FD120E95FE120E95FF9080C00202D8
:10123B009F790AA2D5200314300509B910020404C2
:10124B00B9080104A2D520060250010420026892BD
:10125B0002B509005034C0E07F203003197F30A263
:10126B000272067205500F121295C202C206C20517
:10127B00C2087F30800F300503E9C0E0120ED83072
:10128B000503D0E0F9D0E0B509CC3005177F30B9B4
:10129B00100C120ED87F583004077F788003B908E2
:1012AB0003120ED83002057F2D020ED87F202008A6
:1012BB00F87F2B2006F322920280CF7F00B4070029
:1012CB00500B24C0F582E43480F583E0FF22286EB6
:1012DB00756C6C2900D201120E953001F8C20178A1
:1012EB000930D50108F6020F442D50434958120E10
:1012FB00952403B405004001E49012F493120EC937
:10130B00743A120EC9D20375090402111A9080980F
:10131B0012090990809BECF0A3EDF09080981208D5
:10132B00E9120708FF9080A8E4F0A3EFF0908098F3
:10133B001208E9900001120721FF9080AAE4F0A3A4
:10134B00EFF07B017A8079A89080B1E4F0A304F0F0
:10135B007F657E2012155D7B017A8079AA9080B122
:10136B00E4F0A304F07F677E2012155D90809BE074
:10137B00FEA3E0C39404EE94005039E49080A6F0F1
:10138B00A3F09080A6E0FEA3E0C39440EE9400503F
:10139B00209080981208E99080A6E0A3E0F5828E59
:1013AB0083E41207609080A6E475F0011207828037
:1013BB00D17F63229080981208E990809BE0FEA376
:1013CB00E024FEFFEE34FF8F82F583120721FE909F
:1013DB0080981208E990809BE0FCA3E024FFFDECD1
:1013EB0034FF8D82F583120721FDEEEDFF9080A077
:1013FB00EEF0A3EFF09080981208E990809BE0A3A9
:10140B00E024FEFD12167A9080A2EEF0A3EFF0908E
:10141B0080A2E0FEA3E0FF9080A0E0FCA3E06F7051
:10142B0002EC6E6039E49080A6F0A3F09080A6E009
:10143B00FEA3E0C39440EE940050209080981208D5
:10144B00E99080A6E0A3E0F5828E83E4120760901A
:10145B0080A6E475F00112078280D17F6222908012
:10146B00981208E9120708FF90809D1208E9E48F93
:10147B00F01207FB9080981208E9900001120721E7
:10148B00FF90809D1208E9900002E48FF012081A79
:10149B009080981208E9900002120721FF90809D1E
:1014AB001208E9900004E48FF012081AE49080A46B
:1014BB00F0A3F090809D1208E99000041207C3FF7F
:1014CB009080A4E0FCA3E0C39FEC95F0504B908080
:1014DB00981208E99080A4E0FEA3E02403FFE43E09
:1014EB008F82F583120721FD90809D1208E9E92474
:1014FB0006F9E43AFA9080A4E0A3E025E0FFEE338E
:10150B00FEE92FF9EA3EFAE48DF01207FB9080A476
:10151B00E475F001120782809AE49080A6F0A3F0A4
:10152B009080A6E0FEA3E0C39440EE940050209080
:10153B0080981208E99080A6E0A3E0F5828E83E400
:10154B001207609080A6E475F00112078280D17FAC
:10155B0001229080ACEEF0A3EFF0A312090990806A
:10156B00ACE0A3E054019080B3F09080ACE0FEA31C
:10157B00E0FFEEC313FEEF13FF9080ACEEF0A3EF92
:10158B00F0E4F5F19080ACE0FEA3E0EEF5F2908094
:10159B00ACE0A3E0F5F375F40175F88F30FCFD902A
:1015AB0080B3E0603C9080B1E0FEA3E0D39400EE0A
:1015BB009400402D75F8839080AEE475F00112080D
:1015CB00F2120708F5FC9080AEE475F0011208F2F8
:1015DB00120708F5FDD2FE9080B174FFF5F01207EB
:1015EB008275F88F9080B1E0FEA3E0C39402EE9475
:1015FB0000404B9080AEE475F0011208F212070820
:10160B00F5FA9080AEE475F0011208F2120708F5B6
:10161B00FB9080AEE475F0011208F2120708F5FC9E
:10162B009080AEE475F0011208F2120708F5FDD2B6
:10163B00FE9080B174FF75F0FE12078280A6908039
:10164B00B1E0FEA3E04E602375F88C9080AEE4759C
:10165B00F0011208F2120708F5FA9080AEE475F06B
:10166B00011208F2120708F5FBD2FEE4F5F82290FE
:10167B0080AC1209099080AFEDF074FFA3F0A3F0DA
:10168B00E49080B6F0A3F09080AFE0FF9080B6E0DE
:10169B00FCA3E0C39FEC9400400302173F9080AC87
:1016AB001208E99080B6E0FEA3E0F5828E83120764
:1016BB0021FF9080B0E0FCA3E0FDECFEEF6DFF900E
:1016CB0080B0EEF0A3EFF0E49080B8F09080B8E03B
:1016DB00C3940850529080B0E0A3E05401FF908077
:1016EB00B4E4F0A3EFF09080B0E0FEA3E0FFEEC314
:1016FB0013FEEF13FF9080B0EEF0A3EFF09080B4E9
:10170B00E0FEA3E04E60189080B0E0FEA3E0FFEE99
:10171B0064A0FEEF6401FF9080B0EEF0A3EFF090B9
:10172B0080B8E004F080A59080B6E475F001120754
:10173B00820216929080B0E0FEA3E0EEFFA3E4F0ED
:10174B00A3EFF09080B0A3E0FEA3E0FCA3E0FDEEDE
:10175B004CFEEDFF9080B0EEF0A3EFF09080B0E088
:10176B00FEA3E0FF9080B0EEF0A3EFF09080B0E02E
:10177B00FEA3E0FF22C0E0C0F0C083C082C0D075E2
:10178B00D000C000C004C005C006C00720980302EB
:10179B001855C29890811E1208949081121208ACB1
:1017AB00908000E599F090811AE0FEA3E0EE30E71F
:1017BB000302185590811AE0FEA3E0C39440EE9407
:1017CB0000503D908000E0FF90811AE0FCA3E024E4
:1017DB00CCF58274803CF583EFF090811AE475F0C0
:1017EB000112078290811AE0FEA3E064024E701989
:1017FB009080CDE030E712780F76000876058009EF
:10180B0090811AE4F0A3F080419080CBE0FF780F39
:10181B00E6FC08E6FDC3EF9DE49C5003E004F0906A
:10182B0080CBE0FF780FE6FC08E6FDEFB5051BE487
:10183B00B5041790811AE0FEA3E0FFEE448090817F
:10184B001AF0A3EFF09080CBE4F0D007D006D005D0
:10185B00D004D000D0D0D082D083D0F0D0E0329062
:10186B0080981209099080981208E91207989080C5
:10187B009BF09080981208E99000021207C39080A9
:10188B009CF09080981208E99000041207C3E5F0D1
:10189B0090809DF09080981208E99000041207C385
:1018AB0090809EF09080981208E99000061207C372
:1018BB00E5F090809FF09080981208E99000061256
:1018CB0007C39080A0F07B017A80799B7D0612166E
:1018DB007A9080A3EEF0A3EFF09080A3E0A3E090CA
:1018EB0080A2F0A3E0FEA3E0EE9080A1F07B017A52
:1018FB0080799B7D087C00121A8F22C0E0C0F0C05B
:10190B0083C082C0D075D000C000C001C002C0032C
:10191B00C004C005C006C007C2C674FFFFFEFDFCB5
:10192B0090811E1208A0C3120870501590811E12D0
:10193B000894E47B01FAF9F812084790811E12080B
:10194B00AC74FFFFFEFDFC90811E1208A0C31208B1
:10195B0070700A90811E1208B800000000780DE626
:10196B00FE08E64E6006E61618700116D007D00684
:10197B00D005D004D003D002D001D000D0D0D0827B
:10198B00D083D0F0D0E032787FE4F6D8FD75815A61
:10199B000219D9020965E493A3F8E493A34003F673
:1019AB008001F208DFF48029E493A3F85407240C98
:1019BB00C8C333C4540F4420C8834004F456800179
:1019CB0046F6DFE4800B0102040810204080901AD9
:1019DB00E1E47E019360BCA3FF543F30E509541F43
:1019EB00FEE493A360010ECF54C025E060A840B87D
:1019FB00E493A3FAE493A3F8E493A3C8C582C8CAFB
:101A0B00C583CAF0A3C8C582C8CAC583CADFE9DECD
:101A1B00E780BE9080981208AC43C94053B7CF43C0
:101A2B00B71075D88075985053877F90809812089F
:101A3B0094E41201A3A804A905AA06AB077F007EB4
:101A4B00E07D447C4A1201061201E1C3E49FFF745E
:101A5B00049EFEE4FCFD9080981208AC90809812D6
:101A6B0008947808120881EFE48FBA9080981208D6
:101A7B0094EFE48FAAD2ACD2AF90811AF0A3F0907E
:101A8B0080CBF0229080A51209099080A8ECF0A3DE
:101A9B00EDF0C2ACE4A3F0A3F09080A8E0FEA3E0CD
:101AAB00FFA3E0FCA3E0C39FEC9E50279080A51200
:101ABB0008E99080AAE0FEA3E0F5828E831207214D
:101ACB00F5993099FDC2999080AAE475F00112073F
:101ADB008280C6D2AC22020D000044811E000000A1
:101AEB000045810D0102030405428116000142816C
:101AFB001C000441810C0044811200000000428153
:101B0B001800004180CA00020F000000C2AFC2D310
:101B1B00C2D4E4F58E75C870F59375940175950272
:101B2B00F5C9F5F875F901F5A843B830F59AF5A99B
:101B3B00F5B953C9FDD2BDD2BCD2AF22908098EE7D
:101B4B00F0A3EFF0908098E0FEA3E0FF780DA606DF
:101B5B0008A607780DE6FE08E64E70F7229080C9BE
:101B6B00EFF0C2ACE0F5993099FDC299D2AC22905E
:0F1B7B0080C8EFF0E0FF121B689080C8E0FF22E7
:00000001FF
