:1000000002002E9080D11215E0C2ACE4F598F5BA4A
:0F001000F5AA53877F9080D11215C81226382287
:030023000224DBD9
:10002B000226A9787FE4F6D8FD75818E0200750251
:10003B000103E493A3F8E493A34003F68001F208D1
:10004B00DFF48029E493A3F85407240CC8C333C40A
:10005B00540F4420C8834004F456800146F6DFE475
:10006B00800B01020408102040809000BAE47E014E
:10007B009360BCA3FF543F30E509541FFEE493A3E8
:10008B0060010ECF54C025E060A840B8E493A3FAFA
:10009B00E493A3F8E493A3C8C582C8CAC583CAF086
:1000AB00A3C8C582C8CAC583CADFE9DEE780BE0222
:1000BB000D000044815F0000000045814E010203EA
:1000CB000405428157000142815D000441814D00CE
:1000DB0044815300000000428159000041810B0014
:0C00EB00020F0000001227651227B62249
:1000F800FFFF4457494E54350200757BFF7A227939
:100108004C78227C007D007E007F501214247BFFF7
:100118007A22799C78017C807D017E007F08121408
:10012800249080091215EC000000007BFF7A2279E8
:10013800A478177C807D017E007F301214247BFF19
:100148007A2279D4787C7C007D007E007F1012149E
:1001580024E49080CBF0A3F0A3F0A3F0A3F0A3F0E5
:100168001200F07F807E257D007C00122638E49006
:100178008159F0A3F090800DF090815F1215EC008A
:1001880007A120E490800EF0A31215EC00000000F7
:10019800E4FFFEFDFC90815F1215D4C31215A47014
:1001A8002290800DE0B4011B90815BE0FEA3E04E3D
:1001B800601190815BE0A3E0FFEE448090815BF0EA
:1001C800A3EFF090815BE0FEA3E0EE20E7030208D6
:1001D800A390815BA3E0FFEE547F908013F0A3EF20
:1001E800F07B017A8079139080EAE4F0A37402F03E
:1001F8007F697E201220BBE490805FF0A3F090809E
:1002080015F0A3F0908013E0FEA3E0FFA3E0FCA3A9
:10021800E0C39FEC9E505A90805FE0FEA3E0241755
:10022800F974803EFA7B01C003C002C0017BFF7AEB
:100238002179D89080D412163D908015E0FEA3E075
:10024800240DF58274813EF583E0FF9080D7E4F0B9
:10025800A3EFF0D001D002D0031216FE90805FEE1B
:100268008FF01214C4908015E475F0011214C48044
:10027800937BFF7A2179DE9080EAE4F0A37410F092
:10028800FF7E201220BB7B017A80791790805FE087
:10029800FEA3E0FFEEC313FEEF132402FFE43E903B
:1002A80080EAF0A3EFF07F107E201220BBE490805C
:1002B80015F0A3F0908015E0FEA3E0C39430EE940F
:1002C80000501C908015E0A3E02417F58274803E4E
:1002D800F583E4F090801575F0011214C480D59070
:1002E800815F1215EC0007A1207B017A81790DC08E
:1002F80002C001908013E0FCA3E0FD7A80797B9036
:1003080080D612163DD001D002121E229080CFE472
:10031800F0A3EFF07B017A8079CF9080EAE4F0A334
:1003280004F07F717E201220BB9080CFE0FEA3E016
:1003380064014E60030207C07BFF7A2179FF908039
:10034800EAF0A37404F07F967E201220BB90807B95
:10035800E0FEA3E08EF012166C0381000103810019
:1003680002053F000305BE0004063D000506BC006B
:1003780006073B00070000086190807FE0FEA3E0CD
:10038800C39402EE94005003020526A3E0A3E0FE06
:10039800A3E0FCA3E0FDEE4CFEEDFF9080C1EEF083
:1003A800A3EFF0908089E0A3E0FEA3E0FCA3E0FDCA
:1003B800EE4CFEEDFF9080C3EEF0A3EFF090808D41
:1003C800E0A3E0FEA3E0FCA3E0FDEE4CFEEDFF9011
:1003D80080C5EEF0A3EFF0908091E0A3E0FEA3E0EB
:1003E800FCA3E0FDEE4CFEEDFF9080C7EEF0A3EF1E
:1003F800F090805DE0FEA3E064014E70147B017A0A
:100408008079C79080EAF0A304F07F647E201220F0
:10041800BB9080C3E0FEA3E0D3942DEE9400501F60
:100428009080C974C6F0A37418F07B017A8079C9EA
:100438009080EAE4F0A304F07F1D7E5A1220BB905E
:1004480080C3E0FEA3E0D3942DEE9400402A908070
:10045800C3E0A3E09484EE9403501D9080C974FC1B
:10046800F0A3E4F07B017A8079C99080EAF0A304D4
:10047800F07F1D7E5A1220BB9080C7E0FCA3E0FDF0
:10048800E4120FF0E4FBFA797A7844120E45C004BE
:10049800C005C006C0079080C5E0FCA3E0FDE412DB
:1004A8000FF0A804A905AA06AB07D007D006D00507
:1004B800D004120F4EE4FBFA79207841120F4E90C7
:1004C80080751215E07B017A8079C39080EAE4F0A8
:1004D800A304F07F817E201220BB7B017A8079C73C
:1004E8009080EAE4F0A304F07F837E201220BB7B97
:1004F800017A8079C19080EAE4F0A37402F07F0762
:100508007E201220BB7B017A8079759080EAE4F026
:10051800A37402F07F157E211220BB0208617BFFC5
:100528007A2279079080EAE4F0A37406F07F967E39
:10053800201220BB02086190807FE0FEA3E0C394F4
:1005480002EE94005003020861A3E0A3E0FEA3E0DA
:10055800FCA3E0FDEE4CFEEDFF908079EEF0A3EFFA
:10056800F0908079E0FEA3E0EE30E70E908079A36A
:10057800E0FF908079EEF0A3EFF0908079E0FCA3A3
:10058800E0FDE4120FF0E4FBFA79207841120F4EF7
:100598009080651215E07B017A8079659080EAE4A5
:1005A800F0A37402F07F857E201220BBE49080794E
:1005B800F0A3F002086190807FE0FEA3E0C39402FC
:1005C800EE94005003020861A3E0A3E0FEA3E0FC60
:1005D800A3E0FDEE4CFEEDFF908079EEF0A3EFF086
:1005E800908079E0FEA3E0EE30E70E908079A3E0FA
:1005F800FF908079EEF0A3EFF0908079E0FCA3E023
:10060800FDE4120FF0E4FBFA79207841120F4E90C6
:1006180080691215E07B017A8079699080EAE4F0BC
:10062800A37402F07F877E201220BBE4908079F0CB
:10063800A3F002086190807FE0FEA3E0C39402EE7D
:1006480094005003020861A3E0A3E0FEA3E0FCA32A
:10065800E0FDEE4CFEEDFF908079EEF0A3EFF09018
:100668008079E0FEA3E0EE30E70E908079A3E0FF0A
:10067800908079EEF0A3EFF0908079E0FCA3E0FDA4
:10068800E4120FF0E4FBFA79207841120F4E9080C3
:100698006D1215E07B017A80796D9080EAE4F0A311
:1006A8007402F07F897E201220BBE4908079F0A349
:1006B800F002086190807FE0FEA3E0C39402EE940C
:1006C800005003020861A3E0A3E0FEA3E0FCA3E05E
:1006D800FDEE4CFEEDFF908079EEF0A3EFF09080F8
:1006E80079E0FEA3E0EE30E70E908079A3E0FF907A
:1006F8008079EEF0A3EFF0908079E0FCA3E0FDE4D0
:10070800120FF0E4FBFA79207841120F4E908071B5
:100718001215E07B017A8079719080EAE4F0A37485
:1007280002F07F917E201220BBE4908079F0A3F044
:1007380002086190807FE0FEA3E0C39402EE94007B
:100748005003020861A3E0A3E0FEA3E0FCA3E0FDE0
:10075800EE4CFEEDFF908079EEF0A3EFF0908079FB
:10076800E0FEA3E0EE30E70E908079A3E0FF9080F2
:1007780079EEF0A3EFF0908079E0FCA3E0FDE412BD
:100788000FF0E4FBFA79207841120F4E9080611245
:1007980015E07B017A8079619080EAE4F0A3740225
:1007A800F07F057E201220BBE4908079F0A3F00250
:1007B80008610208610208619080CFE0FEA3E0644E
:1007C800634E702E7BFF7A2279119080EAF0A37431
:1007D80004F07F967E201220BB7F147E001227959E
:1007E800E490815BF0A3F07F807E25FDFC1200037E
:1007F80080679080CFE0FEA3E064624E702E7BFF9E
:100808007A2279199080EAF0A37404F07F967E200A
:100818001220BB7F147E00122795E490815BF0A321
:10082800F07F807E25FDFC120003802D7BFF7A225D
:1008380079219080EAE4F0A37404F07F967E201278
:1008480020BB7F147E00122795E490815BF0A3F013
:100858007F807E25FDFC120003E490815BF0A3F00D
:10086800908013F0A3F0A3F0A3F0908015E0FEA30E
:10087800E0C39440EE9400501C908015E0A3E0245F
:100888000DF58274813EF583E4F090801575F001D2
:100898001214C480D590810B7401F090800DE06033
:1008A80003020D50908159E0FEA3E0C39408EE9432
:1008B800004007E4908159F0A3F07F0F7E001227D3
:1008C80095908159E0A3E075F00AA42422F9E4FA8E
:1008D800FB78727C00FDFE7F0A1214247B017A816A
:1008E80079599080EAE4F0A304F07F007E2012207A
:1008F800BB7874E608E6788EF67B007A0079749007
:1009080080EAE4F0A304F0FF7E201220BB7B007A8B
:100918000079769080EAE4F0A304F07F027E20124A
:1009280020BB788EE6B403187878E6FE08E625E062
:10093800FFEE33FEEF2405FFE43E780FF608A60726
:10094800788EE6B41007780F7600087608788EE679
:10095800B40507780F7600087608788EE6B406079F
:10096800780F7600087608788EE6B40F07780F7649
:10097800000876087B007A00790F9080EAE4F0A3FB
:100988007402F07F037E201220BB7B007A0079720C
:100998009080EAE4F0A304F07F047E201220BB904C
:1009A80080091215EC0002710090800D7401F0E4CA
:1009B800788CF608F6FB7A00798C9080D6F0A30440
:1009C800F07F797E201223EA7B017A807947908034
:1009D800D6E4F0A304F07F647E201223EA7B017A38
:1009E8008079C19080D6E4F0A304F07F737E201252
:1009F80023EA9080C5E0FEA3E0FF908047E0FCA3D7
:100A0800E0C39FEC9E400E9080C5E0A3E090804735
:100A1800EEF0A3EFF0908047E0FEA3E0FF787CA61D
:100A28000608A607908047E0FEA3E0FF08A6060890
:100A3800A607908047E0FEA3E0FF08A60608A607E1
:100A4800908047E0FEA3E0FF08A60608A60790806E
:100A5800C1E0FEA3E0FF08A60608A607788CE60812
:100A6800E65402FF908049E4F0A3EFF018E608E6A8
:100A78005404FFA3E4F0A3EFF018E608E65408FFD7
:100A8800A3E4F0A3EFF018E608E65410FFA3E4F09F
:100A9800A3EFF018E608E65420FF90805DE4F0A389
:100AA800EFF018E608E65440FF908059E4F0A3EF11
:100AB800F0908049E0FEA3E0FFEEC313EF1354016A
:100AC800FF908051E4F0A3EFF090804BE0FEA3E0AC
:100AD8007802CEC313CE13D8F95401FF908053E4A3
:100AE800F0A3EFF090804DE0FEA3E07803CEC313AF
:100AF800CE13D8F95401FF908055E4F0A3EFF0909D
:100B0800804FE0FEA3E0FFEEC4F854F0C868EFC4DD
:100B1800540F485401FF908057E4F0A3EFF0A3E08E
:100B2800FEA3E07806CEC313CE13D8F95401FF9084
:100B3800805BE4F0A3EFF07B017A8079519080EA42
:100B4800E4F0A304F07F057E211220BB7B017A80AC
:100B580079539080EAE4F0A304F07F077E21122005
:100B6800BB7B017A8079559080EAE4F0A304F07F9A
:100B7800097E211220BB7B017A8079579080EAE4B4
:100B8800F0A304F07F117E211220BB7B017A8079CB
:100B98005B9080EAE4F0A304F07F137E211220BB6F
:100BA80090805BE0FEA3E064014E701F90800EE031
:100BB80070197824F608760508F608F60876FF080E
:100BC800F604F0A31215EC0000000090805BE0FE34
:100BD800A3E064014E703A90800EE0B401337FA028
:100BE8007EBB7D0D7C00A31215D4C31215A4402131
:100BF800782476000876050876000876010876FFDE
:100C080008760090800E7401F0A31215EC00000025
:100C18000090805BE0FEA3E04E70207824F6087612
:100C28000F08F608F608F608760808760108F69020
:100C3800800EF0A31215EC00000000788CE608E6A0
:100C4800540118760008F67B007A00798A18E608BD
:100C5800E69080D5F0E4FD1225C37B007A00798AFE
:100C6800908049E0A3E09080D5F07D011225C37BF8
:100C7800007A00798A90804BE0A3E09080D5F07DDF
:100C8800021225C37B007A00798A90804DE0A3E0A8
:100C98009080D5F07D031225C37B007A00798A9075
:100CA800804FE0A3E09080D5F07D041225C37B003F
:100CB8007A00798A90805DE0A3E09080D5F07D0588
:100CC8001225C37B007A00798A908059E0A3E090CE
:100CD80080D5F07D061225C390805DE0FEA3E07804
:100CE80005CEC313CE13D8F95401FF90805DE4F00C
:100CF800A3EFF07B007A00798C9080EAE4F0A304FB
:100D0800F07F757E201220BB7B017A80795D908010
:100D1800EAE4F0A304F07F607E201220BB7B007A17
:100D2800007972C002C0017A00797C9080D41216D2
:100D38003D9080D77408F0D001D002121B1C90811E
:100D48005F1215EC0007A1209080091215C874FFE6
:100D5800FBFAF9F81215899080091215E090800FB6
:100D68001215C8E47B01FAF9F812158990800F1260
:100D780015E090800DE06401600302019890810BFA
:100D8800E0B4013D7BFF7A2279289080EAE4F0A361
:100D98007409F07F427E201220BB908159E475F0DF
:100DA800011214C4E490800DF090810BF09080093A
:100DB8001215EC0002710090815F1215EC0007A17A
:100DC80020E4FFFEFDFC9080091215D4C31215A47F
:100DD80060030201987BFF7A22793A9080EAF0A3B7
:100DE8007409F07F427E201220BBE4908015F0A3A6
:100DF800F0908015E0FEA3E0C39430EE9400501C00
:100E0800908015E0A3E02417F58274803EF583E412
:100E1800F090801575F0011214C480D5908159E4C2
:100E280075F0011214C4E490800DF090810BF090DD
:100E3800815F1215EC0007A12002019822EC4D6099
:100E480011E8497017ED33EC3304600DE4FCFFFE44
:100E5800FD22E933E8330470F80210951210605847
:100E6800046009E4CC2481500628500902109F2808
:100E7800400302109CC0E0EB4A7044B98006D0E001
:100E8800FB02108BEF4E701CBD8008EBFFEAFEE9F9
:100E9800FD80EBE98DF0A4FEE5F0020F2EE9CDF917
:100EA800EAFEEBFFEF89F0A4FCE5F0CE89F0A42E72
:100EB800FFE435F0CD89F0A42DFEE435F08067EF2E
:100EC8004E7005BD80D780C3EF8BF0A4ACF0EE8BDD
:100ED800F0A42CFCE435F0F8EF8AF0A42CE5F03807
:100EE800FCE433CB8DF0A42CFCE5F03BF8EE8AF063
:100EF800A42CFCE5F038F8E433CF89F0A42CFCE509
:100F0800F038CF3400CE89F0A42FFFE5F03EFEE4A0
:100F180033C98DF0A42EFEE5F039CD8AF0A42FFF59
:100F2800E5F03EFEE43DFD33D0E0FB50070BBB008F
:100F38000F02109FEC2CFCEF33FFEE33FEED33FD78
:100F480002107702109FEC5D046005E859047003F5
:100F5800021095121060580460F6EC4860F2EC70CC
:100F680004FDFEFF22C860DB2481C85009C39860D5
:100F780002500602109C9850CAF582E9294B4A7023
:100F880005AB8202108B75F0007C1A7880C3EF9B4A
:100F9800EE9AED99400DC3EF9BFFEE9AFEED99FD99
:100FA800E842F0DC23ACF0D0E0FFD0E0FED0E0FD7A
:100FB800AB8220E7101BEB60BAEC2CFCEF33FFEEA2
:100FC80033FEED33FD021077E803F830E705C0F093
:100FD80075F000EF2FFFEE33FEED33FD40B830E73C
:100FE800C280AA75F020800E75F010800575F00893
:100FF8007D007E007F003392D530D503121596EC24
:10100800334010EF33FFEE33FEED33FDEC33FCD508
:10101800F0ED22E5F0247EA2D513CC92E7CDCEFFE9
:1010280022EDD2E7CD33EC3392D524814006E4FF9C
:10103800FEFDFC22FCE4CFCECDCC24E0501174FFA1
:1010480080EDC3CC13CCCD13CDCE13CECF13CF04AC
:1010580070F030D5DE021596E9D2E7C933E833F8E7
:1010680092D5EDD2E7CD33EC33FC5002B2D522EC69
:1010780030E7100FBF000C0EBE00080DBD00040BBA
:10108800EB6014A2D5EB13FCED92E7FD2274FFFC94
:10109800FDFEFF22E480F8A2D574FF13FC7D80E4F6
:1010A80080EFF920E73624F950037907E4F42402A5
:1010B800FBE582158270021583DBF6E024FB501BEA
:1010C800E96014E4F0E582158270021583E004F00B
:1010D800B40A08E4F0D9EE7401F00A22C2D522ED70
:1010E80033EC3392D5FA602AB4FF33EDC2E77BFFC5
:1010F80060067A11790CE4227A11791520D5047AE0
:10110800117910224E614E002B494E46002D494E52
:101118004600E47A08F0A3DAFC7B00740722C08357
:10112800C082ECC0E0EDC0E0EEC0E0EFC0E0EA75E0
:10113800F010A4CAABF075F04DA42BFBE435F0FC1D
:10114800EA2410FAEB34C5FBEC34D9FCEDC2E7FF16
:1011580075F056A4F42411C5F0F434C58FF0A42A10
:10116800E5F03BE43CF020E714121314D0E0FFD084
:10117800E0FED0E0FDD0E0FC120F4E8014F4041223
:101188001314D0E0FFD0E0FED0E0FDD0E0FC120E5A
:1011980045D082D083E0FAEDD2E7CD33EC33248218
:1011A800FBE4C3CF33CFCE33CECD33CD33DBF37BAC
:1011B8000775F00A846004F0A31B0AE5F0F0A38F1A
:1011C800F0740AA4FFACF08EF0740AA42CFEACF004
:1011D80050010C8DF0740AA42CFDE435F0F0A3DB6B
:1011E800DE740722021095E86480F8E933E833607A
:1011F800110460F0ED33EC337009E8FCE9FDEAFE18
:10120800EBFF220460DED3EB9FEA9EE99DE8C2E78C
:101218008CF0C2F795F0400CE8CCF8E9CDF9EACEAD
:10122800FAEBCFFB12106085D0F05804700320D57C
:10123800B3E80470075002B2D502109F92D5EC04AF
:1012480060F7E4CCC0E0C398F8603B9418600840AD
:101258000DD0E0FB021077E4FBFAC9FC8028E830E7
:10126800E406E4C9FBE4CAFCE830E305E4C9CACBF8
:10127800FCE854076010F8C3E913F9EA13FAEB1312
:10128800FBEC13FCD8F130F52FC3E49CFCEF9BFF7B
:10129800EE9AFEED99FDD0E0FBEF4E4D4C70122218
:1012A800DB0302109CEC2CFCEF33FFEE33FEED3336
:1012B800FDED30E7EB021077EF2BFFEE3AFEED394C
:1012C800FDD0E0FB50130BBB000302109FED13FD94
:1012D800EE13FEEF13FFEC13FC0210773F800000C3
:1012E8004120000042C80000447A0000461C40002B
:1012F80047C35000497424004B1896804CBEBC204C
:101308005A0E1BCA6753C21C749DC5AEFB600654B7
:1013180007601C2323121342EB5438600912132E62
:1013280012133D120E45ECF8EDF9EEFAEFCB22EB75
:1013380012133D80F1543803241C9012E4FE93FCF0
:101348000EEE93FD0EEE930ECE93FF22E709F608FC
:10135800DFFA8046E709F208DFFA803E88828C834C
:10136800E709F0A3DFFA8032E309F608DFFA8078AC
:10137800E309F208DFFA807088828C83E309F0A31E
:10138800DFFA806489828A83E0A3F608DFFA80584E
:1013980089828A83E0A3F208DFFA804C80D280FA3F
:1013A80080C680D4806980F28033801080A680EA6D
:1013B800809A80A880DA80E280CA803389828A8312
:1013C800ECFAE493A3C8C582C8CCC583CCF0A3C803
:1013D800C582C8CCC583CCDFE9DEE7800D89828A67
:1013E80083E493A3F608DFF9ECFAA9F0EDFB228970
:1013F800828A83ECFAE0A3C8C582C8CCC583CCF046
:10140800A3C8C582C8CCC583CCDFEADEE880DB8907
:10141800828A83E493A3F208DFF980CC88F0EF6036
:10142800010E4E60C388F0ED2402B4040050B9F5F3
:1014380082EB2402B4040050AF2323458223901387
:10144800A473BB010689828A83E0225002E722BB8B
:10145800FE02E32289828A83E49322BB010CE5829F
:1014680029F582E5833AF583E0225006E92582F8DA
:10147800E622BBFE06E92582F8E222E58229F5820A
:10148800E5833AF583E49322BB010689828A83F0D7
:10149800225002F722BBFE01F322F8BB010DE582C0
:1014A80029F582E5833AF583E8F0225006E925829A
:1014B800C8F622BBFE05E92582C8F222C5F0F8A3CA
:1014C800E028F0C5F0F8E582158270021583E0384F
:1014D800F022BB010A89828A83E0F5F0A3E022505A
:1014E8000687F009E71922BBFE07E3F5F009E319BF
:1014F8002289828A83E493F5F074019322BB011058
:10150800E58229F582E5833AF583E0F5F0A3E02248
:101518005009E92582F886F008E622BBFE0AE9258B
:1015280082F8E2F5F008E222E5832AF583E993F5EB
:10153800F0A3E99322BB010A89828A83F0E5F0A32C
:10154800F0225006F709A7F01922BBFE06F3E5F0D2
:1015580009F31922F8BB0111E58229F582E5833ADE
:10156800F583E8F0E5F0A3F0225009E92582C8F6F2
:1015780008A6F022BBFE09E92582C8F2E5F008F2C8
:1015880022EF2BFFEE3AFEED39FDEC38FC22C3E4E6
:101598009FFFE49EFEE49DFDE49CFC22EB9FF5F09A
:1015A800EA9E42F0E99D42F0E89C45F022E8600F8F
:1015B800ECC313FCED13FDEE13FEEF13FFD8F1227D
:1015C800E0FCA3E0FDA3E0FEA3E0FF22E0F8A3E037
:1015D800F9A3E0FAA3E0FB22ECF0A3EDF0A3EEF010
:1015E800A3EFF022A8828583F0D083D0821216035D
:1015F800121603121603121603E473E493A3C583A9
:10160800C5F0C583C8C582C8F0A3C583C5F0C58326
:10161800C8C582C822E0FBA3E0FAA3E0F922F8E0FB
:10162800FBA3A3E0F925F0F0E5821582700215838B
:10163800E0FA38F022EBF0A3EAF0A3E9F022D08335
:10164800D082F8E4937012740193700DA3A393F8F9
:10165800740193F5828883E4737402936860EFA33E
:10166800A3A380DFD083D082F8E49370127401932F
:10167800700DA3A393F8740193F5828883E47374BF
:101688000293B5F0067403936860E9A3A3A3A3804B
:10169800D8E50824D4F582E43480F583E0050822EF
:1016A8009080D13007039080D4E475F0011216269B
:1016B80002144A2000E97F2ED2008018EF540F242C
:1016C80090D43440D4FF30040BEF24BFB41A005038
:1016D800032461FFE50960021509050CE50C700299
:1016E800050B30070E9080D1E475F001121626EF35
:1016F8000214900227DE7403D2078003E4C207F5C0
:10170800089080D112163DE4F509F50BF50CE509B2
:1017180060077F201216DC80F5750AFFC201C2003F
:10172800C202C203C205C206C2081216A8FF700D83
:101738003007057F001216EDAF0CAE0B22B4255F03
:10174800C2D5C2041216A8FF24D0B40A00501A75D4
:10175800F00A780930D50508B6FF0106C6A426F6B2
:1017680020D5047002D20380D924CFB41A00EF50D8
:1017780004C2E5D2040219DFD20180C6D20080C0BB
:10178800D20280BCD2D580BAD20580B47F2012168E
:10179800DC2002077401B5090040F1121699FF1206
:1017A80016DC021716D208D2068095121699FB127B
:1017B8001699FA121699F94A4B700679DD7A1A7B4E
:1017C800FF20022EE509602A7E008E8275830012B2
:1017D800146360060EEE650A70F0C2D5EBC0E0EA4D
:1017E800C0E0E9C0E0EE121A40D0E0F9D0E0FAD04B
:1017F800E0FB12144AFF60AAEBC0E0EAC0E0E9C0CF
:10180800E01216DCD0E02401F9D0E03400FAD0E090
:10181800FBE50A0460DCD50AD98087D20280A212CF
:101828001A2260F7E50A7001041210AAA90A600DCD
:10183800E50A600914F50A121ACAEF60F3EA30E7FC
:1018480002F404C3995079EAF4250A0430E701E464
:1018580004F50A800D121A2260C1EA050A250A1247
:1018680010AAEA908100F030E701E4250A04D50ABD
:101878000420050114121A40E4C0E0121ACA90812B
:1018880000E0601320E70714F01216C4802204F069
:10189800D0E014C0E07F001216C4E50A60071216F3
:1018A800BB150A800B3005031216BBD0E0021716D1
:1018B800D0E00480C4121A22609EE50A041210AA1D
:1018C800908100EAF0E50A20050260010424041270
:1018D8001A4074FF04C0E0121ACA1216C4E50A209E
:1018E800050260031216BBD0E0B50AE87F45121660
:1018F800CE908100E07F2B30E7047F2DF404C0E018
:101908001216DCD0E075F00A84C0F01216C5D0E0DB
:101918001216C5021716791080027908C206C20885
:101928008008D2D5790A8004790AC2D5E50A0470FC
:1019380002F50AE4FAFDFEFF121699FC7B08200165
:1019480013121699FD7B1030000A121699FE121612
:1019580099FF7B20EC3382D592D55013C3E4300035
:10196800069FFFE49EFEE42001039DFDE49CFCE449
:10197800CBF8C201EC700CCFCECDCCE824F8F870CF
:10198800F38017C3EF33FFEE33FEED33FDEC33FC8A
:10199800EB33FB994002FB0FD8E9EB300105F8D097
:1019A800E0C448B201C0E00AEC4D4E4F78207B00FD
:1019B80070C2EAB50A0040BCC0E0121A42D0F0D0AA
:1019C800E0200104C4C0E0C4B201C0F01216C5D0C2
:1019D800F0D5F0EB02171612164617B353191E5816
:1019E80017844C17804219224F192A44192A49177B
:1019F8009943193055185D4618BD451827471AFDF3
:101A08005017882D178C2E17AF2B17902317AD2042
:101A18001AE62A174848000017A7E50AB4FF037515
:101A28000A06121699FC121699FD121699FE12163C
:101A380099FF9080F90210E7790AA2D520031430A3
:101A48000509B910020404B9080104A2D520060248
:101A58005001042002689202B509005034C0E07FAA
:101A6800203003197F30A20272067205500F121A35
:101A780099C202C206C205C2087F30800F30050332
:101A8800E9C0E01216DC300503D0E0F9D0E0B50972
:101A9800CC3005177F30B9100C1216DC7F58300493
:101AA800077F788003B908031216DC3002057F2D02
:101AB8000216DC7F202008F87F2B2006F3229202F2
:101AC80080CF7F00B40700500B24F9F582E43480FE
:101AD800F583E0FF22286E756C6C2900D20112167E
:101AE800993001F8C201780930D50108F602174883
:101AF8002D504349581216992403B405004001E4B7
:101B0800901AF8931216CD743A1216CDD2037509AD
:101B18000402191E9080D112163D9080D112161D14
:101B28001214DA9080D8F09080D112161D9000021D
:101B38001215059080D9F09080D112161D900002E0
:101B4800121505640345F0704A9080D112161D9055
:101B58000004121505E5F09080DAF09080D1121695
:101B68001D9000041215059080DBF09080D11216AC
:101B78001D900006121505E5F09080DCF09080D1EC
:101B880012161D9000061215059080DDF09080FC5D
:101B98007406F09080D112161D900002121505648B
:101BA8000545F0704A9080D112161D900004121558
:101BB80005E5F09080DAF09080D112161D900004AF
:101BC8001215059080DBF09080D112161D9000064A
:101BD800121505E5F09080DCF09080D112161D906A
:101BE80000061215059080DDF09080FC7406F090D8
:101BF80080D112161D900002121505640645F0707A
:101C08004A9080D112161D900004121505E5F09037
:101C180080DAF09080D112161D90000412150590FC
:101C280080DBF09080D412161D90000C121505E58B
:101C3800F09080DCF09080D412161D90000E1215E2
:101C4800059080DDF09080FC7406F09080D112162B
:101C58001D900002121505640F45F0706F9080D139
:101C680012161D900004121505E5F09080DAF09028
:101C780080D112161D9000041215059080DBF0909B
:101C880080D112161D900006121505E5F09080DC33
:101C9800F09080D112161D9000061215059080DD77
:101CA800F09080D112161D900008121505E5F090ED
:101CB80080DEF09080D112161D9000081215059054
:101CC80080DFF09080FC7408F0021DC99080D1126A
:101CD800161D900002121505641045F06003021DE0
:101CE800C99080D7E025E09080FDF09080D1121651
:101CF8001D900004121505E5F09080DAF09080D16F
:101D080012161D9000041215059080DBF09080D704
:101D1800E0E49080DCF09080D7E09080DDF0908067
:101D2800FDE09080DEF0E49080FAF0A3F09080D798
:101D3800E0FF9080FAE0FCA3E0C39FEC94005077AA
:101D48009080FAE0FEA3E025E0FFEE33FE9080D419
:101D580012161D8F828E83121505E5F0FD9080FA0C
:101D6800E0FEA3E025E0FFEE33FE74DF2FF582747A
:101D7800803EF583EDF09080FAE0FEA3E025E0FFD9
:101D8800EE33FE9080D412161D8F828E83121505B5
:101D9800FD9080FAE0FEA3E025E0FFEE33FE74E05C
:101DA8002FF58274803EF583EDF09080FAE475F0AB
:101DB800011214C4021D359080FDE024079080FCB8
:101DC800F07B017A8079D89080FCE0FD1222E490C3
:101DD80080F8EEF0A3EFF09080F8E0A3E0FF9080A9
:101DE800FCE024D9F582E43480F583EFF09080F8A4
:101DF800E0FEA3E0EEFF9080FCE024D8F582E43416
:101E080080F583EFF09080FCE02402F07B017A807B
:101E180079D8E0FD7C00122713229080D112163D5C
:101E28009080D4ECF0A3EDF09080D112161D12141E
:101E38004AFF9080E1E4F0A3EFF09080D112161DE4
:101E4800900001121463FF9080E3E4F0A3EFF07BAD
:101E5800017A8079E19080EAE4F0A304F07F657E5E
:101E6800201220BB7B017A8079E39080EAE4F0A31A
:101E780004F07F677E201220BB9080D4E0FEA3E0B0
:101E8800C39404EE94005039E49080DFF0A3F090FE
:101E980080DFE0FEA3E0C39440EE940050209080E1
:101EA800D112161D9080DFE0A3E0F5828E83E41244
:101EB80014A29080DFE475F0011214C480D17F630E
:101EC800229080D112161D9080D4E0FEA3E024FE5B
:101ED800FFEE34FF8F82F583121463FE9080D112D7
:101EE800161D9080D4E0FCA3E024FFFDEC34FF8DA8
:101EF80082F583121463FDEEEDFF9080D9EEF0A316
:101F0800EFF09080D112161D9080D4E0A3E024FE5B
:101F1800FD1222E49080DBEEF0A3EFF09080DBE08E
:101F2800FEA3E0FF9080D9E0FCA3E06F7002EC6EA6
:101F38006039E49080DFF0A3F09080DFE0FEA3E05A
:101F4800C39440EE940050209080D112161D9080CA
:101F5800DFE0A3E0F5828E83E41214A29080DFE430
:101F680075F0011214C480D17F62229080D11216BC
:101F78001D12144AFF9080D612161DE48FF0121518
:101F88003D9080D112161D900001121463FF9080BD
:101F9800D612161D900002E48FF012155C9080D6C0
:101FA80012161D900002121505640345F060030225
:101FB800207C9080D112161D900002121463FF90AD
:101FC80080D612161D900004E48FF012155CE49080
:101FD80080DDF0A3F09080D612161D900004121533
:101FE80005FF9080DDE0FCA3E0C39FEC95F0504B2B
:101FF8009080D112161D9080DDE0FEA3E02403FF3F
:10200800E43E8F82F583121463FD9080D612161D6C
:10201800E92406F9E43AFA9080DDE0A3E025E0FF40
:10202800EE33FEE92FF9EA3EFAE48DF012153D9001
:1020380080DDE475F0011214C4809AE49080DFF02A
:10204800A3F09080DFE0FEA3E0C39440EE9400503C
:10205800209080D112161D9080DFE0A3E0F5828EDB
:1020680083E41214A29080DFE475F0011214C48096
:10207800D17F01229080D612161D900002121505FC
:10208800640545F070037F01229080D612161D90DA
:102098000002121505641045F070037F012290803C
:1020A800D612161D900002121505640F45F0700235
:1020B8007F01229080E5EEF0A3EFF0A312163D9089
:1020C80080E5E0A3E054019080ECF09080E5E0FE2C
:1020D800A3E0FFEEC313FEEF13FF9080E5EEF0A33D
:1020E800EFF0E4F5F19080E5E0FEA3E0EEF5F29084
:1020F80080E5E0A3E0F5F375F40175F88F30FCFD99
:102108009080ECE0603C9080EAE0FEA3E0D394008D
:10211800EE9400402D75F8839080E7E475F0011285
:10212800162612144AF5FC9080E7E475F0011216A1
:102138002612144AF5FDD2FE9080EA74FFF5F012DB
:1021480014C475F88F9080EAE0FEA3E0C39402EE11
:102158009400404B9080E7E475F0011216261214A3
:102168004AF5FA9080E7E475F00112162612144A2F
:10217800F5FB9080E7E475F00112162612144AF573
:10218800FC9080E7E475F00112162612144AF5FD5A
:10219800D2FE9080EA74FF75F0FE1214C480A690F7
:1021A80080EAE0FEA3E04E602375F88C9080E7E4B7
:1021B80075F00112162612144AF5FA9080E7E475B4
:1021C800F00112162612144AF5FBD2FEE4F5F822A5
:1021D80025303258200020202020202020202020B8
:1021E80020202020202020202020202020202020E7
:1021F800202020202020004F4B202020200A0044AF
:102208004154415F4552520A004C656E6768740A32
:10221800004352432020200A004552524F520A00E0
:10222800526563656976656420202020202020207F
:102238000A0054696D656F757420202020202020C5
:1022480020200A0000010005000000000000000234
:10225800000300000006000000020010000000015A
:102268000000000300030000000100000004000358
:10227800000000010000000500030000000100004C
:102288000006000300000001000000070003000032
:102298000001000000000000000000000000000035
:1022A8000000000000000000000000000000000026
:1022B8000000000000000000000000000000000016
:1022C8000000000000000000000000000000000006
:1022D8000000000000000000000000009080FE12D6
:1022E800163D908101EDF074FFA3F0A3F0E4908116
:1022F80008F0A3F0908101E0FF908108E0FCA3E0E2
:10230800C39FEC940040030223A99080FE12161D7F
:10231800908108E0FEA3E0F5828E83121463FF909B
:102328008102E0FCA3E0FDECFEEF6DFF908102EE80
:10233800F0A3EFF0E490810AF090810AE0C39408DA
:102348005052908102E0A3E05401FF908106E4F02E
:10235800A3EFF0908102E0FEA3E0FFEEC313FEEFCF
:1023680013FF908102EEF0A3EFF0908106E0FEA348
:10237800E04E6018908102E0FEA3E0FFEE64A0FE4C
:10238800EF6401FF908102EEF0A3EFF090810AE084
:1023980004F080A5908108E475F0011214C40222AB
:1023A800FC908102E0FEA3E0EEFFA3E4F0A3EFF0CF
:1023B800908102A3E0FEA3E0FCA3E0FDEE4CFEED5D
:1023C800FF908102EEF0A3EFF0908102E0FEA3E01F
:1023D800FF908102EEF0A3EFF0908102E0FEA3E00F
:1023E800FF229080D1EEF0A3EFF0A312163D90806B
:1023F800D1E0A3E054019080D8F09080D1E0FEA312
:10240800E0FFEEC313FEEF13FF9080D1EEF0A3EFD1
:10241800F0E4F5F19080D1E0FEA3E0EEF5F29080D3
:10242800D1E0A3E0F5F375F40175F8AF30FCFD9049
:1024380080D6E0FEA3E0D39400EE9400500302247B
:10244800D7D2FE20FEFD9080D8E0703D9080D6E087
:10245800FEA3E0D39400EE9400402E9080D3E47560
:10246800F001121626E5FA1214909080D3E475F064
:1024780001121626E5FB1214909080D87401F09092
:1024880080D674FFF5F01214C49080D8E0B4019F90
:102498009080D6E0FEA3E0D39400EE9400409090A4
:1024A80080D3E475F001121626E5FC121490908092
:1024B800D3E475F001121626E5FD121490E490801D
:1024C800D8F09080D674FFF5F01214C4022437E4D3
:1024D800F5F822C0E0C0F0C083C082C0D075D0003B
:1024E800C000C004C005C006C0072098030225AE7E
:1024F800C29890815F1215EC0007A120908000E53A
:1025080099F090815BE0FEA3E0EE30E7030225AE90
:1025180090815BE0FEA3E0C39440EE9400503D90B0
:102528008000E0FF90815BE0FCA3E0240DF582745D
:10253800813CF583EFF090815BE475F0011214C4DF
:1025480090815BE0FEA3E064024E701990810EE07A
:1025580030E712780F7600087605800990815BE4F1
:10256800F0A3F0804190810CE0FF780FE6FC08E6CC
:10257800FDC3EF9DE49C5003E004F090810CE0FF64
:10258800780FE6FC08E6FDEFB5051BE4B5041790E7
:10259800815BE0FEA3E0FFEE448090815BF0A3EF57
:1025A800F090810CE4F0D007D006D005D004D0001C
:1025B800D0D0D082D083D0F0D0E0329080D1121623
:1025C8003D9080D4EDF0E0C394105063A3E0602FF9
:1025D8009080D112161D1214DAFDACF09080D4E070
:1025E800FF74017E00A807088005C333CE33CED818
:1025F800F9FFEC4EFEED4FFFEE8FF012153D2290E5
:1026080080D112161D1214DAFDACF09080D4E0FFD0
:1026180074017E00A807088005C333CE33CED8F9ED
:10262800F4FFEEF45CFEED5FFFEE8FF012153D2235
:102638009080D51215E043C94053B7CF43B7107502
:10264800D88075985053877F9080D51215C8E412AA
:102658000FEBA804A905AA06AB077F007EE07D441E
:102668007C4A120F4E121029C3E49FFF74049EFE89
:10267800E4FCFD9080D51215E09080D51215C8783D
:10268800081215B5EFE48FBA9080D51215C8EFE49B
:102698008FAAD2ACD2AF90815BF0A3F090810CF0FE
:1026A80022C0E0C0F0C083C082C0D075D000C00096
:1026B800C001C002C003C004C005C006C007C2C62E
:1026C80090815F1215C8EC4D4E4F601590815F12D6
:1026D80015C874FFFBFAF9F812158990815F121575
:1026E800E0780DE6FE08E64E6006E616187001165C
:1026F800D007D006D005D004D003D002D001D00036
:10270800D0D0D082D083D0F0D0E0329080FE1216A4
:102718003D908101ECF0A3EDF0C2ACE4A3F0A3F08E
:10272800908101E0FEA3E0FFA3E0FCA3E0C39FECDF
:102738009E50279080FE12161D908103E0FEA3E0B4
:10274800F5828E83121463F5993099FDC2999081B0
:1027580003E475F0011214C480C6D2AC22C2AFC221
:10276800D3C2D4E4F58E75C870F593759401759548
:1027780002F5C9F5F875F901F5A843B830F59AF5E9
:10278800A9F5B953C9FDD2BDD2BCD2AF229080D130
:10279800EEF0A3EFF09080D1E0FEA3E0FF780DA665
:1027A8000608A607780DE6FE08E64E70F72275C8FB
:1027B80070E4F5CDF5CC75CBBC75CACD43A820D255
:1027C800C8D2AF22908102EFF0C2ACE0F5993099FF
:1027D800FDC299D2AC22908101EFF0E0FF1227CC24
:0627E800908101E0FF22D8
:00000001FF
