:1000000002169875C870E4F5CDF5CC75CBBC75CAF1
:10001000CD43A820D2C8D2AF221217E71200032284
:0300230002002EAA
:10002B0002160CC0E0C0F0C083C082C0D075D000F7
:10003B00C000C004C005C006C0072098030200DA48
:10004B00C298908000E599F0908102E0FEA3E0EE6B
:10005B0020E77C908102E0FEA3E0C39440EE940085
:10006B00501F908000E0FF908102E475F0011207B1
:10007B0076FC74B825F0F58274803CF583EFF08044
:10008B0009908102E4F0A3F080459080B7E0FF78FF
:10009B000FE6FC08E6FDC3EF9DE49C5003E004F083
:1000AB009080B7E0FF780FE6FC08E6FDEFB5051F83
:1000BB00E4B5041B908102E0FEA3E0FFEE448090C8
:1000CB008102F0A3EFF09080B67401F0A3E4F0D0BE
:1000DB0007D006D005D004D000D0D0D082D083D0AA
:0400EB00F0D0E0323F
:1000F800FFFF4457494E54350216DF020257EC5DA4
:10010800046005E85904700302024D1202185804ED
:1001180060F6EC4860F2EC7004FDFEFF22C860DB7C
:100128002481C85009C398600250060202549850AE
:10013800CAF582E9294B4A7005AB8202024375F081
:10014800007C1A7880C3EF9BEE9AED99400DC3EFBF
:100158009BFFEE9AFEED99FDE842F0DC23ACF0D06F
:10016800E0FFD0E0FED0E0FDAB8220E7101BEB60A3
:10017800BAEC2CFCEF33FFEE33FEED33FD02022F19
:10018800E803F830E705C0F075F000EF2FFFEE3315
:10019800FEED33FD40B830E7C280AA75F020800E2E
:1001A80075F010800575F0087D007E007F003392A1
:1001B800D530D503120848EC334010EF33FFEE3347
:1001C800FEED33FDEC33FCD5F0ED22E5F0247EA204
:1001D800D513CC92E7CDCEFF22EDD2E7CD33EC3369
:1001E80092D524814006E4FFFEFDFC22FCE4CFCE3C
:1001F800CDCC24E0501174FF80EDC3CC13CCCD13CB
:10020800CDCE13CECF13CF0470F030D5DE02084820
:10021800E9D2E7C933E833F892D5EDD2E7CD33EC2C
:1002280033FC5002B2D522EC30E7100FBF000C0EA1
:10023800BE00080DBD00040BEB6014A2D5EB13FC47
:10024800ED92E7FD2274FFFCFDFEFF22E480F8A298
:10025800D574FF13FC7D80E480EFF920E73624F99C
:1002680050037907E4F42402FBE582158270021535
:1002780083DBF6E024FB501BE96014E4F0E582150B
:100288008270021583E004F0B40A08E4F0D9EE7431
:1002980001F00A22C2D522ED33EC3392D5FA602A56
:1002A800B4FF33EDC2E77BFF60067A0279C4E4222B
:1002B8007A0279CD20D5047A0279C8224E614E009F
:1002C8002B494E46002D494E4600E47A08F0A3DA41
:1002D800FC7B00740722C083C082ECC0E0EDC0E064
:1002E800EEC0E0EFC0E0EA75F010A4CAABF075F01C
:1002F8004DA42BFBE435F0FCEA2410FAEB34C5FBE3
:10030800EC34D9FCEDC2E7FF75F056A4F42411C50E
:10031800F0F434C58FF0A42AE5F03BE43CF020E784
:10032800141205D2D0E0FFD0E0FED0E0FDD0E0FC12
:100338001201068014F4041205D2D0E0FFD0E0FECA
:10034800D0E0FDD0E0FC12049CD082D083E0FAED2E
:10035800D2E7CD33EC332482FBE4C3CF33CFCE33A3
:10036800CECD33CD33DBF37B0775F00A846004F020
:10037800A31B0AE5F0F0A38FF0740AA4FFACF08E7B
:10038800F0740AA42CFEACF050010C8DF0740AA491
:100398002CFDE435F0F0A3DBDE74072202024DE801
:1003A8006480F8E933E83360110460F0ED33EC332E
:1003B8007009E8FCE9FDEAFEEBFF220460DED3EBFE
:1003C8009FEA9EE99DE8C2E78CF0C2F795F0400CE1
:1003D800E8CCF8E9CDF9EACEFAEBCFFB12021885A2
:1003E800D0F05804700320D5B3E80470075002B267
:1003F800D502025792D5EC0460F7E4CCC0E0C3986C
:10040800F8603B94186008400DD0E0FB02022FE42E
:10041800FBFAC9FC8028E830E406E4C9FBE4CAFC1E
:10042800E830E305E4C9CACBFCE854076010F8C318
:10043800E913F9EA13FAEB13FBEC13FCD8F130F5E6
:100448002FC3E49CFCEF9BFFEE9AFEED99FDD0E0F4
:10045800FBEF4E4D4C701222DB03020254EC2CFCD5
:10046800EF33FFEE33FEED33FDED30E7EB02022F05
:10047800EF2BFFEE3AFEED39FDD0E0FB50130BBB3E
:100488000003020257ED13FDEE13FEEF13FFEC130A
:10049800FC02022FEC4D6011E8497017ED33EC3384
:1004A80004600DE4FCFFFEFD22E933E8330470F834
:1004B80002024D12021858046009E4CC2481500647
:1004C800285009020257284003020254C0E0EB4AB0
:1004D8007044B98006D0E0FB020243EF4E701CBDA9
:1004E8008008EBFFEAFEE9FD80EBE98DF0A4FEE56C
:1004F800F0020585E9CDF9EAFEEBFFEF89F0A4FCEF
:10050800E5F0CE89F0A42EFFE435F0CD89F0A42DD6
:10051800FEE435F08067EF4E7005BD80D780C3EFED
:100528008BF0A4ACF0EE8BF0A42CFCE435F0F8EFE3
:100538008AF0A42CE5F038FCE433CB8DF0A42CFC35
:10054800E5F03BF8EE8AF0A42CFCE5F038F8E4334B
:10055800CF89F0A42CFCE5F038CF3400CE89F0A484
:100568002FFFE5F03EFEE433C98DF0A42EFEE5F042
:1005780039CD8AF0A42FFFE5F03EFEE43DFD33D0EF
:10058800E0FB50070BBB000F020257EC2CFCEF33CB
:10059800FFEE33FEED33FD02022F3F8000004120C5
:1005A800000042C80000447A0000461C400047C3CF
:1005B8005000497424004B1896804CBEBC205A0E3B
:1005C8001BCA6753C21C749DC5AEFB600654076006
:1005D8001C2323120600EB543860091205EC12059F
:1005E800FB12049CECF8EDF9EEFAEFCB22EB1205C6
:1005F800FB80F1543803241C9005A2FE93FC0EEEF8
:1006080093FD0EEE930ECE93FF22E709F608DFFA6C
:100618008046E709F208DFFA803E88828C83E70982
:10062800F0A3DFFA8032E309F608DFFA8078E309FD
:10063800F208DFFA807088828C83E309F0A3DFFA7E
:10064800806489828A83E0A3F608DFFA8058898269
:100658008A83E0A3F208DFFA804C80D280FA80C651
:1006680080D4806980F28033801080A680EA809AE6
:1006780080A880DA80E280CA803389828A83ECFA93
:10068800E493A3C8C582C8CCC583CCF0A3C8C582EF
:10069800C8CCC583CCDFE9DEE7800D89828A83E494
:1006A80093A3F608DFF9ECFAA9F0EDFB2289828A18
:1006B80083ECFAE0A3C8C582C8CCC583CCF0A3C834
:1006C800C582C8CCC583CCDFEADEE880DB89828AB4
:1006D80083E493A3F208DFF980CC88F0EF60010E81
:1006E8004E60C388F0ED2402B4040050B9F582EBE3
:1006F8002402B4040050AF2323458223900662737A
:10070800BB010689828A83E0225002E722BBFE02EF
:10071800E32289828A83E49322BB010CE58229F5CE
:1007280082E5833AF583E0225006E92582F8E6223D
:10073800BBFE06E92582F8E222E58229F582E583F7
:100748003AF583E49322BB010689828A83F022501A
:1007580002F722BBFE01F322C5F0F8A3E028F0C59A
:10076800F0F8E582158270021583E038F022A3F8CC
:10077800E0C5F025F0F0E582158270021583E0C827
:1007880038F0E822BB010A89828A83E0F5F0A3E009
:1007980022500687F009E71922BBFE07E3F5F009A6
:1007A800E3192289828A83E493F5F074019322BBCA
:1007B8000110E58229F582E5833AF583E0F5F0A397
:1007C800E0225009E92582F886F008E622BBFE0AF5
:1007D800E92582F8E2F5F008E222E5832AF583E9C3
:1007E80093F5F0A3E99322BB010A89828A83F0E595
:1007F800F0A3F0225006F709A7F01922BBFE06F372
:10080800E5F009F31922F8BB0111E58229F582E523
:10081800833AF583E8F0E5F0A3F0225009E9258250
:10082800C8F608A6F022BBFE09E92582C8F2E5F061
:1008380008F222EF2BFFEE3AFEED39FDEC38FC22F0
:10084800C3E49FFFE49EFEE49DFDE49CFC22EB9F35
:10085800F5F0EA9E42F0E99D42F0E89C45F022E876
:10086800600FECC313FCED13FDEE13FEEF13FFD87E
:10087800F122E0FCA3E0FDA3E0FEA3E0FF22E0F804
:10088800A3E0F9A3E0FAA3E0FB22ECF0A3EDF0A3C8
:10089800EEF0A3EFF022A8828583F0D083D08212F5
:1008A80008B51208B51208B51208B5E473E493A3A5
:1008B800C583C5F0C583C8C582C8F0A3C583C5F084
:1008C800C583C8C582C822E0FBA3E0FAA3E0F922E9
:1008D800F8E0FBA3A3E0F925F0F0E58215827002A9
:1008E8001583E0FA38F022EBF0A3EAF0A3E9F0224E
:1008F800D083D082F8E4937012740193700DA3A38F
:1009080093F8740193F5828883E4737402936860A2
:10091800EFA3A3A380DFE5082487F582E43480F5FC
:1009280083E0050822908084300703908087E4756F
:10093800F0011208D80207082000E97F2ED20080B3
:1009480018EF540F2490D43440D4FF30040BEF2414
:10095800BFB41A0050032461FFE5096002150905B8
:100968000CE50C7002050B30070E908084E475F0DE
:10097800011208D8EF02074E0218797403D20780D3
:1009880003E4C207F5089080841208EFE4F509F53E
:100998000BF50CE50960077F2012096180F5750ADF
:1009A800FFC201C200C202C203C205C206C20812C7
:1009B800092DFF700D3007057F00120972AF0CAECC
:1009C8000B22B4255FC2D5C20412092DFF24D0B46E
:1009D8000A00501A75F00A780930D50508B6FF01E3
:1009E80006C6A426F620D5047002D20380D924CFE7
:1009F800B41A00EF5004C2E5D204020C64D201809C
:100A0800C6D20080C0D20280BCD2D580BAD20580BE
:100A1800B47F201209612002077401B5090040F172
:100A280012091EFF12096102099BD208D20680959D
:100A380012091EFB12091EFA12091EF94A4B70060A
:100A480079627A0D7BFF20022EE509602A7E008EEE
:100A58008275830012072160060EEE650A70F0C2E7
:100A6800D5EBC0E0EAC0E0E9C0E0EE120CC5D0E08A
:100A7800F9D0E0FAD0E0FB120708FF60AAEBC0E06B
:100A8800EAC0E0E9C0E0120961D0E02401F9D0E051
:100A98003400FAD0E0FBE50A0460DCD50AD9808787
:100AA800D20280A2120CA760F7E50A7001041202B4
:100AB80062A90A600DE50A600914F50A120D4FEFE4
:100AC80060F3EA30E702F404C3995079EAF4250A9E
:100AD8000430E701E404F50A800D120CA760C1EAAE
:100AE800050A250A120262EA9080B3F030E701E4B1
:100AF800250A04D50A0420050114120CC5E4C0E037
:100B0800120D4F9080B3E0601320E70714F012092C
:100B180049802204F0D0E014C0E07F00120949E5C2
:100B28000A6007120940150A800B300503120940B4
:100B3800D0E002099BD0E00480C4120CA7609EE5B7
:100B48000A041202629080B3EAF0E50A2005026006
:100B580001042404120CC574FF04C0E0120D4F12E6
:100B68000949E50A2005026003120940D0E0B50AE8
:100B7800E87F451209539080B3E07F2B30E7047F6C
:100B88002DF404C0E0120961D0E075F00A84C0F0C9
:100B980012094AD0E012094A02099B7910800279A9
:100BA80008C206C2088008D2D5790A8004790AC228
:100BB800D5E50A047002F50AE4FAFDFEFF12091EE3
:100BC800FC7B0820011312091EFD7B1030000A125D
:100BD800091EFE12091EFF7B20EC3382D592D550E8
:100BE80013C3E43000069FFFE49EFEE42001039D4A
:100BF800FDE49CFCE4CBF8C201EC700CCFCECDCC6C
:100C0800E824F8F870F38017C3EF33FFEE33FEEDF6
:100C180033FDEC33FCEB33FB994002FB0FD8E9EBD7
:100C2800300105F8D0E0C448B201C0E00AEC4D4EEE
:100C38004F78207B0070C2EAB50A0040BCC0E012C1
:100C48000CC7D0F0D0E0200104C4C0E0C4B201C099
:100C5800F012094AD0F0D5F0EB02099B1208F80A05
:100C680038530BA3580A094C0A05420BA74F0BAF80
:100C7800440BAF490A1E430BB5550AE2460B4245E1
:100C88000AAC470D82500A0D2D0A112E0A342B0A80
:100C980015230A32200D6B2A09CD4800000A2CE5DD
:100CA8000AB4FF03750A0612091EFC12091EFD127A
:100CB800091EFE12091EFF9080AC02029F790AA24B
:100CC800D5200314300509B910020404B908010439
:100CD800A2D52006025001042002689202B509003C
:100CE8005034C0E07F203003197F30A202720672B0
:100CF80005500F120D1EC202C206C205C2087F307F
:100D0800800F300503E9C0E0120961300503D0E027
:100D1800F9D0E0B509CC3005177F30B9100C1209AD
:100D2800617F583004077F788003B908031209618E
:100D38003002057F2D0209617F202008F87F2B20D3
:100D480006F322920280CF7F00B40700500B24AC38
:100D5800F582E43480F583E0FF22286E756C6C29F7
:100D680000D20112091E3001F8C201780930D501FC
:100D780008F60209CD2D5043495812091E2403B420
:100D880005004001E4900D7D93120952743A12094E
:100D980052D203750904020BA37BFF7A1479F87801
:100DA800227C007D007E007F301206E27BFF7A15F0
:100DB800792878017C807D017E007F081206E29008
:100DC800800912089E000000007BFF7A15793078B0
:100DD800127C807D017E007F401206E2E4908080D4
:100DE800F0A3F0A3F0A3F01200197BFF7A1479A204
:100DF800908089E4F0A37407F07F107E2012127FA0
:100E08007FE87E031218467BFF7A1479AE908089BA
:100E1800E4F0A37409F07F427E2012127F7F807E67
:100E2800257D007C001217247B007A007922121598
:100E380070E4908100F0A3F090800DF0908102E0C2
:100E4800FEA3E0EE20E703020FB9908102A3E0FFC2
:100E5800EE547F90800EF0A3EFF09080B8E0FF9002
:100E68008082E4F0A3EFF09080B9E0FF908080E406
:100E7800F0A3EFF07B017A80790E908089E4F0A3EB
:100E88007402F07F697E2012127F7B017A8079825A
:100E9800908089E4F0A304F07F657E2012127F7BA6
:100EA800017A807980908089E4F0A304F07F677EDE
:100EB8002012127FE4908052F0A3F0908010F0A3EB
:100EC800F090800EE0FEA3E0FFA3E0FCA3E0C39F48
:100ED800EC9E505A908052E0FEA3E02412F97480F0
:100EE8003EFA7B01C003C002C0017BFF7A1479BFC0
:100EF8009080871208EF908010E0FEA3E024B8F5F8
:100F08008274803EF583E0FF90808AE4F0A3EFF0DE
:100F1800D001D002D003120983908052EE8FF012D4
:100F28000760908010E475F00112076080937B01E0
:100F38007A807912908052E0FEA3E0FFEEC313FEA0
:100F4800EF132401FFE43E908089F0A3EFF07F10B7
:100F58007E2012127F7B017A8079B8C002C001908E
:100F6800800EE0FCA3E0FD7A80795A90808912080F
:100F7800EFD001D00212112DEFB401187BFF7A14C3
:100F880079C5908089E4F0A37404F07F967E2012DE
:100F9800127F80167BFF7A1479CD908089E4F0A3C4
:100FA8007404F07F967E2012127FE4908102F0A3F1
:100FB800F090800DE06003021095908100E0FEA3A0
:100FC800E0C39405EE94004007E4908100F0A3F09C
:100FD800908100E0A3E075F008A42422F9E4FAFB6C
:100FE80078527C00FDFE7F081206E27B007A0079C9
:100FF800521215707B017A817900908089E4F0A300
:1010080004F07F007E2012127F7854E608E6785AB2
:10101800F67B007A007954908089E4F0A304F0FF0D
:101028007E2012127F7B007A007956908089E4F046
:10103800A304F07F027E2012127F7858E6FE08E6AD
:1010480025E0FFEE33FEEF2405FFE43E780FF608B7
:10105800A6077B007A00790F908089E4F0A37402D8
:10106800F07F037E2012127F7B007A0079529080F5
:1010780089E4F0A304F07F047E2012127F90800D93
:101088007401F090800912089E0013D62090800900
:1010980012087A74FFFBFAF9F812083B90800912DB
:1010A800089290800DE064016003020E449080B6BF
:1010B800E0B401317A1479D4908089E4F0A37409FA
:1010C800F07F427E2012127F908100E475F00112B9
:1010D8000760E490800DF09080B6F09080091208C7
:1010E8009E00002710E4FFFEFDFC90800912088690
:1010F800C31208566003020E447BFF7A1479E69007
:101108008089F0A37409F07F427E2012127F9081BB
:1011180000E475F001120760E490800DF09080B64D
:10112800F0020E44229080841208EF908087ECF041
:10113800A3EDF0908087E0FEA3E0C39404EE940052
:1011480050037F63229080841208CF908087E0FE4E
:10115800A3E024FFFFEE34FF8F82F583120721FE00
:101168009080841208CF908087E0FCA3E024FEFDE5
:10117800EC34FF8D82F583120721FDEEEDFF9080A0
:101188008CEEF0A3EFF09080841208CF908087E077
:10119800A3E024FEFD12139C90808EEEF0A3EFF0E6
:1011A80090808EE0FEA3E0FF90808CE0FCA3E06FCF
:1011B8007002EC6E60037F62229080841208CF1266
:1011C8000708FF9080891208CFE48FF01207EF908C
:1011D80080841208CF900001120721FF90808912A5
:1011E80008CF900002E48FF012080E908084120855
:1011F800CF900002120721FF9080891208CF90003B
:1012080024E48FF012080EE4908090F0A3F0908010
:10121800891208CF9000241207B7FF908090E0FC55
:10122800A3E0C39FEC95F0504B9080841208CF90B8
:101238008090E0FEA3E02403FFE43E8F82F5831252
:101248000721FD9080891208CFE92404F9E43AFACD
:10125800908090E0A3E025E0FFEE33FEE92FF9EA65
:101268003EFAE48DF01207EF908090E475F00112D9
:101278000760809A7F0122908084EEF0A3EFF0A3AC
:101288001208EF908084E0A3E0540190808BF090E6
:101298008084E0FEA3E0FFEEC313FEEF13FF90800F
:1012A80084EEF0A3EFF0E4F5F1908084E0FEA3E093
:1012B800EEF5F2908084E0A3E0F5F375F40175F89B
:1012C8008F30FCFD90808BE0603C908089E0FEA32D
:1012D800E0D39400EE9400402D75F883908086E466
:1012E80075F0011208D8120708F5FC908086E4759D
:1012F800F0011208D8120708F5FDD2FE9080897413
:10130800FFF5F012076075F88F908089E0FEA3E082
:10131800C39402EE9400404B908086E475F001126D
:1013280008D8120708F5FA908086E475F0011208CB
:10133800D8120708F5FB908086E475F0011208D8EA
:10134800120708F5FC908086E475F0011208D8129F
:101358000708F5FDD2FE90808974FF75F0FE12072C
:101368006080A6908089E0FEA3E04E602375F88C2B
:10137800908086E475F0011208D8120708F5FA90F3
:101388008086E475F0011208D8120708F5FBD2FE32
:10139800E4F5F8229080921208EF908095EDF074B1
:1013A800FFA3F0A3F0E490809CF0A3F0908095E078
:1013B800FF90809CE0FCA3E0C39FEC9400400302F4
:1013C80014619080921208CF90809CE0FEA3E0F513
:1013D800828E83120721FF908096E0FCA3E0FDEC4B
:1013E800FEEF6DFF908096EEF0A3EFF0E490809E04
:1013F800F090809EE0C394085052908096E0A3E05D
:101408005401FF90809AE4F0A3EFF0908096E0FEFC
:10141800A3E0FFEEC313FEEF13FF908096EEF0A358
:10142800EFF090809AE0FEA3E04E6018908096E07E
:10143800FEA3E0FFEE64A0FEEF6401FF908096EE4D
:10144800F0A3EFF090809EE004F080A590809CE4EB
:1014580075F0011207600213B4908096E0FEA3E0D5
:10146800EEFFA3E4F0A3EFF0908096A3E0FEA3E0E4
:10147800FCA3E0FDEE4CFEEDFF908096EEF0A3EFAE
:10148800F0908096E0FEA3E0FF908096EEF0A3EF48
:10149800F0908096E0FEA3E0FF2244475553205485
:1014A8006F6F6C0000004447555320544553542037
:1014B800544558540000002530325820004F4B2026
:1014C8002020200A004552524F520A005265636597
:1014D8006976656420202020202020200A00546995
:1014E8006D656F75742020202020202020200A00A0
:1014F80000010003000000020002000300080001D0
:10150800000300030002000200040003002000049E
:101518000005000300FD000100060003002F000184
:1015280000000000000000000000000000000000B3
:1015380000000000000000000000000000000000A3
:101548000000000000000000000000000000000093
:101558000000000000000000000000000000000083
:1015680000000000000000009080841208EF9080C6
:10157800841208CF12078C908087F090808412081C
:10158800CF9000021207B7908088F09080841208EC
:10159800CF9000041207B7E5F0908089F09080841E
:1015A8001208CF9000041207B790808AF0908084C8
:1015B8001208CF9000061207B7E5F090808BF090E4
:1015C80080841208CF9000061207B790808CF07BB9
:1015D800017A8079877D0612139C90808FEEF0A3A4
:1015E800EFF090808FE0A3E090808EF0A3E0FEA360
:1015F800E0EE90808DF07B017A8079877D087C0011
:1016080012179522C0E0C0F0C083C082C0D075D048
:1016180000C000C001C002C003C004C005C006C0AD
:1016280007C2C674FFFFFEFDFC908106120886C340
:10163800120856501590810612087AE47B01FAF9CF
:10164800F812083B90810612089274FFFFFEFDFC19
:10165800908106120886C3120856700A90810612F5
:10166800089E00000000780DE6FE08E64E6006E6DB
:101678001618700116D007D006D005D004D003D0B4
:1016880002D001D000D0D0D082D083D0F0D0E032C8
:10169800787FE4F6D8FD75815A0216DF020DA1E4C1
:1016A80093A3F8E493A34003F68001F208DFF480E3
:1016B80029E493A3F85407240CC8C333C4540F4433
:1016C80020C8834004F456800146F6DFE4800B010D
:1016D80002040810204080901817E47E019360BC33
:1016E800A3FF543F30E509541FFEE493A360010EA5
:1016F800CF54C025E060A840B8E493A3FAE493A3CC
:10170800F8E493A3C8C582C8CAC583CAF0A3C8C5EC
:1017180082C8CAC583CADFE9DEE780BE908084122A
:10172800089243C94053B7CF43B71075D88075980E
:101738005053877F90808412087AE41201A3A8048A
:10174800A905AA06AB077F007EE07D447C4A12010A
:10175800061201E1C3E49FFF74049EFEE4FCFD90C1
:10176800808412089290808412087A780812086798
:10177800EFE48FBA90808412087AEFE48FAAD2AC93
:10178800D2AF908102F0A3F09080B7F022908091C0
:101798001208EF908094ECF0A3EDF0C2ACE4A3F053
:1017A800A3F0908094E0FEA3E0FFA3E0FCA3E0C3D5
:1017B8009FEC9E50279080911208CF908096E0FE73
:1017C800A3E0F5828E83120721F5993099FDC2991D
:1017D800908096E475F00112076080C6D2AC22C2F0
:1017E800AFC2D3C2D4E4F58E75C870F59375940171
:1017F800759502F5C9F5F875F901F5A843B830F5FE
:101808009AF5A9F5B953C9FDD2BDD2BCD2AF22020F
:101818000D0000448106000000004580F901020324
:1018280004054280FE000142810400044180F80062
:1018380042810000004180B600020F000000908045
:1018480084EEF0A3EFF0908084E0FEA3E0FF780D33
:10185800A60608A607780DE6FE08E64E70F7229061
:1018680080B5EFF0C2ACE0F5993099FDC299D2ACE1
:10187800229080B4EFF0E0FF1218679080B4E0FF88
:01188800223D
:00000001FF
