:1000000002002E9080CB1214BEC2ACE4F598F5BA73
:0F001000F5AA53877F9080CB1214A612251622D3
:030023000223B9FC
:10002B00022587787FE4F6D8FD75818E0200750274
:10003B000103E493A3F8E493A34003F68001F208D1
:10004B00DFF48029E493A3F85407240CC8C333C40A
:10005B00540F4420C8834004F456800146F6DFE475
:10006B00800B01020408102040809000BAE47E014E
:10007B009360BCA3FF543F30E509541FFEE493A3E8
:10008B0060010ECF54C025E060A840B8E493A3FAFA
:10009B00E493A3F8E493A3C8C582C8CAC583CAF086
:1000AB00A3C8C582C8CAC583CADFE9DEE780BE0222
:1000BB000D000044815900000000458148010203F6
:1000CB0004054281510001428157000441814700E0
:1000DB0044814D0000000042815300004181050026
:0C00EB00020F000000122643122694228F
:1000F800FFFF4457494E54350200757BFF7A21793A
:100108002A78227C007D007E007F501213027BFF3C
:100118007A21797A78017C807D017E007F0812132C
:10012800029080091214CA000000007BFF7A21792E
:100138008278177C807D017E007F301213027BFF5E
:100148007A2179B2787C7C007D007E007F101213C2
:1001580002E49080C5F0A3F0A3F0A3F0A3F0A3F00D
:100168001200F07F807E257D007C00122516E49029
:100178008153F0A3F090800DF09081591214CA00B9
:1001880007A120E490800EF0A31214CA000000001A
:10019800E4FFFEFDFC9081591214B2C31214827060
:1001A8002290800DE0B4011B908155E0FEA3E04E43
:1001B8006011908155E0A3E0FFEE4480908155F0F6
:1001C800A3EFF0908155E0FEA3E0EE20E7030207DD
:1001D800A4908155A3E0FFEE547F908013F0A3EF25
:1001E800F07B017A8079139080E4E4F0A37402F044
:1001F8007F697E20121F99E490805FF0A3F09080C1
:1002080015F0A3F0908013E0FEA3E0FFA3E0FCA3A9
:10021800E0C39FEC9E505A90805FE0FEA3E0241755
:10022800F974803EFA7B01C003C002C0017BFF7AEB
:100238002079B69080CE12151B908015E0FEA3E0C1
:100248002407F58274813EF583E0FF9080D1E4F0C5
:10025800A3EFF0D001D002D0031215DC90805FEE3E
:100268008FF01213A2908015E475F0011213A2808A
:10027800937BFF7A2079BC9080E4E4F0A37410F0BB
:10028800FF7E20121F997B017A80791790805FE0AA
:10029800FEA3E0FFEEC313FEEF132402FFE43E903B
:1002A80080E4F0A3EFF07F107E20121F99E4908085
:1002B80015F0A3F0908015E0FEA3E0C39430EE940F
:1002C80000501C908015E0A3E02417F58274803E4E
:1002D800F583E4F090801575F0011213A280D59093
:1002E80081591214CA0007A1207B017A817907C0BD
:1002F80002C001908013E0FCA3E0FD7A807977903A
:1003080080D012151BD001D002121D009080C9E4C4
:10031800F0A3EFF07B017A8079C99080E4E4F0A340
:1003280004F07F717E20121F999080C9E0FEA3E03F
:1003380064014E60030206C17BFF7A2079DD90805C
:10034800E4F0A37404F07F967E20121F99908077C2
:10035800E0FEA3E08EF012154A0762000103810057
:10036800020440000304BF0004053E000505BD006B
:1003780006063C00070000076290807BE0FEA3E0D1
:10038800C39402EE94005003020427A3E0A3E0FE06
:10039800A3E0FCA3E0FDEE4CFEEDFF9080BDEEF087
:1003A800A3EFF0908085E0A3E0FEA3E0FCA3E0FDCE
:1003B800EE4CFEEDFF9080BFEEF0A3EFF090808949
:1003C800E0A3E0FEA3E0FCA3E0FDEE4CFEEDFF9011
:1003D80080C1EEF0A3EFF090808DE0A3E0FEA3E0F3
:1003E800FCA3E0FDEE4CFEEDFF9080C3EEF0A3EF22
:1003F800F07B017A8079BF9080E4E4F0A304F07F79
:10040800817E20121F997B017A8079BD9080E4E477
:10041800F0A37402F07F077E20121F990207627B07
:10042800FF7A2079E59080E4E4F0A37406F07F96E3
:100438007E20121F9902076290807BE0FEA3E0C332
:100448009402EE94005003020762A3E0A3E0FEA327
:10045800E0FCA3E0FDEE4CFEEDFF908075EEF0A30E
:10046800EFF0908075E0FEA3E0EE30E70E90807527
:10047800A3E0FF908075EEF0A3EFF0908075E0FCAC
:10048800A3E0FDE4120DC8E4FBFA79207841120DCF
:10049800269080651214BE7B017A8079659080E48D
:1004A800E4F0A37402F07F857E20121F99E4908007
:1004B80075F0A3F002076290807BE0FEA3E0C3948E
:1004C80002EE94005003020762A3E0A3E0FEA3E05B
:1004D800FCA3E0FDEE4CFEEDFF908075EEF0A3EF7F
:1004E800F0908075E0FEA3E0EE30E70E908075A3F3
:1004F800E0FF908075EEF0A3EFF0908075E0FCA32C
:10050800E0FDE4120DC8E4FBFA79207841120D26CB
:100518009080691214BE7B017A8079699080E4E446
:10052800F0A37402F07F877E20121F99E4908075F3
:10053800F0A3F002076290807BE0FEA3E0C3940280
:10054800EE94005003020762A3E0A3E0FEA3E0FCE0
:10055800A3E0FDEE4CFEEDFF908075EEF0A3EFF00A
:10056800908075E0FEA3E0EE30E70E908075A3E082
:10057800FF908075EEF0A3EFF0908075E0FCA3E0AB
:10058800FDE4120DC8E4FBFA79207841120D26909B
:10059800806D1214BE7B017A80796D9080E4E4F05E
:1005A800A37402F07F897E20121F99E4908075F071
:1005B800A3F002076290807BE0FEA3E0C39402EE02
:1005C80094005003020762A3E0A3E0FEA3E0FCA3AB
:1005D800E0FDEE4CFEEDFF908075EEF0A3EFF0909D
:1005E8008075E0FEA3E0EE30E70E908075A3E0FF93
:1005F800908075EEF0A3EFF0908075E0FCA3E0FD2D
:10060800E4120DC8E4FBFA79207841120D26908097
:10061800711214BE7B017A8079719080E4E4F0A3B2
:100628007402F07F917E20121F99E4908075F0A3E8
:10063800F002076290807BE0FEA3E0C39402EE9490
:10064800005003020762A3E0A3E0FEA3E0FCA3E0DE
:10065800FDEE4CFEEDFF908075EEF0A3EFF090807C
:1006680075E0FEA3E0EE30E70E908075A3E0FF9002
:100678008075EEF0A3EFF0908075E0FCA3E0FDE458
:10068800120DC8E4FBFA79207841120D269080619A
:100698001214BE7B017A8079619080E4E4F0A3743F
:1006A80002F07F057E20121F99E4908075F0A3F078
:1006B8000207620207620207629080C9E0FEA3E0B7
:1006C80064634E702E7BFF7A2079EF9080E4F0A36C
:1006D8007404F07F967E20121F997F147E001226E4
:1006E80073E4908155F0A3F07F807E25FDFC120015
:1006F8000380679080C9E0FEA3E064624E702E7BA1
:10070800FF7A2079F79080E4F0A37404F07F967E56
:1007180020121F997F147E00122673E4908155F0F1
:10072800A3F07F807E25FDFC120003802D7BFF7ADD
:100738002079FF9080E4E4F0A37404F07F967E2093
:10074800121F997F147E00122673E4908155F0A33E
:10075800F07F807E25FDFC120003E4908155F0A314
:10076800F0908013F0A3F0A3F0A3F0908015E0FEC2
:10077800A3E0C39440EE9400501C908015E0A3E0E1
:100788002407F58274813EF583E4F090801575F0B6
:10079800011213A280D59081057401F090800DE0BC
:1007A8006003020C2E908153E0FEA3E0C39408EE90
:1007B80094004007E4908153F0A3F07F0F7E00126D
:1007C8002673908153E0A3E075F00AA42422F9E48B
:1007D800FAFB78727C00FDFE7F0A1213027B017A15
:1007E8008179539080E4E4F0A304F07F007E201226
:1007F8001F997874E608E6788EF67B007A0079749B
:100808009080E4E4F0A304F0FF7E20121F997B009F
:100818007A0079769080E4E4F0A304F07F027E20E9
:10082800121F99788EE6B403187878E6FE08E62554
:10083800E0FFEE33FEEF2405FFE43E780FF608A64E
:1008480007788EE6B41007780F7600087608788E59
:10085800E6B40507780F7600087608788EE6B406C1
:1008680007780F7600087608788EE6B40F07780FB9
:1008780076000876087B007A00790F9080E4E4F02F
:10088800A37402F07F037E20121F997B007A0079FF
:10089800729080E4E4F0A304F07F047E20121F9994
:1008A8009080091214CA0002710090800D7401F042
:1008B800E4788CF608F6FB7A00798C9080D0F0A367
:1008C80004F07F797E201222C87B017A80794790D4
:1008D80080D0E4F0A304F07F647E201222C87B015C
:1008E8007A8079BD9080D0E4F0A304F07F737E20F5
:1008F8001222C8908047E0FEA3E0FF787CA6060895
:10090800A607908047E0FEA3E0FF08A60608A60712
:10091800908047E0FEA3E0FF08A60608A60790809F
:1009280047E0FEA3E0FF08A60608A6079080BDE002
:10093800FEA3E0FF08A60608A607788CE608E6549A
:1009480002FF908049E4F0A3EFF018E608E65404AB
:10095800FFA3E4F0A3EFF018E608E65408FFA3E4C9
:10096800F0A3EFF018E608E65410FFA3E4F0A3EFB5
:10097800F018E608E65420FF90805DE4F0A3EFF05D
:1009880018E608E65440FF908059E4F0A3EFF09091
:100998008049E0FEA3E0FFEEC313EF135401FF907C
:1009A8008051E4F0A3EFF090804BE0FEA3E07802E2
:1009B800CEC313CE13D8F95401FF908053E4F0A3AB
:1009C800EFF090804DE0FEA3E07803CEC313CE1382
:1009D800D8F95401FF908055E4F0A3EFF090804FD0
:1009E800E0FEA3E0FFEEC4F854F0C868EFC4540F6B
:1009F800485401FF908057E4F0A3EFF0A3E0FEA372
:100A0800E07806CEC313CE13D8F95401FF90805B6B
:100A1800E4F0A3EFF07B017A8079519080E4E4F070
:100A2800A304F07F057E21121F997B017A807953F8
:100A38009080E4E4F0A304F07F077E21121F997BE5
:100A4800017A8079559080E4E4F0A304F07F097E70
:100A580021121F997B017A8079579080E4E4F0A3F2
:100A680004F07F117E21121F997B017A80795B90B7
:100A780080E4E4F0A304F07F137E21121F99908094
:100A88005BE0FEA3E064014E701F90800EE07019D9
:100A98007824F608760508F608F60876FF08F604BE
:100AA800F0A31214CA0000000090805BE0FEA3E0EF
:100AB80064014E703A90800EE0B401337FA07EBB93
:100AC8007D0D7C00A31214B2C31214824021782435
:100AD80076000876050876000876010876FF08761D
:100AE8000090800E7401F0A31214CA000000009058
:100AF800805BE0FEA3E04E70207824F608760F08AD
:100B0800F608F608F608760808760108F690800ECA
:100B1800F0A31214CA00000000788CE608E654011D
:100B280018760008F67B007A00798A18E608E690BD
:100B380080CFF0E4FD1224A17B007A00798A9080AE
:100B480049E0A3E09080CFF07D011224A17B007AD8
:100B580000798A90804BE0A3E09080CFF07D02126C
:100B680024A17B007A00798A90804DE0A3E09080F0
:100B7800CFF07D031224A17B007A00798A90804F00
:100B8800E0A3E09080CFF07D041224A17B007A00DE
:100B9800798A90805DE0A3E09080CFF07D051224F3
:100BA800A17B007A00798A908059E0A3E09080CFF9
:100BB800F07D061224A190805DE0FEA3E07805CECA
:100BC800C313CE13D8F95401FF90805DE4F0A3EF6E
:100BD800F07B007A00798C9080E4E4F0A304F07F45
:100BE800757E20121F997B017A80795D9080E4E4FC
:100BF800F0A304F07F607E20121F997B007A0079B1
:100C080072C002C0017A00797C9080CE12151B90C8
:100C180080D17408F0D001D0021219FA90815912CB
:100C280014CA0007A1209080091214A674FFFBFAC9
:100C3800F9F81214679080091214BE90800F1214EC
:100C4800A6E47B01FAF9F812146790800F1214BE1B
:100C580090800DE064016003020198908105E0B482
:100C6800013D7BFF7A2179069080E4E4F0A37409C2
:100C7800F07F427E20121F99908153E475F0011293
:100C880013A2E490800DF0908105F0908009121471
:100C9800CA000271009081591214CA0007A120E409
:100CA800FFFEFDFC9080091214B2C3121482600387
:100CB8000201987BFF7A2179189080E4F0A37409E7
:100CC800F07F427E20121F99E4908015F0A3F090E7
:100CD8008015E0FEA3E0C39430EE9400501C908091
:100CE80015E0A3E02417F58274803EF583E4F090C4
:100CF800801575F0011213A280D5908153E475F028
:100D0800011213A2E490800DF0908105F0908159B2
:100D18001214CA0007A12002019822020E77EC5D86
:100D2800046005E859047003020E6D120E38580469
:100D380060F6EC4860F2EC7004FDFEFF22C860DB50
:100D48002481C85009C39860025006020E74985056
:100D5800CAF582E9294B4A7005AB82020E6375F029
:100D6800007C1A7880C3EF9BEE9AED99400DC3EF93
:100D78009BFFEE9AFEED99FDE842F0DC23ACF0D043
:100D8800E0FFD0E0FED0E0FDAB8220E7101BEB6077
:100D9800BAEC2CFCEF33FFEE33FEED33FD020E4FC1
:100DA800E803F830E705C0F075F000EF2FFFEE33E9
:100DB800FEED33FD40B830E7C280AA75F020800E02
:100DC80075F010800575F0087D007E007F00339275
:100DD800D530D503121474EC334010EF33FFEE33E3
:100DE800FEED33FDEC33FCD5F0ED22E5F0247EA2D8
:100DF800D513CC92E7CDCEFF22EDD2E7CD33EC333D
:100E080092D524814006E4FFFEFDFC22FCE4CFCE0F
:100E1800CDCC24E0501174FF80EDC3CC13CCCD139E
:100E2800CDCE13CECF13CF0470F030D5DE021474BC
:100E3800E9D2E7C933E833F892D5EDD2E7CD33EC00
:100E480033FC5002B2D522EC30E7100FBF000C0E75
:100E5800BE00080DBD00040BEB6014A2D5EB13FC1B
:100E6800ED92E7FD2274FFFCFDFEFF22E480F8A26C
:100E7800D574FF13FC7D80E480EFF920E73624F970
:100E880050037907E4F42402FBE582158270021509
:100E980083DBF6E024FB501BE96014E4F0E58215DF
:100EA8008270021583E004F0B40A08E4F0D9EE7405
:100EB80001F00A22C2D522ED33EC3392D5FA602A2A
:100EC800B4FF33EDC2E77BFF60067A0E79E4E422D3
:100ED8007A0E79ED20D5047A0E79E8224E614E001B
:100EE8002B494E46002D494E4600E47A08F0A3DA15
:100EF800FC7B00740722C083C082ECC0E0EDC0E038
:100F0800EEC0E0EFC0E0EA75F010A4CAABF075F0EF
:100F18004DA42BFBE435F0FCEA2410FAEB34C5FBB6
:100F2800EC34D9FCEDC2E7FF75F056A4F42411C5E2
:100F3800F0F434C58FF0A42AE5F03BE43CF020E758
:100F4800141211F2D0E0FFD0E0FED0E0FDD0E0FCBA
:100F5800120D268014F4041211F2D0E0FFD0E0FE46
:100F6800D0E0FDD0E0FC1210BCD082D083E0FAEDD6
:100F7800D2E7CD33EC332482FBE4C3CF33CFCE3377
:100F8800CECD33CD33DBF37B0775F00A846004F0F4
:100F9800A31B0AE5F0F0A38FF0740AA4FFACF08E4F
:100FA800F0740AA42CFEACF050010C8DF0740AA465
:100FB8002CFDE435F0F0A3DBDE740722020E6DE8A9
:100FC8006480F8E933E83360110460F0ED33EC3302
:100FD8007009E8FCE9FDEAFEEBFF220460DED3EBD2
:100FE8009FEA9EE99DE8C2E78CF0C2F795F0400CB5
:100FF800E8CCF8E9CDF9EACEFAEBCFFB120E38854A
:10100800D0F05804700320D5B3E80470075002B23A
:10101800D5020E7792D5EC0460F7E4CCC0E0C39813
:10102800F8603B94186008400DD0E0FB020E4FE4D6
:10103800FBFAC9FC8028E830E406E4C9FBE4CAFCF2
:10104800E830E305E4C9CACBFCE854076010F8C3EC
:10105800E913F9EA13FAEB13FBEC13FCD8F130F5BA
:101068002FC3E49CFCEF9BFFEE9AFEED99FDD0E0C8
:10107800FBEF4E4D4C701222DB03020E74EC2CFC7D
:10108800EF33FFEE33FEED33FDED30E7EB020E4FAD
:10109800EF2BFFEE3AFEED39FDD0E0FB50130BBB12
:1010A8000003020E77ED13FDEE13FEEF13FFEC13B2
:1010B800FC020E4FEC4D6011E8497017ED33EC332C
:1010C80004600DE4FCFFFEFD22E933E8330470F808
:1010D800020E6D120E3858046009E4CC24815006C3
:1010E800285009020E77284003020E74C0E0EB4A2C
:1010F8007044B98006D0E0FB020E63EF4E701CBD51
:101108008008EBFFEAFEE9FD80EBE98DF0A4FEE53F
:10111800F00211A5E9CDF9EAFEEBFFEF89F0A4FC96
:10112800E5F0CE89F0A42EFFE435F0CD89F0A42DAA
:10113800FEE435F08067EF4E7005BD80D780C3EFC1
:101148008BF0A4ACF0EE8BF0A42CFCE435F0F8EFB7
:101158008AF0A42CE5F038FCE433CB8DF0A42CFC09
:10116800E5F03BF8EE8AF0A42CFCE5F038F8E4331F
:10117800CF89F0A42CFCE5F038CF3400CE89F0A458
:101188002FFFE5F03EFEE433C98DF0A42EFEE5F016
:1011980039CD8AF0A42FFFE5F03EFEE43DFD33D0C3
:1011A800E0FB50070BBB000F020E77EC2CFCEF3373
:1011B800FFEE33FEED33FD020E4F3F80000041206D
:1011C800000042C80000447A0000461C400047C3A3
:1011D8005000497424004B1896804CBEBC205A0E0F
:1011E8001BCA6753C21C749DC5AEFB6006540760DA
:1011F8001C2323121220EB5438600912120C12120D
:101208001B1210BCECF8EDF9EEFAEFCB22EB121240
:101218001B80F1543803241C9011C2FE93FC0EEE7F
:1012280093FD0EEE930ECE93FF22E709F608DFFA40
:101238008046E709F208DFFA803E88828C83E70956
:10124800F0A3DFFA8032E309F608DFFA8078E309D1
:10125800F208DFFA807088828C83E309F0A3DFFA52
:10126800806489828A83E0A3F608DFFA805889823D
:101278008A83E0A3F208DFFA804C80D280FA80C625
:1012880080D4806980F28033801080A680EA809ABA
:1012980080A880DA80E280CA803389828A83ECFA67
:1012A800E493A3C8C582C8CCC583CCF0A3C8C582C3
:1012B800C8CCC583CCDFE9DEE7800D89828A83E468
:1012C80093A3F608DFF9ECFAA9F0EDFB2289828AEC
:1012D80083ECFAE0A3C8C582C8CCC583CCF0A3C808
:1012E800C582C8CCC583CCDFEADEE880DB89828A88
:1012F80083E493A3F208DFF980CC88F0EF60010E55
:101308004E60C388F0ED2402B4040050B9F582EBB6
:101318002402B4040050AF23234582239012827321
:10132800BB010689828A83E0225002E722BBFE02C3
:10133800E32289828A83E49322BB010CE58229F5A2
:1013480082E5833AF583E0225006E92582F8E62211
:10135800BBFE06E92582F8E222E58229F582E583CB
:101368003AF583E49322BB010689828A83F02250EE
:1013780002F722BBFE01F322F8BB010DE58229F535
:1013880082E5833AF583E8F0225006E92582C8F61B
:1013980022BBFE05E92582C8F222C5F0F8A3E028A1
:1013A800F0C5F0F8E582158270021583E038F02266
:1013B800BB010A89828A83E0F5F0A3E02250068700
:1013C800F009E71922BBFE07E3F5F009E3192289C2
:1013D800828A83E493F5F074019322BB0110E582BD
:1013E80029F582E5833AF583E0F5F0A3E022500978
:1013F800E92582F886F008E622BBFE0AE92582F88C
:10140800E2F5F008E222E5832AF583E993F5F0A3F3
:10141800E99322BB010A89828A83F0E5F0A3F022CE
:101428005006F709A7F01922BBFE06F3E5F009F309
:101438001922F8BB0111E58229F582E5833AF58383
:10144800E8F0E5F0A3F0225009E92582C8F608A6DD
:10145800F022BBFE09E92582C8F2E5F008F222EF86
:101468002BFFEE3AFEED39FDEC38FC22C3E49FFF7A
:10147800E49EFEE49DFDE49CFC22EB9FF5F0EA9ED1
:1014880042F0E99D42F0E89C45F022E8600FECC389
:1014980013FCED13FDEE13FEEF13FFD8F122E0FC71
:1014A800A3E0FDA3E0FEA3E0FF22E0F8A3E0F9A398
:1014B800E0FAA3E0FB22ECF0A3EDF0A3EEF0A3EF3B
:1014C800F022A8828583F0D083D0821214E112140E
:1014D800E11214E11214E1E473E493A3C583C5F0A7
:1014E800C583C8C582C8F0A3C583C5F0C583C8C570
:1014F80082C822E0FBA3E0FAA3E0F922F8E0FBA30C
:10150800A3E0F925F0F0E582158270021583E0FA70
:1015180038F022EBF0A3EAF0A3E9F022D083D082DE
:10152800F8E4937012740193700DA3A393F87401F7
:1015380093F5828883E4737402936860EFA3A3A38E
:1015480080DFD083D082F8E4937012740193700D19
:10155800A3A393F8740193F5828883E473740293C8
:10156800B5F0067403936860E9A3A3A3A380D8E544
:101578000824CEF582E43480F583E00508229080C3
:10158800CB3007039080CEE475F0011215040213E6
:10159800282000E97F2ED2008018EF540F2490D421
:1015A8003440D4FF30040BEF24BFB41A0050032496
:1015B80061FFE50960021509050CE50C7002050BD1
:1015C80030070E9080CBE475F001121504EF02137A
:1015D8006E0226BC7403D2078003E4C207F50890A4
:1015E80080CB12151BE4F509F50BF50CE50960072E
:1015F8007F201215BA80F5750AFFC201C200C20227
:10160800C203C205C206C208121586FF700D300754
:10161800057F001215CBAF0CAE0B22B4255FC2D5E7
:10162800C204121586FF24D0B40A00501A75F00AB5
:10163800780930D50508B6FF0106C6A426F620D5D8
:10164800047002D20380D924CFB41A00EF5004C228
:10165800E5D2040218BDD20180C6D20080C0D202F1
:1016680080BCD2D580BAD20580B47F201215BA20AA
:1016780002077401B5090040F1121577FF1215BA77
:101688000215F4D208D2068095121577FB12157749
:10169800FA121577F94A4B700679BB7A197BFF2045
:1016A800022EE509602A7E008E827583001213419E
:1016B80060060EEE650A70F0C2D5EBC0E0EAC0E045
:1016C800E9C0E0EE12191ED0E0F9D0E0FAD0E0FB54
:1016D800121328FF60AAEBC0E0EAC0E0E9C0E012FC
:1016E80015BAD0E02401F9D0E03400FAD0E0FBE5E7
:1016F8000A0460DCD50AD98087D20280A2121900B8
:1017080060F7E50A700104120E82A90A600DE50A65
:10171800600914F50A1219A8EF60F3EA30E702F439
:1017280004C3995079EAF4250A0430E701E404F582
:101738000A800D12190060C1EA050A250A120E82F4
:10174800EA9080FAF030E701E4250A04D50A04207B
:1017580005011412191EE4C0E01219A89080FAE0DD
:10176800601320E70714F01215A2802204F0D0E0DD
:1017780014C0E07F001215A2E50A6007121599153A
:101788000A800B300503121599D0E00215F4D0E059
:101798000480C4121900609EE50A04120E8290802B
:1017A800FAEAF0E50A200502600104240412191E71
:1017B80074FF04C0E01219A81215A2E50A20050258
:1017C8006003121599D0E0B50AE87F451215AC9070
:1017D80080FAE07F2B30E7047F2DF404C0E0121577
:1017E800BAD0E075F00A84C0F01215A3D0E0121543
:1017F800A30215F4791080027908C206C20880088D
:10180800D2D5790A8004790AC2D5E50A047002F5AE
:101818000AE4FAFDFEFF121577FC7B08200113127B
:101828001577FD7B1030000A121577FE121577FF29
:101838007B20EC3382D592D55013C3E43000069F49
:10184800FFE49EFEE42001039DFDE49CFCE4CBF84C
:10185800C201EC700CCFCECDCCE824F8F870F38040
:1018680017C3EF33FFEE33FEED33FDEC33FCEB3300
:10187800FB994002FB0FD8E9EB300105F8D0E0C432
:1018880048B201C0E00AEC4D4E4F78207B0070C290
:10189800EAB50A0040BCC0E0121920D0F0D0E02020
:1018A8000104C4C0E0C4B201C0F01215A3D0F0D541
:1018B800F0EB0215F412152416915317FC58166212
:1018C8004C165E4218004F1808441808491677430A
:1018D800180E55173B46179B4517054719DB501639
:1018E800662D166A2E168D2B166E23168B2019C49C
:1018F8002A16264800001685E50AB4FF03750A066D
:10190800121577FC121577FD121577FE121577FF61
:101918009080F3020EBF790AA2D52003143005097E
:10192800B910020404B9080104A2D5200602500126
:10193800042002689202B509005034C0E07F2030CC
:1019480003197F30A20272067205500F121977C26E
:1019580002C206C205C2087F30800F300503E9C005
:10196800E01215BA300503D0E0F9D0E0B509CC3063
:1019780005177F30B9100C1215BA7F583004077F4D
:10198800788003B908031215BA3002057F2D0215B5
:10199800BA7F202008F87F2B2006F322920280CFFE
:1019A8007F00B40700500B24F3F582E43480F583FC
:1019B800E0FF22286E756C6C2900D2011215773071
:1019C80001F8C201780930D50108F60216262D5013
:1019D8004349581215772403B405004001E49019CF
:1019E800D6931215AB743A1215ABD20375090402DB
:1019F80017FC9080CB12151B9080CB1214FB12138E
:101A0800B89080D2F09080CB1214FB900002121391
:101A1800E39080D3F09080CB1214FB900002121355
:101A2800E3640345F0704A9080CB1214FB900004E5
:101A38001213E3E5F09080D4F09080CB1214FB9061
:101A480000041213E39080D5F09080CB1214FB9021
:101A580000061213E3E5F09080D6F09080CB1214C4
:101A6800FB9000061213E39080D7F09080F674067E
:101A7800F09080CB1214FB9000021213E36405452A
:101A8800F0704A9080CB1214FB9000041213E3E527
:101A9800F09080D4F09080CB1214FB9000041213C5
:101AA800E39080D5F09080CB1214FB9000061213BF
:101AB800E3E5F09080D6F09080CB1214FB900006FE
:101AC8001213E39080D7F09080F67406F09080CBE4
:101AD8001214FB9000021213E3640645F0704A905A
:101AE80080CB1214FB9000041213E3E5F09080D42D
:101AF800F09080CB1214FB9000041213E39080D571
:101B0800F09080CE1214FB90000C1213E3E5F090D5
:101B180080D6F09080CE1214FB90000E1213E39042
:101B280080D7F09080F67406F09080CB1214FB906A
:101B380000021213E3640F45F0706F9080CB12140B
:101B4800FB9000041213E3E5F09080D4F09080CB72
:101B58001214FB9000041213E39080D5F09080CB10
:101B68001214FB9000061213E3E5F09080D6F09073
:101B780080CB1214FB9000061213E39080D7F090EC
:101B880080CB1214FB9000081213E3E5F09080D884
:101B9800F09080CB1214FB9000081213E39080D9C8
:101BA800F09080F67408F0021CA79080CB1214FB0A
:101BB8009000021213E3641045F06003021CA79022
:101BC80080D1E025E09080F7F09080CB1214FB9054
:101BD80000041213E3E5F09080D4F09080CB121447
:101BE800FB9000041213E39080D5F09080D1E0E4DC
:101BF8009080D6F09080D1E09080D7F09080F7E088
:101C08009080D8F0E49080F4F0A3F09080D1E0FFC9
:101C18009080F4E0FCA3E0C39FEC940050779080A0
:101C2800F4E0FEA3E025E0FFEE33FE9080CE121430
:101C3800FB8F828E831213E3E5F0FD9080F4E0FEC3
:101C4800A3E025E0FFEE33FE74D92FF58274803EC1
:101C5800F583EDF09080F4E0FEA3E025E0FFEE339D
:101C6800FE9080CE1214FB8F828E831213E3FD90B8
:101C780080F4E0FEA3E025E0FFEE33FE74DA2FF5F2
:101C88008274803EF583EDF09080F4E475F00112E3
:101C980013A2021C139080F7E024079080F6F07BD3
:101CA800017A8079D29080F6E0FD1221C29080F20C
:101CB800EEF0A3EFF09080F2E0A3E0FF9080F6E072
:101CC80024D3F582E43480F583EFF09080F2E0FECF
:101CD800A3E0EEFF9080F6E024D2F582E43480F5AC
:101CE80083EFF09080F6E02402F07B017A8079D2CD
:101CF800E0FD7C001225F1229080CB12151B90800C
:101D0800CEECF0A3EDF09080CB1214FB121328FF59
:101D18009080DBE4F0A3EFF09080CB1214FB9000EE
:101D280001121341FF9080DDE4F0A3EFF07B017A0C
:101D38008079DB9080E4E4F0A304F07F657E2012D4
:101D48001F997B017A8079DD9080E4E4F0A304F0A8
:101D58007F677E20121F999080CEE0FEA3E0C39497
:101D680004EE94005039E49080D9F0A3F09080D923
:101D7800E0FEA3E0C39440EE940050209080CB1284
:101D880014FB9080D9E0A3E0F5828E83E4121380DF
:101D98009080D9E475F0011213A280D17F6322905C
:101DA80080CB1214FB9080CEE0FEA3E024FEFFEE71
:101DB80034FF8F82F583121341FE9080CB1214FBFF
:101DC8009080CEE0FCA3E024FFFDEC34FF8D82F58B
:101DD80083121341FDEEEDFF9080D3EEF0A3EFF0F8
:101DE8009080CB1214FB9080CEE0A3E024FEFD127D
:101DF80021C29080D5EEF0A3EFF09080D5E0FEA34D
:101E0800E0FF9080D3E0FCA3E06F7002EC6E6039D5
:101E1800E49080D9F0A3F09080D9E0FEA3E0C394C9
:101E280040EE940050209080CB1214FB9080D9E0B3
:101E3800A3E0F5828E83E41213809080D9E475F0D4
:101E4800011213A280D17F62229080CB1214FB1260
:101E58001328FF9080D01214FBE48FF012141B900B
:101E680080CB1214FB900001121341FF9080D01216
:101E780014FB900002E48FF012143A9080D01214F0
:101E8800FB9000021213E3640345F06003021F5A3B
:101E98009080CB1214FB900002121341FF9080D067
:101EA8001214FB900004E48FF012143AE49080D7E7
:101EB800F0A3F09080D01214FB9000041213E3FFFB
:101EC8009080D7E0FCA3E0C39FEC95F0504B908046
:101ED800CB1214FB9080D7E0FEA3E02403FFE43E7E
:101EE8008F82F583121341FD9080D01214FBE924F0
:101EF80006F9E43AFA9080D7E0A3E025E0FFEE3354
:101F0800FEE92FF9EA3EFAE48DF012141B9080D70F
:101F1800E475F0011213A2809AE49080D9F0A3F03E
:101F28009080D9E0FEA3E0C39440EE940050209046
:101F380080CB1214FB9080D9E0A3E0F5828E83E475
:101F48001213809080D9E475F0011213A280D17F1A
:101F580001229080D01214FB9000021213E3640552
:101F680045F070037F01229080D01214FB9000028C
:101F78001213E3641045F070037F01229080D012A1
:101F880014FB9000021213E3640F45F070027F0106
:101F9800229080DFEEF0A3EFF0A312151B9080DFF4
:101FA800E0A3E054019080E6F09080DFE0FEA3E03B
:101FB800FFEEC313FEEF13FF9080DFEEF0A3EFF008
:101FC800E4F5F19080DFE0FEA3E0EEF5F29080DF2B
:101FD800E0A3E0F5F375F40175F88F30FCFD90800F
:101FE800E6E0603C9080E4E0FEA3E0D39400EE9449
:101FF80000402D75F8839080E1E475F00112150416
:10200800121328F5FC9080E1E475F0011215041212
:102018001328F5FDD2FE9080E474FFF5F01213A2A8
:1020280075F88F9080E4E0FEA3E0C39402EE94007C
:10203800404B9080E1E475F001121504121328F565
:10204800FA9080E1E475F001121504121328F5FBEB
:102058009080E1E475F001121504121328F5FC9044
:1020680080E1E475F001121504121328F5FDD2FE83
:102078009080E474FF75F0FE1213A280A69080E4AD
:10208800E0FEA3E04E602375F88C9080E1E475F0E3
:1020980001121504121328F5FA9080E1E475F00195
:1020A800121504121328F5FBD2FEE4F5F8222530A8
:1020B80032582000202020202020202020202020EE
:1020C8002020202020202020202020202020202008
:1020D80020202020004F4B202020200A004441547B
:1020E800415F4552520A004C656E6768740A0043A6
:1020F80052432020200A004552524F520A0052658E
:1021080063656976656420202020202020200A004D
:1021180054696D656F7574202020202020202020B0
:102128000A00000100050000000000000002000392
:102138000000000400000002001000000001000080
:102148000003000300000001000000040003000079
:102158000001000000050003000000010000000667
:102168000003000000010000000700030000000158
:102178000000000000000000000000000000000057
:102188000000000000000000000000000000000047
:102198000000000000000000000000000000000037
:1021A8000000000000000000000000000000000027
:1021B800000000000000000000009080F812151BCD
:1021C8009080FBEDF074FFA3F0A3F0E4908102F09F
:1021D800A3F09080FBE0FF908102E0FCA3E0C39FA6
:1021E800EC940040030222879080F81214FB90813F
:1021F80002E0FEA3E0F5828E83121341FF9080FC7B
:10220800E0FCA3E0FDECFEEF6DFF9080FCEEF0A398
:10221800EFF0E4908104F0908104E0C394085052F8
:102228009080FCE0A3E05401FF908100E4F0A3EF6C
:10223800F09080FCE0FEA3E0FFEEC313FEEF13FF77
:102248009080FCEEF0A3EFF0908100E0FEA3E04E5A
:1022580060189080FCE0FEA3E0FFEE64A0FEEF644F
:1022680001FF9080FCEEF0A3EFF0908104E004F011
:1022780080A5908102E475F0011213A20221DA9080
:1022880080FCE0FEA3E0EEFFA3E4F0A3EFF0908073
:10229800FCA3E0FEA3E0FCA3E0FDEE4CFEEDFF9006
:1022A80080FCEEF0A3EFF09080FCE0FEA3E0FF904E
:1022B80080FCEEF0A3EFF09080FCE0FEA3E0FF22AC
:1022C8009080CBEEF0A3EFF0A312151B9080CBE02B
:1022D800A3E054019080D2F09080CBE0FEA3E0FF11
:1022E800EEC313FEEF13FF9080CBEEF0A3EFF0E404
:1022F800F5F19080CBE0FEA3E0EEF5F29080CBE024
:10230800A3E0F5F375F40175F8AF30FCFD9080D0CB
:10231800E0FEA3E0D39400EE940050030223B5D26C
:10232800FE20FEFD9080D2E0703D9080D0E0FEA3BC
:10233800E0D39400EE9400402E9080CDE475F00137
:10234800121504E5FA12136E9080CDE475F00112AF
:102358001504E5FB12136E9080D27401F09080D0C2
:1023680074FFF5F01213A29080D2E0B4019F908020
:10237800D0E0FEA3E0D39400EE940040909080CD8E
:10238800E475F001121504E5FC12136E9080CDE49B
:1023980075F001121504E5FD12136EE49080D2F079
:1023A8009080D074FFF5F01213A2022315E4F5F81B
:1023B80022C0E0C0F0C083C082C0D075D000C00089
:1023C800C004C005C006C00720980302248CC29828
:1023D8009081591214CA0007A120908000E599F055
:1023E800908155E0FEA3E0EE30E70302248C908153
:1023F80055E0FEA3E0C39440EE9400503D90800069
:10240800E0FF908155E0FCA3E02407F58274813C4D
:10241800F583EFF0908155E475F0011213A29081D5
:1024280055E0FEA3E064024E7019908108E030E7A1
:1024380012780F76000876058009908155E4F0A39C
:10244800F08041908106E0FF780FE6FC08E6FDC3C6
:10245800EF9DE49C5003E004F0908106E0FF780FC4
:10246800E6FC08E6FDEFB5051BE4B50417908155B9
:10247800E0FEA3E0FFEE4480908155F0A3EFF090DA
:102488008106E4F0D007D006D005D004D000D0D023
:10249800D082D083D0F0D0E0329080CB12151B9040
:1024A80080CEEDF0E0C394105063A3E0602F9080DD
:1024B800CB1214FB1213B8FDACF09080CEE0FF7481
:1024C800017E00A807088005C333CE33CED8F9FFB4
:1024D800EC4EFEED4FFFEE8FF012141B229080CBD6
:1024E8001214FB1213B8FDACF09080CEE0FF74011B
:1024F8007E00A807088005C333CE33CED8F9F4FF91
:10250800EEF45CFEED5FFFEE8FF012141B2290805C
:10251800CF1214BE43C94053B7CF43B71075D88004
:1025280075985053877F9080CF1214A6E4120DC37C
:10253800A804A905AA06AB077F007EE07D447C4A73
:10254800120D26120E01C3E49FFF74049EFEE4FCE4
:10255800FD9080CF1214BE9080CF1214A678081276
:102568001493EFE48FBA9080CF1214A6EFE48FAAE9
:10257800D2ACD2AF908155F0A3F0908106F022C082
:10258800E0C0F0C083C082C0D075D000C000C001D8
:10259800C002C003C004C005C006C007C2C69081FF
:1025A800591214A6EC4D4E4F60159081591214A67D
:1025B80074FFFBFAF9F81214679081591214BE7867
:1025C8000DE6FE08E64E6006E61618700116D007FE
:1025D800D006D005D004D003D002D001D000D0D08E
:1025E800D082D083D0F0D0E0329080F812151B90C2
:1025F80080FBECF0A3EDF0C2ACE4A3F0A3F0908074
:10260800FBE0FEA3E0FFA3E0FCA3E0C39FEC9E5029
:10261800279080F81214FB9080FDE0FEA3E0F5827D
:102628008E83121341F5993099FDC2999080FDE48B
:1026380075F0011213A280C6D2AC22C2AFC2D3C2B7
:10264800D4E4F58E75C870F593759401759502F507
:10265800C9F5F875F901F5A843B830F59AF5A9F563
:10266800B953C9FDD2BDD2BCD2AF229080CBEEF017
:10267800A3EFF09080CBE0FEA3E0FF780DA606085C
:10268800A607780DE6FE08E64E70F72275C870E4D6
:10269800F5CDF5CC75CBBC75CACD43A820D2C8D230
:1026A800AF229080FCEFF0C2ACE0F5993099FDC202
:1026B80099D2AC229080FBEFF0E0FF1226AA90801E
:0426C800FBE0FF2212
:00000001FF
