:1000000002002E90809912089EC2ACE4F598F5BAD1
:0F001000F5AA53877F908099120886121E362218
:03002300021CD9E3
:10002B00021EA7787FE4F6D8FD75816B020075027E
:10003B000957E493A3F8E493A34003F68001F20875
:10004B00DFF48029E493A3F85407240CC8C333C40A
:10005B00540F4420C8834004F456800146F6DFE475
:10006B00800B01020408102040809000BAE47E014E
:10007B009360BCA3FF543F30E509541FFEE493A3E8
:10008B0060010ECF54C025E060A840B8E493A3FAFA
:10009B00E493A3F8E493A3C8C582C8CAC583CAF086
:1000AB00A3C8C582C8CAC583CADFE9DEE780BE0222
:1000BB000D0000448127000000004581160102035A
:1000CB00040542811F000142812500044181150076
:1000DB0044811B0000000042812100004180D300BD
:0C00EB00020F000000121F63121FB4225D
:1000F800FFFF4457494E5435020075020257EC5D24
:10010800046005E85904700302024D1202185804ED
:1001180060F6EC4860F2EC7004FDFEFF22C860DB7C
:100128002481C85009C398600250060202549850AE
:10013800CAF582E9294B4A7005AB8202024375F081
:10014800007C1A7880C3EF9BEE9AED99400DC3EFBF
:100158009BFFEE9AFEED99FDE842F0DC23ACF0D06F
:10016800E0FFD0E0FED0E0FDAB8220E7101BEB60A3
:10017800BAEC2CFCEF33FFEE33FEED33FD02022F19
:10018800E803F830E705C0F075F000EF2FFFEE3315
:10019800FEED33FD40B830E7C280AA75F020800E2E
:1001A80075F010800575F0087D007E007F003392A1
:1001B800D530D503120854EC334010EF33FFEE333B
:1001C800FEED33FDEC33FCD5F0ED22E5F0247EA204
:1001D800D513CC92E7CDCEFF22EDD2E7CD33EC3369
:1001E80092D524814006E4FFFEFDFC22FCE4CFCE3C
:1001F800CDCC24E0501174FF80EDC3CC13CCCD13CB
:10020800CDCE13CECF13CF0470F030D5DE02085414
:10021800E9D2E7C933E833F892D5EDD2E7CD33EC2C
:1002280033FC5002B2D522EC30E7100FBF000C0EA1
:10023800BE00080DBD00040BEB6014A2D5EB13FC47
:10024800ED92E7FD2274FFFCFDFEFF22E480F8A298
:10025800D574FF13FC7D80E480EFF920E73624F99C
:1002680050037907E4F42402FBE582158270021535
:1002780083DBF6E024FB501BE96014E4F0E582150B
:100288008270021583E004F0B40A08E4F0D9EE7431
:1002980001F00A22C2D522ED33EC3392D5FA602A56
:1002A800B4FF33EDC2E77BFF60067A0279C4E4222B
:1002B8007A0279CD20D5047A0279C8224E614E009F
:1002C8002B494E46002D494E4600E47A08F0A3DA41
:1002D800FC7B00740722C083C082ECC0E0EDC0E064
:1002E800EEC0E0EFC0E0EA75F010A4CAABF075F01C
:1002F8004DA42BFBE435F0FCEA2410FAEB34C5FBE3
:10030800EC34D9FCEDC2E7FF75F056A4F42411C50E
:10031800F0F434C58FF0A42AE5F03BE43CF020E784
:10032800141205D2D0E0FFD0E0FED0E0FDD0E0FC12
:100338001201068014F4041205D2D0E0FFD0E0FECA
:10034800D0E0FDD0E0FC12049CD082D083E0FAED2E
:10035800D2E7CD33EC332482FBE4C3CF33CFCE33A3
:10036800CECD33CD33DBF37B0775F00A846004F020
:10037800A31B0AE5F0F0A38FF0740AA4FFACF08E7B
:10038800F0740AA42CFEACF050010C8DF0740AA491
:100398002CFDE435F0F0A3DBDE74072202024DE801
:1003A8006480F8E933E83360110460F0ED33EC332E
:1003B8007009E8FCE9FDEAFEEBFF220460DED3EBFE
:1003C8009FEA9EE99DE8C2E78CF0C2F795F0400CE1
:1003D800E8CCF8E9CDF9EACEFAEBCFFB12021885A2
:1003E800D0F05804700320D5B3E80470075002B267
:1003F800D502025792D5EC0460F7E4CCC0E0C3986C
:10040800F8603B94186008400DD0E0FB02022FE42E
:10041800FBFAC9FC8028E830E406E4C9FBE4CAFC1E
:10042800E830E305E4C9CACBFCE854076010F8C318
:10043800E913F9EA13FAEB13FBEC13FCD8F130F5E6
:100448002FC3E49CFCEF9BFFEE9AFEED99FDD0E0F4
:10045800FBEF4E4D4C701222DB03020254EC2CFCD5
:10046800EF33FFEE33FEED33FDED30E7EB02022F05
:10047800EF2BFFEE3AFEED39FDD0E0FB50130BBB3E
:100488000003020257ED13FDEE13FEEF13FFEC130A
:10049800FC02022FEC4D6011E8497017ED33EC3384
:1004A80004600DE4FCFFFEFD22E933E8330470F834
:1004B80002024D12021858046009E4CC2481500647
:1004C800285009020257284003020254C0E0EB4AB0
:1004D8007044B98006D0E0FB020243EF4E701CBDA9
:1004E8008008EBFFEAFEE9FD80EBE98DF0A4FEE56C
:1004F800F0020585E9CDF9EAFEEBFFEF89F0A4FCEF
:10050800E5F0CE89F0A42EFFE435F0CD89F0A42DD6
:10051800FEE435F08067EF4E7005BD80D780C3EFED
:100528008BF0A4ACF0EE8BF0A42CFCE435F0F8EFE3
:100538008AF0A42CE5F038FCE433CB8DF0A42CFC35
:10054800E5F03BF8EE8AF0A42CFCE5F038F8E4334B
:10055800CF89F0A42CFCE5F038CF3400CE89F0A484
:100568002FFFE5F03EFEE433C98DF0A42EFEE5F042
:1005780039CD8AF0A42FFFE5F03EFEE43DFD33D0EF
:10058800E0FB50070BBB000F020257EC2CFCEF33CB
:10059800FFEE33FEED33FD02022F3F8000004120C5
:1005A800000042C80000447A0000461C400047C3CF
:1005B8005000497424004B1896804CBEBC205A0E3B
:1005C8001BCA6753C21C749DC5AEFB600654076006
:1005D8001C2323120600EB543860091205EC12059F
:1005E800FB12049CECF8EDF9EEFAEFCB22EB1205C6
:1005F800FB80F1543803241C9005A2FE93FC0EEEF8
:1006080093FD0EEE930ECE93FF22E709F608DFFA6C
:100618008046E709F208DFFA803E88828C83E70982
:10062800F0A3DFFA8032E309F608DFFA8078E309FD
:10063800F208DFFA807088828C83E309F0A3DFFA7E
:10064800806489828A83E0A3F608DFFA8058898269
:100658008A83E0A3F208DFFA804C80D280FA80C651
:1006680080D4806980F28033801080A680EA809AE6
:1006780080A880DA80E280CA803389828A83ECFA93
:10068800E493A3C8C582C8CCC583CCF0A3C8C582EF
:10069800C8CCC583CCDFE9DEE7800D89828A83E494
:1006A80093A3F608DFF9ECFAA9F0EDFB2289828A18
:1006B80083ECFAE0A3C8C582C8CCC583CCF0A3C834
:1006C800C582C8CCC583CCDFEADEE880DB89828AB4
:1006D80083E493A3F208DFF980CC88F0EF60010E81
:1006E8004E60C388F0ED2402B4040050B9F582EBE3
:1006F8002402B4040050AF2323458223900662737A
:10070800BB010689828A83E0225002E722BBFE02EF
:10071800E32289828A83E49322BB010CE58229F5CE
:1007280082E5833AF583E0225006E92582F8E6223D
:10073800BBFE06E92582F8E222E58229F582E583F7
:100748003AF583E49322BB010689828A83F022501A
:1007580002F722BBFE01F322F8BB010DE58229F561
:1007680082E5833AF583E8F0225006E92582C8F647
:1007780022BBFE05E92582C8F222C5F0F8A3E028CD
:10078800F0C5F0F8E582158270021583E038F02292
:10079800BB010A89828A83E0F5F0A3E0225006872C
:1007A800F009E71922BBFE07E3F5F009E3192289EE
:1007B800828A83E493F5F074019322BB0110E582E9
:1007C80029F582E5833AF583E0F5F0A3E0225009A4
:1007D800E92582F886F008E622BBFE0AE92582F8B8
:1007E800E2F5F008E222E5832AF583E993F5F0A320
:1007F800E99322BB010A89828A83F0E5F0A3F022FB
:100808005006F709A7F01922BBFE06F3E5F009F335
:100818001922F8BB0111E58229F582E5833AF583AF
:10082800E8F0E5F0A3F0225009E92582C8F608A609
:10083800F022BBFE09E92582C8F2E5F008F222EFB2
:100848002BFFEE3AFEED39FDEC38FC22C3E49FFFA6
:10085800E49EFEE49DFDE49CFC22EB9FF5F0EA9EFD
:1008680042F0E99D42F0E89C45F022E8600FECC3B5
:1008780013FCED13FDEE13FEEF13FFD8F122E0FC9D
:10088800A3E0FDA3E0FEA3E0FF22E0F8A3E0F9A3C4
:10089800E0FAA3E0FB22ECF0A3EDF0A3EEF0A3EF67
:1008A800F022A8828583F0D083D0821208C1120872
:1008B800C11208C11208C1E473E493A3C583C5F04B
:1008C800C583C8C582C8F0A3C583C5F0C583C8C59C
:1008D80082C822E0FBA3E0FAA3E0F922F8E0FBA338
:1008E800A3E0F925F0F0E582158270021583E0FA9D
:1008F80038F022EBF0A3EAF0A3E9F022D083D0820B
:10090800F8E4937012740193700DA3A393F8740123
:1009180093F5828883E4737402936860EFA3A3A3BA
:1009280080DFD083D082F8E4937012740193700D45
:10093800A3A393F8740193F5828883E473740293F4
:10094800B5F0067403936860E9A3A3A3A380D87BDA
:10095800FF7A1C796178227C007D007E007F30124E
:1009680006E27BFF7A1C799178017C807D017E000C
:100978007F081206E29080091208AA000000007B96
:10098800FF7A1C799978127C807D017E007F301275
:1009980006E27BFF7A1C79C9785A7C007D007E00CC
:1009A8007F101206E2E4786AF6908093F0A3F0A331
:1009B800F0A3F0A3F0A3F01200F07F807E257D0065
:1009C8007C00121E36E4908121F0A3F090800DF097
:1009D8009081271208AA0007A120E4786AF6FB7A1A
:1009E80000796A90809EF0A304F07F797E20121A25
:1009F800FC786AE65401F6E6908042F07B007A00C3
:100A08007968E090809DF07D01121DC17B007A001D
:100A1800796A9080B2E4F0A304F07F757E20121802
:100A2800D9E4FFFEFDFC908127120892C3120862E8
:100A3800702290800DE0B4011B908123E0FEA3E0BA
:100A48004E6011908123E0A3E0FFEE448090812363
:100A5800F0A3EFF0908123E0FEA3E0EE20E703028D
:100A68000DB8908123A3E0FFEE547F90800EF0A391
:100A7800EFF07B017A80790E9080B2E4F0A37402E3
:100A8800F07F697E201218D9E4908043F0A3F0909B
:100A98008010F0A3F090800EE0FEA3E0FFA3E0FC3E
:100AA800A3E0C39FEC9E505A908043E0FEA3E0244D
:100AB80012F974803EFA7B01C003C002C0017BFFBB
:100AC8007A1B79ED90809C1208FB908010E0FEA3C1
:100AD800E024D5F58274803EF583E0FF90809FE4A2
:100AE800F0A3EFF0D001D002D00312102090804381
:100AF800EE8FF0120782908010E475F001120782E1
:100B080080937BFF7A1B79F39080B2E4F0A3741092
:100B1800F0FF7E201218D97B017A807912908043E9
:100B2800E0FEA3E0FFEEC313FEEF132402FFE43E52
:100B38009080B2F0A3EFF07F107E201218D9E490D5
:100B48008010F0A3F0908010E0FEA3E0C39430EE94
:100B58009400501C908010E0A3E02412F582748069
:100B68003EF583E4F090801075F00112078280D57D
:100B78009081271208AA0007A1207B017A8079D5E5
:100B8800C002C00190800EE0FCA3E0FD7A80794BA2
:100B980090809E1208FBD001D00212143E908097DC
:100BA800E4F0A3EFF07B017A8079979080B2E4F0CB
:100BB800A304F07F717E201218D9908097E0FEA3DD
:100BC800E064014E6003020CD57BFF7A1C79149017
:100BD80080B2F0A37404F07F967E201218D990801A
:100BE8004BE0FEA3E08EF012092A0BFE00010C7602
:100BF800000200000D7690804FE0FEA3E0C394024F
:100C0800EE94005003020D76A3E0A3E0FEA3E0FCFF
:100C1800A3E0FDEE4CFEEDFF908049EEF0A3EFF06F
:100C2800908049E0FEA3E0EE30E70E908049A3E013
:100C3800FF908049EEF0A3EFF0908049E0FCA3E03C
:100C4800FDE41201A8E4FBFA79207841120106902C
:100C5800804512089E7B017A8079459080B2E4F045
:100C6800A37402F07F057E201218D9020D769080B9
:100C78004FE0FEA3E0C39402EE94004031A3E0A34A
:100C8800E0FEA3E0FCA3E0FDEE4CFEEDFF908091BA
:100C9800EEF0A3EFF07B017A8079919080B2E4F0D6
:100CA800A37402F07F077E201218D9020D767BFF0D
:100CB8007A1C791C9080B2E4F0A37406F07F967ECB
:100CC800201218D9020D76020D76020D76908097C3
:100CD800E0FEA3E064634E702E7BFF7A1C792690B9
:100CE80080B2F0A37404F07F967E201218D97F1486
:100CF8007E00121F93E4908123F0A3F07F807E256D
:100D0800FDFC1200038067908097E0FEA3E0646218
:100D18004E702E7BFF7A1C792E9080B2F0A374045B
:100D2800F07F967E201218D97F147E00121F93E45C
:100D3800908123F0A3F07F807E25FDFC12000380C4
:100D48002D7BFF7A1C79369080B2E4F0A37404F00E
:100D58007F967E201218D97F147E00121F93E4908C
:100D68008123F0A3F07F807E25FDFC120003E49030
:100D78008123F0A3F090800EF0A3F0A3F0A3F090ED
:100D88008010E0FEA3E0C39440EE9400501C9080D5
:100D980010E0A3E024D5F58274803EF583E4F0905A
:100DA800801075F00112078280D59080D37401F00D
:100DB80090800DE06003020EDD908121E0FEA3E04B
:100DC800C39406EE94004007E4908121F0A3F07FDD
:100DD8000F7E00121F93908121E0A3E075F008A414
:100DE8002422F9E4FAFB78527C00FDFE7F08120603
:100DF800E27B017A8179219080B2E4F0A304F07F4C
:100E0800007E201218D97854E608E6786BF67B0045
:100E18007A0079549080B2E4F0A304F0FF7E2012A7
:100E280018D97B007A0079569080B2E4F0A304F0D8
:100E38007F027E201218D9786BE6B403187858E63A
:100E4800FE08E625E0FFEE33FEEF2405FFE43E78DA
:100E58000FF608A607786BE6B41007780F76000837
:100E68007608786BE6B40607780F76000876087B74
:100E7800007A00790F9080B2E4F0A37402F07F0347
:100E88007E201218D97B007A0079529080B2E4F063
:100E9800A304F07F047E201218D99080091208AAB2
:100EA80000030D4090800D7401F07B007A007952A8
:100EB800C002C0017A00795A90809C1208FB908089
:100EC8009F7408F0D001D0021216AD908127120845
:100ED800AA0007A12090800912088674FFFBFAF97E
:100EE800F812084790800912089E90800DE064016E
:100EF80060030209E29080D3E0B4013B7A1C793D9B
:100F08009080B2E4F0A37409F07F427E201218D9D1
:100F1800908121E475F001120782E490800DF09031
:100F280080D3F09080091208AA00030D4090812711
:100F38001208AA0007A120E4FFFEFDFC9080091218
:100F48000892C312086260030209E27BFF7A1C79E7
:100F58004F9080B2F0A37409F07F427E201218D916
:100F6800E4908010F0A3F0908010E0FEA3E0C3941A
:100F780030EE9400501C908010E0A3E02412F5821B
:100F880074803EF583E4F090801075F001120782BA
:100F980080D5908121E475F001120782E490800DDC
:100FA800F09080D3F09081271208AA0007A12002B0
:100FB80009E222E508249CF582E43480F583E00503
:100FC800082290809930070390809CE475F0011204
:100FD80008E40207082000E97F2ED2008018EF54A9
:100FE8000F2490D43440D4FF30040BEF24BFB41A3C
:100FF8000050032461FFE50960021509050CE50CA2
:101008007002050B30070E908099E475F001120804
:10101800E4EF02074E021FDC7403D2078003E4C228
:1010280007F5089080991208FBE4F509F50BF50C13
:10103800E50960077F20120FFE80F5750AFFC201DF
:10104800C200C202C203C205C206C208120FCAFF0A
:10105800700D3007057F0012100FAF0CAE0B22B4D5
:10106800255FC2D5C204120FCAFF24D0B40A0050AB
:101078001A75F00A780930D50508B6FF0106C6A426
:1010880026F620D5047002D20380D924CFB41A00E2
:10109800EF5004C2E5D204021301D20180C6D20087
:1010A80080C0D20280BCD2D580BAD20580B47F205D
:1010B800120FFE2002077401B5090040F1120FBBA0
:1010C800FF120FFE021038D208D2068095120FBB0D
:1010D800FB120FBBFA120FBBF94A4B700679FF7A65
:1010E800137BFF20022EE509602A7E008E8275831D
:1010F8000012072160060EEE650A70F0C2D5EBC03B
:10110800E0EAC0E0E9C0E0EE121362D0E0F9D0E016
:10111800FAD0E0FB120708FF60AAEBC0E0EAC0E0E3
:10112800E9C0E0120FFED0E02401F9D0E03400FA63
:10113800D0E0FBE50A0460DCD50AD98087D20280BA
:10114800A212134460F7E50A700104120262A90AA8
:10115800600DE50A600914F50A1213ECEF60F3EA72
:1011680030E702F404C3995079EAF4250A0430E719
:1011780001E404F50A800D12134460C1EA050A254A
:101188000A120262EA9080C8F030E701E4250A04F6
:10119800D50A0420050114121362E4C0E01213EC0E
:1011A8009080C8E0601320E70714F0120FE6802251
:1011B80004F0D0E014C0E07F00120FE6E50A6007F3
:1011C800120FDD150A800B300503120FDDD0E00287
:1011D8001038D0E00480C4121344609EE50A04125B
:1011E80002629080C8EAF0E50A2005026001042442
:1011F8000412136274FF04C0E01213EC120FE6E548
:101208000A2005026003120FDDD0E0B50AE87F4529
:10121800120FF09080C8E07F2B30E7047F2DF40494
:10122800C0E0120FFED0E075F00A84C0F0120FE79C
:10123800D0E0120FE7021038791080027908C20650
:10124800C2088008D2D5790A8004790AC2D5E50A8D
:10125800047002F50AE4FAFDFEFF120FBBFC7B08DE
:10126800200113120FBBFD7B1030000A120FBBFECA
:10127800120FBBFF7B20EC3382D592D55013C3E409
:101288003000069FFFE49EFEE42001039DFDE49CE0
:10129800FCE4CBF8C201EC700CCFCECDCCE824F83E
:1012A800F870F38017C3EF33FFEE33FEED33FDEC38
:1012B80033FCEB33FB994002FB0FD8E9EB30010517
:1012C800F8D0E0C448B201C0E00AEC4D4E4F782097
:1012D8007B0070C2EAB50A0040BCC0E0121364D0BB
:1012E800F0D0E0200104C4C0E0C4B201C0F0120F85
:1012F800E7D0F0D5F0EB02103812090410D55312DC
:10130800405810A64C10A24212444F124C44124CA2
:101318004910BB43125255117F4611DF4511494709
:10132800141F5010AA2D10AE2E10D12B10B223105E
:10133800CF2014082A106A48000010C9E50AB4FF33
:1013480003750A06120FBBFC120FBBFD120FBBFE82
:10135800120FBBFF9080C102029F790AA2D5200319
:1013680014300509B910020404B9080104A2D520F3
:1013780006025001042002689202B509005034C0E8
:10138800E07F203003197F30A20272067205500FE9
:101398001213BBC202C206C205C2087F30800F30DA
:1013A8000503E9C0E0120FFE300503D0E0F9D0E0F4
:1013B800B509CC3005177F30B9100C120FFE7F58D5
:1013C8003004077F788003B90803120FFE30020546
:1013D8007F2D020FFE7F202008F87F2B2006F322A6
:1013E800920280CF7F00B40700500B24C1F582E43D
:1013F8003480F583E0FF22286E756C6C2900D201D9
:10140800120FBB3001F8C201780930D50108F60285
:10141800106A2D50434958120FBB2403B4050040ED
:1014280001E490141A93120FEF743A120FEFD203DB
:101438007509040212409080991208FB90809CEC78
:10144800F0A3EDF09080991208DB120708FF908056
:10145800A9E4F0A3EFF09080991208DB9000011244
:101468000721FF9080ABE4F0A3EFF07B017A80794D
:10147800A99080B2E4F0A304F07F657E201218D909
:101488007B017A8079AB9080B2E4F0A304F07F67A7
:101498007E201218D990809CE0FEA3E0C39404EE4D
:1014A80094005039E49080A7F0A3F09080A7E0FE64
:1014B800A3E0C39440EE940050209080991208DB7A
:1014C8009080A7E0A3E0F5828E83E4120760908005
:1014D800A7E475F00112078280D17F63229080997A
:1014E8001208DB90809CE0FEA3E024FEFFEE34FFB0
:1014F8008F82F583120721FE9080991208DB908075
:101508009CE0FCA3E024FFFDEC34FF8D82F5831200
:101518000721FDEEEDFF9080A1EEF0A3EFF09080A3
:10152800991208DB90809CE0A3E024FEFD1219F6D6
:101538009080A3EEF0A3EFF09080A3E0FEA3E0FF7D
:101548009080A1E0FCA3E06F7002EC6E6039E4903B
:1015580080A7F0A3F09080A7E0FEA3E0C39440EE3C
:10156800940050209080991208DB9080A7E0A3E0B7
:10157800F5828E83E41207609080A7E475F001126B
:10158800078280D17F62229080991208DB120708B7
:10159800FF90809E1208DBE48FF01207FB90809981
:1015A8001208DB900001120721FF90809E1208DBD1
:1015B800900002E48FF012081A90809E1208DB90C7
:1015C80000021207C3640345F06003021698908076
:1015D800991208DB900002120721FF90809E1208E2
:1015E800DB900004E48FF012081AE49080A5F0A3C1
:1015F800F090809E1208DB9000041207C3FF9080D1
:10160800A5E0FCA3E0C39FEC95F0504B90809912A5
:1016180008DB9080A5E0FEA3E02403FFE43E8F8270
:10162800F583120721FD90809E1208DBE92406F954
:10163800E43AFA9080A5E0A3E025E0FFEE33FEE966
:101648002FF9EA3EFAE48DF01207FB9080A5E475C5
:10165800F001120782809AE49080A7F0A3F09080AE
:10166800A7E0FEA3E0C39440EE9400502090809938
:101678001208DB9080A7E0A3E0F5828E83E41207CE
:10168800609080A7E475F00112078280D17F012263
:1016980090809E1208DB9000021207C3641045F088
:1016A80070027F01229080991208FB90809912089D
:1016B800DB1207989080A0F09080991208DB9000C8
:1016C800021207C39080A1F09080991208DB900065
:1016D800021207C3640345F0704A9080991208DB30
:1016E8009000041207C3E5F09080A2F09080991250
:1016F80008DB9000041207C39080A3F09080991231
:1017080008DB9000061207C3E5F09080A4F09080F3
:10171800991208DB9000061207C39080A5F090800C
:10172800C47406F09080991208DB9000021207C377
:10173800640645F0704D9080991208DB9000041201
:1017480007C3E5F09080A2F09080991208DB900022
:10175800041207C39080A3F090809C1208DB9000CD
:101768000C1207C3E5F09080A4F090809C1208DB6F
:1017780090000E1207C39080A5F09080C47406F004
:101788000218809080991208DB9000021207C36447
:101798001045F0600302188090809FE025E090805B
:1017A800C5F09080991208DB9000041207C3E5F099
:1017B8009080A2F09080991208DB9000041207C371
:1017C8009080A3F090809FE0E49080A4F090809FA8
:1017D800E09080A5F09080C5E09080A6F0E490802D
:1017E800C2F0A3F090809FE0FF9080C2E0FCA3E0ED
:1017F800C39FEC940050779080C2E0FEA3E025E000
:10180800FFEE33FE90809C1208DB8F828E831207D6
:10181800C3E5F0FD9080C2E0FEA3E025E0FFEE33D3
:10182800FE74A72FF58274803EF583EDF09080C298
:10183800E0FEA3E025E0FFEE33FE90809C1208DB7B
:101848008F828E831207C3FD9080C2E0FEA3E0253D
:10185800E0FFEE33FE74A82FF58274803EF583ED29
:10186800F09080C2E475F0011207820217EC9080B4
:10187800C5E024079080C4F07B017A8079A090802D
:10188800C4E0FD1219F69080C0EEF0A3EFF090804E
:10189800C0E0A3E0FF9080C4E024A1F582E4348096
:1018A800F583EFF09080C0E0FEA3E0EEFF9080C4E7
:1018B800E024A0F582E43480F583EFF09080C4E062
:1018C8002402F07B017A8079A0E0FD7C00121F11D0
:1018D800229080ADEEF0A3EFF0A31208FB9080AD4C
:1018E800E0A3E054019080B4F09080ADE0FEA3E066
:1018F800FFEEC313FEEF13FF9080ADEEF0A3EFF001
:10190800E4F5F19080ADE0FEA3E0EEF5F29080AD55
:10191800E0A3E0F5F375F40175F88F30FCFD9080D5
:10192800B4E0603C9080B2E0FEA3E0D39400EE9473
:1019380000402D75F8839080AFE475F0011208E43B
:10194800120708F5FC9080AFE475F0011208E41264
:101958000708F5FDD2FE9080B274FFF5F0120782F9
:1019680075F88F9080B2E0FEA3E0C39402EE940075
:10197800404B9080AFE475F0011208E4120708F5B7
:10198800FA9080AFE475F0011208E4120708F5FB3D
:101998009080AFE475F0011208E4120708F5FC9096
:1019A80080AFE475F0011208E4120708F5FDD2FED5
:1019B8009080B274FF75F0FE12078280A69080B204
:1019C800E0FEA3E04E602375F88C9080AFE475F0DC
:1019D800011208E4120708F5FA9080AFE475F001E7
:1019E8001208E4120708F5FBD2FEE4F5F82290800D
:1019F800C61208FB9080C9EDF074FFA3F0A3F0E4D1
:101A08009080D0F0A3F09080C9E0FF9080D0E0FCF7
:101A1800A3E0C39FEC94004003021ABB9080C61257
:101A280008DB9080D0E0FEA3E0F5828E83120721C8
:101A3800FF9080CAE0FCA3E0FDECFEEF6DFF908014
:101A4800CAEEF0A3EFF0E49080D2F09080D2E0C329
:101A5800940850529080CAE0A3E05401FF9080CED1
:101A6800E4F0A3EFF09080CAE0FEA3E0FFEEC3131A
:101A7800FEEF13FF9080CAEEF0A3EFF09080CEE067
:101A8800FEA3E04E60189080CAE0FEA3E0FFEE647B
:101A9800A0FEEF6401FF9080CAEEF0A3EFF0908003
:101AA800D2E004F080A59080D0E475F0011207829E
:101AB800021A0E9080CAE0FEA3E0EEFFA3E4F0A3B2
:101AC800EFF09080CAA3E0FEA3E0FCA3E0FDEE4C9B
:101AD800FEEDFF9080CAEEF0A3EFF09080CAE0FE22
:101AE800A3E0FF9080CAEEF0A3EFF09080CAE0FE7A
:101AF800A3E0FF22908099EEF0A3EFF0A31208FB79
:101B0800908099E0A3E054019080A0F0908099E043
:101B1800FEA3E0FFEEC313FEEF13FF908099EEF0F3
:101B2800A3EFF0E4F5F1908099E0FEA3E0EEF5F282
:101B3800908099E0A3E0F5F375F40175F8AF30FCF7
:101B4800FD90809EE0FEA3E0D39400EE9400500345
:101B5800021BE9D2FE20FEFD9080A0E0703D90803F
:101B68009EE0FEA3E0D39400EE9400402E90809B6C
:101B7800E475F0011208E4E5FA12074E90809BE440
:101B880075F0011208E4E5FB12074E9080A074017D
:101B9800F090809E74FFF5F01207829080A0E0B468
:101BA800019F90809EE0FEA3E0D39400EE94004055
:101BB8009090809BE475F0011208E4E5FC12074E52
:101BC80090809BE475F0011208E4E5FD12074EE4ED
:101BD8009080A0F090809E74FFF5F0120782021B9F
:101BE80049E4F5F822253032582000202020202012
:101BF80020202020202020202020202020202020DD
:101C08002020202020202020202020004F4B202092
:101C180020200A00444154415F4552520A004C6555
:101C28006E6768740A004352432020200A00455218
:101C3800524F520A00526563656976656420202018
:101C480020202020200A0054696D656F75742020BB
:101C5800202020202020200A00000100030000008E
:101C68000100020003000000040002001000000050
:101C7800010003000300000001000400030000004D
:101C88000200050003000000010000000000000041
:101C9800000000000000000000000000000000003C
:101CA800000000000000000000000000000000002C
:101CB800000000000000000000000000000000001C
:101CC8000000020000000000080000000000000002
:101CD80000C0E0C0F0C083C082C0D075D000C00092
:101CE800C004C005C006C007209803021DACC298F6
:101CF8009081271208AA0007A120908000E599F09A
:101D0800908123E0FEA3E0EE30E703021DAC908152
:101D180023E0FEA3E0C39440EE9400503D90800081
:101D2800E0FF908123E0FCA3E024D5F58274803C99
:101D3800F583EFF0908123E475F00112078290811A
:101D480023E0FEA3E064024E70199080D6E030E7ED
:101D580012780F76000876058009908123E4F0A3B5
:101D6800F080419080D4E0FF780FE6FC08E6FDC3E0
:101D7800EF9DE49C5003E004F09080D4E0FF780FDE
:101D8800E6FC08E6FDEFB5051BE4B50417908123D2
:101D9800E0FEA3E0FFEE4480908123F0A3EFF090F3
:101DA80080D4E4F0D007D006D005D004D000D0D03D
:101DB800D082D083D0F0D0E0329080991208FB9086
:101DC800809CEDF0E0C394105063A3E0602F9080F6
:101DD800991208DB120798FDACF090809CE0FF7424
:101DE800017E00A807088005C333CE33CED8F9FF9B
:101DF800EC4EFEED4FFFEE8FF01207FB229080991C
:101E08001208DB120798FDACF090809CE0FF74018B
:101E18007E00A807088005C333CE33CED8F9F4FF77
:101E2800EEF45CFEED5FFFEE8FF01207FB22908070
:101E38009D12089E43C94053B7CF43B71075D88049
:101E480075985053877F90809D120886E41201A3ED
:101E5800A804A905AA06AB077F007EE07D447C4A5A
:101E68001201061201E1C3E49FFF74049EFEE4FC24
:101E7800FD90809D12089E90809D12088678081219
:101E88000873EFE48FBA90809D120886EFE48FAA5A
:101E9800D2ACD2AF908123F0A3F09080D4F022C0CE
:101EA800E0C0F0C083C082C0D075D000C000C001BF
:101EB800C002C003C004C005C006C007C2C69081E6
:101EC80027120886EC4D4E4F601590812712088620
:101ED80074FFFBFAF9F812084790812712089E78D8
:101EE8000DE6FE08E64E6006E61618700116D007E5
:101EF800D006D005D004D003D002D001D000D0D075
:101F0800D082D083D0F0D0E0329080C61208FB9007
:101F180080C9ECF0A3EDF0C2ACE4A3F0A3F090808C
:101F2800C9E0FEA3E0FFA3E0FCA3E0C39FEC9E5042
:101F3800279080C61208DB9080CBE0FEA3E0F582F4
:101F48008E83120721F5993099FDC2999080CBE4D0
:101F580075F00112078280C6D2AC22C2AFC2D3C2CA
:101F6800D4E4F58E75C870F593759401759502F5EE
:101F7800C9F5F875F901F5A843B830F59AF5A9F54A
:101F8800B953C9FDD2BDD2BCD2AF22908099EEF030
:101F9800A3EFF0908099E0FEA3E0FF780DA6060875
:101FA800A607780DE6FE08E64E70F72275C870E4BD
:101FB800F5CDF5CC75CBBC75CACD43A820D2C8D217
:101FC800AF229080CAEFF0C2ACE0F5993099FDC21B
:101FD80099D2AC229080C9EFF0E0FF121FCA90801E
:041FE800C9E0FF222B
:00000001FF
