:100000000216B575C870E4F5CDF5CC75CBBC75CAD4
:10001000CD43A820D2C8D2AF221218041200032266
:0300230002002EAA
:10002B00021629C0E0C0F0C083C082C0D075D000DA
:10003B00C000C004C005C006C0072098030200E141
:10004B00C298908000E599F0908100E0FEA3E0EE6D
:10005B0030E7030200E1908100E0FEA3E0C394408F
:10006B00EE94005023908000E0FF908100E0FCA311
:10007B00E024B6F58274803CF583EFF0908100E4C8
:10008B0075F0011207608009908100E4F0A3F08005
:10009B00459080B5E0FF780FE6FC08E6FDC3EF9DC9
:1000AB00E49C5003E004F09080B5E0FF780FE6FC91
:1000BB0008E6FDEFB5051FE4B5041B908100E0FEDB
:1000CB00A3E0FFEE4480908100F0A3EFF09080B4AA
:1000DB007401F0A3E4F0D007D006D005D004D00013
:0B00EB00D0D0D082D083D0F0D0E03223
:1000F800FFFF4457494E54350216FC020257EC5D87
:10010800046005E85904700302024D1202185804ED
:1001180060F6EC4860F2EC7004FDFEFF22C860DB7C
:100128002481C85009C398600250060202549850AE
:10013800CAF582E9294B4A7005AB8202024375F081
:10014800007C1A7880C3EF9BEE9AED99400DC3EFBF
:100158009BFFEE9AFEED99FDE842F0DC23ACF0D06F
:10016800E0FFD0E0FED0E0FDAB8220E7101BEB60A3
:10017800BAEC2CFCEF33FFEE33FEED33FD02022F19
:10018800E803F830E705C0F075F000EF2FFFEE3315
:10019800FEED33FD40B830E7C280AA75F020800E2E
:1001A80075F010800575F0087D007E007F003392A1
:1001B800D530D503120832EC334010EF33FFEE335D
:1001C800FEED33FDEC33FCD5F0ED22E5F0247EA204
:1001D800D513CC92E7CDCEFF22EDD2E7CD33EC3369
:1001E80092D524814006E4FFFEFDFC22FCE4CFCE3C
:1001F800CDCC24E0501174FF80EDC3CC13CCCD13CB
:10020800CDCE13CECF13CF0470F030D5DE02083236
:10021800E9D2E7C933E833F892D5EDD2E7CD33EC2C
:1002280033FC5002B2D522EC30E7100FBF000C0EA1
:10023800BE00080DBD00040BEB6014A2D5EB13FC47
:10024800ED92E7FD2274FFFCFDFEFF22E480F8A298
:10025800D574FF13FC7D80E480EFF920E73624F99C
:1002680050037907E4F42402FBE582158270021535
:1002780083DBF6E024FB501BE96014E4F0E582150B
:100288008270021583E004F0B40A08E4F0D9EE7431
:1002980001F00A22C2D522ED33EC3392D5FA602A56
:1002A800B4FF33EDC2E77BFF60067A0279C4E4222B
:1002B8007A0279CD20D5047A0279C8224E614E009F
:1002C8002B494E46002D494E4600E47A08F0A3DA41
:1002D800FC7B00740722C083C082ECC0E0EDC0E064
:1002E800EEC0E0EFC0E0EA75F010A4CAABF075F01C
:1002F8004DA42BFBE435F0FCEA2410FAEB34C5FBE3
:10030800EC34D9FCEDC2E7FF75F056A4F42411C50E
:10031800F0F434C58FF0A42AE5F03BE43CF020E784
:10032800141205D2D0E0FFD0E0FED0E0FDD0E0FC12
:100338001201068014F4041205D2D0E0FFD0E0FECA
:10034800D0E0FDD0E0FC12049CD082D083E0FAED2E
:10035800D2E7CD33EC332482FBE4C3CF33CFCE33A3
:10036800CECD33CD33DBF37B0775F00A846004F020
:10037800A31B0AE5F0F0A38FF0740AA4FFACF08E7B
:10038800F0740AA42CFEACF050010C8DF0740AA491
:100398002CFDE435F0F0A3DBDE74072202024DE801
:1003A8006480F8E933E83360110460F0ED33EC332E
:1003B8007009E8FCE9FDEAFEEBFF220460DED3EBFE
:1003C8009FEA9EE99DE8C2E78CF0C2F795F0400CE1
:1003D800E8CCF8E9CDF9EACEFAEBCFFB12021885A2
:1003E800D0F05804700320D5B3E80470075002B267
:1003F800D502025792D5EC0460F7E4CCC0E0C3986C
:10040800F8603B94186008400DD0E0FB02022FE42E
:10041800FBFAC9FC8028E830E406E4C9FBE4CAFC1E
:10042800E830E305E4C9CACBFCE854076010F8C318
:10043800E913F9EA13FAEB13FBEC13FCD8F130F5E6
:100448002FC3E49CFCEF9BFFEE9AFEED99FDD0E0F4
:10045800FBEF4E4D4C701222DB03020254EC2CFCD5
:10046800EF33FFEE33FEED33FDED30E7EB02022F05
:10047800EF2BFFEE3AFEED39FDD0E0FB50130BBB3E
:100488000003020257ED13FDEE13FEEF13FFEC130A
:10049800FC02022FEC4D6011E8497017ED33EC3384
:1004A80004600DE4FCFFFEFD22E933E8330470F834
:1004B80002024D12021858046009E4CC2481500647
:1004C800285009020257284003020254C0E0EB4AB0
:1004D8007044B98006D0E0FB020243EF4E701CBDA9
:1004E8008008EBFFEAFEE9FD80EBE98DF0A4FEE56C
:1004F800F0020585E9CDF9EAFEEBFFEF89F0A4FCEF
:10050800E5F0CE89F0A42EFFE435F0CD89F0A42DD6
:10051800FEE435F08067EF4E7005BD80D780C3EFED
:100528008BF0A4ACF0EE8BF0A42CFCE435F0F8EFE3
:100538008AF0A42CE5F038FCE433CB8DF0A42CFC35
:10054800E5F03BF8EE8AF0A42CFCE5F038F8E4334B
:10055800CF89F0A42CFCE5F038CF3400CE89F0A484
:100568002FFFE5F03EFEE433C98DF0A42EFEE5F042
:1005780039CD8AF0A42FFFE5F03EFEE43DFD33D0EF
:10058800E0FB50070BBB000F020257EC2CFCEF33CB
:10059800FFEE33FEED33FD02022F3F8000004120C5
:1005A800000042C80000447A0000461C400047C3CF
:1005B8005000497424004B1896804CBEBC205A0E3B
:1005C8001BCA6753C21C749DC5AEFB600654076006
:1005D8001C2323120600EB543860091205EC12059F
:1005E800FB12049CECF8EDF9EEFAEFCB22EB1205C6
:1005F800FB80F1543803241C9005A2FE93FC0EEEF8
:1006080093FD0EEE930ECE93FF22E709F608DFFA6C
:100618008046E709F208DFFA803E88828C83E70982
:10062800F0A3DFFA8032E309F608DFFA8078E309FD
:10063800F208DFFA807088828C83E309F0A3DFFA7E
:10064800806489828A83E0A3F608DFFA8058898269
:100658008A83E0A3F208DFFA804C80D280FA80C651
:1006680080D4806980F28033801080A680EA809AE6
:1006780080A880DA80E280CA803389828A83ECFA93
:10068800E493A3C8C582C8CCC583CCF0A3C8C582EF
:10069800C8CCC583CCDFE9DEE7800D89828A83E494
:1006A80093A3F608DFF9ECFAA9F0EDFB2289828A18
:1006B80083ECFAE0A3C8C582C8CCC583CCF0A3C834
:1006C800C582C8CCC583CCDFEADEE880DB89828AB4
:1006D80083E493A3F208DFF980CC88F0EF60010E81
:1006E8004E60C388F0ED2402B4040050B9F582EBE3
:1006F8002402B4040050AF2323458223900662737A
:10070800BB010689828A83E0225002E722BBFE02EF
:10071800E32289828A83E49322BB010CE58229F5CE
:1007280082E5833AF583E0225006E92582F8E6223D
:10073800BBFE06E92582F8E222E58229F582E583F7
:100748003AF583E49322BB010689828A83F022501A
:1007580002F722BBFE01F322C5F0F8A3E028F0C59A
:10076800F0F8E582158270021583E038F022BB01AB
:100778000A89828A83E0F5F0A3E022500687F0090F
:10078800E71922BBFE07E3F5F009E3192289828AFB
:1007980083E493F5F074019322BB0110E58229F5F7
:1007A80082E5833AF583E0F5F0A3E0225009E925D4
:1007B80082F886F008E622BBFE0AE92582F8E2F50F
:1007C800F008E222E5832AF583E993F5F0A3E9939B
:1007D80022BB010A89828A83F0E5F0A3F022500641
:1007E800F709A7F01922BBFE06F3E5F009F3192271
:1007F800F8BB0111E58229F582E5833AF583E8F033
:10080800E5F0A3F0225009E92582C8F608A6F022EF
:10081800BBFE09E92582C8F2E5F008F222EF2BFFBA
:10082800EE3AFEED39FDEC38FC22C3E49FFFE49E6E
:10083800FEE49DFDE49CFC22EB9FF5F0EA9E42F06D
:10084800E99D42F0E89C45F022E8600FECC313FCF8
:10085800ED13FDEE13FEEF13FFD8F122E0FCA3E049
:10086800FDA3E0FEA3E0FF22E0F8A3E0F9A3E0FA8D
:10087800A3E0FB22ECF0A3EDF0A3EEF0A3EFF0224F
:10088800A8828583F0D083D08212089F12089F1215
:10089800089F12089FE473E493A3C583C5F0C5833A
:1008A800C8C582C8F0A3C583C5F0C583C8C582C8BA
:1008B80022E0FBA3E0FAA3E0F922F8E0FBA3A3E01F
:1008C800F925F0F0E582158270021583E0FA38F018
:1008D80022EBF0A3EAF0A3E9F022D083D082F8E477
:1008E800937012740193700DA3A393F8740193F598
:1008F800828883E4737402936860EFA3A3A380DF04
:10090800E5082485F582E43480F583E00508229023
:100918008082300703908085E475F0011208C202D6
:1009280007082000E97F2ED2008018EF540F24908A
:10093800D43440D4FF30040BEF24BFB41A00500362
:100948002461FFE50960021509050CE50C70020534
:100958000B30070E908082E475F0011208C2EF0296
:10096800074E0218967403D2078003E4C207F508FD
:100978009080821208D9E4F509F50BF50CE50960B9
:10098800077F2012094B80F5750AFFC201C200C219
:1009980002C203C205C206C208120917FF700D3051
:1009A80007057F0012095CAF0CAE0B22B4255FC2AD
:1009B800D5C204120917FF24D0B40A00501A75F0E2
:1009C8000A780930D50508B6FF0106C6A426F62020
:1009D800D5047002D20380D924CFB41A00EF500492
:1009E800C2E5D204020C4ED20180C6D20080C0D229
:1009F8000280BCD2D580BAD20580B47F2012094BC0
:100A08002002077401B5090040F1120908FF120914
:100A18004B020985D208D2068095120908FB1209F3
:100A280008FA120908F94A4B7006794C7A0D7BFFCF
:100A380020022EE509602A7E008E82758300120747
:100A48002160060EEE650A70F0C2D5EBC0E0EAC080
:100A5800E0E9C0E0EE120CAFD0E0F9D0E0FAD0E067
:100A6800FB120708FF60AAEBC0E0EAC0E0E9C0E0BB
:100A780012094BD0E02401F9D0E03400FAD0E0FBB1
:100A8800E50A0460DCD50AD98087D20280A2120C5C
:100A98009160F7E50A700104120262A90A600DE587
:100AA8000A600914F50A120D39EF60F3EA30E7021B
:100AB800F404C3995079EAF4250A0430E701E40400
:100AC800F50A800D120C9160C1EA050A250A120286
:100AD80062EA9080B1F030E701E4250A04D50A04FF
:100AE80020050114120CAFE4C0E0120D399080B15A
:100AF800E0601320E70714F0120933802204F0D0D5
:100B0800E014C0E07F00120933E50A600712092AE1
:100B1800150A800B30050312092AD0E0020985D096
:100B2800E00480C4120C91609EE50A0412026290EF
:100B380080B1EAF0E50A2005026001042404120CE1
:100B4800AF74FF04C0E0120D39120933E50A20051D
:100B580002600312092AD0E0B50AE87F4512093D70
:100B68009080B1E07F2B30E7047F2DF404C0E012C1
:100B7800094BD0E075F00A84C0F0120934D0E012B5
:100B88000934020985791080027908C206C20880F2
:100B980008D2D5790A8004790AC2D5E50A04700218
:100BA800F50AE4FAFDFEFF120908FC7B0820011390
:100BB800120908FD7B1030000A120908FE12090804
:100BC800FF7B20EC3382D592D55013C3E430000666
:100BD8009FFFE49EFEE42001039DFDE49CFCE4CB22
:100BE800F8C201EC700CCFCECDCCE824F8F870F345
:100BF8008017C3EF33FFEE33FEED33FDEC33FCEB30
:100C080033FB994002FB0FD8E9EB300105F8D0E03F
:100C1800C448B201C0E00AEC4D4E4F78207B00700A
:100C2800C2EAB50A0040BCC0E0120CB1D0F0D0E076
:100C3800200104C4C0E0C4B201C0F0120934D0F0ED
:100C4800D5F0EB0209851208E20A22530B8D5809E8
:100C5800F34C09EF420B914F0B99440B99490A0841
:100C6800430B9F550ACC460B2C450A96470D6C50F2
:100C780009F72D09FB2E0A1E2B09FF230A1C200D3C
:100C8800552A09B74800000A16E50AB4FF03750A91
:100C980006120908FC120908FD120908FE120908C3
:100CA800FF9080AA02029F790AA2D520031430057A
:100CB80009B910020404B9080104A2D5200602509B
:100CC80001042002689202B509005034C0E07F2078
:100CD8003003197F30A20272067205500F120D08F8
:100CE800C202C206C205C2087F30800F300503E980
:100CF800C0E012094B300503D0E0F9D0E0B509CCCB
:100D08003005177F30B9100C12094B7F5830040793
:100D18007F788003B9080312094B3002057F2D0242
:100D2800094B7F202008F87F2B2006F322920280AF
:100D3800CF7F00B40700500B24AAF582E43480F575
:100D480083E0FF22286E756C6C2900D20112090815
:100D58003001F8C201780930D50108F60209B72D2B
:100D6800504349581209082403B405004001E4908F
:100D78000D679312093C743A12093CD203750904B1
:100D8800020B8D7BFF7A15791578227C007D007E19
:100D9800007F301206E27BFF7A15794578017C8066
:100DA8007D017E007F081206E29080091208880003
:100DB8000000007BFF7A15794D78127C807D017EDA
:100DC800007F401206E2E4908080F0A3F012001940
:100DD8007BFF7A1479BF908099E4F0A37407F07FC1
:100DE800107E2012129C7FE87E031218637BFF7A24
:100DF8001479CB908099E4F0A37409F07F427E20A7
:100E080012129C7F807E257D007C001217417B009A
:100E18007A00792212158DE49080FEF0A3F090807C
:100E28000DF0908100E0FEA3E0EE20E703020F85BD
:100E3800908100A3E0FFEE547F90800EF0A3EFF0C6
:100E48007B017A80790E908099E4F0A37402F07F98
:100E5800697E2012129CE4908052F0A3F0908010DA
:100E6800F0A3F090800EE0FEA3E0FFA3E0FCA3E077
:100E7800C39FEC9E505A908052E0FEA3E02412F9E2
:100E880074803EFA7B01C003C002C0017BFF7A1464
:100E980079DC9080851208D9908010E0FEA3E024C8
:100EA800B6F58274803EF583E0FF908088E4F0A375
:100EB800EFF0D001D002D00312096D908052EE8F6E
:100EC800F0120760908010E475F0011207608093BB
:100ED8007B017A807912908052E0FEA3E0FFEEC396
:100EE80013FEEF132401FFE43E908099F0A3EFF086
:100EF8007F107E2012129C7B017A8079B6C002C0D6
:100F08000190800EE0FCA3E0FD7A80795A908087FA
:100F18001208D9D001D0021210F9908080E4F0A311
:100F2800EFF07B017A807980908099E4F0A304F057
:100F38007F717E2012129C908080E0FEA3E0640105
:100F48004E70177BFF7A1479E2908099F0A37404AD
:100F5800F07F967E2012129C80167BFF7A1479EA25
:100F6800908099E4F0A37404F07F967E2012129C7E
:100F7800E4908100F0A3F090800EF0A3F090800D33
:100F8800E060030210619080FEE0FEA3E0C39405D8
:100F9800EE94004007E49080FEF0A3F09080FEE01D
:100FA800A3E075F008A42422F9E4FAFB78527C0047
:100FB800FDFE7F081206E27B007A00795212158D39
:100FC8007B017A8079FE908099E4F0A304F07F0099
:100FD8007E2012129C7854E608E6785AF67B007A4E
:100FE800007954908099E4F0A304F0FF7E20121257
:100FF8009C7B007A007956908099E4F0A304F07FF6
:10100800027E2012129C7858E6FE08E625E0FFEEE4
:1010180033FEEF2405FFE43E780FF608A6077B00B1
:101028007A00790F908099E4F0A37402F07F037E30
:101038002012129C7B007A007952908099E4F0A3E8
:1010480004F07F047E2012129C90800D7401F090B1
:1010580080091208880013D6209080091208647449
:10106800FFFBFAF9F812082590800912087C908095
:101078000DE064016003020E2A9080B4E0B40131EF
:101088007A1479F1908099E4F0A37409F07F427E94
:101098002012129C9080FEE475F001120760E49023
:1010A800800DF09080B4F090800912088800002725
:1010B80010E4FFFEFDFC908009120870C31208407E
:1010C8006003020E2A7BFF7A157903908099F0A3BA
:1010D8007409F07F427E2012129C9080FEE475F025
:1010E80001120760E490800DF09080B4F0020E2A9F
:1010F800229080821208D9908085ECF0A3EDF090C0
:1011080080821208B9120708FF908090E4F0A3EFDC
:10111800F09080821208B9900001120721FF908098
:1011280092E4F0A3EFF07B017A807990908099E4C3
:10113800F0A304F07F657E2012129C7B017A8079EF
:1011480092908099E4F0A304F07F677E2012129CAD
:10115800908085E0FEA3E0C39404EE940050037FE2
:1011680063229080821208B9908085E0FEA3E02473
:10117800FEFFEE34FF8F82F583120721FE908082F6
:101188001208B9908085E0FCA3E024FFFDEC34FF51
:101198008D82F583120721FDEEEDFF90808AEEF037
:1011A800A3EFF09080821208B9908085E0A3E02434
:1011B800FEFD1213B990808CEEF0A3EFF090808CB6
:1011C800E0FEA3E0FF90808AE0FCA3E06F7002ECF1
:1011D8006E60037F62229080821208B9120708FFAE
:1011E8009080871208B9E48FF01207D99080821294
:1011F80008B9900001120721FF9080871208B99062
:101208000002E48FF01207F89080821208B990006B
:1012180002120721FF9080871208B9900024E48FFA
:10122800F01207F8E490808EF0A3F09080871208FF
:10123800B99000241207A1FF90808EE0FCA3E0C3C0
:101248009FEC95F0504B9080821208B990808EE008
:10125800FEA3E02403FFE43E8F82F583120721FDFD
:101268009080871208B9E92404F9E43AFA90808E4C
:10127800E0A3E025E0FFEE33FEE92FF9EA3EFAE4C9
:101288008DF01207D990808EE475F0011207608006
:101298009A7F0122908094EEF0A3EFF0A31208D970
:1012A800908094E0A3E0540190809BF0908094E0BB
:1012B800FEA3E0FFEEC313FEEF13FF908094EEF061
:1012C800A3EFF0E4F5F1908094E0FEA3E0EEF5F2F0
:1012D800908094E0A3E0F5F375F40175F88F30FC85
:1012E800FD90809BE0603C908099E0FEA3E0D39461
:1012F80000EE9400402D75F883908096E475F00117
:101308001208C2120708F5FC908096E475F00112E5
:1013180008C2120708F5FDD2FE90809974FFF5F017
:1013280012076075F88F908099E0FEA3E0C39402DD
:10133800EE9400404B908096E475F0011208C212BA
:101348000708F5FA908096E475F0011208C21207B2
:1013580008F5FB908096E475F0011208C2120708A0
:10136800F5FC908096E475F0011208C2120708F5A2
:10137800FDD2FE90809974FF75F0FE12076080A67A
:10138800908099E0FEA3E04E602375F88C908096DB
:10139800E475F0011208C2120708F5FA908096E485
:1013A80075F0011208C2120708F5FBD2FEE4F5F841
:1013B800229080941208D9908097EDF074FFA3F0E2
:1013C800A3F0E490809EF0A3F0908097E0FF9080D7
:1013D8009EE0FCA3E0C39FEC9400400302147E90BF
:1013E80080941208B990809EE0FEA3E0F5828E8377
:1013F800120721FF908098E0FCA3E0FDECFEEF6D62
:10140800FF908098EEF0A3EFF0E49080A0F0908039
:10141800A0E0C394085052908098E0A3E05401FFE4
:1014280090809CE4F0A3EFF0908098E0FEA3E0FFAA
:10143800EEC313FEEF13FF908098EEF0A3EFF09049
:10144800809CE0FEA3E04E6018908098E0FEA3E048
:10145800FFEE64A0FEEF6401FF908098EEF0A3EF2A
:10146800F09080A0E004F080A590809EE475F001E3
:101478001207600213D1908098E0FEA3E0EEFFA36C
:10148800E4F0A3EFF0908098A3E0FEA3E0FCA3E0D3
:10149800FDEE4CFEEDFF908098EEF0A3EFF090800B
:1014A80098E0FEA3E0FF908098EEF0A3EFF0908024
:1014B80098E0FEA3E0FF224447555320546F6F6C19
:1014C8000000004447555320544553542054455870
:1014D800540000002530325820004F4B2020202097
:1014E8000A004552524F520A005265636569766593
:1014F8006420202020202020200A0054696D656F78
:1015080075742020202020202020200A00000100BF
:101518000300000002000200033001000400030081
:10152800030002000200040003002000040005007C
:101538000300FD000100060003002F000100000069
:101548000000000000000000000000000000000093
:101558000000000000000000000000000000000083
:101568000000000000000000000000000000000073
:101578000000000000000000000000000000000063
:1015880000000000009080821208D9908082120822
:10159800B9120776908085F09080821208B9900081
:1015A800021207A1908086F09080821208B99000FC
:1015B800041207A1E5F0908087F09080821208B9A4
:1015C8009000041207A1908088F09080821208B9D8
:1015D8009000061207A1E5F0908089F090808212B1
:1015E80008B99000061207A190808AF07B017A80E2
:1015F80079857D061213B990808DEEF0A3EFF090F7
:10160800808DE0A3E090808CF0A3E0FEA3E0EE9054
:10161800808BF07B017A8079857D087C001217B277
:1016280022C0E0C0F0C083C082C0D075D000C00026
:10163800C001C002C003C004C005C006C007C2C6BE
:1016480074FFFFFEFDFC908104120870C31208406D
:101658005015908104120864E47B01FAF9F8120825
:101668002590810412087C74FFFFFEFDFC90810424
:10167800120870C3120840700A908104120888008A
:10168800000000780DE6FE08E64E6006E6161870C3
:101698000116D007D006D005D004D003D002D0015F
:1016A800D000D0D0D082D083D0F0D0E032787FE4A0
:1016B800F6D8FD75815A0216FC020D8BE493A3F847
:1016C800E493A34003F68001F208DFF48029E49351
:1016D800A3F85407240CC8C333C4540F4420C88348
:1016E8004004F456800146F6DFE4800B010204084A
:1016F80010204080901834E47E019360BCA3FF540E
:101708003F30E509541FFEE493A360010ECF54C097
:1017180025E060A840B8E493A3FAE493A3F8E4931F
:10172800A3C8C582C8CAC583CAF0A3C8C582C8CA27
:10173800C583CADFE9DEE780BE90808212087C4359
:10174800C94053B7CF43B71075D8807598505387A1
:101758007F908082120864E41201A3A804A905AA54
:1017680006AB077F007EE07D447C4A120106120129
:10177800E1C3E49FFF74049EFEE4FCFD90808212A6
:10178800087C9080821208647808120851EFE48F70
:10179800BA908082120864EFE48FAAD2ACD2AF90DC
:1017A8008100F0A3F09080B5F02290808F1208D9C4
:1017B800908092ECF0A3EDF0C2ACE4A3F0A3F0901B
:1017C8008092E0FEA3E0FFA3E0FCA3E0C39FEC9EB1
:1017D800502790808F1208B9908094E0FEA3E0F51E
:1017E800828E83120721F5993099FDC299908094D1
:1017F800E475F00112076080C6D2AC22C2AFC2D332
:10180800C2D4E4F58E75C870F59375940175950288
:10181800F5C9F5F875F901F5A843B830F59AF5A9B1
:10182800F5B953C9FDD2BDD2BCD2AF22020D00001A
:10183800448104000000004580F7010203040542CA
:1018480080FC000142810200044180F6004280FED3
:1018580000004180B400020F000000908082EEF08A
:10186800A3EFF0908082E0FEA3E0FF780DA60608C3
:10187800A607780DE6FE08E64E70F7229080B3EFD3
:10188800F0C2ACE0F5993099FDC299D2AC229080B3
:0E189800B2EFF0E0FF1218849080B2E0FF2261
:00000001FF
