:1000000002002E75C870E4F5CDF5CC75CBBC75CA71
:10001000CD43A820D2C8D2AF22121CAC12000322BA
:030023000219B50A
:10002B00021BF0787FE4F6D8FD75815A0200750249
:10003B000957E493A3F8E493A34003F68001F20875
:10004B00DFF48029E493A3F85407240CC8C333C40A
:10005B00540F4420C8834004F456800146F6DFE475
:10006B00800B01020408102040809000BAE47E014E
:10007B009360BCA3FF543F30E509541FFEE493A3E8
:10008B0060010ECF54C025E060A840B8E493A3FAFA
:10009B00E493A3F8E493A3C8C582C8CAC583CAF086
:1000AB00A3C8C582C8CAC583CADFE9DEE780BE0222
:1000BB000D0000448136000000004581250102033C
:1000CB00040542812E000142813400044181240049
:1000DB0044812A0000000042813000004180E20090
:0500EB00020F000000FF
:1000F800FFFF4457494E5435020075020257EC5D24
:10010800046005E85904700302024D1202185804ED
:1001180060F6EC4860F2EC7004FDFEFF22C860DB7C
:100128002481C85009C398600250060202549850AE
:10013800CAF582E9294B4A7005AB8202024375F081
:10014800007C1A7880C3EF9BEE9AED99400DC3EFBF
:100158009BFFEE9AFEED99FDE842F0DC23ACF0D06F
:10016800E0FFD0E0FED0E0FDAB8220E7101BEB60A3
:10017800BAEC2CFCEF33FFEE33FEED33FD02022F19
:10018800E803F830E705C0F075F000EF2FFFEE3315
:10019800FEED33FD40B830E7C280AA75F020800E2E
:1001A80075F010800575F0087D007E007F003392A1
:1001B800D530D503120854EC334010EF33FFEE333B
:1001C800FEED33FDEC33FCD5F0ED22E5F0247EA204
:1001D800D513CC92E7CDCEFF22EDD2E7CD33EC3369
:1001E80092D524814006E4FFFEFDFC22FCE4CFCE3C
:1001F800CDCC24E0501174FF80EDC3CC13CCCD13CB
:10020800CDCE13CECF13CF0470F030D5DE02085414
:10021800E9D2E7C933E833F892D5EDD2E7CD33EC2C
:1002280033FC5002B2D522EC30E7100FBF000C0EA1
:10023800BE00080DBD00040BEB6014A2D5EB13FC47
:10024800ED92E7FD2274FFFCFDFEFF22E480F8A298
:10025800D574FF13FC7D80E480EFF920E73624F99C
:1002680050037907E4F42402FBE582158270021535
:1002780083DBF6E024FB501BE96014E4F0E582150B
:100288008270021583E004F0B40A08E4F0D9EE7431
:1002980001F00A22C2D522ED33EC3392D5FA602A56
:1002A800B4FF33EDC2E77BFF60067A0279C4E4222B
:1002B8007A0279CD20D5047A0279C8224E614E009F
:1002C8002B494E46002D494E4600E47A08F0A3DA41
:1002D800FC7B00740722C083C082ECC0E0EDC0E064
:1002E800EEC0E0EFC0E0EA75F010A4CAABF075F01C
:1002F8004DA42BFBE435F0FCEA2410FAEB34C5FBE3
:10030800EC34D9FCEDC2E7FF75F056A4F42411C50E
:10031800F0F434C58FF0A42AE5F03BE43CF020E784
:10032800141205D2D0E0FFD0E0FED0E0FDD0E0FC12
:100338001201068014F4041205D2D0E0FFD0E0FECA
:10034800D0E0FDD0E0FC12049CD082D083E0FAED2E
:10035800D2E7CD33EC332482FBE4C3CF33CFCE33A3
:10036800CECD33CD33DBF37B0775F00A846004F020
:10037800A31B0AE5F0F0A38FF0740AA4FFACF08E7B
:10038800F0740AA42CFEACF050010C8DF0740AA491
:100398002CFDE435F0F0A3DBDE74072202024DE801
:1003A8006480F8E933E83360110460F0ED33EC332E
:1003B8007009E8FCE9FDEAFEEBFF220460DED3EBFE
:1003C8009FEA9EE99DE8C2E78CF0C2F795F0400CE1
:1003D800E8CCF8E9CDF9EACEFAEBCFFB12021885A2
:1003E800D0F05804700320D5B3E80470075002B267
:1003F800D502025792D5EC0460F7E4CCC0E0C3986C
:10040800F8603B94186008400DD0E0FB02022FE42E
:10041800FBFAC9FC8028E830E406E4C9FBE4CAFC1E
:10042800E830E305E4C9CACBFCE854076010F8C318
:10043800E913F9EA13FAEB13FBEC13FCD8F130F5E6
:100448002FC3E49CFCEF9BFFEE9AFEED99FDD0E0F4
:10045800FBEF4E4D4C701222DB03020254EC2CFCD5
:10046800EF33FFEE33FEED33FDED30E7EB02022F05
:10047800EF2BFFEE3AFEED39FDD0E0FB50130BBB3E
:100488000003020257ED13FDEE13FEEF13FFEC130A
:10049800FC02022FEC4D6011E8497017ED33EC3384
:1004A80004600DE4FCFFFEFD22E933E8330470F834
:1004B80002024D12021858046009E4CC2481500647
:1004C800285009020257284003020254C0E0EB4AB0
:1004D8007044B98006D0E0FB020243EF4E701CBDA9
:1004E8008008EBFFEAFEE9FD80EBE98DF0A4FEE56C
:1004F800F0020585E9CDF9EAFEEBFFEF89F0A4FCEF
:10050800E5F0CE89F0A42EFFE435F0CD89F0A42DD6
:10051800FEE435F08067EF4E7005BD80D780C3EFED
:100528008BF0A4ACF0EE8BF0A42CFCE435F0F8EFE3
:100538008AF0A42CE5F038FCE433CB8DF0A42CFC35
:10054800E5F03BF8EE8AF0A42CFCE5F038F8E4334B
:10055800CF89F0A42CFCE5F038CF3400CE89F0A484
:100568002FFFE5F03EFEE433C98DF0A42EFEE5F042
:1005780039CD8AF0A42FFFE5F03EFEE43DFD33D0EF
:10058800E0FB50070BBB000F020257EC2CFCEF33CB
:10059800FFEE33FEED33FD02022F3F8000004120C5
:1005A800000042C80000447A0000461C400047C3CF
:1005B8005000497424004B1896804CBEBC205A0E3B
:1005C8001BCA6753C21C749DC5AEFB600654076006
:1005D8001C2323120600EB543860091205EC12059F
:1005E800FB12049CECF8EDF9EEFAEFCB22EB1205C6
:1005F800FB80F1543803241C9005A2FE93FC0EEEF8
:1006080093FD0EEE930ECE93FF22E709F608DFFA6C
:100618008046E709F208DFFA803E88828C83E70982
:10062800F0A3DFFA8032E309F608DFFA8078E309FD
:10063800F208DFFA807088828C83E309F0A3DFFA7E
:10064800806489828A83E0A3F608DFFA8058898269
:100658008A83E0A3F208DFFA804C80D280FA80C651
:1006680080D4806980F28033801080A680EA809AE6
:1006780080A880DA80E280CA803389828A83ECFA93
:10068800E493A3C8C582C8CCC583CCF0A3C8C582EF
:10069800C8CCC583CCDFE9DEE7800D89828A83E494
:1006A80093A3F608DFF9ECFAA9F0EDFB2289828A18
:1006B80083ECFAE0A3C8C582C8CCC583CCF0A3C834
:1006C800C582C8CCC583CCDFEADEE880DB89828AB4
:1006D80083E493A3F208DFF980CC88F0EF60010E81
:1006E8004E60C388F0ED2402B4040050B9F582EBE3
:1006F8002402B4040050AF2323458223900662737A
:10070800BB010689828A83E0225002E722BBFE02EF
:10071800E32289828A83E49322BB010CE58229F5CE
:1007280082E5833AF583E0225006E92582F8E6223D
:10073800BBFE06E92582F8E222E58229F582E583F7
:100748003AF583E49322BB010689828A83F022501A
:1007580002F722BBFE01F322F8BB010DE58229F561
:1007680082E5833AF583E8F0225006E92582C8F647
:1007780022BBFE05E92582C8F222C5F0F8A3E028CD
:10078800F0C5F0F8E582158270021583E038F02292
:10079800BB010A89828A83E0F5F0A3E0225006872C
:1007A800F009E71922BBFE07E3F5F009E3192289EE
:1007B800828A83E493F5F074019322BB0110E582E9
:1007C80029F582E5833AF583E0F5F0A3E0225009A4
:1007D800E92582F886F008E622BBFE0AE92582F8B8
:1007E800E2F5F008E222E5832AF583E993F5F0A320
:1007F800E99322BB010A89828A83F0E5F0A3F022FB
:100808005006F709A7F01922BBFE06F3E5F009F335
:100818001922F8BB0111E58229F582E5833AF583AF
:10082800E8F0E5F0A3F0225009E92582C8F608A609
:10083800F022BBFE09E92582C8F2E5F008F222EFB2
:100848002BFFEE3AFEED39FDEC38FC22C3E49FFFA6
:10085800E49EFEE49DFDE49CFC22EB9FF5F0EA9EFD
:1008680042F0E99D42F0E89C45F022E8600FECC3B5
:1008780013FCED13FDEE13FEEF13FFD8F122E0FC9D
:10088800A3E0FDA3E0FEA3E0FF22E0F8A3E0F9A3C4
:10089800E0FAA3E0FB22ECF0A3EDF0A3EEF0A3EF67
:1008A800F022A8828583F0D083D0821208C1120872
:1008B800C11208C11208C1E473E493A3C583C5F04B
:1008C800C583C8C582C8F0A3C583C5F0C583C8C59C
:1008D80082C822E0FBA3E0FAA3E0F922F8E0FBA338
:1008E800A3E0F925F0F0E582158270021583E0FA9D
:1008F80038F022EBF0A3EAF0A3E9F022D083D0820B
:10090800F8E4937012740193700DA3A393F8740123
:1009180093F5828883E4737402936860EFA3A3A3BA
:1009280080DFD083D082F8E4937012740193700D45
:10093800A3A393F8740193F5828883E473740293F4
:10094800B5F0067403936860E9A3A3A3A380D87BDA
:10095800FF7A1B790778227C007D007E007F3012A9
:1009680006E27BFF7A1B793778017C807D017E0067
:100978007F081206E29080091208AA000000007B96
:10098800FF7A1B793F78127C807D017E007F3012D0
:1009980006E27BFF7A1B796F78427C807D017E00BE
:1009A8007F101206E2E49080A2F0A3F0A3F0A3F077
:1009B800A3F0A3F01200197F807E257D007C001231
:1009C8001B7FE4908130F0A3F090800DF090813689
:1009D8001208AA000493E0E4FFFEFDFC90813612A1
:1009E800089E908132E0FEA3E0EE20E703020CE8C7
:1009F800908132A3E0FFEE547F90800EF0A3EFF0D9
:100A08007B017A80790E9080C1E4F0A37402F07FB4
:100A1800697E20121792E4908052F0A3F090801023
:100A2800F0A3F090800EE0FEA3E0FFA3E0FCA3E0BB
:100A3800C39FEC9E505A908052E0FEA3E02412F926
:100A480074803EFA7B01C003C002C0017BFF7A1AA2
:100A5800799D9080AB1208FB908010E0FEA3E02403
:100A6800E4F58274803EF583E0FF9080AEE4F0A365
:100A7800EFF0D001D002D003120F35908052EE8FE4
:100A8800F0120782908010E475F0011207828093BB
:100A98007BFF7A1A79A39080C1E4F0A37410F0FF69
:100AA8007E201217927B017A807912908052E0FEA4
:100AB800A3E0FFEEC313FEEF132402FFE43E908091
:100AC800C1F0A3EFF07F107E20121792E4908010FF
:100AD800F0A3F0908010E0FEA3E0C39430EE940001
:100AE800501C908010E0A3E02412F58274803EF53B
:100AF80083E4F090801075F00112078280D5908110
:100B0800361208AA000493E07B017A8079E4C002D7
:100B1800C00190800EE0FCA3E0FD7A80795A9080B5
:100B2800AD1208FBD001D0021213539080A6E4F056
:100B3800A3EFF07B017A8079A69080C1E4F0A3044A
:100B4800F07F717E201217929080A6E0FEA3E064E9
:100B5800014E6003020C4A7BFF7A1A79C49080C167
:100B6800F0A37404F07F967E2012179290805AE0CA
:100B7800FEA3E08EF012092A0B8C00010C0400027F
:100B880000000CA690805EE0FEA3E0C39402EE9401
:100B9800005003020CA6A3E0A3E0FEA3E0FCA3E040
:100BA800FDEE4CFEEDFF908058EEF0A3EFF0908044
:100BB80058E0FEA3E0EE30E70E908058A3E0FF90E7
:100BC8008058EEF0A3EFF0908058E0FCA3E0FDE43D
:100BD8001201A8E4FBFA79207841120106908054AA
:100BE80012089E7B017A8079549080C1E4F0A37446
:100BF80002F07F057E20121792020CA690805EE01C
:100C0800FEA3E0C39402EE94005003020CA6A3E0F6
:100C1800A3E0FEA3E0FCA3E0FDEE4CFEEDFF908018
:100C2800A0EEF0A3EFF07B017A8079A09080C1E478
:100C3800F0A37402F07F077E201217928060805E16
:100C4800805C9080A6E0FEA3E064634E70177BFF93
:100C58007A1A79CC9080C1F0A37404F07F967E2034
:100C680012179280399080A6E0FEA3E064624E706D
:100C7800177BFF7A1A79D49080C1F0A37404F07FAF
:100C8800967E2012179280167BFF7A1A79DC908064
:100C9800C1E4F0A37404F07F967E20121792E490CA
:100CA8008132F0A3F090800EF0A3F0A3F0A3F090AF
:100CB8008010E0FEA3E0C39440EE9400501C9080A6
:100CC80010E0A3E024E4F58274803EF583E4F0901C
:100CD800801075F00112078280D59080E27401F0CF
:100CE80090800DE06003020DF2908130E0FEA3E0F9
:100CF800C39406EE94004007E4908130F0A3F07F9F
:100D08000A7E00121CDC908130E0A3E075F008A494
:100D18002422F9E4FAFB78527C00FDFE7F081206D3
:100D2800E27B017A8179309080C1E4F0A304F07FFE
:100D3800007E201217927854E608E6785AF67B006F
:100D48007A0079549080C1E4F0A304F0FF7E201269
:100D580017927B007A0079569080C1E4F0A304F0E2
:100D68007F027E201217927858E6FE08E625E0FFFB
:100D7800EE33FEEF2405FFE43E780FF608A6077B66
:100D8800007A00790F9080C1E4F0A37402F07F0329
:100D98007E201217927B007A0079529080C1E4F08D
:100DA800A304F07F047E201217929080091208AAEB
:100DB80000030D4090800D7401F07B007A00795299
:100DC800C003C002C0010B7A8079429080AB120840
:100DD800FB9080AE7408F0D001D002D0031215C287
:100DE8009081361208AA000493E0908009120886C0
:100DF80074FFFBFAF9F812084790800912089E90D0
:100E0800800DE0640160030209DF9080E2E0B40134
:100E18003B7A1A79E39080C1E4F0A37409F07F4229
:100E28007E20121792908130E475F001120782E457
:100E380090800DF09080E2F09080091208AA0003DB
:100E48000D409081361208AA000493E0E4FFFEFDED
:100E5800FC908009120892C312086260030209DF3D
:100E68007BFF7A1A79F59080C1F0A37409F07F426C
:100E78007E20121792E4908010F0A3F0908010E08A
:100E8800FEA3E0C39430EE9400501C908010E0A3C1
:100E9800E02412F58274803EF583E4F090801075AA
:100EA800F00112078280D5908130E475F0011207B5
:100EB80082E490800DF09080E2F09081361208AACA
:100EC800000493E00209DF22E50824ABF582E4344C
:100ED80080F583E00508229080A83007039080AB56
:100EE800E475F0011208E40207082000E97F2ED219
:100EF800008018EF540F2490D43440D4FF30040BF2
:100F0800EF24BFB41A0050032461FFE509600215FD
:100F180009050CE50C7002050B30070E9080A8E45B
:100F280075F0011208E4EF02074E021D0F7403D298
:100F3800078003E4C207F5089080A81208FBE4F5CF
:100F480009F50BF50CE50960077F20120F1380F5F2
:100F5800750AFFC201C200C202C203C205C206C2AC
:100F680008120EDFFF700D3007057F00120F24AF47
:100F78000CAE0B22B4255FC2D5C204120EDFFF24CB
:100F8800D0B40A00501A75F00A780930D50508B6A9
:100F9800FF0106C6A426F620D5047002D20380D924
:100FA80024CFB41A00EF5004C2E5D204021216D2BC
:100FB8000180C6D20080C0D20280BCD2D580BAD20D
:100FC8000580B47F20120F132002077401B50900B1
:100FD80040F1120ED0FF120F13020F4DD208D206A5
:100FE8008095120ED0FB120ED0FA120ED0F94A4B91
:100FF800700679147A137BFF20022EE509602A7E99
:10100800008E8275830012072160060EEE650A7055
:10101800F0C2D5EBC0E0EAC0E0E9C0E0EE1212771A
:10102800D0E0F9D0E0FAD0E0FB120708FF60AAEBA5
:10103800C0E0EAC0E0E9C0E0120F13D0E02401F9F3
:10104800D0E03400FAD0E0FBE50A0460DCD50AD928
:101058008087D20280A212125960F7E50A70010453
:10106800120262A90A600DE50A600914F50A121352
:1010780001EF60F3EA30E702F404C3995079EAF427
:10108800250A0430E701E404F50A800D12125960BC
:10109800C1EA050A250A120262EA9080D7F030E711
:1010A80001E4250A04D50A0420050114121277E484
:1010B800C0E01213019080D7E0601320E70714F016
:1010C800120EFB802204F0D0E014C0E07F00120E64
:1010D800FBE50A6007120EF2150A800B30050312B1
:1010E8000EF2D0E0020F4DD0E00480C41212596015
:1010F8009EE50A041202629080D7EAF0E50A20050C
:1011080002600104240412127774FF04C0E0121371
:1011180001120EFBE50A2005026003120EF2D0E070
:10112800B50AE87F45120F059080D7E07F2B30E79E
:10113800047F2DF404C0E0120F13D0E075F00A8488
:10114800C0F0120EFCD0E0120EFC020F4D79108098
:10115800027908C206C2088008D2D5790A800479C3
:101168000AC2D5E50A047002F50AE4FAFDFEFF1288
:101178000ED0FC7B08200113120ED0FD7B1030002E
:101188000A120ED0FE120ED0FF7B20EC3382D592CD
:10119800D55013C3E43000069FFFE49EFEE420010F
:1011A800039DFDE49CFCE4CBF8C201EC700CCFCEAF
:1011B800CDCCE824F8F870F38017C3EF33FFEE3393
:1011C800FEED33FDEC33FCEB33FB994002FB0FD80B
:1011D800E9EB300105F8D0E0C448B201C0E00AEC00
:1011E8004D4E4F78207B0070C2EAB50A0040BCC063
:1011F800E0121279D0F0D0E0200104C4C0E0C4B2FB
:1012080001C0F0120EFCD0F0D5F0EB020F4D120920
:10121800040FEA531155580FBB4C0FB74211594FE1
:101228001161441161490FD043116755109446105C
:10123800F445105E471334500FBF2D0FC32E0FE631
:101248002B0FC7230FE420131D2A0F7F4800000F20
:10125800DEE50AB4FF03750A06120ED0FC120ED0A2
:10126800FD120ED0FE120ED0FF9080D002029F79A0
:101278000AA2D5200314300509B910020404B908DC
:101288000104A2D52006025001042002689202B58A
:1012980009005034C0E07F203003197F30A2027269
:1012A800067205500F1212D0C202C206C205C20849
:1012B8007F30800F300503E9C0E0120F13300503BB
:1012C800D0E0F9D0E0B509CC3005177F30B9100C63
:1012D800120F137F583004077F788003B908031270
:1012E8000F133002057F2D020F137F202008F87F8F
:1012F8002B2006F322920280CF7F00B40700500B08
:1013080024D0F582E43480F583E0FF22286E756CE2
:101318006C2900D201120ED03001F8C201780930D0
:10132800D50108F6020F7F2D50434958120ED024DC
:1013380003B405004001E490132F93120F04743A8C
:10134800120F04D2037509040211559080A81208DF
:10135800FB9080ABECF0A3EDF09080A81208DB12B4
:101368000708FF9080B8E4F0A3EFF09080A8120877
:10137800DB900001120721FF9080BAE4F0A3EFF0A0
:101388007B017A8079B89080C1E4F0A304F07F658E
:101398007E201217927B017A8079BA9080C1E4F09E
:1013A800A304F07F677E201217929080ABE0FEA323
:1013B800E0C39404EE94005039E49080B6F0A3F0B2
:1013C8009080B6E0FEA3E0C39440EE9400502090D5
:1013D80080A81208DB9080B6E0A3E0F5828E83E453
:1013E8001207609080B6E475F00112078280D17F01
:1013F80063229080A81208DB9080ABE0FEA3E02473
:10140800FEFFEE34FF8F82F583120721FE9080A83D
:101418001208DB9080ABE0FCA3E024FFFDEC34FF76
:101428008D82F583120721FDEEEDFF9080B0EEF07E
:10143800A3EFF09080A81208DB9080ABE0A3E02433
:10144800FEFD1218AF9080B2EEF0A3EFF09080B2DC
:10145800E0FEA3E0FF9080B0E0FCA3E06F7002EC38
:101468006E6039E49080B6F0A3F09080B6E0FEA3F9
:10147800E0C39440EE940050209080A81208DB90BE
:1014880080B6E0A3E0F5828E83E41207609080B610
:10149800E475F00112078280D17F62229080A81241
:1014A80008DB120708FF9080AD1208DBE48FF0120A
:1014B80007FB9080A81208DB900001120721FF901B
:1014C80080AD1208DB900002E48FF012081A9080B9
:1014D800AD1208DB9000021207C3640345F06003F5
:1014E8000215AD9080A81208DB900002120721FFB8
:1014F8009080AD1208DB900004E48FF012081AE423
:101508009080B4F0A3F09080AD1208DB9000041234
:1015180007C3FF9080B4E0FCA3E0C39FEC95F050B4
:101528004B9080A81208DB9080B4E0FEA3E024036F
:10153800FFE43E8F82F583120721FD9080AD1208EB
:10154800DBE92406F9E43AFA9080B4E0A3E025E068
:10155800FFEE33FEE92FF9EA3EFAE48DF01207FBBD
:101568009080B4E475F001120782809AE49080B606
:10157800F0A3F09080B6E0FEA3E0C39440EE9400A0
:1015880050209080A81208DB9080B6E0A3E0F58296
:101598008E83E41207609080B6E475F0011207822A
:1015A80080D17F01229080AD1208DB9000021207E3
:1015B800C3641045F070027F01229080A81208FBD6
:1015C8009080A81208DB1207989080AFF09080A84E
:1015D8001208DB9000021207C39080B0F09080A838
:1015E8001208DB9000021207C3640345F0704D90A7
:1015F80080A81208DB9000041207C3E5F09080B1C0
:10160800F09080A81208DB9000041207C39080B203
:10161800F09080A81208DB9000061207C3E5F0904E
:1016280080B3F09080A81208DB9000061207C390E0
:1016380080B4F09080D37406F00217399080A81215
:1016480008DB9000021207C3641045F0600302171C
:10165800399080AEE025E09080D4F09080A8120800
:10166800DB9000041207C3E5F09080B1F09080A8E9
:101678001208DB9000041207C39080B2F09080AE8D
:10168800E0E49080B3F09080AEE09080B4F0908079
:10169800D4E09080B5F0E49080D1F0A3F09080AED3
:1016A800E0FF9080D1E0FCA3E0C39FEC940050776A
:1016B8009080D1E0FEA3E025E0FFEE33FE9080AB02
:1016C8001208DB8F828E831207C3E5F0FD9080D16C
:1016D800E0FEA3E025E0FFEE33FE74B62FF582743A
:1016E800803EF583EDF09080D1E0FEA3E025E0FF99
:1016F800EE33FE9080AB1208DB8F828E831207C315
:10170800FD9080D1E0FEA3E025E0FFEE33FE74B744
:101718002FF58274803EF583EDF09080D1E475F06A
:10172800011207820216A59080D4E024079080D386
:10173800F07B017A8079AF9080D3E0FD1218AF90EA
:1017480080CFEEF0A3EFF09080CFE0A3E0FF908091
:10175800D3E024B0F582E43480F583EFF09080CFB5
:10176800E0FEA3E0EEFF9080D3E024AFF582E434FE
:1017780080F583EFF09080D3E02402F07B017A803B
:1017880079AFE0FD7C00121C5A229080BCEEF0A3D9
:10179800EFF0A31208FB9080BCE0A3E05401908016
:1017A800C3F09080BCE0FEA3E0FFEEC313FEEF138E
:1017B800FF9080BCEEF0A3EFF0E4F5F19080BCE080
:1017C800FEA3E0EEF5F29080BCE0A3E0F5F375F43B
:1017D8000175F88F30FCFD9080C3E0603C9080C1BB
:1017E800E0FEA3E0D39400EE9400402D75F88390BA
:1017F80080BEE475F0011208E4120708F5FC908039
:10180800BEE475F0011208E4120708F5FDD2FE9057
:1018180080C174FFF5F012078275F88F9080C1E0DF
:10182800FEA3E0C39402EE9400404B9080BEE475A2
:10183800F0011208E4120708F5FA9080BEE475F08A
:10184800011208E4120708F5FB9080BEE475F00168
:101858001208E4120708F5FC9080BEE475F0011246
:1018680008E4120708F5FDD2FE9080C174FF75F0F8
:10187800FE12078280A69080C1E0FEA3E04E60239E
:1018880075F88C9080BEE475F0011208E412070820
:10189800F5FA9080BEE475F0011208E4120708F525
:1018A800FBD2FEE4F5F8229080D51208FB9080D890
:1018B800EDF074FFA3F0A3F0E49080DFF0A3F090C4
:1018C80080D8E0FF9080DFE0FCA3E0C39FEC9400A9
:1018D80040030219749080D51208DB9080DFE0FE87
:1018E800A3E0F5828E83120721FF9080D9E0FCA344
:1018F800E0FDECFEEF6DFF9080D9EEF0A3EFF0E491
:101908009080E1F09080E1E0C3940850529080D933
:10191800E0A3E05401FF9080DDE4F0A3EFF09080B5
:10192800D9E0FEA3E0FFEEC313FEEF13FF9080D9CA
:10193800EEF0A3EFF09080DDE0FEA3E04E6018909B
:1019480080D9E0FEA3E0FFEE64A0FEEF6401FF9003
:1019580080D9EEF0A3EFF09080E1E004F080A5904C
:1019680080DFE475F0011207820218C79080D9E081
:10197800FEA3E0EEFFA3E4F0A3EFF09080D9A3E08C
:10198800FEA3E0FCA3E0FDEE4CFEEDFF9080D9EE57
:10199800F0A3EFF09080D9E0FEA3E0FF9080D9EEAD
:1019A800F0A3EFF09080D9E0FEA3E0FF22C0E0C0F2
:1019B800F0C083C082C0D075D000C000C004C0058C
:1019C800C006C007209803021A88C2989081361270
:1019D80008AA000493E0908000E599F0908132E035
:1019E800FEA3E0EE30E703021A88908132E0FEA3FE
:1019F800E0C39440EE9400503D908000E0FF908159
:101A080032E0FCA3E024E4F58274803CF583EFF037
:101A1800908132E475F001120782908132E0FEA3D2
:101A2800E064024E70199080E5E030E712780F7696
:101A3800000876058009908132E4F0A3F080419097
:101A480080E3E0FF780FE6FC08E6FDC3EF9DE49C29
:101A58005003E004F09080E3E0FF780FE6FC08E62E
:101A6800FDEFB5051BE4B50417908132E0FEA3E055
:101A7800FFEE4480908132F0A3EFF09080E3E4F031
:101A8800D007D006D005D004D000D0D0D082D083E3
:101A9800D0F0D0E0322530325820002020202020FD
:101AA800202020202020202020202020202020202E
:101AB8002020202020202020202020004F4B2020E4
:101AC80020200A004C656E6768740A004352432060
:101AD80020200A004552524F520A00526563656938
:101AE80076656420202020202020200A0054696D7B
:101AF800656F75742020202020202020200A0000F7
:101B080002000300000004000200100001000200AF
:101B180003000300020002000100030000000200AD
:101B280005000300FD000100060003002F0001006E
:101B3800000000000000000000000000000000009D
:101B4800000000000000000000000000000000008D
:101B5800000000000000000000000000000000007D
:101B6800000000000000000000000000000000006D
:101B7800000000000000009080A812089E43C940A1
:101B880053B7CF43B71075D88075985053877F9057
:101B980080A8120886E41201A3A804A905AA06AB26
:101BA800077F007EE07D447C4A1201061201E1C3F2
:101BB800E49FFF74049EFEE4FCFD9080A812089E3A
:101BC8009080A81208867808120873EFE48FBA90FC
:101BD80080A8120886EFE48FAAD2ACD2AF908132E7
:101BE800F0A3F09080E3F022C0E0C0F0C083C08290
:101BF800C0D075D000C000C001C002C003C004C07E
:101C080005C006C007C2C6908136120886EC4D4E44
:101C18004F601590813612088674FFFBFAF9F812A6
:101C2800084790813612089E780DE6FE08E64E6059
:101C380006E61618700116D007D006D005D004D0D5
:101C480003D002D001D000D0D0D082D083D0F0D041
:101C5800E0329080D51208FB9080D8ECF0A3EDF02C
:101C6800C2ACE4A3F0A3F09080D8E0FEA3E0FFA309
:101C7800E0FCA3E0C39FEC9E50279080D51208DBC0
:101C88009080DAE0FEA3E0F5828E83120721F599B1
:101C98003099FDC2999080DAE475F00112078280CC
:101CA800C6D2AC22C2AFC2D3C2D4E4F58E75C87016
:101CB800F593759401759502F5C9F5F875F901F56F
:101CC800A843B830F59AF5A9F5B953C9FDD2BDD2E4
:101CD800BCD2AF229080A8EEF0A3EFF09080A8E0ED
:101CE800FEA3E0FF780DA60608A607780DE6FE0815
:101CF800E64E70F7229080D9EFF0C2ACE0F599304B
:101D080099FDC299D2AC229080D8EFF0E0FF121C66
:071D1800FD9080D8E0FF22DE
:00000001FF
