:1000000002002E9080A612089EC2ACE4F598F5BAC4
:0F001000F5AA53877F9080A6120886121FBD2283
:03002300021E605A
:10002B0002202E787FE4F6D8FD75817402007502EC
:10003B000957E493A3F8E493A34003F68001F20875
:10004B00DFF48029E493A3F85407240CC8C333C40A
:10005B00540F4420C8834004F456800146F6DFE475
:10006B00800B01020408102040809000BAE47E014E
:10007B009360BCA3FF543F30E509541FFEE493A3E8
:10008B0060010ECF54C025E060A840B8E493A3FAFA
:10009B00E493A3F8E493A3C8C582C8CAC583CAF086
:1000AB00A3C8C582C8CAC583CADFE9DEE780BE0222
:1000BB000D00004481340000000045812301020340
:1000CB00040542812C00014281320004418122004F
:1000DB004481280000000042812E00004180E00096
:0C00EB00020F0000001220EA12213B224C
:1000F800FFFF4457494E5435020075020257EC5D24
:10010800046005E85904700302024D1202185804ED
:1001180060F6EC4860F2EC7004FDFEFF22C860DB7C
:100128002481C85009C398600250060202549850AE
:10013800CAF582E9294B4A7005AB8202024375F081
:10014800007C1A7880C3EF9BEE9AED99400DC3EFBF
:100158009BFFEE9AFEED99FDE842F0DC23ACF0D06F
:10016800E0FFD0E0FED0E0FDAB8220E7101BEB60A3
:10017800BAEC2CFCEF33FFEE33FEED33FD02022F19
:10018800E803F830E705C0F075F000EF2FFFEE3315
:10019800FEED33FD40B830E7C280AA75F020800E2E
:1001A80075F010800575F0087D007E007F003392A1
:1001B800D530D503120854EC334010EF33FFEE333B
:1001C800FEED33FDEC33FCD5F0ED22E5F0247EA204
:1001D800D513CC92E7CDCEFF22EDD2E7CD33EC3369
:1001E80092D524814006E4FFFEFDFC22FCE4CFCE3C
:1001F800CDCC24E0501174FF80EDC3CC13CCCD13CB
:10020800CDCE13CECF13CF0470F030D5DE02085414
:10021800E9D2E7C933E833F892D5EDD2E7CD33EC2C
:1002280033FC5002B2D522EC30E7100FBF000C0EA1
:10023800BE00080DBD00040BEB6014A2D5EB13FC47
:10024800ED92E7FD2274FFFCFDFEFF22E480F8A298
:10025800D574FF13FC7D80E480EFF920E73624F99C
:1002680050037907E4F42402FBE582158270021535
:1002780083DBF6E024FB501BE96014E4F0E582150B
:100288008270021583E004F0B40A08E4F0D9EE7431
:1002980001F00A22C2D522ED33EC3392D5FA602A56
:1002A800B4FF33EDC2E77BFF60067A0279C4E4222B
:1002B8007A0279CD20D5047A0279C8224E614E009F
:1002C8002B494E46002D494E4600E47A08F0A3DA41
:1002D800FC7B00740722C083C082ECC0E0EDC0E064
:1002E800EEC0E0EFC0E0EA75F010A4CAABF075F01C
:1002F8004DA42BFBE435F0FCEA2410FAEB34C5FBE3
:10030800EC34D9FCEDC2E7FF75F056A4F42411C50E
:10031800F0F434C58FF0A42AE5F03BE43CF020E784
:10032800141205D2D0E0FFD0E0FED0E0FDD0E0FC12
:100338001201068014F4041205D2D0E0FFD0E0FECA
:10034800D0E0FDD0E0FC12049CD082D083E0FAED2E
:10035800D2E7CD33EC332482FBE4C3CF33CFCE33A3
:10036800CECD33CD33DBF37B0775F00A846004F020
:10037800A31B0AE5F0F0A38FF0740AA4FFACF08E7B
:10038800F0740AA42CFEACF050010C8DF0740AA491
:100398002CFDE435F0F0A3DBDE74072202024DE801
:1003A8006480F8E933E83360110460F0ED33EC332E
:1003B8007009E8FCE9FDEAFEEBFF220460DED3EBFE
:1003C8009FEA9EE99DE8C2E78CF0C2F795F0400CE1
:1003D800E8CCF8E9CDF9EACEFAEBCFFB12021885A2
:1003E800D0F05804700320D5B3E80470075002B267
:1003F800D502025792D5EC0460F7E4CCC0E0C3986C
:10040800F8603B94186008400DD0E0FB02022FE42E
:10041800FBFAC9FC8028E830E406E4C9FBE4CAFC1E
:10042800E830E305E4C9CACBFCE854076010F8C318
:10043800E913F9EA13FAEB13FBEC13FCD8F130F5E6
:100448002FC3E49CFCEF9BFFEE9AFEED99FDD0E0F4
:10045800FBEF4E4D4C701222DB03020254EC2CFCD5
:10046800EF33FFEE33FEED33FDED30E7EB02022F05
:10047800EF2BFFEE3AFEED39FDD0E0FB50130BBB3E
:100488000003020257ED13FDEE13FEEF13FFEC130A
:10049800FC02022FEC4D6011E8497017ED33EC3384
:1004A80004600DE4FCFFFEFD22E933E8330470F834
:1004B80002024D12021858046009E4CC2481500647
:1004C800285009020257284003020254C0E0EB4AB0
:1004D8007044B98006D0E0FB020243EF4E701CBDA9
:1004E8008008EBFFEAFEE9FD80EBE98DF0A4FEE56C
:1004F800F0020585E9CDF9EAFEEBFFEF89F0A4FCEF
:10050800E5F0CE89F0A42EFFE435F0CD89F0A42DD6
:10051800FEE435F08067EF4E7005BD80D780C3EFED
:100528008BF0A4ACF0EE8BF0A42CFCE435F0F8EFE3
:100538008AF0A42CE5F038FCE433CB8DF0A42CFC35
:10054800E5F03BF8EE8AF0A42CFCE5F038F8E4334B
:10055800CF89F0A42CFCE5F038CF3400CE89F0A484
:100568002FFFE5F03EFEE433C98DF0A42EFEE5F042
:1005780039CD8AF0A42FFFE5F03EFEE43DFD33D0EF
:10058800E0FB50070BBB000F020257EC2CFCEF33CB
:10059800FFEE33FEED33FD02022F3F8000004120C5
:1005A800000042C80000447A0000461C400047C3CF
:1005B8005000497424004B1896804CBEBC205A0E3B
:1005C8001BCA6753C21C749DC5AEFB600654076006
:1005D8001C2323120600EB543860091205EC12059F
:1005E800FB12049CECF8EDF9EEFAEFCB22EB1205C6
:1005F800FB80F1543803241C9005A2FE93FC0EEEF8
:1006080093FD0EEE930ECE93FF22E709F608DFFA6C
:100618008046E709F208DFFA803E88828C83E70982
:10062800F0A3DFFA8032E309F608DFFA8078E309FD
:10063800F208DFFA807088828C83E309F0A3DFFA7E
:10064800806489828A83E0A3F608DFFA8058898269
:100658008A83E0A3F208DFFA804C80D280FA80C651
:1006680080D4806980F28033801080A680EA809AE6
:1006780080A880DA80E280CA803389828A83ECFA93
:10068800E493A3C8C582C8CCC583CCF0A3C8C582EF
:10069800C8CCC583CCDFE9DEE7800D89828A83E494
:1006A80093A3F608DFF9ECFAA9F0EDFB2289828A18
:1006B80083ECFAE0A3C8C582C8CCC583CCF0A3C834
:1006C800C582C8CCC583CCDFEADEE880DB89828AB4
:1006D80083E493A3F208DFF980CC88F0EF60010E81
:1006E8004E60C388F0ED2402B4040050B9F582EBE3
:1006F8002402B4040050AF2323458223900662737A
:10070800BB010689828A83E0225002E722BBFE02EF
:10071800E32289828A83E49322BB010CE58229F5CE
:1007280082E5833AF583E0225006E92582F8E6223D
:10073800BBFE06E92582F8E222E58229F582E583F7
:100748003AF583E49322BB010689828A83F022501A
:1007580002F722BBFE01F322F8BB010DE58229F561
:1007680082E5833AF583E8F0225006E92582C8F647
:1007780022BBFE05E92582C8F222C5F0F8A3E028CD
:10078800F0C5F0F8E582158270021583E038F02292
:10079800BB010A89828A83E0F5F0A3E0225006872C
:1007A800F009E71922BBFE07E3F5F009E3192289EE
:1007B800828A83E493F5F074019322BB0110E582E9
:1007C80029F582E5833AF583E0F5F0A3E0225009A4
:1007D800E92582F886F008E622BBFE0AE92582F8B8
:1007E800E2F5F008E222E5832AF583E993F5F0A320
:1007F800E99322BB010A89828A83F0E5F0A3F022FB
:100808005006F709A7F01922BBFE06F3E5F009F335
:100818001922F8BB0111E58229F582E5833AF583AF
:10082800E8F0E5F0A3F0225009E92582C8F608A609
:10083800F022BBFE09E92582C8F2E5F008F222EFB2
:100848002BFFEE3AFEED39FDEC38FC22C3E49FFFA6
:10085800E49EFEE49DFDE49CFC22EB9FF5F0EA9EFD
:1008680042F0E99D42F0E89C45F022E8600FECC3B5
:1008780013FCED13FDEE13FEEF13FFD8F122E0FC9D
:10088800A3E0FDA3E0FEA3E0FF22E0F8A3E0F9A3C4
:10089800E0FAA3E0FB22ECF0A3EDF0A3EEF0A3EF67
:1008A800F022A8828583F0D083D0821208C1120872
:1008B800C11208C11208C1E473E493A3C583C5F04B
:1008C800C583C8C582C8F0A3C583C5F0C583C8C59C
:1008D80082C822E0FBA3E0FAA3E0F922F8E0FBA338
:1008E800A3E0F925F0F0E582158270021583E0FA9D
:1008F80038F022EBF0A3EAF0A3E9F022D083D0820B
:10090800F8E4937012740193700DA3A393F8740123
:1009180093F5828883E4737402936860EFA3A3A3BA
:1009280080DFD083D082F8E4937012740193700D45
:10093800A3A393F8740193F5828883E473740293F4
:10094800B5F0067403936860E9A3A3A3A380D87BDA
:10095800FF7A1C79EF78227C007D007E007F3812B8
:1009680006E27BFF7A1D792778017C807D017E0075
:100978007F081206E29080091208AA000000007B96
:10098800FF7A1D792F78127C807D017E007F3012DE
:1009980006E27BFF7A1D795F78627C007D007E002D
:1009A8007F101206E2E49080A0F0A3F0A3F0A3F079
:1009B800A3F0A3F01200F07F807E257D007C00125A
:1009C8001FBDE490812EF0A3F090800DF09081344B
:1009D8001208AA0007A120E4FFFEFDFC9081341252
:1009E8000892C3120862702290800DE0B4011B9037
:1009F8008130E0FEA3E04E6011908130E0A3E0FF7B
:100A0800EE4480908130F0A3EFF0908130E0FEA3B7
:100A1800E0EE20E703020D9D908130A3E0FFEE5445
:100A28007F90800EF0A3EFF07B017A80790E9080A2
:100A3800BFE4F0A37402F07F697E20121A58E49094
:100A4800804EF0A3F0908010F0A3F090800EE0FEAE
:100A5800A3E0FFA3E0FCA3E0C39FEC9E505A908064
:100A68004EE0FEA3E02412F974803EFA7B01C00335
:100A7800C002C0017BFF7A1C797B9080A91208FB19
:100A8800908010E0FEA3E024E2F58274803EF583B6
:100A9800E0FF9080ACE4F0A3EFF0D001D002D003E7
:100AA80012119F90804EEE8FF0120782908010E412
:100AB80075F00112078280937BFF7A1C7981908000
:100AC800BFE4F0A37410F0FF7E20121A587B017A5D
:100AD80080791290804EE0FEA3E0FFEEC313FEEF94
:100AE800132402FFE43E9080BFF0A3EFF07F107E56
:100AF80020121A58E4908010F0A3F0908010E0FEC5
:100B0800A3E0C39430EE9400501C908010E0A3E062
:100B18002412F58274803EF583E4F090801075F01D
:100B28000112078280D59081341208AA0007A120FB
:100B38007B017A8079E2C002C00190800EE0FCA3BC
:100B4800E0FD7A8079569080AB1208FBD001D00284
:100B58001215BD9080A4E4F0A3EFF07B017A8079B0
:100B6800A49080BFE4F0A304F07F717E20121A588D
:100B78009080A4E0FEA3E064014E6003020CBA7BFF
:100B8800FF7A1C79A29080BFF0A37404F07F967E50
:100B980020121A58908056E0FEA3E08EF012092A1F
:100BA8000BB400010C2C000200000D5B90805AE091
:100BB800FEA3E0C39402EE94005003020D5BA3E091
:100BC800A3E0FEA3E0FCA3E0FDEE4CFEEDFF908069
:100BD80054EEF0A3EFF0908054E0FEA3E0EE30E78F
:100BE8000E908054A3E0FF908054EEF0A3EFF090B5
:100BF8008054E0FCA3E0FDE41201A8E4FBFA7920AC
:100C0800784112010690805012089E7B017A807903
:100C1800509080BFE4F0A37402F07F057E20121A82
:100C280058020D5B90805AE0FEA3E0C39402EE9454
:100C3800004060A3E0A3E0FEA3E0FCA3E0FDEE4CCF
:100C4800FEEDFF90809CEEF0A3EFF0908064E0A3AF
:100C5800E0FEA3E0FCA3E0FDEE4CFEEDFF90809EDD
:100C6800EEF0A3EFF07B017A80799E9080BFE4F0EC
:100C7800A304F07F817E20121A587B017A80799C28
:100C88009080BFE4F0A37402F07F077E20121A5808
:100C9800020D5B7BFF7A1C79AA9080BFE4F0A374F5
:100CA80006F07F967E20121A58020D5B020D5B0239
:100CB8000D5B9080A4E0FEA3E064634E702E7BFF82
:100CC8007A1C79B49080BFF0A37404F07F967E20DC
:100CD800121A587F147E0012211AE4908130F0A372
:100CE800F07F807E25FDFC12000380679080A4E0E1
:100CF800FEA3E064624E702E7BFF7A1C79BC908064
:100D0800BFF0A37404F07F967E20121A587F147ED9
:100D18000012211AE4908130F0A3F07F807E25FD37
:100D2800FC120003802D7BFF7A1C79C49080BFE4FD
:100D3800F0A37404F07F967E20121A587F147E0068
:100D480012211AE4908130F0A3F07F807E25FDFC0B
:100D5800120003E4908130F0A3F090800EF0A3F02D
:100D6800A3F0A3F0908010E0FEA3E0C39440EE94BB
:100D780000501C908010E0A3E024E2F58274803ECD
:100D8800F583E4F090801075F00112078280D59009
:100D980080E07401F090800DE0600302105C9081A7
:100DA8002EE0FEA3E0C39407EE94004007E4908190
:100DB8002EF0A3F07F0F7E0012211A90812EE0A35F
:100DC800E075F008A42422F9E4FAFB785A7C00FDC7
:100DD800FE7F081206E27B017A81792E9080BFE4BB
:100DE800F0A304F07F007E20121A58785CE608E62B
:100DF8007874F67B007A00795C9080BFE4F0A304F5
:100E0800F0FF7E20121A587B007A00795E9080BF2E
:100E1800E4F0A304F07F027E20121A587874E6B436
:100E280003187860E6FE08E625E0FFEE33FEEF24BF
:100E380005FFE43E780FF608A6077874E6B41007B5
:100E4800780F76000876087874E6B40607780F7687
:100E5800000876087B007A00790F9080BFE4F0A341
:100E68007402F07F037E20121A587B007A00795AA8
:100E78009080BFE4F0A304F07F047E20121A5890FB
:100E880080091208AA0002710090800D7401F0E434
:100E98007872F608F6FB7A0079729080ABF0A304BA
:100EA800F07F797E20121D6F7B017A8079429080D5
:100EB800ABE4F0A304F07F647E20121D6F7B017AFF
:100EC80080799C9080ABE4F0A304F07F737E2012BD
:100ED8001D6F908042E0FEA3E0FF7862A60608A698
:100EE80007908042E0FEA3E0FF08A60608A6079048
:100EF8008042E0FEA3E0FF08A60608A6079080420D
:100F0800E0FEA3E0FF08A60608A60790809CE0FE86
:100F1800A3E0FF08A60608A6077872E608E65402CA
:100F2800FF908044E4F0A3EFF018E608E65404FFCD
:100F3800A3E4F0A3EFF018E608E65408FFA3E4F0F2
:100F4800A3EFF018E608E65410FFA3E4F0A3EFF0CF
:100F580018E608E65420FFA3E4F0A3EFF018E6082B
:100F6800E6540118760008F67B007A00797018E6D6
:100F780008E69080AAF0E4FD121F487B007A007909
:100F880070908044E0A3E09080AAF07D01121F4891
:100F98007B007A007970908046E0A3E09080AAF008
:100FA8007D02121F487B007A007970908048E0A388
:100FB800E09080AAF07D03121F487B007A007970C8
:100FC80090804AE0A3E09080AAF07D04121F487B3D
:100FD800007A00797090804CE0A3E09080AAF07DC0
:100FE80005121F4890804CE0FEA3E07805CEC3139D
:100FF800CE13D8F95401FF90804CE4F0A3EFF07BB6
:10100800007A0079729080BFE4F0A304F07F757EC7
:1010180020121A587B017A80794C9080BFE4F0A3A3
:1010280004F07F607E20121A587B007A00795AC03B
:1010380002C0017A0079629080A91208FB9080AC06
:101048007408F0D001D00212182C9081341208AA2A
:101058000007A12090800912088674FFFBFAF9F8AE
:1010680012084790800912089E90800DE064016084
:10107800030209DF9080E0E0B4013B7A1C79CB9051
:1010880080BFE4F0A37409F07F427E20121A5890C2
:10109800812EE475F001120782E490800DF09080B3
:1010A800E0F09080091208AA0002710090813412C1
:1010B80008AA0007A120E4FFFEFDFC9080091208A1
:1010C80092C312086260030209DF7BFF7A1C79DD94
:1010D8009080BFF0A37409F07F427E20121A58E472
:1010E800908010F0A3F0908010E0FEA3E0C394304D
:1010F800EE9400501C908010E0A3E02412F5827456
:10110800803EF583E4F090801075F001120782802C
:10111800D590812EE475F001120782E490800DF0DD
:101128009080E0F09081341208AA0007A1200209FB
:10113800DF22E50824A9F582E43480F583E0050878
:10114800229080A63007039080A9E475F001120868
:10115800E40207082000E97F2ED2008018EF540F20
:101168002490D43440D4FF30040BEF24BFB41A00C9
:1011780050032461FFE50960021509050CE50C70B0
:1011880002050B30070E9080A6E475F0011208E402
:10119800EF02074E0221637403D2078003E4C207FB
:1011A800F5089080A61208FBE4F509F50BF50CE5A7
:1011B8000960077F2012117D80F5750AFFC201C200
:1011C80000C202C203C205C206C208121149FF705A
:1011D8000D3007057F0012118EAF0CAE0B22B4251F
:1011E8005FC2D5C204121149FF24D0B40A00501AB4
:1011F80075F00A780930D50508B6FF0106C6A42699
:10120800F620D5047002D20380D924CFB41A00EF97
:101218005004C2E5D204021480D20180C6D20080F4
:10122800C0D20280BCD2D580BAD20580B47F201249
:10123800117D2002077401B5090040F112113AFF2F
:1012480012117D0211B7D208D206809512113AFB0D
:1012580012113AFA12113AF94A4B7006797E7A1548
:101268007BFF20022EE509602A7E008E82758300AE
:1012780012072160060EEE650A70F0C2D5EBC0E0D9
:10128800EAC0E0E9C0E0EE1214E1D0E0F9D0E0FAFB
:10129800D0E0FB120708FF60AAEBC0E0EAC0E0E973
:1012A800C0E012117DD0E02401F9D0E03400FAD07A
:1012B800E0FBE50A0460DCD50AD98087D20280A267
:1012C8001214C360F7E50A700104120262A90A60E9
:1012D8000DE50A600914F50A12156BEF60F3EA30A0
:1012E800E702F404C3995079EAF4250A0430E701C7
:1012F800E404F50A800D1214C360C1EA050A250A40
:10130800120262EA9080D5F030E701E4250A04D59C
:101318000A04200501141214E1E4C0E012156B90D0
:1013280080D5E0601320E70714F0121165802204CD
:10133800F0D0E014C0E07F00121165E50A600712E2
:10134800115C150A800B30050312115CD0E0021104
:10135800B7D0E00480C41214C3609EE50A041202E8
:10136800629080D5EAF0E50A2005026001042404B1
:101378001214E174FF04C0E012156B121165E50A3E
:10138800200502600312115CD0E0B50AE87F45121F
:10139800116F9080D5E07F2B30E7047F2DF404C0D7
:1013A800E012117DD0E075F00A84C0F0121166D009
:1013B800E01211660211B7791080027908C206C2DC
:1013C800088008D2D5790A8004790AC2D5E50A04CA
:1013D8007002F50AE4FAFDFEFF12113AFC7B0820C0
:1013E800011312113AFD7B1030000A12113AFE1255
:1013F800113AFF7B20EC3382D592D55013C3E430E9
:1014080000069FFFE49EFEE42001039DFDE49CFC92
:10141800E4CBF8C201EC700CCFCECDCCE824F8F8C0
:1014280070F38017C3EF33FFEE33FEED33FDEC337B
:10143800FCEB33FB994002FB0FD8E9EB300105F8D0
:10144800D0E0C448B201C0E00AEC4D4E4F78207B92
:101458000070C2EAB50A0040BCC0E01214E3D0F044
:10146800D0E0200104C4C0E0C4B201C0F01211668B
:10147800D0F0D5F0EB0211B712090412545313BF80
:101488005812254C12214213C34F13CB4413CB4996
:10149800123A4313D15512FE46135E4512C847153A
:1014A8009E5012292D122D2E12502B123123124E1E
:1014B8002015872A11E94800001248E50AB4FF03FD
:1014C800750A0612113AFC12113AFD12113AFE126F
:1014D800113AFF9080CE02029F790AA2D520031408
:1014E800300509B910020404B9080104A2D5200680
:1014F800025001042002689202B509005034C0E08D
:101508007F203003197F30A20272067205500F1235
:10151800153AC202C206C205C2087F30800F3005E4
:1015280003E9C0E012117D300503D0E0F9D0E0B541
:1015380009CC3005177F30B9100C12117D7F583057
:1015480004077F788003B9080312117D3002057FF4
:101558002D02117D7F202008F87F2B2006F3229290
:101568000280CF7F00B40700500B24CEF582E4340C
:1015780080F583E0FF22286E756C6C2900D2011279
:10158800113A3001F8C201780930D50108F6021184
:10159800E92D5043495812113A2403B4050040017B
:1015A800E49015999312116E743A12116ED2037564
:1015B80009040213BF9080A61208FB9080A9ECF0E2
:1015C800A3EDF09080A61208DB120708FF9080B602
:1015D800E4F0A3EFF09080A61208DB900001120758
:1015E80021FF9080B8E4F0A3EFF07B017A8079B610
:1015F8009080BFE4F0A304F07F657E20121A587B28
:10160800017A8079B89080BFE4F0A304F07F677E08
:1016180020121A589080A9E0FEA3E0C39404EE9427
:10162800005039E49080B4F0A3F09080B4E0FEA3B9
:10163800E0C39440EE940050209080A61208DB90FE
:1016480080B4E0A3E0F5828E83E41207609080B452
:10165800E475F00112078280D17F63229080A61280
:1016680008DB9080A9E0FEA3E024FEFFEE34FF8FA4
:1016780082F583120721FE9080A61208DB9080A9CC
:10168800E0FCA3E024FFFDEC34FF8D82F583120714
:1016980021FDEEEDFF9080AEEEF0A3EFF09080A676
:1016A8001208DB9080A9E0A3E024FEFD121B7590D0
:1016B80080B0EEF0A3EFF09080B0E0FEA3E0FF90E2
:1016C80080AEE0FCA3E06F7002EC6E6039E49080BD
:1016D800B4F0A3F09080B4E0FEA3E0C39440EE948D
:1016E8000050209080A61208DB9080B4E0A3E0F5BB
:1016F800828E83E41207609080B4E475F0011207CB
:101708008280D17F62229080A61208DB120708FF30
:101718009080AB1208DBE48FF01207FB9080A612D2
:1017280008DB900001120721FF9080AB1208DB90C4
:101738000002E48FF012081A9080AB1208DB9000C8
:10174800021207C3640345F060030218179080A6CD
:101758001208DB900002120721FF9080AB1208DB11
:10176800900004E48FF012081AE49080B2F0A3F01D
:101778009080AB1208DB9000041207C3FF9080B280
:10178800E0FCA3E0C39FEC95F0504B9080A61208B4
:10179800DB9080B2E0FEA3E02403FFE43E8F82F5F5
:1017A80083120721FD9080AB1208DBE92406F9E4D7
:1017B8003AFA9080B2E0A3E025E0FFEE33FEE92F8D
:1017C800F9EA3EFAE48DF01207FB9080B2E475F076
:1017D80001120782809AE49080B4F0A3F09080B45C
:1017E800E0FEA3E0C39440EE940050209080A6123F
:1017F80008DB9080B4E0A3E0F5828E83E4120760F2
:101808009080B4E475F00112078280D17F012290A4
:1018180080AB1208DB9000021207C3641045F07019
:10182800027F01229080A61208FB9080A61208DB96
:101838001207989080ADF09080A61208DB90000205
:101848001207C39080AEF09080A61208DB900002C9
:101858001207C3640345F0704A9080A61208DB9013
:1018680000041207C3E5F09080AFF09080A612083C
:10187800DB9000041207C39080B0F09080A6120895
:10188800DB9000061207C3E5F09080B1F09080A6C7
:101898001208DB9000061207C39080B2F09080D146
:1018A8007406F09080A61208DB9000021207C36449
:1018B8000645F0704D9080A61208DB9000041207D0
:1018C800C3E5F09080AFF09080A61208DB9000048A
:1018D8001207C39080B0F09080A91208DB90000C2A
:1018E8001207C3E5F09080B1F09080A91208DB9050
:1018F800000E1207C39080B2F09080D17406F002F7
:1019080019FF9080A61208DB9000021207C364102A
:1019180045F060030219FF9080ACE025E09080D28A
:10192800F09080A61208DB9000041207C3E5F0903F
:1019380080AFF09080A61208DB9000041207C390D5
:1019480080B0F09080ACE0E49080B1F09080ACE0A2
:101958009080B2F09080D2E09080B3F0E49080CF95
:10196800F0A3F09080ACE0FF9080CFE0FCA3E0C350
:101978009FEC940050779080CFE0FEA3E025E0FF35
:10198800EE33FE9080A91208DB8F828E831207C384
:10199800E5F0FD9080CFE0FEA3E025E0FFEE33FE0A
:1019A80074B42FF58274803EF583EDF09080CFE01B
:1019B800FEA3E025E0FFEE33FE9080A91208DB8F3E
:1019C800828E831207C3FD9080CFE0FEA3E025E05E
:1019D800FFEE33FE74B52FF58274803EF583EDF08B
:1019E8009080CFE475F00112078202196B9080D2C3
:1019F800E024079080D1F07B017A8079AD9080D186
:101A0800E0FD121B759080CDEEF0A3EFF09080CD35
:101A1800E0A3E0FF9080D1E024AEF582E43480F5C5
:101A280083EFF09080CDE0FEA3E0EEFF9080D1E060
:101A380024ADF582E43480F583EFF09080D1E02482
:101A480002F07B017A8079ADE0FD7C0012209822BB
:101A58009080BAEEF0A3EFF0A31208FB9080BAE0F2
:101A6800A3E054019080C1F09080BAE0FEA3E0FFAB
:101A7800EEC313FEEF13FF9080BAEEF0A3EFF0E48D
:101A8800F5F19080BAE0FEA3E0EEF5F29080BAE0BE
:101A9800A3E0F5F375F40175F88F30FCFD9080C173
:101AA800E0603C9080BFE0FEA3E0D39400EE940099
:101AB800402D75F8839080BCE475F0011208E4129B
:101AC8000708F5FC9080BCE475F0011208E41207E1
:101AD80008F5FDD2FE9080BF74FFF5F012078275FD
:101AE800F88F9080BFE0FEA3E0C39402EE9400401C
:101AF8004B9080BCE475F0011208E4120708F5FA6F
:101B08009080BCE475F0011208E4120708F5FB9018
:101B180080BCE475F0011208E4120708F5FC908017
:101B2800BCE475F0011208E4120708F5FDD2FE9036
:101B380080BF74FF75F0FE12078280A69080BFE018
:101B4800FEA3E04E602375F88C9080BCE475F0012C
:101B58001208E4120708F5FA9080BCE475F0011247
:101B680008E4120708F5FBD2FEE4F5F8229080D3CA
:101B78001208FB9080D6EDF074FFA3F0A3F0E49078
:101B880080DDF0A3F09080D6E0FF9080DDE0FCA33C
:101B9800E0C39FEC94004003021C3A9080D31208E3
:101BA800DB9080DDE0FEA3E0F5828E83120721FF43
:101BB8009080D7E0FCA3E0FDECFEEF6DFF9080D7AE
:101BC800EEF0A3EFF0E49080DFF09080DFE0C394C4
:101BD8000850529080D7E0A3E05401FF9080DBE4E6
:101BE800F0A3EFF09080D7E0FEA3E0FFEEC313FE72
:101BF800EF13FF9080D7EEF0A3EFF09080DBE0FECC
:101C0800A3E04E60189080D7E0FEA3E0FFEE64A04A
:101C1800FEEF6401FF9080D7EEF0A3EFF09080DF35
:101C2800E004F080A59080DDE475F00112078202DF
:101C38001B8D9080D7E0FEA3E0EEFFA3E4F0A3EFB6
:101C4800F09080D7A3E0FEA3E0FCA3E0FDEE4CFEFD
:101C5800EDFF9080D7EEF0A3EFF09080D7E0FEA3E1
:101C6800E0FF9080D7EEF0A3EFF09080D7E0FEA3DE
:101C7800E0FF22253032582000202020202020207C
:101C8800202020202020202020202020202020204C
:101C9800202020202020202020004F4B2020202002
:101CA8000A00444154415F4552520A004C656E6730
:101CB80068740A004352432020200A004552524FBC
:101CC800520A0052656365697665642020202020E9
:101CD8002020200A0054696D656F7574202020202B
:101CE80020202020200A000001000300000001003D
:101CF80002000300000004000200100000000100C0
:101D080003000300000001000400030000000100BC
:101D180005000300000001000600030000000100A8
:101D280000000000000000000000000000000000AB
:101D3800000000000000000000000000000000009B
:101D4800000000000000000000000000000000008B
:101D5800000000000000000000000000000000007B
:101D6800000000000000009080A6EEF0A3EFF0A3B2
:101D78001208FB9080A6E0A3E054019080ADF0909B
:101D880080A6E0FEA3E0FFEEC313FEEF13FF9080F2
:101D9800A6EEF0A3EFF0E4F5F19080A6E0FEA3E054
:101DA800EEF5F29080A6E0A3E0F5F375F40175F87E
:101DB800AF30FCFD9080ABE0FEA3E0D39400EE943E
:101DC800005003021E5CD2FE20FEFD9080ADE07044
:101DD8003D9080ABE0FEA3E0D39400EE9400402E4B
:101DE8009080A8E475F0011208E4E5FA12074E9015
:101DF80080A8E475F0011208E4E5FB12074E908014
:101E0800AD7401F09080AB74FFF5F01207829080FA
:101E1800ADE0B4019F9080ABE0FEA3E0D39400EE68
:101E2800940040909080A8E475F0011208E4E5FC65
:101E380012074E9080A8E475F0011208E4E5FD123F
:101E4800074EE49080ADF09080AB74FFF5F0120778
:101E580082021DBCE4F5F822C0E0C0F0C083C08255
:101E6800C0D075D000C000C004C005C006C007209F
:101E78009803021F33C2989081341208AA0007A160
:101E880020908000E599F0908130E0FEA3E0EE30EC
:101E9800E703021F33908130E0FEA3E0C39440EED5
:101EA8009400503D908000E0FF908130E0FCA3E07A
:101EB80024E2F58274803CF583EFF0908130E4757C
:101EC800F001120782908130E0FEA3E064024E70B8
:101ED800199080E3E030E712780F760008760580E5
:101EE80009908130E4F0A3F080419080E1E0FF7830
:101EF8000FE6FC08E6FDC3EF9DE49C5003E004F008
:101F08009080E1E0FF780FE6FC08E6FDEFB5051BE1
:101F1800E4B50417908130E0FEA3E0FFEE44809022
:101F28008130F0A3EFF09080E1E4F0D007D006D044
:101F380005D004D000D0D0D082D083D0F0D0E03209
:101F48009080A61208FB9080A9EDF0E0C394105091
:101F580063A3E0602F9080A61208DB120798FDACFF
:101F6800F09080A9E0FF74017E00A807088005C3EF
:101F780033CE33CED8F9FFEC4EFEED4FFFEE8FF0A7
:101F88001207FB229080A61208DB120798FDACF01E
:101F98009080A9E0FF74017E00A807088005C3337C
:101FA800CE33CED8F9F4FFEEF45CFEED5FFFEE8F92
:101FB800F01207FB229080AA12089E43C94053B72B
:101FC800CF43B71075D88075985053877F9080AAF3
:101FD800120886E41201A3A804A905AA06AB077F84
:101FE800007EE07D447C4A1201061201E1C3E49FB1
:101FF800FF74049EFEE4FCFD9080AA12089E908067
:10200800AA1208867808120873EFE48FBA9080AA9B
:10201800120886EFE48FAAD2ACD2AF908130F0A339
:10202800F09080E1F022C0E0C0F0C083C082C0D050
:1020380075D000C000C001C002C003C004C005C004
:1020480006C007C2C6908134120886EC4D4E4F6018
:102058001590813412088674FFFBFAF9F8120847C4
:1020680090813412089E780DE6FE08E64E6006E67A
:102078001618700116D007D006D005D004D003D0AA
:1020880002D001D000D0D0D082D083D0F0D0E032BE
:102098009080D31208FB9080D6ECF0A3EDF0C2AC90
:1020A800E4A3F0A3F09080D6E0FEA3E0FFA3E0FC59
:1020B800A3E0C39FEC9E50279080D31208DB90804A
:1020C800D8E0FEA3E0F5828E83120721F5993099B6
:1020D800FDC2999080D8E475F00112078280C6D2BB
:1020E800AC22C2AFC2D3C2D4E4F58E75C870F593E2
:1020F800759401759502F5C9F5F875F901F5A843C8
:10210800B830F59AF5A9F5B953C9FDD2BDD2BCD2FC
:10211800AF229080A6EEF0A3EFF09080A6E0FEA399
:10212800E0FF780DA60608A607780DE6FE08E64E3D
:1021380070F72275C870E4F5CDF5CC75CBBC75CABF
:10214800CD43A820D2C8D2AF229080D7EFF0C2AC3E
:10215800E0F5993099FDC299D2AC229080D6EFF083
:0B216800E0FF1221519080D6E0FF2222
:00000001FF
