:1000000002002E9080BE121358C2ACE4F598F5BAE7
:0F001000F5AA53877F9080BE12134012229422CC
:0300230002213780
:10002B00022305787FE4F6D8FD7581740200750212
:10003B000103E493A3F8E493A34003F68001F208D1
:10004B00DFF48029E493A3F85407240CC8C333C40A
:10005B00540F4420C8834004F456800146F6DFE475
:10006B00800B01020408102040809000BAE47E014E
:10007B009360BCA3FF543F30E509541FFEE493A3E8
:10008B0060010ECF54C025E060A840B8E493A3FAFA
:10009B00E493A3F8E493A3C8C582C8CAC583CAF086
:1000AB00A3C8C582C8CAC583CADFE9DEE780BE0222
:1000BB000D000044814C0000000045813B01020310
:1000CB000405428144000142814A000441813A0007
:1000DB004481400000000042814600004180F8004E
:0C00EB00020F0000001223C11224122298
:1000F800FFFF4457494E54350200757BFF7A1F793C
:10010800C678227C007D007E007F3812119C7BFF20
:100118007A1F79FE78017C807D017E007F081211AC
:100128009C908009121364000000007BFF7A2079FC
:100138000678127C807D017E007F3012119C7BFF47
:100148007A20793678627C007D007E007F1012115B
:100158009CE49080B8F0A3F0A3F0A3F0A3F0A3F080
:100168001200F07F807E257D007C00122294E490AE
:100178008146F0A3F090800DF090814C121364003A
:1001880007A120E4FFFEFDFC90814C12134CC31222
:10019800131C702290800DE0B4011B908148E0FE92
:1001A800A3E04E6011908148E0A3E0FFEE44809008
:1001B8008148F0A3EFF0908148E0FEA3E0EE20E74D
:1001C8000302075C908148A3E0FFEE547F90800E05
:1001D800F0A3EFF07B017A80790E9080D7E4F0A34A
:1001E8007402F07F697E20121D2FE4908056F0A3E0
:1001F800F0908010F0A3F090800EE0FEA3E0FFA343
:10020800E0FCA3E0C39FEC9E505A908056E0FEA30A
:10021800E02412F974803EFA7B01C003C002C001D9
:100228007BFF7A1F79529080C11213B5908010E03D
:10023800FEA3E024FAF58274803EF583E0FF908007
:10024800C4E4F0A3EFF0D001D002D00312147690EA
:100258008056EE8FF012123C908010E475F0011277
:10026800123C80937BFF7A1F79589080D7E4F0A3E3
:100278007410F0FF7E20121D2F7B017A8079129076
:100288008056E0FEA3E0FFEEC313FEEF132402FF47
:10029800E43E9080D7F0A3EFF07F107E20121D2F50
:1002A800E4908010F0A3F0908010E0FEA3E0C394E7
:1002B80030EE9400501C908010E0A3E02412F582E8
:1002C80074803EF583E4F090801075F00112123CC2
:1002D80080D590814C1213640007A1207B017A809D
:1002E80079FAC002C00190800EE0FCA3E0FD7A809C
:1002F800796E9080C31213B5D001D0021218949071
:1003080080BCE4F0A3EFF07B017A8079BC9080D7C1
:10031800E4F0A304F07F717E20121D2F9080BCE0D2
:10032800FEA3E064014E60030206797BFF7A1F7921
:10033800799080D7F0A37404F07F967E20121D2F49
:1003480090806EE0FEA3E08EF01213E403700001CB
:1003580003EF00020477000304F6000405750005A6
:1003680005F400060000071A908072E0FEA3E0C3BF
:100378009402EE9400500302071AA3E0A3E0FEA340
:10038800E0FCA3E0FDEE4CFEEDFF90806CEEF0A3E8
:10039800EFF090806CE0FEA3E0EE30E70E90806C0A
:1003A800A3E0FF90806CEEF0A3EFF090806CE0FC8F
:1003B800A3E0FDE4120C62E4FBFA79207841120B09
:1003C800C09080581213587B017A8079589080D752
:1003D800E4F0A37402F07F057E20121D2FE49080C4
:1003E8006CF0A3F002071A908072E0FEA3E0C394B9
:1003F80002EE94004060A3E0A3E0FEA3E0FCA3E0CB
:10040800FDEE4CFEEDFF9080B4EEF0A3EFF090808F
:100418007CE0A3E0FEA3E0FCA3E0FDEE4CFEEDFFD4
:100428009080B6EEF0A3EFF07B017A8079B69080E9
:10043800D7E4F0A304F07F817E20121D2F7B017A80
:100448008079B49080D7E4F0A37402F07F077E200F
:10045800121D2F02071A7BFF7A1F79819080D7E43B
:10046800F0A37406F07F967E20121D2F02071A90C3
:100478008072E0FEA3E0C39402EE940050030207EA
:100488001AA3E0A3E0FEA3E0FCA3E0FDEE4CFEED22
:10049800FF90806CEEF0A3EFF090806CE0FEA3E09C
:1004A800EE30E70E90806CA3E0FF90806CEEF0A336
:1004B800EFF090806CE0FCA3E0FDE4120C62E4FB3A
:1004C800FA79207841120BC090805C1213587B0196
:1004D8007A80795C9080D7E4F0A37402F07F857EFF
:1004E80020121D2FE490806CF0A3F002071A908070
:1004F80072E0FEA3E0C39402EE9400500302071AD0
:10050800A3E0A3E0FEA3E0FCA3E0FDEE4CFEEDFFBC
:1005180090806CEEF0A3EFF090806CE0FEA3E0EE2C
:1005280030E70E90806CA3E0FF90806CEEF0A3EFB4
:10053800F090806CE0FCA3E0FDE4120C62E4FBFAAE
:1005480079207841120BC09080601213587B017A91
:100558008079609080D7E4F0A37402F07F877E20D2
:10056800121D2FE490806CF0A3F002071A9080729D
:10057800E0FEA3E0C39402EE9400500302071AA31E
:10058800E0A3E0FEA3E0FCA3E0FDEE4CFEEDFF904F
:10059800806CEEF0A3EFF090806CE0FEA3E0EE300C
:1005A800E70E90806CA3E0FF90806CEEF0A3EFF074
:1005B80090806CE0FCA3E0FDE4120C62E4FBFA79A5
:1005C800207841120BC09080641213587B017A8006
:1005D80079649080D7E4F0A37402F07F897E2012BA
:1005E8001D2FE490806CF0A3F002071A908072E04F
:1005F800FEA3E0C39402EE9400500302071AA3E09E
:10060800A3E0FEA3E0FCA3E0FDEE4CFEEDFF90802E
:100618006CEEF0A3EFF090806CE0FEA3E0EE30E724
:100628000E90806CA3E0FF90806CEEF0A3EFF0904A
:10063800806CE0FCA3E0FDE4120C62E4FBFA792094
:100648007841120BC09080681213587B017A807928
:10065800689080D7E4F0A37402F07F917E20121D89
:100668002FE490806CF0A3F002071A02071A020721
:100678001A9080BCE0FEA3E064634E702E7BFF7A84
:100688001F798B9080D7F0A37404F07F967E201298
:100698001D2F7F147E001223F1E4908148F0A3F00F
:1006A8007F807E25FDFC12000380679080BCE0FE01
:1006B800A3E064624E702E7BFF7A1F79939080D7F7
:1006C800F0A37404F07F967E20121D2F7F147E0005
:1006D8001223F1E4908148F0A3F07F807E25FDFC91
:1006E800120003802D7BFF7A1F799B9080D7E4F05E
:1006F800A37404F07F967E20121D2F7F147E0012B3
:1007080023F1E4908148F0A3F07F807E25FDFC1260
:100718000003E4908148F0A3F090800EF0A3F0A3CA
:10072800F0A3F0908010E0FEA3E0C39440EE9400A4
:10073800501C908010E0A3E024FAF58274803EF506
:1007480083E4F090801075F00112123C80D59080FF
:10075800F87401F090800DE06003020ADF90814692
:10076800E0FEA3E0C39407EE94004007E4908146BE
:10077800F0A3F07F0F7E001223F1908146E0A3E002
:1007880075F008A42422F9E4FAFB785A7C00FDFEEF
:100798007F0812119C7B017A8179469080D7E4F01A
:1007A800A304F07F007E20121D2F785CE608E6780F
:1007B80074F67B007A00795C9080D7E4F0A304F0AB
:1007C800FF7E20121D2F7B007A00795E9080D7E48F
:1007D800F0A304F07F027E20121D2F7874E6B40384
:1007E800187860E6FE08E625E0FFEE33FEEF240504
:1007F800FFE43E780FF608A6077874E6B410077889
:100808000F76000876087874E6B40607780F760045
:100818000876087B007A00790F9080D7E4F0A374FB
:1008280002F07F037E20121D2F7B007A00795A90F8
:1008380080D7E4F0A304F07F047E20121D2F90805F
:10084800091213640002710090800D7401F0E478BD
:1008580072F608F6FB7A0079729080C3F0A304F070
:100868007F797E201220467B017A8079429080C36E
:10087800E4F0A304F07F647E201220467B017A8096
:1008880079B49080C3E4F0A304F07F737E20122033
:1008980046908042E0FEA3E0FF7862A60608A6071D
:1008A800908042E0FEA3E0FF08A60608A607908015
:1008B80042E0FEA3E0FF08A60608A607908042E0F3
:1008C800FEA3E0FF08A60608A6079080B4E0FEA3F2
:1008D800E0FF08A60608A6077872E608E65402FFB5
:1008E800908044E4F0A3EFF018E608E65404FFA370
:1008F800E4F0A3EFF018E608E65408FFA3E4F0A339
:10090800EFF018E608E65410FFA3E4F0A3EFF018A0
:10091800E608E65420FF908054E4F0A3EFF09080BE
:1009280044E0FEA3E0FFEEC313EF135401FF9080F1
:100938004CE4F0A3EFF0908046E0FEA3E07802CE0E
:10094800C313CE13D8F95401FF90804EE4F0A3EFFF
:10095800F0908048E0FEA3E07803CEC313CE13D80E
:10096800F95401FF908050E4F0A3EFF090804AE042
:10097800FEA3E0FFEEC4F854F0C868EFC4540F4873
:100988005401FF908052E4F0A3EFF07B017A807964
:100998004C9080D7E4F0A304F07F057E21121D2F30
:1009A8007B017A80794E9080D7E4F0A304F07F072A
:1009B8007E21121D2F7B017A8079509080D7E4F038
:1009C800A304F07F097E21121D2F7B017A807952C2
:1009D8009080D7E4F0A304F07F117E21121D2F78B8
:1009E80072E608E6540118760008F67B007A00796A
:1009F8007018E608E69080C2F0E4FD12221F7B0022
:100A08007A007970908044E0A3E09080C2F07D0184
:100A180012221F7B007A007970908046E0A3E09054
:100A280080C2F07D0212221F7B007A0079709080CC
:100A380048E0A3E09080C2F07D0312221F7B007A79
:100A480000797090804AE0A3E09080C2F07D0412A3
:100A5800221F7B007A007970908054E0A3E0908098
:100A6800C2F07D0512221F908054E0FEA3E07805B5
:100A7800CEC313CE13D8F95401FF908054E4F0A3E9
:100A8800EFF07B007A0079729080D7E4F0A304F04D
:100A98007F757E20121D2F7B017A8079549080D734
:100AA800E4F0A304F07F607E20121D2F7B007A0003
:100AB800795AC002C0017A0079629080C11213B5D8
:100AC8009080C47408F0D001D002121B0390814CAE
:100AD8001213640007A12090800912134074FFFBD1
:100AE800FAF9F812130190800912135890800DE05A
:100AF8006401600302018B9080F8E0B4013B7A1F27
:100B080079A29080D7E4F0A37409F07F427E201286
:100B18001D2F908146E475F00112123CE490800D7F
:100B2800F09080F8F0908009121364000271009030
:100B3800814C1213640007A120E4FFFEFDFC9080A5
:100B48000912134CC312131C600302018B7BFF7A3A
:100B58001F79B49080D7F0A37409F07F427E2012E9
:100B68001D2FE4908010F0A3F0908010E0FEA3E029
:100B7800C39430EE9400501C908010E0A3E024123F
:100B8800F58274803EF583E4F090801075F00112D0
:100B9800123C80D5908146E475F00112123CE49035
:100BA800800DF09080F8F090814C1213640007A13A
:100BB8002002018B22020D11EC5D046005E8590446
:100BC8007003020D07120CD2580460F6EC4860F26C
:100BD800EC7004FDFEFF22C860DB2481C85009C305
:100BE8009860025006020D0E9850CAF582E9294B0A
:100BF8004A7005AB82020CFD75F0007C1A7880C340
:100C0800EF9BEE9AED99400DC3EF9BFFEE9AFEED38
:100C180099FDE842F0DC23ACF0D0E0FFD0E0FED054
:100C2800E0FDAB8220E7101BEB60BAEC2CFCEF3345
:100C3800FFEE33FEED33FD020CE9E803F830E7057B
:100C4800C0F075F000EF2FFFEE33FEED33FD40B836
:100C580030E7C280AA75F020800E75F01080057507
:100C6800F0087D007E007F003392D530D503121343
:100C78000EEC334010EF33FFEE33FEED33FDEC3373
:100C8800FCD5F0ED22E5F0247EA2D513CC92E7CD79
:100C9800CEFF22EDD2E7CD33EC3392D52481400646
:100CA800E4FFFEFDFC22FCE4CFCECDCC24E05011C5
:100CB80074FF80EDC3CC13CCCD13CDCE13CECF13A0
:100CC800CF0470F030D5DE02130EE9D2E7C933E85D
:100CD80033F892D5EDD2E7CD33EC33FC5002B2D5E0
:100CE80022EC30E7100FBF000C0EBE00080DBD004F
:100CF800040BEB6014A2D5EB13FCED92E7FD227414
:100D0800FFFCFDFEFF22E480F8A2D574FF13FC7DF2
:100D180080E480EFF920E73624F950037907E4F4FA
:100D28002402FBE582158270021583DBF6E024FBC2
:100D3800501BE96014E4F0E582158270021583E027
:100D480004F0B40A08E4F0D9EE7401F00A22C2D51E
:100D580022ED33EC3392D5FA602AB4FF33EDC2E7C3
:100D68007BFF60067A0D797EE4227A0D798720D59B
:100D7800047A0D7982224E614E002B494E46002D91
:100D8800494E4600E47A08F0A3DAFC7B0074072297
:100D9800C083C082ECC0E0EDC0E0EEC0E0EFC0E090
:100DA800EA75F010A4CAABF075F04DA42BFBE4353E
:100DB800F0FCEA2410FAEB34C5FBEC34D9FCEDC2A4
:100DC800E7FF75F056A4F42411C5F0F434C58FF08C
:100DD800A42AE5F03BE43CF020E71412108CD0E0A4
:100DE800FFD0E0FED0E0FDD0E0FC120BC08014F490
:100DF8000412108CD0E0FFD0E0FED0E0FDD0E0FC83
:100E0800120F56D082D083E0FAEDD2E7CD33EC331F
:100E18002482FBE4C3CF33CFCE33CECD33CD33DB07
:100E2800F37B0775F00A846004F0A31B0AE5F0F071
:100E3800A38FF0740AA4FFACF08EF0740AA42CFE01
:100E4800ACF050010C8DF0740AA42CFDE435F0F0E0
:100E5800A3DBDE740722020D07E86480F8E933E8B3
:100E68003360110460F0ED33EC337009E8FCE9FD00
:100E7800EAFEEBFF220460DED3EB9FEA9EE99DE8E1
:100E8800C2E78CF0C2F795F0400CE8CCF8E9CDF950
:100E9800EACEFAEBCFFB120CD285D0F058047003DF
:100EA80020D5B3E80470075002B2D5020D1192D5CF
:100EB800EC0460F7E4CCC0E0C398F8603B94186099
:100EC80008400DD0E0FB020CE9E4FBFAC9FC8028DD
:100ED800E830E406E4C9FBE4CAFCE830E305E4C909
:100EE800CACBFCE854076010F8C3E913F9EA13FA0F
:100EF800EB13FBEC13FCD8F130F52FC3E49CFCEFAB
:100F08009BFFEE9AFEED99FDD0E0FBEF4E4D4C7045
:100F18001222DB03020D0EEC2CFCEF33FFEE33FE46
:100F2800ED33FDED30E7EB020CE9EF2BFFEE3AFE77
:100F3800ED39FDD0E0FB50130BBB0003020D11EDA2
:100F480013FDEE13FEEF13FFEC13FC020CE9EC4D5E
:100F58006011E8497017ED33EC3304600DE4FCFFD1
:100F6800FEFD22E933E8330470F8020D07120CD2B3
:100F780058046009E4CC24815006285009020D1158
:100F8800284003020D0EC0E0EB4A7044B98006D039
:100F9800E0FB020CFDEF4E701CBD8008EBFFEAFE83
:100FA800E9FD80EBE98DF0A4FEE5F002103FE9CD04
:100FB800F9EAFEEBFFEF89F0A4FCE5F0CE89F0A496
:100FC8002EFFE435F0CD89F0A42DFEE435F08067DE
:100FD800EF4E7005BD80D780C3EF8BF0A4ACF0EE68
:100FE8008BF0A42CFCE435F0F8EF8AF0A42CE5F0A3
:100FF80038FCE433CB8DF0A42CFCE5F03BF8EE8A0A
:10100800F0A42CFCE5F038F8E433CF89F0A42CFCEC
:10101800E5F038CF3400CE89F0A42FFFE5F03EFE8E
:10102800E433C98DF0A42EFEE5F039CD8AF0A42F63
:10103800FFE5F03EFEE43DFD33D0E0FB50070BBB7F
:10104800000F020D11EC2CFCEF33FFEE33FEED33F5
:10105800FD020CE93F8000004120000042C800006A
:10106800447A0000461C400047C3500049742400DD
:101078004B1896804CBEBC205A0E1BCA6753C21C24
:10108800749DC5AEFB60065407601C23231210BA7A
:10109800EB543860091210A61210B5120F56ECF86E
:1010A800EDF9EEFAEFCB22EB1210B580F1543803CC
:1010B800241C90105CFE93FC0EEE93FD0EEE930E36
:1010C800CE93FF22E709F608DFFA8046E709F2081F
:1010D800DFFA803E88828C83E709F0A3DFFA80324A
:1010E800E309F608DFFA8078E309F208DFFA80708E
:1010F80088828C83E309F0A3DFFA806489828A837B
:10110800E0A3F608DFFA805889828A83E0A3F20810
:10111800DFFA804C80D280FA80C680D4806980F261
:101128008033801080A680EA809A80A880DA80E2E6
:1011380080CA803389828A83ECFAE493A3C8C58283
:10114800C8CCC583CCF0A3C8C582C8CCC583CCDFC6
:10115800E9DEE7800D89828A83E493A3F608DFF944
:10116800ECFAA9F0EDFB2289828A83ECFAE0A3C8A5
:10117800C582C8CCC583CCF0A3C8C582C8CCC583FA
:10118800CCDFEADEE880DB89828A83E493A3F20875
:10119800DFF980CC88F0EF60010E4E60C388F0ED77
:1011A8002402B4040050B9F582EB2402B4040050C0
:1011B800AF232345822390111C73BB010689828AC1
:1011C80083E0225002E722BBFE02E32289828A835F
:1011D800E49322BB010CE58229F582E5833AF58385
:1011E800E0225006E92582F8E622BBFE06E92582C0
:1011F800F8E222E58229F582E5833AF583E4932231
:10120800BB010689828A83F0225002F722BBFE01C5
:10121800F322F8BB010DE58229F582E5833AF583CF
:10122800E8F0225006E92582C8F622BBFE05E9252A
:1012380082C8F222C5F0F8A3E028F0C5F0F8E582EC
:10124800158270021583E038F022BB010A89828A70
:1012580083E0F5F0A3E022500687F009E71922BBE6
:10126800FE07E3F5F009E3192289828A83E493F5FE
:10127800F074019322BB0110E58229F582E5833AD7
:10128800F583E0F5F0A3E0225009E92582F886F01D
:1012980008E622BBFE0AE92582F8E2F5F008E22218
:1012A800E5832AF583E993F5F0A3E99322BB010AC4
:1012B80089828A83F0E5F0A3F0225006F709A7F0A7
:1012C8001922BBFE06F3E5F009F31922F8BB011158
:1012D800E58229F582E5833AF583E8F0E5F0A3F0A5
:1012E800225009E92582C8F608A6F022BBFE09E9C2
:1012F8002582C8F2E5F008F222EF2BFFEE3AFEED68
:1013080039FDEC38FC22C3E49FFFE49EFEE49DFD1A
:10131800E49CFC22EB9FF5F0EA9E42F0E99D42F046
:10132800E89C45F022E8600FECC313FCED13FDEEDA
:1013380013FEEF13FFD8F122E0FCA3E0FDA3E0FECB
:10134800A3E0FF22E0F8A3E0F9A3E0FAA3E0FB2280
:10135800ECF0A3EDF0A3EEF0A3EFF022A8828583D2
:10136800F0D083D08212137B12137B12137B1213DB
:101378007BE473E493A3C583C5F0C583C8C582C85D
:10138800F0A3C583C5F0C583C8C582C822E0FBA306
:10139800E0FAA3E0F922F8E0FBA3A3E0F925F0F0D6
:1013A800E582158270021583E0FA38F022EBF0A38B
:1013B800EAF0A3E9F022D083D082F8E493701274A3
:1013C8000193700DA3A393F8740193F5828883E4C5
:1013D800737402936860EFA3A3A380DFD083D082E5
:1013E800F8E4937012740193700DA3A393F8740139
:1013F80093F5828883E473740293B5F006740393BB
:101408006860E9A3A3A3A380D8E50824C1F582E412
:101418003480F583E00508229080BE300703908071
:10142800C1E475F00112139E0211C22000E97F2E5B
:10143800D2008018EF540F2490D43440D4FF3004E5
:101448000BEF24BFB41A0050032461FFE5096002C2
:101458001509050CE50C7002050B30070E9080BECF
:10146800E475F00112139EEF02120802243A740385
:10147800D2078003E4C207F5089080BE1213B5E4D2
:10148800F509F50BF50CE50960077F201214548067
:10149800F5750AFFC201C200C202C203C205C20634
:1014A800C208121420FF700D3007057F0012146562
:1014B800AF0CAE0B22B4255FC2D5C204121420FFB4
:1014C80024D0B40A00501A75F00A780930D50508F6
:1014D800B6FF0106C6A426F620D5047002D2038002
:1014E800D924CFB41A00EF5004C2E5D2040217572A
:1014F800D20180C6D20080C0D20280BCD2D580BAC8
:10150800D20580B47F201214542002077401B50953
:101518000040F1121411FF12145402148ED208D292
:10152800068095121411FB121411FA121411F94ABB
:101538004B700679557A187BFF20022EE509602A40
:101548007E008E827583001211DB60060EEE650A3E
:1015580070F0C2D5EBC0E0EAC0E0E9C0E0EE1217D7
:10156800B8D0E0F9D0E0FAD0E0FB1211C2FF60AACF
:10157800EBC0E0EAC0E0E9C0E0121454D0E0240176
:10158800F9D0E03400FAD0E0FBE50A0460DCD50AC3
:10159800D98087D20280A212179A60F7E50A7001F3
:1015A80004120D1CA90A600DE50A600914F50A1257
:1015B8001842EF60F3EA30E702F404C3995079EA7D
:1015C800F4250A0430E701E404F50A800D12179A9D
:1015D80060C1EA050A250A120D1CEA9080EDF03078
:1015E800E701E4250A04D50A04200501141217B8F6
:1015F800E4C0E01218429080EDE0601320E7071481
:10160800F012143C802204F0D0E014C0E07F0012F5
:10161800143CE50A6007121433150A800B300503E1
:10162800121433D0E002148ED0E00480C412179A4A
:10163800609EE50A04120D1C9080EDEAF0E50A2090
:10164800050260010424041217B874FF04C0E012F4
:10165800184212143CE50A2005026003121433D024
:10166800E0B50AE87F451214469080EDE07F2B3004
:10167800E7047F2DF404C0E0121454D0E075F00A9A
:1016880084C0F012143DD0E012143D02148E79107B
:1016980080027908C206C2088008D2D5790A800477
:1016A800790AC2D5E50A047002F50AE4FAFDFEFFDC
:1016B800121411FC7B08200113121411FD7B103049
:1016C800000A121411FE121411FF7B20EC3382D58C
:1016D80092D55013C3E43000069FFFE49EFEE42039
:1016E80001039DFDE49CFCE4CBF8C201EC700CCF37
:1016F800CECDCCE824F8F870F38017C3EF33FFEEB3
:1017080033FEED33FDEC33FCEB33FB994002FB0F6A
:10171800D8E9EB300105F8D0E0C448B201C0E00ACE
:10172800EC4D4E4F78207B0070C2EAB50A0040BCF1
:10173800C0E01217BAD0F0D0E0200104C4C0E0C461
:10174800B201C0F012143DD0F0D5F0EB02148E12A5
:1017580013BE152B5316965814FC4C14F842169ABF
:101768004F16A24416A24915114316A85515D54679
:10177800163545159F4718755015002D15042E155B
:10178800272B150823152520185E2A14C0480000A9
:10179800151FE50AB4FF03750A06121411FC12148A
:1017A80011FD121411FE121411FF9080E6020D595A
:1017B800790AA2D5200314300509B910020404B926
:1017C800080104A2D52006025001042002689202F2
:1017D800B509005034C0E07F203003197F30A202E1
:1017E80072067205500F121811C202C206C205C253
:1017F800087F30800F300503E9C0E012145430052B
:1018080003D0E0F9D0E0B509CC3005177F30B91026
:101818000C1214547F583004077F788003B90803EA
:101828001214543002057F2D0214547F202008F82A
:101838007F2B2006F322920280CF7F00B40700504E
:101848000B24E6F582E43480F583E0FF22286E75E8
:101858006C6C2900D2011214113001F8C201780908
:1018680030D50108F60214C02D50434958121411FE
:101878002403B405004001E49018709312144574D1
:101888003A121445D2037509040216969080BE12C6
:1018980013B59080C1ECF0A3EDF09080BE121395C3
:1018A8001211C2FF9080CEE4F0A3EFF09080BE1238
:1018B80013959000011211DBFF9080D0E4F0A3EFA4
:1018C800F07B017A8079CE9080D7E4F0A304F07F92
:1018D800657E20121D2F7B017A8079D09080D7E415
:1018E800F0A304F07F677E20121D2F9080C1E0FED8
:1018F800A3E0C39404EE94005039E49080CCF0A3A4
:10190800F09080CCE0FEA3E0C39440EE9400502019
:101918009080BE1213959080CCE0A3E0F5828E8370
:10192800E412121A9080CCE475F00112123C80D1B6
:101938007F63229080BE1213959080C1E0FEA3E0E1
:1019480024FEFFEE34FF8F82F5831211DBFE9080B8
:10195800BE1213959080C1E0FCA3E024FFFDEC3497
:10196800FF8D82F5831211DBFDEEEDFF9080C6EE50
:10197800F0A3EFF09080BE1213959080C1E0A3E031
:1019880024FEFD121E4C9080C8EEF0A3EFF090806C
:10199800C8E0FEA3E0FF9080C6E0FCA3E06F700201
:1019A800EC6E6039E49080CCF0A3F09080CCE0FE3F
:1019B800A3E0C39440EE940050209080BE1213958B
:1019C8009080CCE0A3E0F5828E83E412121A908016
:1019D800CCE475F00112123C80D17F62229080BE67
:1019E8001213951211C2FF9080C3121395E48FF061
:1019F8001212B59080BE1213959000011211DBFFF0
:101A08009080C3121395900002E48FF01212D490C4
:101A180080C312139590000212127D640345F06092
:101A280003021AEE9080BE1213959000021211DB89
:101A3800FF9080C3121395900004E48FF01212D423
:101A4800E49080CAF0A3F09080C31213959000042C
:101A580012127DFF9080CAE0FCA3E0C39FEC95F0D2
:101A6800504B9080BE1213959080CAE0FEA3E024EC
:101A780003FFE43E8F82F5831211DBFD9080C312D1
:101A88001395E92406F9E43AFA9080CAE0A3E02520
:101A9800E0FFEE33FEE92FF9EA3EFAE48DF0121288
:101AA800B59080CAE475F00112123C809AE49080E7
:101AB800CCF0A3F09080CCE0FEA3E0C39440EE9479
:101AC8000050209080BE1213959080CCE0A3E0F5E2
:101AD800828E83E412121A9080CCE475F0011212FF
:101AE8003C80D17F01229080C3121395900002128E
:101AF800127D641045F070027F01229080BE12139F
:101B0800B59080BE1213951212529080C5F0908045
:101B1800BE12139590000212127D9080C6F090803C
:101B2800BE12139590000212127D640345F0704AAC
:101B38009080BE12139590000412127DE5F09080FB
:101B4800C7F09080BE12139590000412127D908009
:101B5800C8F09080BE12139590000612127DE5F031
:101B68009080C9F09080BE12139590000612127DE5
:101B78009080CAF09080E97406F09080BE121395A8
:101B880090000212127D640645F0704D9080BE12DE
:101B9800139590000412127DE5F09080C7F09080B4
:101BA800BE12139590000412127D9080C8F09080A8
:101BB800C112139590000C12127DE5F09080C9F0C7
:101BC8009080C112139590000E12127D9080CAF079
:101BD8009080E97406F0021CD69080BE121395908E
:101BE800000212127D641045F06003021CD690803A
:101BF800C4E025E09080EAF09080BE121395900032
:101C08000412127DE5F09080C7F09080BE12139503
:101C180090000412127D9080C8F09080C4E0E49097
:101C280080C9F09080C4E09080CAF09080EAE0908B
:101C380080CBF0E49080E7F0A3F09080C4E0FF90C0
:101C480080E7E0FCA3E0C39FEC940050779080E726
:101C5800E0FEA3E025E0FFEE33FE9080C11213956D
:101C68008F828E8312127DE5F0FD9080E7E0FEA35F
:101C7800E025E0FFEE33FE74CC2FF58274803EF54C
:101C880083EDF09080E7E0FEA3E025E0FFEE33FE71
:101C98009080C11213958F828E8312127DFD9080E1
:101CA800E7E0FEA3E025E0FFEE33FE74CD2FF582DA
:101CB80074803EF583EDF09080E7E475F001121230
:101CC8003C021C429080EAE024079080E9F07B0106
:101CD8007A8079C59080E9E0FD121E4C9080E5EE8F
:101CE800F0A3EFF09080E5E0A3E0FF9080E9E02426
:101CF800C6F582E43480F583EFF09080E5E0FEA33A
:101D0800E0EEFF9080E9E024C5F582E43480F583B5
:101D1800EFF09080E9E02402F07B017A8079C5E059
:101D2800FD7C0012236F229080D2EEF0A3EFF0A387
:101D38001213B59080D2E0A3E054019080D9F090BE
:101D480080D2E0FEA3E0FFEEC313FEEF13FF908006
:101D5800D2EEF0A3EFF0E4F5F19080D2E0FEA3E03C
:101D6800EEF5F29080D2E0A3E0F5F375F40175F892
:101D78008F30FCFD9080D9E0603C9080D7E0FEA3D6
:101D8800E0D39400EE9400402D75F8839080D4E45D
:101D980075F00112139E1211C2F5FC9080D4E475FF
:101DA800F00112139E1211C2F5FDD2FE9080D77475
:101DB800FFF5F012123C75F88F9080D7E0FEA3E093
:101DC800C39402EE9400404B9080D4E475F0011265
:101DD800139E1211C2F5FA9080D4E475F001121323
:101DE8009E1211C2F5FB9080D4E475F00112139E87
:101DF8001211C2F5FC9080D4E475F00112139E1202
:101E080011C2F5FDD2FE9080D774FF75F0FE121254
:101E18003C80A69080D7E0FEA3E04E602375F88C46
:101E28009080D4E475F00112139E1211C2F5FA9055
:101E380080D4E475F00112139E1211C2F5FBD2FE94
:101E4800E4F5F8229080EB1213B59080EEEDF07473
:101E5800FFA3F0A3F0E49080F5F0A3F09080EEE00B
:101E6800FF9080F5E0FCA3E0C39FEC9400400302E0
:101E78001F119080EB1213959080F5E0FEA3E0F51A
:101E8800828E831211DBFF9080EFE0FCA3E0FDEC73
:101E9800FEEF6DFF9080EFEEF0A3EFF0E49080F797
:101EA800F09080F7E0C3940850529080EFE0A3E0F0
:101EB8005401FF9080F3E4F0A3EFF09080EFE0FE90
:101EC800A3E0FFEEC313FEEF13FF9080EFEEF0A345
:101ED800EFF09080F3E0FEA3E04E60189080EFE012
:101EE800FEA3E0FFEE64A0FEEF6401FF9080EFEE3A
:101EF800F0A3EFF09080F7E004F080A59080F5E47F
:101F080075F00112123C021E649080EFE0FEA3E01F
:101F1800EEFFA3E4F0A3EFF09080EFA3E0FEA3E0D0
:101F2800FCA3E0FDEE4CFEEDFF9080EFEEF0A3EF9A
:101F3800F09080EFE0FEA3E0FF9080EFEEF0A3EFDB
:101F4800F09080EFE0FEA3E0FF2225303258200019
:101F58002020202020202020202020202020202079
:101F68002020202020202020202020202020202069
:101F7800004F4B202020200A00444154415F455225
:101F8800520A004C656E6768740A00435243202069
:101F9800200A004552524F520A005265636569761D
:101FA800656420202020202020200A0054696D65C7
:101FB8006F75742020202020202020200A00000394
:101FC80000030000000100020003000000040002FA
:101FD80000100000000100030003000000010004DD
:101FE80000030000000100050003000000010006D6
:101FF80000030000000100000000000000000000D5
:1020080000000000000000000000000000000000C8
:1020180000000000000000000000000000000000B8
:1020280000000000000000000000000000000000A8
:102038000000000000000000000000000000908088
:10204800BEEEF0A3EFF0A31213B59080BEE0A3E0BC
:1020580054019080C5F09080BEE0FEA3E0FFEEC37F
:1020680013FEEF13FF9080BEEEF0A3EFF0E4F5F15E
:102078009080BEE0FEA3E0EEF5F29080BEE0A3E023
:10208800F5F375F40175F8AF30FCFD9080C3E0FE00
:10209800A3E0D39400EE94005003022133D2FE2033
:1020A800FEFD9080C5E0703D9080C3E0FEA3E0D3C4
:1020B8009400EE9400402E9080C0E475F001121355
:1020C8009EE5FA1212089080C0E475F00112139E82
:1020D800E5FB1212089080C57401F09080C374FF6C
:1020E800F5F012123C9080C5E0B4019F9080C3E0E7
:1020F800FEA3E0D39400EE940040909080C0E47575
:10210800F00112139EE5FC1212089080C0E475F0ED
:102118000112139EE5FD121208E49080C5F090802C
:10212800C374FFF5F012123C022093E4F5F822C0C4
:10213800E0C0F0C083C082C0D075D000C000C00429
:10214800C005C006C00720980302220AC2989081E1
:102158004C1213640007A120908000E599F090814B
:1021680048E0FEA3E0EE30E70302220A908148E04F
:10217800FEA3E0C39440EE9400503D908000E0FF41
:10218800908148E0FCA3E024FAF58274803CF58352
:10219800EFF0908148E475F00112123C908148E01C
:1021A800FEA3E064024E70199080FBE030E71278DD
:1021B8000F76000876058009908148E4F0A3F08046
:1021C800419080F9E0FF780FE6FC08E6FDC3EF9D3B
:1021D800E49C5003E004F09080F9E0FF780FE6FCFF
:1021E80008E6FDEFB5051BE4B50417908148E0FE4D
:1021F800A3E0FFEE4480908148F0A3EFF09080F9CF
:10220800E4F0D007D006D005D004D000D0D0D082DA
:10221800D083D0F0D0E0329080BE1213B59080C148
:10222800EDF0E0C394105063A3E0602F9080BE12DD
:102238001395121252FDACF09080C1E0FF74017E3C
:1022480000A807088005C333CE33CED8F9FFEC4E7B
:10225800FEED4FFFEE8FF01212B5229080BE1213E2
:1022680095121252FDACF09080C1E0FF74017E001F
:10227800A807088005C333CE33CED8F9F4FFEEF4AF
:102288005CFEED5FFFEE8FF01212B5229080C21255
:10229800135843C94053B7CF43B71075D8807598C2
:1022A8005053877F9080C2121340E4120C5DA8043B
:1022B800A905AA06AB077F007EE07D447C4A120B85
:1022C800C0120C9BC3E49FFF74049EFEE4FCFD90C7
:1022D80080C21213589080C2121340780812132D2E
:1022E800EFE48FBA9080C2121340EFE48FAAD2AC09
:1022F800D2AF908148F0A3F09080F9F022C0E0C0FE
:10230800F0C083C082C0D075D000C000C001C00238
:10231800C003C004C005C006C007C2C690814C12E5
:102328001340EC4D4E4F601590814C12134074FFD2
:10233800FBFAF9F812130190814C121358780DE644
:10234800FE08E64E6006E61618700116D007D0069D
:10235800D005D004D003D002D001D000D0D0D08294
:10236800D083D0F0D0E0329080EB1213B59080EE9D
:10237800ECF0A3EDF0C2ACE4A3F0A3F09080EEE0A3
:10238800FEA3E0FFA3E0FCA3E0C39FEC9E502790D0
:1023980080EB1213959080F0E0FEA3E0F5828E8327
:1023A8001211DBF5993099FDC2999080F0E475F02F
:1023B8000112123C80C6D2AC22C2AFC2D3C2D4E44E
:1023C800F58E75C870F593759401759502F5C9F584
:1023D800F875F901F5A843B830F59AF5A9F5B95398
:1023E800C9FDD2BDD2BCD2AF229080BEEEF0A3EF21
:1023F800F09080BEE0FEA3E0FF780DA60608A607D1
:10240800780DE6FE08E64E70F72275C870E4F5CD43
:10241800F5CC75CBBC75CACD43A820D2C8D2AF22A3
:102428009080EFEFF0C2ACE0F5993099FDC299D2F7
:10243800AC229080EEEFF0E0FF1224289080EEE0CE
:02244800FF2271
:00000001FF
