:1000000002002E9080A212089EC2ACE4F598F5BAC8
:0F001000F5AA53877F9080A2120886121ED42271
:03002300021D7744
:10002B00021F45787FE4F6D8FD75817402007502D6
:10003B000957E493A3F8E493A34003F68001F20875
:10004B00DFF48029E493A3F85407240CC8C333C40A
:10005B00540F4420C8834004F456800146F6DFE475
:10006B00800B01020408102040809000BAE47E014E
:10007B009360BCA3FF543F30E509541FFEE493A3E8
:10008B0060010ECF54C025E060A840B8E493A3FAFA
:10009B00E493A3F8E493A3C8C582C8CAC583CAF086
:1000AB00A3C8C582C8CAC583CADFE9DEE780BE0222
:1000BB000D00004481300000000045811F01020348
:1000CB000405428128000142812E000441811E005B
:1000DB004481240000000042812A00004180DC00A2
:0C00EB00020F000000122001122052221F
:1000F800FFFF4457494E5435020075020257EC5D24
:10010800046005E85904700302024D1202185804ED
:1001180060F6EC4860F2EC7004FDFEFF22C860DB7C
:100128002481C85009C398600250060202549850AE
:10013800CAF582E9294B4A7005AB8202024375F081
:10014800007C1A7880C3EF9BEE9AED99400DC3EFBF
:100158009BFFEE9AFEED99FDE842F0DC23ACF0D06F
:10016800E0FFD0E0FED0E0FDAB8220E7101BEB60A3
:10017800BAEC2CFCEF33FFEE33FEED33FD02022F19
:10018800E803F830E705C0F075F000EF2FFFEE3315
:10019800FEED33FD40B830E7C280AA75F020800E2E
:1001A80075F010800575F0087D007E007F003392A1
:1001B800D530D503120854EC334010EF33FFEE333B
:1001C800FEED33FDEC33FCD5F0ED22E5F0247EA204
:1001D800D513CC92E7CDCEFF22EDD2E7CD33EC3369
:1001E80092D524814006E4FFFEFDFC22FCE4CFCE3C
:1001F800CDCC24E0501174FF80EDC3CC13CCCD13CB
:10020800CDCE13CECF13CF0470F030D5DE02085414
:10021800E9D2E7C933E833F892D5EDD2E7CD33EC2C
:1002280033FC5002B2D522EC30E7100FBF000C0EA1
:10023800BE00080DBD00040BEB6014A2D5EB13FC47
:10024800ED92E7FD2274FFFCFDFEFF22E480F8A298
:10025800D574FF13FC7D80E480EFF920E73624F99C
:1002680050037907E4F42402FBE582158270021535
:1002780083DBF6E024FB501BE96014E4F0E582150B
:100288008270021583E004F0B40A08E4F0D9EE7431
:1002980001F00A22C2D522ED33EC3392D5FA602A56
:1002A800B4FF33EDC2E77BFF60067A0279C4E4222B
:1002B8007A0279CD20D5047A0279C8224E614E009F
:1002C8002B494E46002D494E4600E47A08F0A3DA41
:1002D800FC7B00740722C083C082ECC0E0EDC0E064
:1002E800EEC0E0EFC0E0EA75F010A4CAABF075F01C
:1002F8004DA42BFBE435F0FCEA2410FAEB34C5FBE3
:10030800EC34D9FCEDC2E7FF75F056A4F42411C50E
:10031800F0F434C58FF0A42AE5F03BE43CF020E784
:10032800141205D2D0E0FFD0E0FED0E0FDD0E0FC12
:100338001201068014F4041205D2D0E0FFD0E0FECA
:10034800D0E0FDD0E0FC12049CD082D083E0FAED2E
:10035800D2E7CD33EC332482FBE4C3CF33CFCE33A3
:10036800CECD33CD33DBF37B0775F00A846004F020
:10037800A31B0AE5F0F0A38FF0740AA4FFACF08E7B
:10038800F0740AA42CFEACF050010C8DF0740AA491
:100398002CFDE435F0F0A3DBDE74072202024DE801
:1003A8006480F8E933E83360110460F0ED33EC332E
:1003B8007009E8FCE9FDEAFEEBFF220460DED3EBFE
:1003C8009FEA9EE99DE8C2E78CF0C2F795F0400CE1
:1003D800E8CCF8E9CDF9EACEFAEBCFFB12021885A2
:1003E800D0F05804700320D5B3E80470075002B267
:1003F800D502025792D5EC0460F7E4CCC0E0C3986C
:10040800F8603B94186008400DD0E0FB02022FE42E
:10041800FBFAC9FC8028E830E406E4C9FBE4CAFC1E
:10042800E830E305E4C9CACBFCE854076010F8C318
:10043800E913F9EA13FAEB13FBEC13FCD8F130F5E6
:100448002FC3E49CFCEF9BFFEE9AFEED99FDD0E0F4
:10045800FBEF4E4D4C701222DB03020254EC2CFCD5
:10046800EF33FFEE33FEED33FDED30E7EB02022F05
:10047800EF2BFFEE3AFEED39FDD0E0FB50130BBB3E
:100488000003020257ED13FDEE13FEEF13FFEC130A
:10049800FC02022FEC4D6011E8497017ED33EC3384
:1004A80004600DE4FCFFFEFD22E933E8330470F834
:1004B80002024D12021858046009E4CC2481500647
:1004C800285009020257284003020254C0E0EB4AB0
:1004D8007044B98006D0E0FB020243EF4E701CBDA9
:1004E8008008EBFFEAFEE9FD80EBE98DF0A4FEE56C
:1004F800F0020585E9CDF9EAFEEBFFEF89F0A4FCEF
:10050800E5F0CE89F0A42EFFE435F0CD89F0A42DD6
:10051800FEE435F08067EF4E7005BD80D780C3EFED
:100528008BF0A4ACF0EE8BF0A42CFCE435F0F8EFE3
:100538008AF0A42CE5F038FCE433CB8DF0A42CFC35
:10054800E5F03BF8EE8AF0A42CFCE5F038F8E4334B
:10055800CF89F0A42CFCE5F038CF3400CE89F0A484
:100568002FFFE5F03EFEE433C98DF0A42EFEE5F042
:1005780039CD8AF0A42FFFE5F03EFEE43DFD33D0EF
:10058800E0FB50070BBB000F020257EC2CFCEF33CB
:10059800FFEE33FEED33FD02022F3F8000004120C5
:1005A800000042C80000447A0000461C400047C3CF
:1005B8005000497424004B1896804CBEBC205A0E3B
:1005C8001BCA6753C21C749DC5AEFB600654076006
:1005D8001C2323120600EB543860091205EC12059F
:1005E800FB12049CECF8EDF9EEFAEFCB22EB1205C6
:1005F800FB80F1543803241C9005A2FE93FC0EEEF8
:1006080093FD0EEE930ECE93FF22E709F608DFFA6C
:100618008046E709F208DFFA803E88828C83E70982
:10062800F0A3DFFA8032E309F608DFFA8078E309FD
:10063800F208DFFA807088828C83E309F0A3DFFA7E
:10064800806489828A83E0A3F608DFFA8058898269
:100658008A83E0A3F208DFFA804C80D280FA80C651
:1006680080D4806980F28033801080A680EA809AE6
:1006780080A880DA80E280CA803389828A83ECFA93
:10068800E493A3C8C582C8CCC583CCF0A3C8C582EF
:10069800C8CCC583CCDFE9DEE7800D89828A83E494
:1006A80093A3F608DFF9ECFAA9F0EDFB2289828A18
:1006B80083ECFAE0A3C8C582C8CCC583CCF0A3C834
:1006C800C582C8CCC583CCDFEADEE880DB89828AB4
:1006D80083E493A3F208DFF980CC88F0EF60010E81
:1006E8004E60C388F0ED2402B4040050B9F582EBE3
:1006F8002402B4040050AF2323458223900662737A
:10070800BB010689828A83E0225002E722BBFE02EF
:10071800E32289828A83E49322BB010CE58229F5CE
:1007280082E5833AF583E0225006E92582F8E6223D
:10073800BBFE06E92582F8E222E58229F582E583F7
:100748003AF583E49322BB010689828A83F022501A
:1007580002F722BBFE01F322F8BB010DE58229F561
:1007680082E5833AF583E8F0225006E92582C8F647
:1007780022BBFE05E92582C8F222C5F0F8A3E028CD
:10078800F0C5F0F8E582158270021583E038F02292
:10079800BB010A89828A83E0F5F0A3E0225006872C
:1007A800F009E71922BBFE07E3F5F009E3192289EE
:1007B800828A83E493F5F074019322BB0110E582E9
:1007C80029F582E5833AF583E0F5F0A3E0225009A4
:1007D800E92582F886F008E622BBFE0AE92582F8B8
:1007E800E2F5F008E222E5832AF583E993F5F0A320
:1007F800E99322BB010A89828A83F0E5F0A3F022FB
:100808005006F709A7F01922BBFE06F3E5F009F335
:100818001922F8BB0111E58229F582E5833AF583AF
:10082800E8F0E5F0A3F0225009E92582C8F608A609
:10083800F022BBFE09E92582C8F2E5F008F222EFB2
:100848002BFFEE3AFEED39FDEC38FC22C3E49FFFA6
:10085800E49EFEE49DFDE49CFC22EB9FF5F0EA9EFD
:1008680042F0E99D42F0E89C45F022E8600FECC3B5
:1008780013FCED13FDEE13FEEF13FFD8F122E0FC9D
:10088800A3E0FDA3E0FEA3E0FF22E0F8A3E0F9A3C4
:10089800E0FAA3E0FB22ECF0A3EDF0A3EEF0A3EF67
:1008A800F022A8828583F0D083D0821208C1120872
:1008B800C11208C11208C1E473E493A3C583C5F04B
:1008C800C583C8C582C8F0A3C583C5F0C583C8C59C
:1008D80082C822E0FBA3E0FAA3E0F922F8E0FBA338
:1008E800A3E0F925F0F0E582158270021583E0FA9D
:1008F80038F022EBF0A3EAF0A3E9F022D083D0820B
:10090800F8E4937012740193700DA3A393F8740123
:1009180093F5828883E4737402936860EFA3A3A3BA
:1009280080DFD083D082F8E4937012740193700D45
:10093800A3A393F8740193F5828883E473740293F4
:10094800B5F0067403936860E9A3A3A3A380D87BDA
:10095800FF7A1C790678227C007D007E007F3812A1
:1009680006E27BFF7A1C793E78017C807D017E005F
:100978007F081206E29080091208AA000000007B96
:10098800FF7A1C794678127C807D017E007F3012C8
:1009980006E27BFF7A1C797678627C007D007E0017
:1009A8007F101206E2E490809CF0A3F0A3F0A3F07D
:1009B800A3F0A3F01200F07F807E257D007C00125A
:1009C8001ED4E490812AF0A3F090800DF09081303D
:1009D8001208AA0007A120E4FFFEFDFC9081301256
:1009E8000892C3120862702290800DE0B4011B9037
:1009F800812CE0FEA3E04E601190812CE0A3E0FF83
:100A0800EE448090812CF0A3EFF090812CE0FEA3BF
:100A1800E0EE20E703020D6E90812CA3E0FFEE5478
:100A28007F90800EF0A3EFF07B017A80790E9080A2
:100A3800BBE4F0A37402F07F697E2012196FE49082
:100A4800804CF0A3F0908010F0A3F090800EE0FEB0
:100A5800A3E0FFA3E0FCA3E0C39FEC9E505A908064
:100A68004CE0FEA3E02412F974803EFA7B01C00337
:100A7800C002C0017BFF7A1B79929080A51208FB07
:100A8800908010E0FEA3E024DEF58274803EF583BA
:100A9800E0FF9080A8E4F0A3EFF0D001D002D003EB
:100AA8001210B690804CEE8FF0120782908010E4FE
:100AB80075F00112078280937BFF7A1B79989080EA
:100AC800BBE4F0A37410F0FF7E2012196F7B017A4B
:100AD80080791290804CE0FEA3E0FFEEC313FEEF96
:100AE800132402FFE43E9080BBF0A3EFF07F107E5A
:100AF8002012196FE4908010F0A3F0908010E0FEAF
:100B0800A3E0C39430EE9400501C908010E0A3E062
:100B18002412F58274803EF583E4F090801075F01D
:100B28000112078280D59081301208AA0007A120FF
:100B38007B017A8079DEC002C00190800EE0FCA3C0
:100B4800E0FD7A8079549080A71208FBD001D0028A
:100B58001214D49080A0E4F0A3EFF07B017A80799E
:100B6800A09080BBE4F0A304F07F717E2012196F7F
:100B78009080A0E0FEA3E064014E6003020C8B7B32
:100B8800FF7A1B79B99080BBF0A37404F07F967E3E
:100B98002012196F908054E0FEA3E08EF012092A0B
:100BA8000BB400010C2C000200000D2C908058E0C2
:100BB800FEA3E0C39402EE94005003020D2CA3E0C0
:100BC800A3E0FEA3E0FCA3E0FDEE4CFEEDFF908069
:100BD80052EEF0A3EFF0908052E0FEA3E0EE30E793
:100BE8000E908052A3E0FF908052EEF0A3EFF090B9
:100BF8008052E0FCA3E0FDE41201A8E4FBFA7920AE
:100C0800784112010690804E12089E7B017A807905
:100C18004E9080BBE4F0A37402F07F057E20121989
:100C28006F020D2C908058E0FEA3E0C39402EE946E
:100C3800004031A3E0A3E0FEA3E0FCA3E0FDEE4CFE
:100C4800FEEDFF90809AEEF0A3EFF07B017A8079B9
:100C58009A9080BBE4F0A37402F07F077E201219FB
:100C68006F020D2C7BFF7A1B79C19080BBE4F0A347
:100C78007406F07F967E2012196F020D2C020D2C3F
:100C8800020D2C9080A0E0FEA3E064634E702E7BE2
:100C9800FF7A1B79CB9080BBF0A37404F07F967E1B
:100CA8002012196F7F147E00122031E490812CF0FD
:100CB800A3F07F807E25FDFC12000380679080A052
:100CC800E0FEA3E064624E702E7BFF7A1B79D3901E
:100CD80080BBF0A37404F07F967E2012196F7F14F6
:100CE8007E00122031E490812CF0A3F07F807E25D5
:100CF800FDFC120003802D7BFF7A1B79DB9080BB03
:100D0800E4F0A37404F07F967E2012196F7F147E9E
:100D180000122031E490812CF0A3F07F807E25FD25
:100D2800FC120003E490812CF0A3F090800EF0A355
:100D3800F0A3F0A3F0908010E0FEA3E0C39440EE8F
:100D48009400501C908010E0A3E024DEF5827480AB
:100D58003EF583E4F090801075F00112078280D58B
:100D68009080DC7401F090800DE06003020F7390B6
:100D7800812AE0FEA3E0C39407EE94004007E490C4
:100D8800812AF0A3F07F0F7E0012203190812AE0A3
:100D9800A3E075F008A42422F9E4FAFB785A7C0051
:100DA800FDFE7F081206E27B017A81792A9080BBDA
:100DB800E4F0A304F07F007E2012196F785CE60847
:100DC800E67874F67B007A00795C9080BBE4F0A347
:100DD80004F0FF7E2012196F7B007A00795E908004
:100DE800BBE4F0A304F07F027E2012196F7874E64A
:100DF800B403187860E6FE08E625E0FFEE33FEEF60
:100E08002405FFE43E780FF608A6077874E6B410C8
:100E180007780F76000876087874E6B40607780F26
:100E280076000876087B007A00790F9080BBE4F0A2
:100E3800A37402F07F037E2012196F7B007A007979
:100E48005A9080BBE4F0A304F07F047E2012196F4F
:100E58009080091208AA0002BF2090800D7401F04A
:100E6800E47872F608F6FB7A0079729080A7F0A30E
:100E780004F07F797E20121C867B017A807942906B
:100E880080A7E4F0A304F07F647E20121C867B0117
:100E98007A80799A9080A7E4F0A304F07F737E208B
:100EA800121C86908042E0FEA3E0FF7862A6060846
:100EB800A607908042E0FEA3E0FF08A60608A60762
:100EC800908042E0FEA3E0FF08A60608A6079080EF
:100ED80042E0FEA3E0FF08A60608A60790809AE075
:100EE800FEA3E0FF08A60608A6077872E608E654FF
:100EF8000118760008F67B007A00797018E608E693
:100F08009080A6F0E4FD121E5F7B007A0079709055
:100F180080A67401F07D02121E5F7B007A00797052
:100F28009080A67401F07D03121E5F7B007A007921
:100F3800729080BBE4F0A304F07F757E2012196FD5
:100F48007B007A00795AC002C0017A0079629080E9
:100F5800A51208FB9080A87408F0D001D0021217DF
:100F6800439081301208AA0007A120908009120836
:100F78008674FFFBFAF9F812084790800912089E58
:100F880090800DE0640160030209DF9080DCE0B42A
:100F9800013B7A1B79E29080BBE4F0A37409F07FEF
:100FA800427E2012196F90812AE475F0011207829F
:100FB800E490800DF09080DCF09080091208AA007F
:100FC80002BF209081301208AA0007A120E4FFFE8A
:100FD800FDFC908009120892C3120862600302099E
:100FE800DF7BFF7A1B79F49080BBF0A37409F07F54
:100FF800427E2012196FE4908010F0A3F0908010C8
:10100800E0FEA3E0C39430EE9400501C908010E002
:10101800A3E02412F58274803EF583E4F0908010FA
:1010280075F00112078280D590812AE475F00112CB
:101038000782E490800DF09080DCF09081301208F7
:10104800AA0007A1200209DF22E50824A5F582E409
:101058003480F583E00508229080A2300703908051
:10106800A5E475F0011208E40207082000E97F2EC4
:10107800D2008018EF540F2490D43440D4FF3004A9
:101088000BEF24BFB41A0050032461FFE509600286
:101098001509050CE50C7002050B30070E9080A2AF
:1010A800E475F0011208E4EF02074E02207A740397
:1010B800D2078003E4C207F5089080A21208FBE477
:1010C800F509F50BF50CE50960077F2012109480EF
:1010D800F5750AFFC201C200C202C203C205C206F8
:1010E800C208121060FF700D3007057F001210A5AE
:1010F800AF0CAE0B22B4255FC2D5C204121060FF3C
:1011080024D0B40A00501A75F00A780930D50508B9
:10111800B6FF0106C6A426F620D5047002D20380C5
:10112800D924CFB41A00EF5004C2E5D204021397B1
:10113800D20180C6D20080C0D20280BCD2D580BA8B
:10114800D20580B47F201210942002077401B509DB
:101158000040F1121051FF1210940210CED208D2A2
:10116800068095121051FB121051FA121051F94ACB
:101178004B700679957A147BFF20022EE509602AC8
:101188007E008E8275830012072160060EEE650AC6
:1011980070F0C2D5EBC0E0EAC0E0E9C0E0EE12139F
:1011A800F8D0E0F9D0E0FAD0E0FB120708FF60AA17
:1011B800EBC0E0EAC0E0E9C0E0121094D0E02401FE
:1011C800F9D0E03400FAD0E0FBE50A0460DCD50A87
:1011D800D98087D20280A21213DA60F7E50A70017B
:1011E80004120262A90A600DE50A600914F50A12E0
:1011F8001482EF60F3EA30E702F404C3995079EA05
:10120800F4250A0430E701E404F50A800D1213DA24
:1012180060C1EA050A250A120262EA9080D1F0301C
:10122800E701E4250A04D50A04200501141213F87D
:10123800E4C0E01214829080D1E0601320E7071424
:10124800F012107C802204F0D0E014C0E07F00127D
:10125800107CE50A6007121073150A800B3005032D
:10126800121073D0E00210CED0E00480C41213DA5A
:10127800609EE50A041202629080D1EAF0E50A2035
:10128800050260010424041213F874FF04C0E0127C
:10129800148212107CE50A2005026003121073D034
:1012A800E0B50AE87F451210869080D1E07F2B30A8
:1012B800E7047F2DF404C0E0121094D0E075F00A22
:1012C80084C0F012107DD0E012107D0210CE79108B
:1012D80080027908C206C2088008D2D5790A80043B
:1012E800790AC2D5E50A047002F50AE4FAFDFEFFA0
:1012F800121051FC7B08200113121051FD7B103095
:10130800000A121051FE121051FF7B20EC3382D5D7
:1013180092D55013C3E43000069FFFE49EFEE420FC
:1013280001039DFDE49CFCE4CBF8C201EC700CCFFA
:10133800CECDCCE824F8F870F38017C3EF33FFEE76
:1013480033FEED33FDEC33FCEB33FB994002FB0F2E
:10135800D8E9EB300105F8D0E0C448B201C0E00A92
:10136800EC4D4E4F78207B0070C2EAB50A0040BCB5
:10137800C0E01213FAD0F0D0E0200104C4C0E0C4E9
:10138800B201C0F012107DD0F0D5F0EB0210CE12F1
:101398000904116B5312D658113C4C11384212DA19
:1013A8004F12E24412E24911514312E85512154610
:1013B80012754511DF4714B55011402D11442E11F7
:1013C800672B114823116520149E2A11004800003C
:1013D800115FE50AB4FF03750A06121051FC1210DA
:1013E80051FD121051FE121051FF9080CA02029F47
:1013F800790AA2D5200314300509B910020404B9EA
:10140800080104A2D52006025001042002689202B5
:10141800B509005034C0E07F203003197F30A202A4
:1014280072067205500F121451C202C206C205C2DA
:10143800087F30800F300503E9C0E01210943005B2
:1014480003D0E0F9D0E0B509CC3005177F30B910EA
:101458000C1210947F583004077F788003B9080372
:101468001210943002057F2D0210947F202008F876
:101478007F2B2006F322920280CF7F00B407005012
:101488000B24CAF582E43480F583E0FF22286E75C8
:101498006C6C2900D2011210513001F8C201780990
:1014A80030D50108F60211002D5043495812105149
:1014B8002403B405004001E49014B093121085741D
:1014C8003A121085D2037509040212D69080A2122E
:1014D80008FB9080A5ECF0A3EDF09080A21208DB49
:1014E800120708FF9080B2E4F0A3EFF09080A212F8
:1014F80008DB900001120721FF9080B4E4F0A3EF0D
:10150800F07B017A8079B29080BBE4F0A304F07F8D
:10151800657E2012196F7B017A8079B49080BBE4D4
:10152800F0A304F07F677E2012196F9080A5E0FE7B
:10153800A3E0C39404EE94005039E49080B0F0A383
:10154800F09080B0E0FEA3E0C39440EE94005020F9
:101558009080A21208DB9080B0E0A3E0F5828E8331
:10156800E41207609080B0E475F00112078280D120
:101578007F63229080A21208DB9080A5E0FEA3E0A2
:1015880024FEFFEE34FF8F82F583120721FE908040
:10159800A21208DB9080A5E0FCA3E024FFFDEC3458
:1015A800FF8D82F583120721FDEEEDFF9080AAEEF4
:1015B800F0A3EFF09080A21208DB9080A5E0A3E0F2
:1015C80024FEFD121A8C9080ACEEF0A3EFF0908010
:1015D800ACE0FEA3E0FF9080AAE0FCA3E06F7002FD
:1015E800EC6E6039E49080B0F0A3F09080B0E0FE3B
:1015F800A3E0C39440EE940050209080A21208DB30
:101608009080B0E0A3E0F5828E83E41207609080BA
:10161800B0E475F00112078280D17F62229080A227
:101628001208DB120708FF9080A71208DBE48FF08E
:101638001207FB9080A21208DB900001120721FF1D
:101648009080A71208DB900002E48FF012081A902D
:1016580080A71208DB9000021207C3640345F060FC
:101668000302172E9080A21208DB900002120721B5
:10167800FF9080A71208DB900004E48FF012081A8C
:10168800E49080AEF0A3F09080A71208DB900004ED
:101698001207C3FF9080AEE0FCA3E0C39FEC95F077
:1016A800504B9080A21208DB9080AEE0FEA3E024AD
:1016B80003FFE43E8F82F583120721FD9080A71275
:1016C80008DBE92406F9E43AFA9080AEE0A3E025C5
:1016D800E0FFEE33FEE92FF9EA3EFAE48DF0120757
:1016E800FB9080AEE475F001120782809AE4908046
:1016F800B0F0A3F09080B0E0FEA3E0C39440EE9475
:101708000050209080A21208DB9080B0E0A3E0F5A2
:10171800828E83E41207609080B0E475F0011207AE
:101728008280D17F01229080A71208DB90000212EC
:1017380007C3641045F070027F01229080A212084E
:10174800FB9080A21208DB1207989080A9F0908085
:10175800A21208DB9000021207C39080AAF09080C2
:10176800A21208DB9000021207C3640345F0704A16
:101778009080A21208DB9000041207C3E5F0908065
:10178800ABF09080A21208DB9000041207C390808F
:10179800ACF09080A21208DB9000061207C3E5F0B7
:1017A8009080ADF09080A21208DB9000061207C36B
:1017B8009080AEF09080CD7406F09080A21208DB85
:1017C8009000021207C3640645F0704D9080A21283
:1017D80008DB9000041207C3E5F09080ABF090801E
:1017E800A21208DB9000041207C39080ACF090802E
:1017F800A51208DB90000C1207C3E5F09080ADF04D
:101808009080A51208DB90000E1207C39080AEF0FE
:101818009080CD7406F00219169080A21208DB9011
:1018280000021207C3641045F06003021916908085
:10183800A8E025E09080CEF09080A21208DB90000E
:10184800041207C3E5F09080ABF09080A21208DB89
:101858009000041207C39080ACF09080A8E0E49058
:1018680080ADF09080A8E09080AEF09080CEE090BF
:1018780080AFF0E49080CBF0A3F09080A8E0FF90D8
:1018880080CBE0FCA3E0C39FEC940050779080CB22
:10189800E0FEA3E025E0FFEE33FE9080A51208DB12
:1018A8008F828E831207C3E5F0FD9080CBE0FEA304
:1018B800E025E0FFEE33FE74B02FF58274803EF52C
:1018C80083EDF09080CBE0FEA3E025E0FFEE33FE51
:1018D8009080A51208DB8F828E831207C3FD90804B
:1018E800CBE0FEA3E025E0FFEE33FE74B12FF582D6
:1018F80074803EF583EDF09080CBE475F00112071B
:10190800820218829080CEE024079080CDF07B017F
:101918007A8079A99080CDE0FD121A8C9080C9EE6A
:10192800F0A3EFF09080C9E0A3E0FF9080CDE02421
:10193800AAF582E43480F583EFF09080C9E0FEA335
:10194800E0EEFF9080CDE024A9F582E43480F583B1
:10195800EFF09080CDE02402F07B017A8079A9E055
:10196800FD7C00121FAF229080B6EEF0A3EFF0A32B
:101978001208FB9080B6E0A3E054019080BDF0907F
:1019880080B6E0FEA3E0FFEEC313FEEF13FF9080E6
:10199800B6EEF0A3EFF0E4F5F19080B6E0FEA3E038
:1019A800EEF5F29080B6E0A3E0F5F375F40175F872
:1019B8008F30FCFD9080BDE0603C9080BBE0FEA3D2
:1019C800E0D39400EE9400402D75F8839080B8E43D
:1019D80075F0011208E4120708F5FC9080B8E47568
:1019E800F0011208E4120708F5FDD2FE9080BB74DE
:1019F800FFF5F012078275F88F9080BBE0FEA3E038
:101A0800C39402EE9400404B9080B8E475F0011244
:101A180008E4120708F5FA9080B8E475F001120896
:101A2800E4120708F5FB9080B8E475F0011208E4A9
:101A3800120708F5FC9080B8E475F0011208E4126A
:101A48000708F5FDD2FE9080BB74FF75F0FE120703
:101A58008280A69080BBE0FEA3E04E602375F88CE0
:101A68009080B8E475F0011208E4120708F5FA90BE
:101A780080B8E475F0011208E4120708F5FBD2FEFD
:101A8800E4F5F8229080CF1208FB9080D2EDF07434
:101A9800FFA3F0A3F0E49080D9F0A3F09080D2E007
:101AA800FF9080D9E0FCA3E0C39FEC9400400302C0
:101AB8001B519080CF1208DB9080D9E0FEA3E0F59F
:101AC800828E83120721FF9080D3E0FCA3E0FDEC17
:101AD800FEEF6DFF9080D3EEF0A3EFF0E49080DB93
:101AE800F09080DBE0C3940850529080D3E0A3E0EC
:101AF8005401FF9080D7E4F0A3EFF09080D3E0FE8C
:101B0800A3E0FFEEC313FEEF13FF9080D3EEF0A324
:101B1800EFF09080D7E0FEA3E04E60189080D3E00D
:101B2800FEA3E0FFEE64A0FEEF6401FF9080D3EE19
:101B3800F0A3EFF09080DBE004F080A59080D9E47A
:101B480075F001120782021AA49080D3E0FEA3E088
:101B5800EEFFA3E4F0A3EFF09080D3A3E0FEA3E0B0
:101B6800FCA3E0FDEE4CFEEDFF9080D3EEF0A3EF7A
:101B7800F09080D3E0FEA3E0FF9080D3EEF0A3EFD7
:101B8800F09080D3E0FEA3E0FF22253032582000F9
:101B9800202020202020202020202020202020203D
:101BA800202020202020202020202020202020202D
:101BB800004F4B202020200A00444154415F4552E9
:101BC800520A004C656E6768740A0043524320202D
:101BD800200A004552524F520A00526563656976E1
:101BE800656420202020202020200A0054696D658B
:101BF8006F75742020202020202020200A0000015A
:101C080000030000000100020003000000040002BD
:101C180000100000000100030003000000010004A0
:101C28000003000000010005000300000001000699
:101C38000003000000010000000000000000000098
:101C4800000000000000000000000000000000008C
:101C5800000000000000000000000000000000007C
:101C6800000000000000000000000000000000006C
:101C78000000000000080000000000000000908044
:101C8800A2EEF0A3EFF0A31208FB9080A2E0A3E07D
:101C980054019080A9F09080A2E0FEA3E0FFEEC37B
:101CA80013FEEF13FF9080A2EEF0A3EFF0E4F5F13E
:101CB8009080A2E0FEA3E0EEF5F29080A2E0A3E01F
:101CC800F5F375F40175F8AF30FCFD9080A7E0FEE0
:101CD800A3E0D39400EE94005003021D73D2FE20BB
:101CE800FEFD9080A9E0703D9080A7E0FEA3E0D3C0
:101CF8009400EE9400402E9080A4E475F001120840
:101D0800E4E5FA12074E9080A4E475F0011208E4A5
:101D1800E5FB12074E9080A97401F09080A774FF2C
:101D2800F5F01207829080A9E0B4019F9080A7E0A7
:101D3800FEA3E0D39400EE940040909080A4E47554
:101D4800F0011208E4E5FC12074E9080A4E475F057
:101D5800011208E4E5FD12074EE49080A9F0908096
:101D6800A774FFF5F0120782021CD3E4F5F822C02D
:101D7800E0C0F0C083C082C0D075D000C000C004ED
:101D8800C005C006C007209803021E4AC298908169
:101D9800301208AA0007A120908000E599F09081F0
:101DA8002CE0FEA3E0EE30E703021E4A90812CE00F
:101DB800FEA3E0C39440EE9400503D908000E0FF05
:101DC80090812CE0FCA3E024DEF58274803CF5834E
:101DD800EFF090812CE475F00112078290812CE0DD
:101DE800FEA3E064024E70199080DFE030E71278BD
:101DF8000F7600087605800990812CE4F0A3F08026
:101E0800419080DDE0FF780FE6FC08E6FDC3EF9D1A
:101E1800E49C5003E004F09080DDE0FF780FE6FCDE
:101E280008E6FDEFB5051BE4B5041790812CE0FE2C
:101E3800A3E0FFEE448090812CF0A3EFF09080DDCA
:101E4800E4F0D007D006D005D004D000D0D0D0829E
:101E5800D083D0F0D0E0329080A21208FB9080A509
:101E6800EDF0E0C394105063A3E0602F9080A212BD
:101E780008DB120798FDACF09080A5E0FF74017EA6
:101E880000A807088005C333CE33CED8F9FFEC4E3F
:101E9800FEED4FFFEE8FF01207FB229080A2120892
:101EA800DB120798FDACF09080A5E0FF74017E007E
:101EB800A807088005C333CE33CED8F9F4FFEEF473
:101EC8005CFEED5FFFEE8FF01207FB229080A612FA
:101ED800089E43C94053B7CF43B71075D88075984B
:101EE8005053877F9080A6120886E41201A3A804A5
:101EF800A905AA06AB077F007EE07D447C4A120153
:101F0800061201E1C3E49FFF74049EFEE4FCFD9009
:101F180080A612089E9080A6120886780812087378
:101F2800EFE48FBA9080A6120886EFE48FAAD2ACAD
:101F3800D2AF90812CF0A3F09080DDF022C0E0C0F9
:101F4800F0C083C082C0D075D000C000C001C002FC
:101F5800C003C004C005C006C007C2C690813012C5
:101F68000886EC4D4E4F601590813012088674FF3C
:101F7800FBFAF9F812084790813012089E780DE6AE
:101F8800FE08E64E6006E61618700116D007D00661
:101F9800D005D004D003D002D001D000D0D0D08258
:101FA800D083D0F0D0E0329080CF1208FB9080D25E
:101FB800ECF0A3EDF0C2ACE4A3F0A3F09080D2E083
:101FC800FEA3E0FFA3E0FCA3E0C39FEC9E50279094
:101FD80080CF1208DB9080D4E0FEA3E0F5828E83E8
:101FE800120721F5993099FDC2999080D4E475F0D3
:101FF8000112078280C6D2AC22C2AFC2D3C2D4E4D7
:10200800F58E75C870F593759401759502F5C9F547
:10201800F875F901F5A843B830F59AF5A9F5B9535B
:10202800C9FDD2BDD2BCD2AF229080A2EEF0A3EF00
:10203800F09080A2E0FEA3E0FF780DA60608A607B0
:10204800780DE6FE08E64E70F72275C870E4F5CD07
:10205800F5CC75CBBC75CACD43A820D2C8D2AF2267
:102068009080D3EFF0C2ACE0F5993099FDC299D2D7
:10207800AC229080D2EFF0E0FF1220689080D2E08E
:02208800FF2235
:00000001FF
