:100000000218A175C870E4F5CDF5CC75CBBC75CAE6
:10001000CD43A820D2C8D2AF221219F01200032279
:0300230002002EAA
:10002B00021815C0E0C0F0C083C082C0D075D000EC
:10003B00C000C004C005C006C0072098030200DA48
:10004B00C298908000E599F09082BEE0FEA3E0EEAE
:10005B0020E77C9082BEE0FEA3E0C39464EE9400A4
:10006B00501F908000E0FF9082BEE475F0011207F4
:10007B0098FC744E25F0F58274823CF583EFF0808A
:10008B00099082BEE4F0A3F0804590824DE0FF78AA
:10009B000FE6FC08E6FDC3EF9DE49C5003E004F083
:1000AB0090824DE0FF780FE6FC08E6FDEFB5051FEB
:1000BB00E4B5041B9082BEE0FEA3E0FFEE4480900B
:1000CB0082BEF0A3EFF090824C7401F0A3E4F0D069
:1000DB0007D006D005D004D000D0D0D082D083D0AA
:0400EB00F0D0E0323F
:1000F800FFFF4457494E54350218E8020257EC5D99
:10010800046005E85904700302024D1202185804ED
:1001180060F6EC4860F2EC7004FDFEFF22C860DB7C
:100128002481C85009C398600250060202549850AE
:10013800CAF582E9294B4A7005AB8202024375F081
:10014800007C1A7880C3EF9BEE9AED99400DC3EFBF
:100158009BFFEE9AFEED99FDE842F0DC23ACF0D06F
:10016800E0FFD0E0FED0E0FDAB8220E7101BEB60A3
:10017800BAEC2CFCEF33FFEE33FEED33FD02022F19
:10018800E803F830E705C0F075F000EF2FFFEE3315
:10019800FEED33FD40B830E7C280AA75F020800E2E
:1001A80075F010800575F0087D007E007F003392A1
:1001B800D530D50312084BEC334010EF33FFEE3344
:1001C800FEED33FDEC33FCD5F0ED22E5F0247EA204
:1001D800D513CC92E7CDCEFF22EDD2E7CD33EC3369
:1001E80092D524814006E4FFFEFDFC22FCE4CFCE3C
:1001F800CDCC24E0501174FF80EDC3CC13CCCD13CB
:10020800CDCE13CECF13CF0470F030D5DE02084B1D
:10021800E9D2E7C933E833F892D5EDD2E7CD33EC2C
:1002280033FC5002B2D522EC30E7100FBF000C0EA1
:10023800BE00080DBD00040BEB6014A2D5EB13FC47
:10024800ED92E7FD2274FFFCFDFEFF22E480F8A298
:10025800D574FF13FC7D80E480EFF920E73624F99C
:1002680050037907E4F42402FBE582158270021535
:1002780083DBF6E024FB501BE96014E4F0E582150B
:100288008270021583E004F0B40A08E4F0D9EE7431
:1002980001F00A22C2D522ED33EC3392D5FA602A56
:1002A800B4FF33EDC2E77BFF60067A0279C4E4222B
:1002B8007A0279CD20D5047A0279C8224E614E009F
:1002C8002B494E46002D494E4600E47A08F0A3DA41
:1002D800FC7B00740722C083C082ECC0E0EDC0E064
:1002E800EEC0E0EFC0E0EA75F010A4CAABF075F01C
:1002F8004DA42BFBE435F0FCEA2410FAEB34C5FBE3
:10030800EC34D9FCEDC2E7FF75F056A4F42411C50E
:10031800F0F434C58FF0A42AE5F03BE43CF020E784
:10032800141205D2D0E0FFD0E0FED0E0FDD0E0FC12
:100338001201068014F4041205D2D0E0FFD0E0FECA
:10034800D0E0FDD0E0FC12049CD082D083E0FAED2E
:10035800D2E7CD33EC332482FBE4C3CF33CFCE33A3
:10036800CECD33CD33DBF37B0775F00A846004F020
:10037800A31B0AE5F0F0A38FF0740AA4FFACF08E7B
:10038800F0740AA42CFEACF050010C8DF0740AA491
:100398002CFDE435F0F0A3DBDE74072202024DE801
:1003A8006480F8E933E83360110460F0ED33EC332E
:1003B8007009E8FCE9FDEAFEEBFF220460DED3EBFE
:1003C8009FEA9EE99DE8C2E78CF0C2F795F0400CE1
:1003D800E8CCF8E9CDF9EACEFAEBCFFB12021885A2
:1003E800D0F05804700320D5B3E80470075002B267
:1003F800D502025792D5EC0460F7E4CCC0E0C3986C
:10040800F8603B94186008400DD0E0FB02022FE42E
:10041800FBFAC9FC8028E830E406E4C9FBE4CAFC1E
:10042800E830E305E4C9CACBFCE854076010F8C318
:10043800E913F9EA13FAEB13FBEC13FCD8F130F5E6
:100448002FC3E49CFCEF9BFFEE9AFEED99FDD0E0F4
:10045800FBEF4E4D4C701222DB03020254EC2CFCD5
:10046800EF33FFEE33FEED33FDED30E7EB02022F05
:10047800EF2BFFEE3AFEED39FDD0E0FB50130BBB3E
:100488000003020257ED13FDEE13FEEF13FFEC130A
:10049800FC02022FEC4D6011E8497017ED33EC3384
:1004A80004600DE4FCFFFEFD22E933E8330470F834
:1004B80002024D12021858046009E4CC2481500647
:1004C800285009020257284003020254C0E0EB4AB0
:1004D8007044B98006D0E0FB020243EF4E701CBDA9
:1004E8008008EBFFEAFEE9FD80EBE98DF0A4FEE56C
:1004F800F0020585E9CDF9EAFEEBFFEF89F0A4FCEF
:10050800E5F0CE89F0A42EFFE435F0CD89F0A42DD6
:10051800FEE435F08067EF4E7005BD80D780C3EFED
:100528008BF0A4ACF0EE8BF0A42CFCE435F0F8EFE3
:100538008AF0A42CE5F038FCE433CB8DF0A42CFC35
:10054800E5F03BF8EE8AF0A42CFCE5F038F8E4334B
:10055800CF89F0A42CFCE5F038CF3400CE89F0A484
:100568002FFFE5F03EFEE433C98DF0A42EFEE5F042
:1005780039CD8AF0A42FFFE5F03EFEE43DFD33D0EF
:10058800E0FB50070BBB000F020257EC2CFCEF33CB
:10059800FFEE33FEED33FD02022F3F8000004120C5
:1005A800000042C80000447A0000461C400047C3CF
:1005B8005000497424004B1896804CBEBC205A0E3B
:1005C8001BCA6753C21C749DC5AEFB600654076006
:1005D8001C2323120600EB543860091205EC12059F
:1005E800FB12049CECF8EDF9EEFAEFCB22EB1205C6
:1005F800FB80F1543803241C9005A2FE93FC0EEEF8
:1006080093FD0EEE930ECE93FF22E709F608DFFA6C
:100618008046E709F208DFFA803E88828C83E70982
:10062800F0A3DFFA8032E309F608DFFA8078E309FD
:10063800F208DFFA807088828C83E309F0A3DFFA7E
:10064800806489828A83E0A3F608DFFA8058898269
:100658008A83E0A3F208DFFA804C80D280FA80C651
:1006680080D4806980F28033801080A680EA809AE6
:1006780080A880DA80E280CA803389828A83ECFA93
:10068800E493A3C8C582C8CCC583CCF0A3C8C582EF
:10069800C8CCC583CCDFE9DEE7800D89828A83E494
:1006A80093A3F608DFF9ECFAA9F0EDFB2289828A18
:1006B80083ECFAE0A3C8C582C8CCC583CCF0A3C834
:1006C800C582C8CCC583CCDFEADEE880DB89828AB4
:1006D80083E493A3F208DFF980CC88F0EF60010E81
:1006E8004E60C388F0ED2402B4040050B9F582EBE3
:1006F8002402B4040050AF2323458223900662737A
:10070800BB010689828A83E0225002E722BBFE02EF
:10071800E32289828A83E49322BB010CE58229F5CE
:1007280082E5833AF583E0225006E92582F8E6223D
:10073800BBFE06E92582F8E222E58229F582E583F7
:100748003AF583E49322BB010689828A83F022501A
:1007580002F722BBFE01F322F8BB010DE58229F561
:1007680082E5833AF583E8F0225006E92582C8F647
:1007780022BBFE05E92582C8F222C5F0F8A3E028CD
:10078800F0C5F0F8E582158270021583E038F02292
:10079800A3F8E0C5F025F0F0E58215827002158314
:1007A800E0C838F0E822BB010A89828A83E0F5F0C4
:1007B800A3E022500687F009E71922BBFE07E3F5FC
:1007C800F009E3192289828A83E493F5F07401938E
:1007D80022BB0110E58229F582E5833AF583E0F52D
:1007E800F0A3E0225009E92582F886F008E622BB4A
:1007F800FE0AE92582F8E2F5F008E222E5832AF507
:1008080083E993F5F0A3E99322F8BB0111E5822966
:10081800F582E5833AF583E8F0E5F0A3F022500984
:10082800E92582C8F608A6F022BBFE09E92582C898
:10083800F2E5F008F222EF2BFFEE3AFEED39FDEC7F
:1008480038FC22C3E49FFFE49EFEE49DFDE49CFC8B
:1008580022EB9FF5F0EA9E42F0E99D42F0E89C45C4
:10086800F022E8600FECC313FCED13FDEE13FEEF6E
:1008780013FFD8F122E0FCA3E0FDA3E0FEA3E0FF14
:1008880022E0F8A3E0F9A3E0FAA3E0FB22ECF0A34E
:10089800EDF0A3EEF0A3EFF022A8828583F0D083D9
:1008A800D0821208B81208B81208B81208B8E4734F
:1008B800E493A3C583C5F0C583C8C582C8F0A3C5A2
:1008C80083C5F0C583C8C582C822E0FBA3E0FAA3AC
:1008D800E0F922F8E0FBA3A3E0F925F0F0E58215A2
:1008E8008270021583E0FA38F022EBF0A3EAF0A355
:1008F800E9F022D083D082F8E493701274019370E7
:100908000DA3A393F8740193F5828883E4737402AA
:10091800936860EFA3A3A380DFE508241DF582E4B4
:100928003482F583E005082290821A30070390820A
:100938001DE475F0011208DB0207082000E97F2E8C
:10094800D2008018EF540F2490D43440D4FF3004E0
:100958000BEF24BFB41A0050032461FFE5096002BD
:100968001509050CE50C7002050B30070E90821A6C
:10097800E475F0011208DBEF02074E021A827403D5
:10098800D2078003E4C207F50890821A1208F2E43D
:10099800F509F50BF50CE50960077F20120964805D
:1009A800F5750AFFC201C200C202C203C205C2062F
:1009B800C208120930FF700D3007057F0012097553
:1009C800AF0CAE0B22B4255FC2D5C204120930FFAA
:1009D80024D0B40A00501A75F00A780930D50508F1
:1009E800B6FF0106C6A426F620D5047002D20380FD
:1009F800D924CFB41A00EF5004C2E5D204020C6720
:100A0800D20180C6D20080C0D20280BCD2D580BAC2
:100A1800D20580B47F201209642002077401B50949
:100A28000040F1120921FF12096402099ED208D27E
:100A3800068095120921FB120921FA120921F94AA7
:100A48004B700679657A0D7BFF20022EE509602A36
:100A58007E008E8275830012072160060EEE650AFD
:100A680070F0C2D5EBC0E0EAC0E0E9C0E0EE120CDD
:100A7800C8D0E0F9D0E0FAD0E0FB120708FF60AA7E
:100A8800EBC0E0EAC0E0E9C0E0120964D0E024016C
:100A9800F9D0E03400FAD0E0FBE50A0460DCD50ABE
:100AA800D98087D20280A2120CAA60F7E50A7001E9
:100AB80004120262A90A600DE50A600914F50A1217
:100AC8000D52EF60F3EA30E702F404C3995079EA73
:100AD800F4250A0430E701E404F50A800D120CAA93
:100AE80060C1EA050A250A120262EA908249F030DA
:100AF800E701E4250A04D50A0420050114120CC8EC
:100B0800E4C0E0120D52908249E0601320E7071418
:100B1800F012094C802204F0D0E014C0E07F0012EB
:100B2800094CE50A6007120943150A800B300503D2
:100B3800120943D0E002099ED0E00480C4120CAA36
:100B4800609EE50A04120262908249EAF0E50A20F2
:100B580005026001042404120CC874FF04C0E012EA
:100B68000D5212094CE50A2005026003120943D010
:100B7800E0B50AE87F45120956908249E07F2B309C
:100B8800E7047F2DF404C0E0120964D0E075F00A90
:100B980084C0F012094DD0E012094D02099E791067
:100BA80080027908C206C2088008D2D5790A800472
:100BB800790AC2D5E50A047002F50AE4FAFDFEFFD7
:100BC800120921FC7B08200113120921FD7B10303A
:100BD800000A120921FE120921FF7B20EC3382D57D
:100BE80092D55013C3E43000069FFFE49EFEE42034
:100BF80001039DFDE49CFCE4CBF8C201EC700CCF32
:100C0800CECDCCE824F8F870F38017C3EF33FFEEAD
:100C180033FEED33FDEC33FCEB33FB994002FB0F65
:100C2800D8E9EB300105F8D0E0C448B201C0E00AC9
:100C3800EC4D4E4F78207B0070C2EAB50A0040BCEC
:100C4800C0E0120CCAD0F0D0E0200104C4C0E0C457
:100C5800B201C0F012094DD0F0D5F0EB02099E1296
:100C680008FB0A3B530BA6580A0C4C0A08420BAA6D
:100C78004F0BB2440BB2490A21430BB8550AE5465B
:100C88000B45450AAF470D85500A102D0A142E0A48
:100C9800372B0A18230A35200D6E2A09D048000080
:100CA8000A2FE50AB4FF03750A06120921FC120986
:100CB80021FD120921FE120921FF90824202029FA2
:100CC800790AA2D5200314300509B910020404B921
:100CD800080104A2D52006025001042002689202ED
:100CE800B509005034C0E07F203003197F30A202DC
:100CF80072067205500F120D21C202C206C205C249
:100D0800087F30800F300503E9C0E0120964300520
:100D180003D0E0F9D0E0B509CC3005177F30B91021
:100D28000C1209647F583004077F788003B90803E0
:100D38001209643002057F2D0209647F202008F81B
:100D48007F2B2006F322920280CF7F00B407005049
:100D58000B2442F582E43482F583E0FF22286E7585
:100D68006C6C2900D2011209213001F8C2017809FE
:100D780030D50108F60209D02D50434958120921EF
:100D88002403B405004001E4900D809312095574C2
:100D98003A120955D203750904020BA67BFF7A1192
:100DA80079D978227C007D007E007F301206E27BB4
:100DB800FF7A12790978017C807D017E007F081214
:100DC80006E29080091208A1000000007BFF7A1259
:100DD800791178127C807D017E027F001206E21272
:100DE80000197BFF7A11795A90821FE4F0A37407E7
:100DF800F07F107E201215567FE87E03121A4F7B73
:100E0800FF7A11796690821FE4F0A37409F07F429B
:100E18007E201215567F807E257D007C0012192DBC
:100E28007B007A007922121779E49082BCF0A3F053
:100E380090800DF09082BEE0FEA3E0EE20E7030272
:100E48000F029082BEA3E0FFEE547F90800EF0A3C5
:100E5800EFF0E4908212F0A3F0908010F0A3F090ED
:100E6800800EE0FEA3E0FFA3E0FCA3E0C39FEC9E9E
:100E7800505A908212E0FEA3E02412F974803EFAE0
:100E88007B01C003C002C0017BFF7A117977908291
:100E98001D1208F2908010E0FEA3E0244EF5827443
:100EA800823EF583E0FF908220E4F0A3EFF0D001CA
:100EB800D002D003120986908212EE8FF0120782B8
:100EC800908010E475F00112078280937B017A808C
:100ED8007912908212E0FEA3E0FFEEC313FEEF1337
:100EE8002401FFE43E90821FF0A3EFF07F107E20E4
:100EF800121556E49082BEF0A3F090800DE06003D6
:100F0800020FDE9082BCE0FEA3E0C39405EE9400DD
:100F18004007E49082BCF0A3F09082BCE0A3E075A7
:100F2800F008A42422F9E4FAFB78527C00FDFE7F45
:100F3800081206E27B007A0079521217797B017A4F
:100F48008279BC90821FE4F0A304F07F007E201217
:100F580015567854E608E6785AF67B007A007954F4
:100F680090821FE4F0A304F0FF7E201215567B0048
:100F78007A00795690821FE4F0A304F07F027E2065
:100F88001215567858E6FE08E625E0FFEE33FEEF28
:100F98002405FFE43E780FF608A6077B007A00795F
:100FA8000F90821FE4F0A37402F07F037E201215D5
:100FB800567B007A00795290821FE4F0A304F07FF8
:100FC800047E2012155690800D7401F0908009124D
:100FD80008A10013D62090800912087D74FFFBFA3F
:100FE800F9F812083E90800912089590800DE06487
:100FF800016003020E3C90824CE064016003021120
:101008001A7A11797D90821FF0A37409F07F427ECD
:10101800201215567B017A82794EC003C002C001A6
:1010280090800EE0FCA3E0FD1B7A00795B90821FA4
:101038001208F2D001D002D003121411EF6401603B
:10104800030210E7785BE61208FB10590100001054
:10105800FD785CE61208FB10690310FD040000101F
:10106800FD786DE6FE08E6C39402EE9400405F78D2
:101078005DE6FE08E6FDEEEDFF908218EEF0A3EFC8
:10108800F0908218E0FEA3E0EE30E70E908218A3FD
:10109800E0FF908218EEF0A3EFF0908218E0FCA336
:1010A800E0FDE41201A8E4FBFA7920784112010678
:1010B8009082141208957B017A82791490821FE439
:1010C800F0A37402F07F057E2012155680277BFF5F
:1010D8007A11798F12098C801C801A801880167BEF
:1010E800FF7A1179C090821FE4F0A37404F07F9610
:1010F8007E201215569082BCE475F001120782E436
:1011080090800DF090824CF09080091208A10000A8
:101118000000E4FFFEFDFC908009120889C3120854
:10112800596003020E3C7BFF7A1179C790821FF049
:10113800A37409F07F427E201215569082BCE47594
:10114800F001120782E490800DF090824CF0020EBC
:101158003C224447555320546F6F6C0000004447AD
:1011680055532054455354205445585400000025E5
:101178003032582000526563656976656420202006
:1011880020202020200A004572726F723A20496E92
:1011980073756666696369656E742064617461203D
:1011A8006C656E67746820666F722074656D706513
:1011B8007261747572650A004552524F520A0054A2
:1011C800696D656F75742020202020202020200A5A
:1011D80000000100030000000100020003000800F5
:1011E80001000300030002000200040003002000C5
:1011F800040005000300FD000100060003002F00A5
:1012080001000000000000000000000000000000D5
:1012180000000000000000000000000000000000C6
:1012280000000000000000000000000000000000B6
:1012380000000000000000000000000000000000A6
:101248000000000000000000000000000000000096
:101258000000000000000000000000000000000086
:101268000000000000000000000000000000000076
:101278000000000000000000000000000000000066
:101288000000000000000000000000000000000056
:101298000000000000000000000000000000000046
:1012A8000000000000000000000000000000000036
:1012B8000000000000000000000000000000000026
:1012C8000000000000000000000000000000000016
:1012D8000000000000000000000000000000000006
:1012E80000000000000000000000000000000000F6
:1012F80000000000000000000000000000000000E6
:1013080000000000000000000000000000000000D5
:1013180000000000000000000000000000000000C5
:1013280000000000000000000000000000000000B5
:1013380000000000000000000000000000000000A5
:101348000000000000000000000000000000000095
:101358000000000000000000000000000000000085
:101368000000000000000000000000000000000075
:101378000000000000000000000000000000000065
:101388000000000000000000000000000000000055
:101398000000000000000000000000000000000045
:1013A8000000000000000000000000000000000035
:1013B8000000000000000000000000000000000025
:1013C8000000000000000000000000000000000015
:1013D8000000000000000000000000000000000005
:1013E80000000000000000000000000000000000F5
:1013F80000000000000000000000000000000000E5
:1014080000000000000000000090821A1208F2900C
:10141800821DECF0A3EDF090821DE0FEA3E0C394E2
:1014280004EE940050037F632290821A1208D2902F
:10143800821DE0FEA3E024FFFFEE34FF8F82F583D8
:10144800120721FE90821A1208D290821DE0FCA396
:10145800E024FEFDEC34FF8D82F583120721FDEEBA
:10146800EDFF908222EEF0A3EFF090821A1208D2DC
:1014780090821DE0A3E024FEFD121673908224EEF4
:10148800F0A3EFF0908224E0FEA3E0FF908222E038
:10149800FCA3E06F7002EC6E60037F622290821AF8
:1014A8001208D2120708FF90821F1208D2EF120703
:1014B8004E90821A1208D2900001120721FF9082E2
:1014C8001F1208D2900001EF12076090821A1208CA
:1014D800D2900002120721FF90821F1208D29000BA
:1014E80012E48FF0120811E4908226F0A3F09082A3
:1014F8001F1208D29000121207D9FF908226E0FC32
:10150800A3E0C39FEC95F0504290821A1208D29043
:101518008226E0FEA3E02403FFE43E8F82F58312D7
:101528000721FF90821F1208D2E92402F9E43AFA4F
:10153800908226E0A3E029F9EA3CFAEF12074E90E0
:101548008226E475F00112078280A37F012290822F
:101558001AEEF0A3EFF0A31208F290821AE0A3E0CB
:101568005401908221F090821AE0FEA3E0FFEEC3BE
:1015780013FEEF13FF90821AEEF0A3EFF0E4F5F1FB
:1015880090821AE0FEA3E0EEF5F290821AE0A3E062
:10159800F5F375F40175F88F30FCFD908221E06059
:1015A8003C90821FE0FEA3E0D39400EE9400402D0F
:1015B80075F88390821CE475F0011208DB120708A5
:1015C800F5FC90821CE475F0011208DB120708F59F
:1015D800FDD2FE90821F74FFF5F012078275F88F16
:1015E80090821FE0FEA3E0C39402EE9400404B906B
:1015F800821CE475F0011208DB120708F5FA9082E4
:101608001CE475F0011208DB120708F5FB90821C38
:10161800E475F0011208DB120708F5FC90821CE45F
:1016280075F0011208DB120708F5FDD2FE90821F43
:1016380074FF75F0FE12078280A690821FE0FEA359
:10164800E04E602375F88C90821CE475F001120856
:10165800DB120708F5FA90821CE475F0011208DB2A
:10166800120708F5FBD2FEE4F5F82290822812084A
:10167800F290822BEDF074FFA3F0A3F0E490823295
:10168800F0A3F090822BE0FF908232E0FCA3E0C34D
:101698009FEC940040030217389082281208D290D9
:1016A8008232E0FEA3E0F5828E83120721FF90824A
:1016B8002CE0FCA3E0FDECFEEF6DFF90822CEEF039
:1016C800A3EFF0E4908234F0908234E0C3940850A1
:1016D8005290822CE0A3E05401FF908230E4F0A302
:1016E800EFF090822CE0FEA3E0FFEEC313FEEF13B1
:1016F800FF90822CEEF0A3EFF0908230E0FEA3E0A2
:101708004E601890822CE0FEA3E0FFEE64A0FEEF8E
:101718006401FF90822CEEF0A3EFF0908234E00495
:10172800F080A5908232E475F00112078202168BD0
:1017380090822CE0FEA3E0EEFFA3E4F0A3EFF0908C
:10174800822CA3E0FEA3E0FCA3E0FDEE4CFEEDFF3F
:1017580090822CEEF0A3EFF090822CE0FEA3E0FF45
:1017680090822CEEF0A3EFF090822CE0FEA3E0FF35
:101778002290821A1208F290821A1208D21207AE28
:1017880090821DF090821A1208D29000021207D996
:1017980090821EF090821A1208D29000041207D983
:1017A800E5F090821FF090821A1208D2900004127D
:1017B80007D9908220F090821A1208D2900006125F
:1017C80007D9E5F0908221F090821A1208D2900091
:1017D800061207D9908222F07B017A82791D7D0654
:1017E800121673908225EEF0A3EFF0908225E0A305
:1017F800E0908224F0A3E0FEA3E0EE908223F07B49
:10180800017A82791D7D087C0012199E22C0E0C0F1
:10181800F0C083C082C0D075D000C000C001C00233
:10182800C003C004C005C006C007C2C674FFFFFEDF
:10183800FDFC9082C2120889C31208595015908283
:10184800C212087DE47B01FAF9F812083E9082C2C0
:1018580012089574FFFFFEFDFC9082C2120889C32E
:10186800120859700A9082C21208A100000000787C
:101878000DE6FE08E64E6006E61618700116D0075B
:10188800D006D005D004D003D002D001D000D0D0EB
:10189800D082D083D0F0D0E032787FE4F6D8FD75DE
:1018A800816E0218E8020DA4E493A3F8E493A34020
:1018B80003F68001F208DFF48029E493A3F85407C3
:1018C800240CC8C333C4540F4420C8834004F456BE
:1018D800800146F6DFE4800B0102040810204080F6
:1018E800901A20E47E019360BCA3FF543F30E509C1
:1018F800541FFEE493A360010ECF54C025E060A8F6
:1019080040B8E493A3FAE493A3F8E493A3C8C58288
:10191800C8CAC583CAF0A3C8C582C8CAC583CADFF6
:10192800E9DEE780BE90821A12089543C94053B792
:10193800CF43B71075D88075985053877F90821A17
:1019480012087DE41201A3A804A905AA06AB077F23
:10195800007EE07D447C4A1201061201E1C3E49F47
:10196800FF74049EFEE4FCFD90821A120895908292
:101978001A12087D780812086AEFE48FBA90821A62
:1019880012087DEFE48FAAD2ACD2AF9082BEF0A34A
:10199800F090824DF0229082271208F290822AEC71
:1019A800F0A3EDF0C2ACE4A3F0A3F090822AE0FE2D
:1019B800A3E0FFA3E0FCA3E0C39FEC9E5027908226
:1019C800271208D290822CE0FEA3E0F5828E8312C3
:1019D8000721F5993099FDC29990822CE475F001A0
:1019E80012078280C6D2AC22C2AFC2D3C2D4E4F5F9
:1019F8008E75C870F593759401759502F5C9F5F85B
:101A080075F901F5A843B830F59AF5A9F5B953C9A0
:101A1800FDD2BDD2BCD2AF22020D00004482C2006A
:101A28000000004582B501020304054282BA0001A4
:101A38004282C000044182B4004282BC000041825C
:101A48004C00020F00000090821AEEF0A3EFF09015
:101A5800821AE0FEA3E0FF780DA60608A607780D17
:101A6800E6FE08E64E70F72290824BEFF0C2ACE03B
:101A7800F5993099FDC299D2AC2290824AEFF0E0F4
:0A1A8800FF121A7090824AE0FF225C
:00000001FF
