:1000000002193D75C870E4F5CDF5CC75CBBC75CA49
:10001000CD43A820D2C8D2AF22121AC212000322A6
:0300230002172B96
:10002B000218B1253032582000202020202020201B
:10003B0020202020202020202020202020202020B5
:10004B00202020202020202020004F4B202020206B
:10005B000A004C656E6768740A004552524F520A8B
:10006B00005265636569766564202020202020207E
:10007B00200A0054696D656F7574202020202020A4
:10008B002020200A000002000300000004000400EE
:10009B000300000002000300030002000200010045
:1000AB0003000000020005000300FD000100060034
:1000BB0003002F0001000000000000000000000002
:1000CB000000000000000000000000000000000025
:1000DB000000000000000000000000000000000015
:1000EB0000000000000000000000000000FFFF44C3
:1000FB0057494E5435021984020257EC5D046005D2
:10010B00E85904700302024D120218580460F6EC11
:10011B004860F2EC7004FDFEFF22C860DB2481C84E
:10012B005009C398600250060202549850CAF582D7
:10013B00E9294B4A7005AB8202024375F0007C1A29
:10014B007880C3EF9BEE9AED99400DC3EF9BFFEECA
:10015B009AFEED99FDE842F0DC23ACF0D0E0FFD045
:10016B00E0FED0E0FDAB8220E7101BEB60BAEC2C7D
:10017B00FCEF33FFEE33FEED33FD02022FE803F805
:10018B0030E705C0F075F000EF2FFFEE33FEED33D7
:10019B00FD40B830E7C280AA75F020800E75F010D4
:1001AB00800575F0087D007E007F003392D530D539
:1001BB0003120854EC334010EF33FFEE33FEED33F4
:1001CB00FDEC33FCD5F0ED22E5F0247EA2D513CC6B
:1001DB0092E7CDCEFF22EDD2E7CD33EC3392D5248F
:1001EB00814006E4FFFEFDFC22FCE4CFCECDCC2407
:1001FB00E0501174FF80EDC3CC13CCCD13CDCE13D7
:10020B00CECF13CF0470F030D5DE020854E9D2E71D
:10021B00C933E833F892D5EDD2E7CD33EC33FC504C
:10022B0002B2D522EC30E7100FBF000C0EBE000857
:10023B000DBD00040BEB6014A2D5EB13FCED92E7A4
:10024B00FD2274FFFCFDFEFF22E480F8A2D574FFB3
:10025B0013FC7D80E480EFF920E73624F950037915
:10026B0007E4F42402FBE582158270021583DBF6AA
:10027B00E024FB501BE96014E4F0E5821582700268
:10028B001583E004F0B40A08E4F0D9EE7401F00A27
:10029B0022C2D522ED33EC3392D5FA602AB4FF3368
:1002AB00EDC2E77BFF60067A0279C4E4227A027919
:1002BB00CD20D5047A0279C8224E614E002B494ECF
:1002CB0046002D494E4600E47A08F0A3DAFC7B0089
:1002DB00740722C083C082ECC0E0EDC0E0EEC0E04A
:1002EB00EFC0E0EA75F010A4CAABF075F04DA42B8B
:1002FB00FBE435F0FCEA2410FAEB34C5FBEC34D903
:10030B00FCEDC2E7FF75F056A4F42411C5F0F434EC
:10031B00C58FF0A42AE5F03BE43CF020E71412056E
:10032B00D2D0E0FFD0E0FED0E0FDD0E0FC12010621
:10033B008014F4041205D2D0E0FFD0E0FED0E0FD33
:10034B00D0E0FC12049CD082D083E0FAEDD2E7CD52
:10035B0033EC332482FBE4C3CF33CFCE33CECD3358
:10036B00CD33DBF37B0775F00A846004F0A31B0A23
:10037B00E5F0F0A38FF0740AA4FFACF08EF0740AD2
:10038B00A42CFEACF050010C8DF0740AA42CFDE4EF
:10039B0035F0F0A3DBDE74072202024DE86480F82F
:1003AB00E933E83360110460F0ED33EC337009E8A6
:1003BB00FCE9FDEAFEEBFF220460DED3EB9FEA9E35
:1003CB00E99DE8C2E78CF0C2F795F0400CE8CCF859
:1003DB00E9CDF9EACEFAEBCFFB12021885D0F05833
:1003EB0004700320D5B3E80470075002B2D50202A3
:1003FB005792D5EC0460F7E4CCC0E0C398F8603BAF
:10040B0094186008400DD0E0FB02022FE4FBFAC900
:10041B00FC8028E830E406E4C9FBE4CAFCE830E3DE
:10042B0005E4C9CACBFCE854076010F8C3E913F91B
:10043B00EA13FAEB13FBEC13FCD8F130F52FC3E402
:10044B009CFCEF9BFFEE9AFEED99FDD0E0FBEF4E8F
:10045B004D4C701222DB03020254EC2CFCEF33FFE9
:10046B00EE33FEED33FDED30E7EB02022FEF2BFF0A
:10047B00EE3AFEED39FDD0E0FB50130BBB0003024F
:10048B000257ED13FDEE13FEEF13FFEC13FC02020C
:10049B002FEC4D6011E8497017ED33EC3304600D10
:1004AB00E4FCFFFEFD22E933E8330470F802024D51
:1004BB0012021858046009E4CC2481500628500914
:1004CB00020257284003020254C0E0EB4A7044B9C1
:1004DB008006D0E0FB020243EF4E701CBD8008EBA0
:1004EB00FFEAFEE9FD80EBE98DF0A4FEE5F00205E5
:1004FB0085E9CDF9EAFEEBFFEF89F0A4FCE5F0CE40
:10050B0089F0A42EFFE435F0CD89F0A42DFEE4355F
:10051B00F08067EF4E7005BD80D780C3EF8BF0A4E2
:10052B00ACF0EE8BF0A42CFCE435F0F8EF8AF0A4E1
:10053B002CE5F038FCE433CB8DF0A42CFCE5F03B40
:10054B00F8EE8AF0A42CFCE5F038F8E433CF89F010
:10055B00A42CFCE5F038CF3400CE89F0A42FFFE5B6
:10056B00F03EFEE433C98DF0A42EFEE5F039CD8AC2
:10057B00F0A42FFFE5F03EFEE43DFD33D0E0FB5051
:10058B00070BBB000F020257EC2CFCEF33FFEE33D3
:10059B00FEED33FD02022F3F8000004120000042A0
:1005AB00C80000447A0000461C400047C350004975
:1005BB007424004B1896804CBEBC205A0E1BCA6785
:1005CB0053C21C749DC5AEFB60065407601C2323ED
:1005DB00120600EB543860091205EC1205FB1204ED
:1005EB009CECF8EDF9EEFAEFCB22EB1205FB80F168
:1005FB00543803241C9005A2FE93FC0EEE93FD0EC3
:10060B00EE930ECE93FF22E709F608DFFA8046E75A
:10061B0009F208DFFA803E88828C83E709F0A3DFBA
:10062B00FA8032E309F608DFFA8078E309F208DF93
:10063B00FA807088828C83E309F0A3DFFA806489E7
:10064B00828A83E0A3F608DFFA805889828A83E0E6
:10065B00A3F208DFFA804C80D280FA80C680D48067
:10066B006980F28033801080A680EA809A80A8800F
:10067B00DA80E280CA803389828A83ECFAE493A31E
:10068B00C8C582C8CCC583CCF0A3C8C582C8CCC5AD
:10069B0083CCDFE9DEE7800D89828A83E493A3F6BE
:1006AB0008DFF9ECFAA9F0EDFB2289828A83ECFAD8
:1006BB00E0A3C8C582C8CCC583CCF0A3C8C582C88B
:1006CB00CCC583CCDFEADEE880DB89828A83E493C6
:1006DB00A3F208DFF980CC88F0EF60010E4E60C307
:1006EB0088F0ED2402B4040050B9F582EB2402B477
:1006FB00040050AF232345822390066273BB01068F
:10070B0089828A83E0225002E722BBFE02E3228920
:10071B00828A83E49322BB010CE58229F582E5836F
:10072B003AF583E0225006E92582F8E622BBFE0665
:10073B00E92582F8E222E58229F582E5833AF58301
:10074B00E49322BB010689828A83F0225002F722AE
:10075B00BBFE01F322F8BB010DE58229F582E5838F
:10076B003AF583E8F0225006E92582C8F622BBFE53
:10077B0005E92582C8F222C5F0F8A3E028F0C5F000
:10078B00F8E582158270021583E038F022BB010A6E
:10079B0089828A83E0F5F0A3E022500687F009E70F
:1007AB001922BBFE07E3F5F009E3192289828A833C
:1007BB00E493F5F074019322BB0110E58229F582D5
:1007CB00E5833AF583E0F5F0A3E0225009E92582B1
:1007DB00F886F008E622BBFE0AE92582F8E2F5F07E
:1007EB0008E222E5832AF583E993F5F0A3E9932246
:1007FB00BB010A89828A83F0E5F0A3F0225006F749
:10080B0009A7F01922BBFE06F3E5F009F31922F84C
:10081B00BB0111E58229F582E5833AF583E8F0E522
:10082B00F0A3F0225009E92582C8F608A6F022BBF6
:10083B00FE09E92582C8F2E5F008F222EF2BFFEE64
:10084B003AFEED39FDEC38FC22C3E49FFFE49EFE3B
:10085B00E49DFDE49CFC22EB9FF5F0EA9E42F0E95F
:10086B009D42F0E89C45F022E8600FECC313FCEDD1
:10087B0013FDEE13FEEF13FFD8F122E0FCA3E0FD16
:10088B00A3E0FEA3E0FF22E0F8A3E0F9A3E0FAA3C4
:10089B00E0FB22ECF0A3EDF0A3EEF0A3EFF022A827
:1008AB00828583F0D083D0821208C11208C112084E
:1008BB00C11208C1E473E493A3C583C5F0C583C813
:1008CB00C582C8F0A3C583C5F0C583C8C582C8223D
:1008DB00E0FBA3E0FAA3E0F922F8E0FBA3A3E0F925
:1008EB0025F0F0E582158270021583E0FA38F022CC
:1008FB00EBF0A3EAF0A3E9F022D083D082F8E493E3
:10090B007012740193700DA3A393F8740193F58285
:10091B008883E4737402936860EFA3A3A380DFD092
:10092B0083D082F8E4937012740193700DA3A39398
:10093B00F8740193F5828883E473740293B5F0061F
:10094B007403936860E9A3A3A3A380D87BFF7A0009
:10095B00799078227C007D007E007F301206E27B4E
:10096B00FF7A0079C078017C807D017E007F0812C0
:10097B0006E29080091208AA000000007BFF7A00B3
:10098B0079C878127C807D017E007F301206E2E40C
:10099B00908090F0A3F0A3F0A3F0A3F0A3F01200CB
:1009AB00197F807E257D007C001219C9E490811689
:1009BB00F0A3F090800DF0908118E0FEA3E0EE2004
:1009CB00E703020C87908118A3E0FFEE547F908021
:1009DB000EF0A3EFF07B017A80790E9080AFE4F0FC
:1009EB00A37402F07F697E20121508E4908042F018
:1009FB00A3F0908010F0A3F090800EE0FEA3E0FF38
:100A0B00A3E0FCA3E0C39FEC9E505A908042E0FE13
:100A1B00A3E02412F974803EFA7B01C003C002C02C
:100A2B00017BFF7A00792E9080991208FB90801041
:100A3B00E0FEA3E024CAF58274803EF583E0FF90CC
:100A4B00809CE4F0A3EFF0D001D002D003120EA5EE
:100A5B00908042EE8FF0120782908010E475F001C7
:100A6B0012078280937BFF7A0079349080AFE4F099
:100A7B00A37410F0FF7E201215087B017A80791287
:100A8B00908042E0FEA3E0FFEEC313FEEF132402BF
:100A9B00FFE43E9080AFF0A3EFF07F107E201215A5
:100AAB0008E4908010F0A3F0908010E0FEA3E0C368
:100ABB009430EE9400501C908010E0A3E02412F5CB
:100ACB008274803EF583E4F090801075F00112077C
:100ADB008280D57B017A8079CAC002C00190800EDA
:100AEB00E0FCA3E0FD7A80794A90809B1208FBD052
:100AFB0001D0021212C3908094E4F0A3EFF07B01BB
:100B0B007A8079949080AFE4F0A304F07F717E201B
:100B1B00121508908094E0FEA3E064014E6003027E
:100B2B000C0C7BFF7A0079559080AFF0A37404F026
:100B3B007F967E2012150890804AE0FEA3E08EF08F
:100B4B0012092A0B5A00010BCC000200000C0C906E
:100B5B00804EE0FEA3E0C39402EE94004063A3E05A
:100B6B00A3E0FEA3E0FCA3E0FDEE4CFEEDFF9080C6
:100B7B0048EEF0A3EFF0908048E0FEA3E0EE30E704
:100B8B000E908048A3E0FF908048EEF0A3EFF0902A
:100B9B008048E0FCA3E0FDE41201A8E4FBFA792015
:100BAB00784112010690804412089E7B017A80796D
:100BBB00449080AFE4F0A37402F07F057E20121501
:100BCB000890804EE0FEA3E0C39402EE9400403107
:100BDB00A3E0A3E0FEA3E0FCA3E0FDEE4CFEEDFFE3
:100BEB00908048EEF0A3EFF0908048E0FEA3E0EE9B
:100BFB0030E70E908048A3E0FF908048EEF0A3EF23
:100C0B00F0908094E0FEA3E064634E70177BFF7A54
:100C1B0000795D9080AFF0A37404F07F967E201274
:100C2B00150880167BFF7A0079659080AFE4F0A3FE
:100C3B007404F07F967E20121508E4908118F0A3BF
:100C4B00F090800EF0A3F0A3F0A3F0908010E0FEE4
:100C5B00A3E0C39440EE9400501C908010E0A3E0FE
:100C6B0024CAF58274803EF583E4F090801075F011
:100C7B000112078280D59080C87401F090800DE03E
:100C8B006003020D76908116E0FEA3E0C39406EE9E
:100C9B0094004007E4908116F0A3F07F057E0012CC
:100CAB001AF2908116E0A3E075F008A42422F9E46F
:100CBB00FAFB78527C00FDFE7F081206E27B017A7C
:100CCB008179169080AFE4F0A304F07F007E2012B0
:100CDB0015087854E608E6785AF67B007A007954C2
:100CEB009080AFE4F0A304F0FF7E201215087B0088
:100CFB007A0079569080AFE4F0A304F07F027E2057
:100D0B001215087858E6FE08E625E0FFEE33FEEFF5
:100D1B002405FFE43E780FF608A6077B007A0079DE
:100D2B000F9080AFE4F0A37402F07F037E201215C6
:100D3B00087B007A0079529080AFE4F0A304F07F37
:100D4B00047E201215087B007A0079521218159038
:100D5B00800D7401F09080091208AA00030D4090D9
:100D6B00811C12088690811012089E90800912082F
:100D7B008674FFFBFAF9F812084790800912089E57
:100D8B0090800DE0640160030209C29080C8E0B45A
:100D9B0001317A00796C9080AFE4F0A37409F07F95
:100DAB00427E20121508908116E475F0011207821D
:100DBB00E490800DF09080C8F09080091208AA0092
:100DCB00030D40E4FFFEFDFC908009120892C31254
:100DDB00086260030209C27BFF7A00797E9080AFC4
:100DEB00F0A37409F07F427E20121508E490801066
:100DFB00F0A3F0908010E0FEA3E0C39430EE9400DB
:100E0B00501C908010E0A3E02412F58274803EF514
:100E1B0083E4F090801075F00112078280D59081E9
:100E2B0016E475F001120782E490800DF09080C8F3
:100E3B00F00209C222E5082499F582E43480F58397
:100E4B00E0050822908096300703908099E475F0B6
:100E5B00011208E40207082000E97F2ED200801857
:100E6B00EF540F2490D43440D4FF30040BEF24BF45
:100E7B00B41A0050032461FFE50960021509050C43
:100E8B00E50C7002050B30070E908096E475F001AF
:100E9B001208E4EF02074E021B257403D2078003EE
:100EAB00E4C207F5089080961208FBE4F509F50BF0
:100EBB00F50CE50960077F20120E8380F5750AFF9C
:100ECB00C201C200C202C203C205C206C208120E90
:100EDB004FFF700D3007057F00120E94AF0CAE0B59
:100EEB0022B4255FC2D5C204120E4FFF24D0B40A20
:100EFB0000501A75F00A780930D50508B6FF0106BF
:100F0B00C6A426F620D5047002D20380D924CFB410
:100F1B001A00EF5004C2E5D204021186D20180C63A
:100F2B00D20080C0D20280BCD2D580BAD20580B4A8
:100F3B007F20120E832002077401B5090040F112C5
:100F4B000E40FF120E83020EBDD208D20680951200
:100F5B000E40FB120E40FA120E40F94A4B70067906
:100F6B00847A127BFF20022EE509602A7E008E8296
:100F7B0075830012072160060EEE650A70F0C2D56C
:100F8B00EBC0E0EAC0E0E9C0E0EE1211E7D0E0F917
:100F9B00D0E0FAD0E0FB120708FF60AAEBC0E0EA52
:100FAB00C0E0E9C0E0120E83D0E02401F9D0E034B8
:100FBB0000FAD0E0FBE50A0460DCD50AD98087D2C1
:100FCB000280A21211C960F7E50A700104120262D5
:100FDB00A90A600DE50A600914F50A121271EF6097
:100FEB00F3EA30E702F404C3995079EAF4250A04D2
:100FFB0030E701E404F50A800D1211C960C1EA055E
:10100B000A250A120262EA9080C5F030E701E42556
:10101B000A04D50A04200501141211E7E4C0E012FA
:10102B0012719080C5E0601320E70714F0120E6B6D
:10103B00802204F0D0E014C0E07F00120E6BE50AB2
:10104B006007120E62150A800B300503120E62D078
:10105B00E0020EBDD0E00480C41211C9609EE50A07
:10106B00041202629080C5EAF0E50A2005026001D5
:10107B000424041211E774FF04C0E0121271120E63
:10108B006BE50A2005026003120E62D0E0B50AE898
:10109B007F45120E759080C5E07F2B30E7047F2DC6
:1010AB00F404C0E0120E83D0E075F00A84C0F01295
:1010BB000E6CD0E0120E6C020EBD79108002790816
:1010CB00C206C2088008D2D5790A8004790AC2D533
:1010DB00E50A047002F50AE4FAFDFEFF120E40FC6D
:1010EB007B08200113120E40FD7B1030000A120EFC
:1010FB0040FE120E40FF7B20EC3382D592D550136D
:10110B00C3E43000069FFFE49EFEE42001039DFD37
:10111B00E49CFCE4CBF8C201EC700CCFCECDCCE858
:10112B0024F8F870F38017C3EF33FFEE33FEED3383
:10113B00FDEC33FCEB33FB994002FB0FD8E9EB30B2
:10114B000105F8D0E0C448B201C0E00AEC4D4E4FA7
:10115B0078207B0070C2EAB50A0040BCC0E01211D7
:10116B00E9D0F0D0E0200104C4C0E0C4B201C0F06B
:10117B00120E6CD0F0D5F0EB020EBD1209040F5A13
:10118B005310C5580F2B4C0F274210C94F10D14489
:10119B0010D1490F404310D7551004461064450F2A
:1011AB00CE4712A4500F2F2D0F332E0F562B0F3768
:1011BB00230F5420128D2A0EEF4800000F4EE50A24
:1011CB00B4FF03750A06120E40FC120E40FD120E00
:1011DB0040FE120E40FF9080BE02029F790AA2D5FC
:1011EB00200314300509B910020404B9080104A244
:1011FB00D52006025001042002689202B509005066
:10120B0034C0E07F203003197F30A20272067205D2
:10121B00500F121240C202C206C205C2087F3080B4
:10122B000F300503E9C0E0120E83300503D0E0F95F
:10123B00D0E0B509CC3005177F30B9100C120E83F6
:10124B007F583004077F788003B90803120E833070
:10125B0002057F2D020E837F202008F87F2B2006AE
:10126B00F322920280CF7F00B40700500B24BEF50F
:10127B0082E43480F583E0FF22286E756C6C2900C4
:10128B00D201120E403001F8C201780930D50108A5
:10129B00F6020EEF2D50434958120E402403B405AD
:1012AB00004001E490129F93120E74743A120E7464
:1012BB00D2037509040210C59080961208FB90802A
:1012CB0099ECF0A3EDF09080961208DB120708FF63
:1012DB009080A6E4F0A3EFF09080961208DB9000CC
:1012EB0001120721FF9080A8E4F0A3EFF07B017AB5
:1012FB008079A69080AFE4F0A304F07F657E201286
:10130B0015087B017A8079A89080AFE4F0A304F0F4
:10131B007F677E20121508908099E0FEA3E0C394AE
:10132B0004EE94005039E49080A4F0A3F09080A4D4
:10133B00E0FEA3E0C39440EE940050209080961200
:10134B0008DB9080A4E0A3E0F5828E83E4120760B3
:10135B009080A4E475F00112078280D17F63229004
:10136B0080961208DB908099E0FEA3E024FEFFEE4E
:10137B0034FF8F82F583120721FE9080961208DBD3
:10138B00908099E0FCA3E024FFFDEC34FF8D82F507
:10139B0083120721FDEEEDFF90809EEEF0A3EFF0A0
:1013AB009080961208DB908099E0A3E024FEFD125A
:1013BB0016259080A0EEF0A3EFF09080A0E0FEA3A6
:1013CB00E0FF90809EE0FCA3E06F7002EC6E603952
:1013DB00E49080A4F0A3F09080A4E0FEA3E0C3947B
:1013EB0040EE940050209080961208DB9080A4E091
:1013FB00A3E0F5828E83E41207609080A4E475F07D
:10140B000112078280D17F62229080961208DB1234
:10141B000708FF90809B1208DBE48FF01207FB900C
:10142B0080961208DB900001120721FF90809B121F
:10143B0008DB900002E48FF012081A9080961208D5
:10144B00DB900002120721FF90809B1208DB9000BB
:10145B0004E48FF012081AE49080A2F0A3F09080BD
:10146B009B1208DB9000041207C3FF9080A2E0FCE4
:10147B00A3E0C39FEC95F0504B9080961208DB9045
:10148B0080A2E0FEA3E02403FFE43E8F82F58312EB
:10149B000721FD90809B1208DBE92406F9E43AFA58
:1014AB009080A2E0A3E025E0FFEE33FEE92FF9EAFE
:1014BB003EFAE48DF01207FB9080A2E475F0011266
:1014CB000782809AE49080A4F0A3F09080A4E0FEC1
:1014DB00A3E0C39440EE940050209080961208DB5A
:1014EB009080A4E0A3E0F5828E83E41207609080E5
:1014FB00A4E475F00112078280D17F01229080AAAB
:10150B00EEF0A3EFF0A31208FB9080AAE0A3E05447
:10151B00019080B1F09080AAE0FEA3E0FFEEC31330
:10152B00FEEF13FF9080AAEEF0A3EFF0E4F5F1903D
:10153B0080AAE0FEA3E0EEF5F29080AAE0A3E0F52E
:10154B00F375F40175F88F30FCFD9080B1E0603CD1
:10155B009080AFE0FEA3E0D39400EE9400402D7595
:10156B00F8839080ACE475F0011208E4120708F5DB
:10157B00FC9080ACE475F0011208E4120708F5FD4D
:10158B00D2FE9080AF74FFF5F012078275F88F9042
:10159B0080AFE0FEA3E0C39402EE9400404B90803A
:1015AB00ACE475F0011208E4120708F5FA9080AC70
:1015BB00E475F0011208E4120708F5FB9080ACE427
:1015CB0075F0011208E4120708F5FC9080ACE47585
:1015DB00F0011208E4120708F5FDD2FE9080AF74FB
:1015EB00FF75F0FE12078280A69080AFE0FEA3E0AD
:1015FB004E602375F88C9080ACE475F0011208E412
:10160B00120708F5FA9080ACE475F0011208E412A9
:10161B000708F5FBD2FEE4F5F8229080AA1208FB2E
:10162B009080ADEDF074FFA3F0A3F0E49080B4F0E4
:10163B00A3F09080ADE0FF9080B4E0FCA3E0C39FEB
:10164B00EC940040030216EA9080AA1208DB90800B
:10165B00B4E0FEA3E0F5828E83120721FF9080AEEB
:10166B00E0FCA3E0FDECFEEF6DFF9080AEEEF0A38F
:10167B00EFF0E49080B6F09080B6E0C3940850523F
:10168B009080AEE0A3E05401FF9080B2E4F0A3EFB2
:10169B00F09080AEE0FEA3E0FFEEC313FEEF13FF6E
:1016AB009080AEEEF0A3EFF09080B2E0FEA3E04EA0
:1016BB0060189080AEE0FEA3E0FFEE64A0FEEF6446
:1016CB0001FF9080AEEEF0A3EFF09080B6E004F057
:1016DB0080A59080B4E475F00112078202163D904C
:1016EB0080AEE0FEA3E0EEFFA3E4F0A3EFF090806A
:1016FB00AEA3E0FEA3E0FCA3E0FDEE4CFEEDFF90FD
:10170B0080AEEEF0A3EFF09080AEE0FEA3E0FF9092
:10171B0080AEEEF0A3EFF09080AEE0FEA3E0FF22F0
:10172B00C0E0C0F0C083C082C0D075D000C000C084
:10173B0004C005C006C007209803021800C2989089
:10174B00811C12088690811012089E908000E599EA
:10175B00F0908118E0FEA3E0EE30E7030218009052
:10176B008118E0FEA3E0C39440EE9400503D9080BE
:10177B0000E0FF908118E0FCA3E024CAF58274809E
:10178B003CF583EFF0908118E475F001120782901D
:10179B008118E0FEA3E064024E70199080CBE0301C
:1017AB00E712780F76000876058009908118E4F02F
:1017BB00A3F080419080C9E0FF780FE6FC08E6FDBE
:1017CB00C3EF9DE49C5003E004F09080C9E0FF78E8
:1017DB000FE6FC08E6FDEFB5051BE4B50417908199
:1017EB0018E0FEA3E0FFEE4480908118F0A3EFF029
:1017FB009080C9E4F0D007D006D005D004D000D03B
:10180B00D0D082D083D0F0D0E0329080961208FBFB
:10181B009080961208DB120798908099F090809632
:10182B001208DB9000021207C390809AF09080960A
:10183B001208DB9000041207C3E5F090809BF09038
:10184B0080961208DB9000041207C390809CF090E6
:10185B0080961208DB9000061207C3E5F090809D7E
:10186B00F09080961208DB9000061207C390809EC2
:10187B00F07B017A8079997D061216259080A1EE76
:10188B00F0A3EFF09080A1E0A3E09080A0F0A3E0A4
:10189B00FEA3E0EE90809FF07B017A8079997D0822
:1018AB007C00121A3A22C0E0C0F0C083C082C0D0C4
:1018BB0075D000C000C001C002C003C004C005C089
:1018CB0006C007C2C674FFFFFEFDFC90811C120808
:1018DB0092C3120862501590811C120886E47B019A
:1018EB00FAF9F812084790811C12089E74FFFFFE4C
:1018FB00FDFC90811C120892C3120862700A908141
:10190B001C1208AA00000000780DE6FE08E64E60E7
:10191B0006E61618700116D007D006D005D004D0F5
:10192B0003D002D001D000D0D0D082D083D0F0D061
:10193B00E032787FE4F6D8FD75815A0219840209EA
:10194B0057E493A3F8E493A34003F68001F208DF76
:10195B00F48029E493A3F85407240CC8C333C4546C
:10196B000F4420C8834004F456800146F6DFE48020
:10197B000B0102040810204080901A8CE47E019326
:10198B0060BCA3FF543F30E509541FFEE493A360F2
:10199B00010ECF54C025E060A840B8E493A3FAE44D
:1019AB0093A3F8E493A3C8C582C8CAC583CAF0A39E
:1019BB00C8C582C8CAC583CADFE9DEE780BE90808E
:1019CB009612089E43C94053B7CF43B71075D880C2
:1019DB0075985053877F908096120886E41201A366
:1019EB00A804A905AA06AB077F007EE07D447C4ACC
:1019FB001201061201E1C3E49FFF74049EFEE4FC96
:101A0B00FD90809612089E90809612088678081298
:101A1B000873EFE48FBA908096120886EFE48FAAD2
:101A2B00D2ACD2AF908118F0A3F09080C9F0229085
:101A3B0080A31208FB9080A6ECF0A3EDF0C2ACE4FF
:101A4B00A3F0A3F09080A6E0FEA3E0FFA3E0FCA32D
:101A5B00E0C39FEC9E50279080A31208DB9080A8D8
:101A6B00E0FEA3E0F5828E83120721F5993099FDF4
:101A7B00C2999080A8E475F00112078280C6D2AC9F
:101A8B0022020D000044811C0000000045810B0167
:101A9B0002030405428114000142811A00044181B2
:101AAB000A004481100000000042811600004180B2
:101ABB00C800020F000000C2AFC2D3C2D4E4F58E3F
:101ACB0075C870F593759401759502F5C9F5F875A0
:101ADB00F901F5A843B830F59AF5A9F5B953C9FD45
:101AEB00D2BDD2BCD2AF22908096EEF0A3EFF09095
:101AFB008096E0FEA3E0FF780DA60608A607780DFA
:101B0B00E6FE08E64E70F7229080C7EFF0C2ACE01D
:101B1B00F5993099FDC299D2AC229080C6EFF0E0D6
:0A1B2B00FF121B139080C6E0FF229A
:00000001FF
