:1000000002002E9080E91217F8C2ACE4F598F5BA18
:0F001000F5AA53877F9080E91217E012285A2231
:030023000226FDB5
:10002B000228CB787FE4F6D8FD7581980200750223
:10003B000103E493A3F8E493A34003F68001F208D1
:10004B00DFF48029E493A3F85407240CC8C333C40A
:10005B00540F4420C8834004F456800146F6DFE475
:10006B00800B01020408102040809000BAE47E014E
:10007B009360BCA3FF543F30E509541FFEE493A3E8
:10008B0060010ECF54C025E060A840B8E493A3FAFA
:10009B00E493A3F8E493A3C8C582C8CAC583CAF086
:1000AB00A3C8C582C8CAC583CADFE9DEE780BE0222
:1000BB000D000044817700000000458166010203BA
:1000CB00040542816F000142817500044181650086
:1000DB0044816B00000000428171000041812300CC
:0C00EB00020F0000001229871229D82201
:1000F800FFFF4457494E54350200757BFF7A247937
:100108006478227C007D007E007F5A12163C7BFFBB
:100118007A2479BE78017C807D017E007F081216E2
:100128003C908009121804000000007BFF7A2479B3
:10013800C678177C807D017E007F3012163C7BFFDD
:100148007A2479F678867C007D007E007F1012166E
:100158003CE49080D7F0A3F0A3F0A3F09080E7F000
:10016800A3F01200F07F807E257D007C0012285AC3
:10017800E4908171F0A3F090800DF09081771218CF
:10018800040007A120E490800EF0A31218040000D8
:100198000000E4FFFEFDFC9081771217ECC31217F4
:1001A800BC702290800DE0B4011B908173E0FEA327
:1001B800E04E6011908173E0A3E0FFEE44809081EF
:1001C80073F0A3EFF0908173E0FEA3E0EE20E70365
:1001D800020ABB908173A3E0FFEE547F908013F076
:1001E800A3EFF07B017A807913908102E4F0A37485
:1001F80002F07F697E201222D3E490805FF0A3F0A2
:10020800908015F0A3F0908013E0FEA3E0FFA3E038
:10021800FCA3E0C39FEC9E505A90805FE0FEA3E0F1
:100228002417F974803EFA7B01C003C002C0017B29
:10023800FF7A2379F09080EC121855908015E0FE33
:10024800A3E02425F58274813EF583E0FF9080EFDA
:10025800E4F0A3EFF0D001D002D003121916908079
:100268005FEE8FF01216DC908015E475F00112161F
:10027800DC80937BFF7A2379F6908102E4F0A37403
:1002880010F0FF7E201222D37B017A8079179080AC
:100298005FE0FEA3E0FFEEC313FEEF132402FFE4CA
:1002A8003E908102F0A3EFF07F107E201222D3E46B
:1002B800908015F0A3F0908015E0FEA3E0C3943081
:1002C800EE9400501C908015E0A3E02417F582748A
:1002D800803EF583E4F090801575F0011216DC80FD
:1002E800D59081771218040007A1207B017A8179C3
:1002F80025C002C001908013E0FCA3E0FD7A80795C
:10030800879080EE121855D001D00212203A9080C2
:10031800E7E4F0A3EFF07B017A8079E7908102E4CB
:10032800F0A304F07F717E201222D39080E7E0FED4
:10033800A3E064014E60030209D87BFF7A24791791
:10034800908102F0A37404F07F967E201222D3904D
:100358008087E0FEA3E08EF0121884038700010373
:1003680087000205A900030628000406A700050760
:1003780026000607A500070824000800000A79904F
:10038800808BE0FEA3E0C39402EE940050030205C4
:1003980090A3E0A3E0FEA3E0FCA3E0FDEE4CFEED9D
:1003A800FF9080CDEEF0A3EFF0908095E0A3E0FE03
:1003B800A3E0FCA3E0FDEE4CFEEDFF9080CFEEF055
:1003C800A3EFF0908099E0A3E0FEA3E0FCA3E0FD9A
:1003D800EE4CFEEDFF9080D1EEF0A3EFF090809D03
:1003E800E0A3E0FEA3E0FCA3E0FDEE4CFEEDFF90F1
:1003F80080D3EEF0A3EFF090805DE0FEA3E064010F
:100408004E70147B017A8079D3908102F0A304F0B6
:100418007F647E201222D39080CFE0FEA3E0D394A5
:100428002DEE9400501F9080D574C6F0A37418F078
:100438007B017A8079D5908102E4F0A304F07F1DD6
:100448007E5A1222D39080CFE0FEA3E0D3942DEE03
:100458009400402A9080CFE0A3E09484EE94035067
:100468001D9080D574FCF0A3E4F07B017A8079D5E7
:10047800908102F0A304F07F1D7E5A1222D390804F
:10048800D3E0FCA3E0FDE4121208E4FBFA797A78E1
:100498004412105DC004C005C006C0079080D1E0BA
:1004A800FCA3E0FDE4121208A804A905AA06AB07FC
:1004B800D007D006D005D004121166E4FBFA7920E3
:1004C80078411211669080791217F89080CFE0FC7D
:1004D800A3E0FDE41212087BAD7A4B798D783A12CD
:1004E800105DC004C005C006C0079080CFE0FCA323
:1004F800E0FDE4121208A804A905AA06AB07D00774
:10050800D006D005D00412105DE4FBFA797A78445D
:100518001211669080811217F87B017A8079CF904A
:100528008102E4F0A304F07F817E201222D37B01B4
:100538007A8079D3908102E4F0A304F07F837E204F
:100548001222D37B017A8079CD908102E4F0A374E2
:1005580002F07F077E201222D37B017A807979907E
:100568008102E4F0A37402F07F157E211222D37B6E
:10057800017A807981908102E4F0A37402F07F19F6
:100588007E211222D3020A797BFF7A24791F908177
:1005980002E4F0A37406F07F967E201222D3020AAA
:1005A8007990808BE0FEA3E0C39402EE94005003A0
:1005B800020A79A3E0A3E0FEA3E0FCA3E0FDEE4C71
:1005C800FEEDFF908085EEF0A3EFF0908085E0FED1
:1005D800A3E0EE30E70E908085A3E0FF908085EEE3
:1005E800F0A3EFF0908085E0FCA3E0FDE412120890
:1005F800E4FBFA792078411211669080651217F8A9
:100608007B017A807965908102E4F0A37402F07F1F
:10061800857E201222D3E4908085F0A3F0020A7927
:1006280090808BE0FEA3E0C39402EE940050030296
:100638000A79A3E0A3E0FEA3E0FCA3E0FDEE4CFEF4
:10064800EDFF908085EEF0A3EFF0908085E0FEA3AB
:10065800E0EE30E70E908085A3E0FF908085EEF015
:10066800A3EFF0908085E0FCA3E0FDE4121208E41B
:10067800FBFA792078411211669080691217F87B8D
:10068800017A807969908102E4F0A37402F07F878F
:100698007E201222D3E4908085F0A3F0020A79909C
:1006A800808BE0FEA3E0C39402EE94005003020A9C
:1006B80079A3E0A3E0FEA3E0FCA3E0FDEE4CFEED91
:1006C800FF908085EEF0A3EFF0908085E0FEA3E038
:1006D800EE30E70E908085A3E0FF908085EEF0A3D2
:1006E800EFF0908085E0FCA3E0FDE4121208E4FB43
:1006F800FA7920784112116690806D1217F87B0103
:100708007A80796D908102E4F0A37402F07F897E8B
:10071800201222D3E4908085F0A3F0020A79908019
:100728008BE0FEA3E0C39402EE94005003020A7922
:10073800A3E0A3E0FEA3E0FCA3E0FDEE4CFEEDFF8A
:10074800908085EEF0A3EFF0908085E0FEA3E0EEC8
:1007580030E70E908085A3E0FF908085EEF0A3EF50
:10076800F0908085E0FCA3E0FDE4121208E4FBFAB7
:10077800792078411211669080711217F87B017AFE
:10078800807971908102E4F0A37402F07F917E2059
:100798001222D3E4908085F0A3F0020A7990808B2E
:1007A800E0FEA3E0C39402EE94005003020A79A38A
:1007B800E0A3E0FEA3E0FCA3E0FDEE4CFEEDFF901D
:1007C8008085EEF0A3EFF0908085E0FEA3E0EE30A8
:1007D800E70E908085A3E0FF908085EEF0A3EFF010
:1007E800908085E0FCA3E0FDE4121208E4FBFA79AE
:1007F8002078411211669080611217F87B017A8087
:100808007961908102E4F0A37402F07F057E2012E2
:1008180022D3E4908085F0A3F0020A7990808BE0DF
:10082800FEA3E0C39402EE94005003020A79A3E009
:10083800A3E0FEA3E0FCA3E0FDEE4CFEEDFF9080FC
:10084800DBEEF0A3EFF0908091E0A3E0FEA3E0FCE4
:10085800A3E0FDEE4CFEEDFF9080DDEEF0A3EFF09F
:10086800908095E0A3E0FEA3E0FCA3E0FDEE4CFE43
:10087800EDFF908085EEF0A3EFF0908099E0A3E083
:10088800FEA3E0FCA3E0FDEE4CFEEDFF9080DFEE62
:10089800F0A3EFF090809DE0A3E0FEA3E0FCA3E0CE
:1008A800FDEE4CFEEDFF9080E1EEF0A3EFF09080BE
:1008B800A1E0A3E0FEA3E0FCA3E0FDEE4CFEEDFF0B
:1008C8009080E3EEF0A3EFF09080A5E0A3E0FEA314
:1008D800E0FCA3E0FDEE4CFEEDFF9080E5EEF0A31A
:1008E800EFF0908085E0FEA3E0EE30E70E90808583
:1008F800A3E0FF908085EEF0A3EFF0908085E0FC08
:10090800A3E0FDE4121208E4FBFA79207841121101
:10091800669080751217F87B017A8079759081024C
:10092800E4F0A37402F07F397E211222D37B017A8E
:100938008079DB908102E4F0A304F07F237E21120A
:1009480022D37B017A8079DD908102E4F0A304F060
:100958007F257E211222D37B017A807985908102BE
:10096800E4F0A304F07F277E211222D37B017A8052
:1009780079DF908102E4F0A304F07F297E2112221E
:10098800D37B017A8079E1908102E4F0A304F07FBF
:10099800317E211222D37B017A8079E3908102E4AF
:1009A800F0A304F07F337E211222D37B017A807971
:1009B800E5908102E4F0A304F07F357E211222D372
:1009C800E4908085F0A3F0020A79020A79020A7994
:1009D8009080E7E0FEA3E064634E702E7BFF7A24EC
:1009E8007929908102F0A37404F07F967E20122268
:1009F800D37F147E001229B7E4908173F0A3F07FAF
:100A0800807E25FDFC12000380679080E7E0FEA34E
:100A1800E064624E702E7BFF7A247931908102F077
:100A2800A37404F07F967E201222D37F147E0012D6
:100A380029B7E4908173F0A3F07F807E25FDFC1236
:100A48000003802D7BFF7A247939908102E4F0A39A
:100A58007404F07F967E201222D37F147E00122920
:100A6800B7E4908173F0A3F07F807E25FDFC12002F
:100A780003E4908173F0A3F0908013F0A3F0A3F047
:100A8800A3F0908015E0FEA3E0C39440EE940050DC
:100A98001C908015E0A3E02425F58274813EF5833F
:100AA800E4F090801575F0011216DC80D590812352
:100AB8007401F090800DE06003020F68908171E08E
:100AC800FEA3E0C39409EE94004007E4908171F01E
:100AD800A3F07F0F7E001229B7908171E0A3E07523
:100AE800F00AA42422F9E4FAFB787C7C00FDFE7F5E
:100AF8000A12163C7B017A817971908102E4F0A395
:100B080004F07F007E201222D3787EE608E67898EB
:100B1800F67B007A00797E908102E4F0A304F0FF6E
:100B28007E201222D37B007A007980908102E4F043
:100B3800A304F07F027E201222D37898E6B403182B
:100B48007882E6FE08E625E0FFEE33FEEF2405FF97
:100B5800E43E780FF608A6077898E6B41007780FF1
:100B680076000876087898E6B40507780F760008C6
:100B780076087898E6B40607780F7600087608783D
:100B880098E6B40F07780F76000876087B007A009D
:100B9800790F908102E4F0A37402F07F037E2012A3
:100BA80022D37B007A00797C908102E4F0A304F0E0
:100BB8007F047E201222D39080091218040002714B
:100BC8000090800D7401F0E47896F608F6FB7A0040
:100BD80079969080EEF0A304F07F797E2012260C9F
:100BE8007B017A8079479080EEE4F0A304F07F647B
:100BF8007E2012260C7B017A8079CD9080EEE4F07D
:100C0800A304F07F737E2012260C9080D1E0FEA30F
:100C1800E0FF908047E0FCA3E0C39FEC9E400E906D
:100C280080D1E0A3E0908047EEF0A3EFF0908047FA
:100C3800E0FEA3E0FF7886A60608A607908047E0B6
:100C4800FEA3E0FF08A60608A607908047E0FEA3DB
:100C5800E0FF08A60608A607908047E0FEA3E0FF8D
:100C680008A60608A6079080CDE0FEA3E0FF08A628
:100C78000608A6077896E608E65402FF908049E43D
:100C8800F0A3EFF018E608E65404FFA3E4F0A3EF9E
:100C9800F018E608E65408FFA3E4F0A3EFF018E61E
:100CA80008E65410FFA3E4F0A3EFF018E608E654B2
:100CB80020FF90805DE4F0A3EFF018E608E65440CA
:100CC800FF908059E4F0A3EFF0908049E0FEA3E0A4
:100CD800FFEEC313EF135401FF908051E4F0A3EF2C
:100CE800F090804BE0FEA3E07802CEC313CE13D879
:100CF800F95401FF908053E4F0A3EFF090804DE0A9
:100D0800FEA3E07803CEC313CE13D8F95401FF90A5
:100D18008055E4F0A3EFF090804FE0FEA3E0FFEEF3
:100D2800C4F854F0C868EFC4540F485401FF9080C9
:100D380057E4F0A3EFF0A3E0FEA3E07806CEC313D8
:100D4800CE13D8F95401FF90805BE4F0A3EFF07B59
:100D5800017A807951908102E4F0A304F07F057E46
:100D6800211222D37B017A807953908102E4F0A387
:100D780004F07F077E211222D37B017A8079559077
:100D88008102E4F0A304F07F097E211222D37B01C3
:100D98007A807957908102E4F0A304F07F117E21D4
:100DA8001222D37B017A80795B908102E4F0A3045C
:100DB800F07F137E211222D390805BE0FEA3E064D3
:100DC800014E701F90800EE070197824F6087605A1
:100DD80008F608F60876FF08F604F0A312180400CF
:100DE80000000090805BE0FEA3E064014E703A9042
:100DF800800EE0B401337FA07EBB7D0D7C00A31282
:100E080017ECC31217BC4021782476000876050831
:100E180076000876010876FF08760090800E740147
:100E2800F0A31218040000000090805BE0FEA3E02D
:100E38004E70207824F608760F08F608F608F608AB
:100E4800760808760108F690800EF0A312180400C0
:100E58000000007896E608E6540118760008F67B4C
:100E6800007A00799418E608E69080EDF0E4FD1227
:100E780027E57B007A007994908049E0A3E0908090
:100E8800EDF07D011227E57B007A00799490804B84
:100E9800E0A3E09080EDF07D021227E57B007A0068
:100EA800799490804DE0A3E09080EDF07D031227C7
:100EB800E57B007A00799490804FE0A3E09080ED84
:100EC800F07D041227E57B007A00799490805DE03C
:100ED800A3E09080EDF07D051227E57B007A00798C
:100EE80094908059E0A3E09080EDF07D061227E50C
:100EF80090805DE0FEA3E07805CEC313CE13D8F949
:100F08005401FF90805DE4F0A3EFF07B007A007954
:100F180096908102E4F0A304F07F757E201222D31C
:100F28007B017A80795D908102E4F0A304F07F6010
:100F38007E201222D37B007A00797CC002C0017A1D
:100F48000079869080EC1218559080EF7408F0D0E4
:100F580001D002121D349081771218040007A120D5
:100F68009080091217E074FFFBFAF9F81217A190A4
:100F780080091217F890800F1217E0E47B01FAF944
:100F8800F81217A190800F1217F890800DE06401F5
:100F9800600302019A908123E0B4013D7BFF7A242B
:100FA8007940908102E4F0A37409F07F427E201218
:100FB80022D3908171E475F0011216DCE490800D63
:100FC800F0908123F09080091218040002710090BB
:100FD80081771218040007A120E4FFFEFDFC908031
:100FE800091217ECC31217BC600302019A7BFF7A3F
:100FF800247952908102F0A37409F07F427E201276
:1010080022D3E4908015F0A3F0908015E0FEA3E0D1
:10101800C39430EE9400501C908015E0A3E0241790
:10102800F58274803EF583E4F090801575F0011226
:1010380016DC80D5908171E475F0011216DCE4901D
:10104800800DF0908123F09081771218040007A199
:101058002002019A22EC4D6011E8497017ED33EC3B
:101068003304600DE4FCFFFEFD22E933E83304702D
:10107800F80212AD12127858046009E4CC248150A9
:10108800062850090212B72840030212B4C0E0EB48
:101098004A7044B98006D0E0FB0212A3EF4E701CE0
:1010A800BD8008EBFFEAFEE9FD80EBE98DF0A4FEC8
:1010B800E5F0021146E9CDF9EAFEEBFFEF89F0A46D
:1010C800FCE5F0CE89F0A42EFFE435F0CD89F0A43C
:1010D8002DFEE435F08067EF4E7005BD80D780C3E4
:1010E800EF8BF0A4ACF0EE8BF0A42CFCE435F0F818
:1010F800EF8AF0A42CE5F038FCE433CB8DF0A42C77
:10110800FCE5F03BF8EE8AF0A42CFCE5F038F8E4B6
:1011180033CF89F0A42CFCE5F038CF3400CE89F029
:10112800A42FFFE5F03EFEE433C98DF0A42EFEE5C2
:10113800F039CD8AF0A42FFFE5F03EFEE43DFD3303
:10114800D0E0FB50070BBB000F0212B7EC2CFCEFF2
:1011580033FFEE33FEED33FD02128F0212B7EC5D62
:10116800046005E8590470030212AD12127858049D
:1011780060F6EC4860F2EC7004FDFEFF22C860DB0C
:101188002481C85009C398600250060212B49850CE
:10119800CAF582E9294B4A7005AB820212A375F0A1
:1011A800007C1A7880C3EF9BEE9AED99400DC3EF4F
:1011B8009BFFEE9AFEED99FDE842F0DC23ACF0D0FF
:1011C800E0FFD0E0FED0E0FDAB8220E7101BEB6033
:1011D800BAEC2CFCEF33FFEE33FEED33FD02128F39
:1011E800E803F830E705C0F075F000EF2FFFEE33A5
:1011F800FEED33FD40B830E7C280AA75F020800EBE
:1012080075F010800575F0087D007E007F00339230
:10121800D530D5031217AEEC334010EF33FFEE3361
:10122800FEED33FDEC33FCD5F0ED22E5F0247EA293
:10123800D513CC92E7CDCEFF22EDD2E7CD33EC33F8
:1012480092D524814006E4FFFEFDFC22FCE4CFCECB
:10125800CDCC24E0501174FF80EDC3CC13CCCD135A
:10126800CDCE13CECF13CF0470F030D5DE0217AE3B
:10127800E9D2E7C933E833F892D5EDD2E7CD33ECBC
:1012880033FC5002B2D522EC30E7100FBF000C0E31
:10129800BE00080DBD00040BEB6014A2D5EB13FCD7
:1012A800ED92E7FD2274FFFCFDFEFF22E480F8A228
:1012B800D574FF13FC7D80E480EFF920E73624F92C
:1012C80050037907E4F42402FBE5821582700215C5
:1012D80083DBF6E024FB501BE96014E4F0E582159B
:1012E8008270021583E004F0B40A08E4F0D9EE74C1
:1012F80001F00A22C2D522ED33EC3392D5FA602AE6
:10130800B4FF33EDC2E77BFF60067A137924E42249
:101318007A13792D20D5047A137928224E614E004C
:101328002B494E46002D494E4600E47A08F0A3DAD0
:10133800FC7B00740722C083C082ECC0E0EDC0E0F3
:10134800EEC0E0EFC0E0EA75F010A4CAABF075F0AB
:101358004DA42BFBE435F0FCEA2410FAEB34C5FB72
:10136800EC34D9FCEDC2E7FF75F056A4F42411C59E
:10137800F0F434C58FF0A42AE5F03BE43CF020E714
:101388001412152CD0E0FFD0E0FED0E0FDD0E0FC38
:101398001211668014F40412152CD0E0FFD0E0FE80
:1013A800D0E0FDD0E0FC12105DD082D083E0FAEDF1
:1013B800D2E7CD33EC332482FBE4C3CF33CFCE3333
:1013C800CECD33CD33DBF37B0775F00A846004F0B0
:1013D800A31B0AE5F0F0A38FF0740AA4FFACF08E0B
:1013E800F0740AA42CFEACF050010C8DF0740AA421
:1013F8002CFDE435F0F0A3DBDE7407220212ADE821
:101408006480F8E933E83360110460F0ED33EC33BD
:101418007009E8FCE9FDEAFEEBFF220460DED3EB8D
:101428009FEA9EE99DE8C2E78CF0C2F795F0400C70
:10143800E8CCF8E9CDF9EACEFAEBCFFB12127885C1
:10144800D0F05804700320D5B3E80470075002B2F6
:10145800D50212B792D5EC0460F7E4CCC0E0C3988B
:10146800F8603B94186008400DD0E0FB02128FE44E
:10147800FBFAC9FC8028E830E406E4C9FBE4CAFCAE
:10148800E830E305E4C9CACBFCE854076010F8C3A8
:10149800E913F9EA13FAEB13FBEC13FCD8F130F576
:1014A8002FC3E49CFCEF9BFFEE9AFEED99FDD0E084
:1014B800FBEF4E4D4C701222DB030212B4EC2CFCF5
:1014C800EF33FFEE33FEED33FDED30E7EB02128F25
:1014D800EF2BFFEE3AFEED39FDD0E0FB50130BBBCE
:1014E80000030212B7ED13FDEE13FEEF13FFEC132A
:1014F800FC02128F3F8000004120000042C800001B
:10150800447A0000461C400047C350004974240038
:101518004B1896804CBEBC205A0E1BCA6753C21C7F
:10152800749DC5AEFB60065407601C232312155A30
:10153800EB5438600912154612155512105DECF877
:10154800EDF9EEFAEFCB22EB12155580F154380382
:10155800241C9014FCFE93FC0EEE93FD0EEE930EED
:10156800CE93FF22E709F608DFFA8046E709F2087A
:10157800DFFA803E88828C83E709F0A3DFFA8032A5
:10158800E309F608DFFA8078E309F208DFFA8070E9
:1015980088828C83E309F0A3DFFA806489828A83D6
:1015A800E0A3F608DFFA805889828A83E0A3F2086C
:1015B800DFFA804C80D280FA80C680D4806980F2BD
:1015C8008033801080A680EA809A80A880DA80E242
:1015D80080CA803389828A83ECFAE493A3C8C582DF
:1015E800C8CCC583CCF0A3C8C582C8CCC583CCDF22
:1015F800E9DEE7800D89828A83E493A3F608DFF9A0
:10160800ECFAA9F0EDFB2289828A83ECFAE0A3C800
:10161800C582C8CCC583CCF0A3C8C582C8CCC58355
:10162800CCDFEADEE880DB89828A83E493A3F208D0
:10163800DFF980CC88F0EF60010E4E60C388F0EDD2
:101648002402B4040050B9F582EB2402B40400501B
:10165800AF23234582239015BC73BB010689828A78
:1016680083E0225002E722BBFE02E32289828A83BA
:10167800E49322BB010CE58229F582E5833AF583E0
:10168800E0225006E92582F8E622BBFE06E925821B
:10169800F8E222E58229F582E5833AF583E493228C
:1016A800BB010689828A83F0225002F722BBFE0121
:1016B800F322F8BB010DE58229F582E5833AF5832B
:1016C800E8F0225006E92582C8F622BBFE05E92586
:1016D80082C8F222C5F0F8A3E028F0C5F0F8E58248
:1016E800158270021583E038F022BB010A89828ACC
:1016F80083E0F5F0A3E022500687F009E71922BB42
:10170800FE07E3F5F009E3192289828A83E493F559
:10171800F074019322BB0110E58229F582E5833A32
:10172800F583E0F5F0A3E0225009E92582F886F078
:1017380008E622BBFE0AE92582F8E2F5F008E22273
:10174800E5832AF583E993F5F0A3E99322BB010A1F
:1017580089828A83F0E5F0A3F0225006F709A7F002
:101768001922BBFE06F3E5F009F31922F8BB0111B3
:10177800E58229F582E5833AF583E8F0E5F0A3F000
:10178800225009E92582C8F608A6F022BBFE09E91D
:101798002582C8F2E5F008F222EF2BFFEE3AFEEDC3
:1017A80039FDEC38FC22C3E49FFFE49EFEE49DFD76
:1017B800E49CFC22EB9FF5F0EA9E42F0E99D42F0A2
:1017C800E89C45F022E8600FECC313FCED13FDEE36
:1017D80013FEEF13FFD8F122E0FCA3E0FDA3E0FE27
:1017E800A3E0FF22E0F8A3E0F9A3E0FAA3E0FB22DC
:1017F800ECF0A3EDF0A3EEF0A3EFF022A88285832E
:10180800F0D083D08212181B12181B12181B121842
:101818001BE473E493A3C583C5F0C583C8C582C818
:10182800F0A3C583C5F0C583C8C582C822E0FBA361
:10183800E0FAA3E0F922F8E0FBA3A3E0F925F0F031
:10184800E582158270021583E0FA38F022EBF0A3E6
:10185800EAF0A3E9F022D083D082F8E493701274FE
:101868000193700DA3A393F8740193F5828883E420
:10187800737402936860EFA3A3A380DFD083D08240
:10188800F8E4937012740193700DA3A393F8740194
:1018980093F5828883E473740293B5F00674039316
:1018A8006860E9A3A3A3A380D8E50824ECF582E443
:1018B8003480F583E00508229080E93007039080A2
:1018C800ECE475F00112183E0216622000E97F2E42
:1018D800D2008018EF540F2490D43440D4FF300441
:1018E8000BEF24BFB41A0050032461FFE50960021E
:1018F8001509050CE50C7002050B30070E9080E900
:10190800E475F00112183EEF0216A8022A007403CB
:10191800D2078003E4C207F5089080E9121855E45D
:10192800F509F50BF50CE50960077F201218F4801E
:10193800F5750AFFC201C200C202C203C205C2068F
:10194800C2081218C0FF700D3007057F0012190574
:10195800AF0CAE0B22B4255FC2D5C2041218C0FF6B
:1019680024D0B40A00501A75F00A780930D5050851
:10197800B6FF0106C6A426F620D5047002D203805D
:10198800D924CFB41A00EF5004C2E5D204021BF7E1
:10199800D20180C6D20080C0D20280BCD2D580BA23
:1019A800D20580B47F201218F42002077401B5090B
:1019B8000040F11218B1FF1218F402192ED208D201
:1019C8000680951218B1FB1218B1FA1218B1F94A2B
:1019D8004B700679F57A1C7BFF20022EE509602AF8
:1019E8007E008E8275830012167B60060EEE650AF5
:1019F80070F0C2D5EBC0E0EAC0E0E9C0E0EE121C2E
:101A080058D0E0F9D0E0FAD0E0FB121662FF60AAE5
:101A1800EBC0E0EAC0E0E9C0E01218F4D0E024012D
:101A2800F9D0E03400FAD0E0FBE50A0460DCD50A1E
:101A3800D98087D20280A2121C3A60F7E50A7001A9
:101A4800041212C2A90A600DE50A600914F50A1207
:101A58001CE2EF60F3EA30E702F404C3995079EA34
:101A6800F4250A0430E701E404F50A800D121C3A53
:101A780060C1EA050A250A1212C2EA908118F030FC
:101A8800E701E4250A04D50A0420050114121C58AC
:101A9800E4C0E0121CE2908118E0601320E707140C
:101AA800F01218DC802204F0D0E014C0E07F0012AD
:101AB80018DCE50A60071218D3150A800B300503F5
:101AC8001218D3D0E002192ED0E00480C4121C3AB8
:101AD800609EE50A041212C2908118EAF0E50A2015
:101AE80005026001042404121C5874FF04C0E012AB
:101AF8001CE21218DCE50A20050260031218D3D094
:101B0800E0B50AE87F451218E6908118E07F2B308F
:101B1800E7047F2DF404C0E01218F4D0E075F00A51
:101B280084C0F01218DDD0E01218DD02192E7910E9
:101B380080027908C206C2088008D2D5790A8004D2
:101B4800790AC2D5E50A047002F50AE4FAFDFEFF37
:101B58001218B1FC7B082001131218B1FD7B10305C
:101B6800000A1218B1FE1218B1FF7B20EC3382D59F
:101B780092D55013C3E43000069FFFE49EFEE42094
:101B880001039DFDE49CFCE4CBF8C201EC700CCF92
:101B9800CECDCCE824F8F870F38017C3EF33FFEE0E
:101BA80033FEED33FDEC33FCEB33FB994002FB0FC6
:101BB800D8E9EB300105F8D0E0C448B201C0E00A2A
:101BC800EC4D4E4F78207B0070C2EAB50A0040BC4D
:101BD800C0E0121C5AD0F0D0E0200104C4C0E0C418
:101BE800B201C0F01218DDD0F0D5F0EB02192E12B8
:101BF800185E19CB531B3658199C4C1998421B3A3E
:101C08004F1B42441B424919B1431B48551A75469C
:101C18001AD5451A3F471D155019A02D19A42E197C
:101C2800C72B19A82319C5201CFE2A1960480000D3
:101C380019BFE50AB4FF03750A061218B1FC121899
:101C4800B1FD1218B1FE1218B1FF9081110212FFF6
:101C5800790AA2D5200314300509B910020404B981
:101C6800080104A2D520060250010420026892024D
:101C7800B509005034C0E07F203003197F30A2023C
:101C880072067205500F121CB1C202C206C205C20A
:101C9800087F30800F300503E9C0E01218F43005E2
:101CA80003D0E0F9D0E0B509CC3005177F30B91082
:101CB8000C1218F47F583004077F788003B90803A2
:101CC8001218F43002057F2D0218F47F202008F83E
:101CD8007F2B2006F322920280CF7F00B4070050AA
:101CE8000B2411F582E43481F583E0FF22286E7518
:101CF8006C6C2900D2011218B13001F8C2017809C0
:101D080030D50108F60219602D504349581218B110
:101D18002403B405004001E4901D10931218E574E3
:101D28003A1218E5D203750904021B369080E912AD
:101D380018559080E91218351216F29080F0F0903C
:101D480080E912183590000212171D9080F1F0906A
:101D580080E912183590000212171D640345F070CF
:101D68004A9080E912183590000412171DE5F0908A
:101D780080F2F09080E912183590000412171D9037
:101D880080F3F09080E912183590000612171DE5CF
:101D9800F09080F4F09080E9121835900006121740
:101DA8001D9080F5F09081147406F09080E9121867
:101DB8003590000212171D640545F0704A9080E9BD
:101DC80012183590000412171DE5F09080F2F0907B
:101DD80080E912183590000412171D9080F3F090D6
:101DE80080E912183590000612171DE5F09080F46E
:101DF800F09080E912183590000612171D9080F5B2
:101E0800F09081147406F09080E912183590000261
:101E180012171D640645F0704A9080E91218359033
:101E2800000412171DE5F09080F2F09080E9121876
:101E38003590000412171D9080F3F09080EC121872
:101E48003590000C12171DE5F09080F4F09080ECAE
:101E580012183590000E12171D9080F5F09081141D
:101E68007406F09080E912183590000212171D646C
:101E78000F45F0706F9080E9121835900004121722
:101E88001DE5F09080F2F09080E91218359000047A
:101E980012171D9080F3F09080E912183590000613
:101EA80012171DE5F09080F4F09080E91218359033
:101EB800000612171D9080F5F09080E912183590F1
:101EC800000812171DE5F09080F6F09080E91218CE
:101ED8003590000812171D9080F7F090811474084F
:101EE800F0021FE19080E912183590000212171DC8
:101EF800641045F06003021FE19080EFE025E09058
:101F08008115F09080E912183590000412171DE52C
:101F1800F09080F2F09080E91218359000041217C2
:101F28001D9080F3F09080EFE0E49080F4F09080D2
:101F3800EFE09080F5F0908115E09080F6F0E49065
:101F48008112F0A3F09080EFE0FF908112E0FCA3F3
:101F5800E0C39FEC94005077908112E0FEA3E02547
:101F6800E0FFEE33FE9080EC1218358F828E8312DC
:101F7800171DE5F0FD908112E0FEA3E025E0FFEEDD
:101F880033FE74F72FF58274803EF583EDF090816F
:101F980012E0FEA3E025E0FFEE33FE9080EC12187D
:101FA800358F828E8312171DFD908112E0FEA3E00B
:101FB80025E0FFEE33FE74F82FF58274803EF5833A
:101FC800EDF0908112E475F0011216DC021F4D90BD
:101FD8008115E02407908114F07B017A8079F090D4
:101FE8008114E0FD122506908110EEF0A3EFF09029
:101FF8008110E0A3E0FF908114E024F1F582E4343D
:1020080080F583EFF0908110E0FEA3E0EEFF908171
:1020180014E024F0F582E43480F583EFF090811425
:10202800E02402F07B017A8079F0E0FD7C0012293F
:1020380035229080E91218559080ECECF0A3EDF071
:102048009080E9121835121662FF9080F9E4F0A327
:10205800EFF09080E912183590000112167BFF907E
:1020680080FBE4F0A3EFF07B017A8079F99081029C
:10207800E4F0A304F07F657E201222D37B017A80EE
:1020880079FB908102E4F0A304F07F677E2012229E
:10209800D39080ECE0FEA3E0C39404EE94005039A2
:1020A800E49080F7F0A3F09080F7E0FEA3E0C394FB
:1020B80040EE940050209080E91218359080F7E0A7
:1020C800A3E0F5828E83E41216BA9080F7E475F0E7
:1020D800011216DC80D17F63229080E912183590B6
:1020E80080ECE0FEA3E024FEFFEE34FF8F82F58350
:1020F80012167BFE9080E91218359080ECE0FCA364
:10210800E024FFFDEC34FF8D82F58312167BFDEE93
:10211800EDFF9080F1EEF0A3EFF09080E912183512
:102128009080ECE0A3E024FEFD1225069080F3EEFB
:10213800F0A3EFF09080F3E0FEA3E0FF9080F1E0E1
:10214800FCA3E06F7002EC6E6039E49080F7F0A3B6
:10215800F09080F7E0FEA3E0C39440EE9400502096
:102168009080E91218359080F7E0A3E0F5828E831D
:10217800E41216BA9080F7E475F0011216DC80D1EB
:102188007F62229080E9121835121662FF9080EE65
:10219800121835E48FF01217559080E9121835900F
:1021A800000112167BFF9080EE121835900002E4B1
:1021B8008FF01217749080EE1218359000021217E3
:1021C8001D640345F060030222949080E9121835DB
:1021D80090000212167BFF9080EE121835900004D2
:1021E800E48FF0121774E49080F5F0A3F09080EE7D
:1021F80012183590000412171DFF9080F5E0FCA31B
:10220800E0C39FEC95F0504B9080E9121835908010
:10221800F5E0FEA3E02403FFE43E8F82F583121667
:102228007BFD9080EE121835E92406F9E43AFA901D
:1022380080F5E0A3E025E0FFEE33FEE92FF9EA3E62
:10224800FAE48DF01217559080F5E475F001121636
:10225800DC809AE49080F7F0A3F09080F7E0FEA38A
:10226800E0C39440EE940050209080E91218359015
:1022780080F7E0A3E0F5828E83E41216BA9080F727
:10228800E475F0011216DC80D17F01229080EE12F5
:10229800183590000212171D640545F070037F0180
:1022A800229080EE12183590000212171D64104516
:1022B800F070037F01229080EE1218359000021210
:1022C800171D640F45F070027F01229080FDEEF02B
:1022D800A3EFF0A31218559080FDE0A3E0540190FD
:1022E8008104F09080FDE0FEA3E0FFEEC313FEEF53
:1022F80013FF9080FDEEF0A3EFF0E4F5F19080FD80
:10230800E0FEA3E0EEF5F29080FDE0A3E0F5F375C2
:10231800F40175F88F30FCFD908104E0603C9081F9
:1023280002E0FEA3E0D39400EE9400402D75F883FC
:102338009080FFE475F00112183E121662F5FC90C9
:1023480080FFE475F00112183E121662F5FDD2FE08
:1023580090810274FFF5F01216DC75F88F908102F7
:10236800E0FEA3E0C39402EE9400404B9080FFE4AB
:1023780075F00112183E121662F5FA9080FFE475A6
:10238800F00112183E121662F5FB9080FFE475F01A
:102398000112183E121662F5FC9080FFE475F001F8
:1023A80012183E121662F5FDD2FE90810274FF7576
:1023B800F0FE1216DC80A6908102E0FEA3E04E60DB
:1023C8002375F88C9080FFE475F00112183E121600
:1023D80062F5FA9080FFE475F00112183E12166259
:1023E800F5FBD2FEE4F5F8222530325820002020F3
:1023F80020202020202020202020202020202020D5
:102408002020202020202020202020202020004FB5
:102418004B202020200A00444154415F4552520A73
:10242800004C656E6768740A004352432020200AF6
:10243800004552524F520A005265636569766564D9
:1024480020202020202020200A0054696D656F7507
:10245800742020202020202020200A0000010005D0
:102468000000000000000002000300000006000059
:10247800000200100000000100000003000300003B
:102488000001000000040003000000010000000536
:102498000003000000010000000600030000000126
:1024A800000000070003000000010000000800030E
:1024B800000000070000000000000000000000000D
:1024C8000000000000000000000000000000000004
:1024D80000000000000000000000000000000000F4
:1024E80000000000000000000000000000000000E4
:1024F80000000000000000000000000000009081C3
:1025080016121855908119EDF074FFA3F0A3F0E4AA
:10251800908120F0A3F0908119E0FF908120E0FCE9
:10252800A3E0C39FEC940040030225CB90811612D0
:102538001835908120E0FEA3E0F5828E8312167B89
:10254800FF90811AE0FCA3E0FDECFEEF6DFF9081A7
:102558001AEEF0A3EFF0E4908122F0908122E0C31C
:102568009408505290811AE0A3E05401FF90811E14
:10257800E4F0A3EFF090811AE0FEA3E0FFEEC313AE
:10258800FEEF13FF90811AEEF0A3EFF090811EE0AA
:10259800FEA3E04E601890811AE0FEA3E0FFEE640F
:1025A800A0FEEF6401FF90811AEEF0A3EFF0908196
:1025B80022E004F080A5908120E475F0011216DC79
:1025C80002251E90811AE0FEA3E0EEFFA3E4F0A32B
:1025D800EFF090811AA3E0FEA3E0FCA3E0FDEE4C2F
:1025E800FEEDFF90811AEEF0A3EFF090811AE0FE65
:1025F800A3E0FF90811AEEF0A3EFF090811AE0FEBD
:10260800A3E0FF229080E9EEF0A3EFF0A3121855A3
:102618009080E9E0A3E054019080F0F09080E9E038
:10262800FEA3E0FFEEC313FEEF13FF9080E9EEF088
:10263800A3EFF0E4F5F19080E9E0FEA3E0EEF5F217
:102648009080E9E0A3E0F5F375F40175F8AF30FC8C
:10265800FD9080EEE0FEA3E0D39400EE94005003DA
:102668000226F9D2FE20FEFD9080F0E0703D9080B9
:10267800EEE0FEA3E0D39400EE9400402E9080EBB1
:10268800E475F00112183EE5FA1216A89080EBE402
:1026980075F00112183EE5FB1216A89080F074013F
:1026A800F09080EE74FFF5F01216DC9080F0E0B444
:1026B800019F9080EEE0FEA3E0D39400EE940040EA
:1026C800909080EBE475F00112183EE5FC1216A814
:1026D8009080EBE475F00112183EE5FD1216A8E4AF
:1026E8009080F0F09080EE74FFF5F01216DC022670
:1026F80059E4F5F822C0E0C0F0C083C082C0D075AC
:10270800D000C000C004C005C006C007209803025E
:1027180027D0C2989081771218040007A1209080D2
:1027280000E599F0908173E0FEA3E0EE30E7030244
:1027380027D0908173E0FEA3E0C39440EE9400504C
:102748003D908000E0FF908173E0FCA3E02425F534
:102758008274813CF583EFF0908173E475F0011287
:1027680016DC908173E0FEA3E064024E701990813C
:1027780026E030E712780F76000876058009908108
:1027880073E4F0A3F08041908124E0FF780FE6FC29
:1027980008E6FDC3EF9DE49C5003E004F09081241B
:1027A800E0FF780FE6FC08E6FDEFB5051BE4B5048D
:1027B80017908173E0FEA3E0FFEE4480908173F0F0
:1027C800A3EFF0908124E4F0D007D006D005D00420
:1027D800D000D0D0D082D083D0F0D0E0329080E941
:1027E8001218559080ECEDF0E0C394105063A3E00C
:1027F800602F9080E91218351216F2FDACF0908027
:10280800ECE0FF74017E00A807088005C333CE33CF
:10281800CED8F9FFEC4EFEED4FFFEE8FF0121755B4
:10282800229080E91218351216F2FDACF09080EC77
:10283800E0FF74017E00A807088005C333CE33CEBD
:10284800D8F9F4FFEEF45CFEED5FFFEE8FF012179F
:1028580055229080ED1217F843C94053B7CF43B7BC
:102868001075D88075985053877F9080ED1217E0C7
:10287800E4121203A804A905AA06AB077F007EE0AC
:102888007D447C4A121166121241C3E49FFF74040E
:102898009EFEE4FCFD9080ED1217F89080ED121773
:1028A800E078081217CDEFE48FBA9080ED1217E0A8
:1028B800EFE48FAAD2ACD2AF908173F0A3F09081ED
:1028C80024F022C0E0C0F0C083C082C0D075D00020
:1028D800C000C001C002C003C004C005C006C007D4
:1028E800C2C69081771217E0EC4D4E4F601590816B
:1028F800771217E074FFFBFAF9F81217A1908177A5
:102908001217F8780DE6FE08E64E6006E61618700F
:102918000116D007D006D005D004D003D002D001CC
:10292800D000D0D0D082D083D0F0D0E032908116C1
:10293800121855908119ECF0A3EDF0C2ACE4A3F0A5
:10294800A3F0908119E0FEA3E0FFA3E0FCA3E0C39D
:102958009FEC9E502790811612183590811BE0FE3F
:10296800A3E0F5828E8312167BF5993099FDC29902
:1029780090811BE475F0011216DC80C6D2AC22C22D
:10298800AFC2D3C2D4E4F58E75C870F593759401BF
:10299800759502F5C9F5F875F901F5A843B830F54C
:1029A8009AF5A9F5B953C9FDD2BDD2BCD2AF2290D0
:1029B80080E9EEF0A3EFF09080E9E0FEA3E0FF7875
:1029C8000DA60608A607780DE6FE08E64E70F72263
:1029D80075C870E4F5CDF5CC75CBBC75CACD43A8E8
:1029E80020D2C8D2AF2290811AEFF0C2ACE0F5999C
:1029F8003099FDC299D2AC22908119EFF0E0FF1214
:082A080029EE908119E0FF2284
:00000001FF
