:1000000002002E9080ED1217C3C2ACE4F598F5BA49
:0F001000F5AA53877F9080ED1217AB1228252297
:030023000226C8EA
:10002B00022896787FE4F6D8FD7581980200750258
:10003B000103E493A3F8E493A34003F68001F208D1
:10004B00DFF48029E493A3F85407240CC8C333C40A
:10005B00540F4420C8834004F456800146F6DFE475
:10006B00800B01020408102040809000BAE47E014E
:10007B009360BCA3FF543F30E509541FFEE493A3E8
:10008B0060010ECF54C025E060A840B8E493A3FAFA
:10009B00E493A3F8E493A3C8C582C8CAC583CAF086
:1000AB00A3C8C582C8CAC583CADFE9DEE780BE0222
:1000BB000D000044817B0000000045816A010203B2
:1000CB00040542817300014281790004418169007A
:1000DB0044816F00000000428175000041812700C0
:0C00EB00020F0000001229521229A3226B
:1000F800FFFF4457494E54350200757BFF7A247937
:100108002F78227C007D007E007F5A1216077BFF25
:100118007A24798978017C807D017E007F08121617
:10012800079080091217CF000000007BFF7A24791E
:100138009178177C807D017E007F301216077BFF47
:100148007A2479C178867C007D007E007F101216A3
:1001580007E49080DBF0A3F0A3F0A3F09080EBF02D
:10016800A3F01200F07F807E257D007C00122825F8
:10017800E4908175F0A3F090800DF090817B1217C8
:10018800CF0007A120E490800EF0A31217CF000043
:100198000000E4FFFEFDFC90817B1217B7C3121725
:1001A80087702290800DE0B4011B908177E0FEA358
:1001B800E04E6011908177E0A3E0FFEE44809081EB
:1001C80077F0A3EFF0908177E0FEA3E0EE20E7035D
:1001D800020A86908177A3E0FFEE547F908013F0A7
:1001E800A3EFF07B017A807913908106E4F0A37481
:1001F80002F07F697E2012229EE490805FF0A3F0D7
:10020800908015F0A3F0908013E0FEA3E0FFA3E038
:10021800FCA3E0C39FEC9E505A90805FE0FEA3E0F1
:100228002417F974803EFA7B01C003C002C0017B29
:10023800FF7A2379BB9080F0121820908015E0FE99
:10024800A3E02429F58274813EF583E0FF9080F3D2
:10025800E4F0A3EFF0D001D002D0031218E19080AF
:100268005FEE8FF01216A7908015E475F001121654
:10027800A780937BFF7A2379C1908106E4F0A37469
:1002880010F0FF7E2012229E7B017A8079179080E1
:100298005FE0FEA3E0FFEEC313FEEF132402FFE4CA
:1002A8003E908106F0A3EFF07F107E2012229EE49C
:1002B800908015F0A3F0908015E0FEA3E0C3943081
:1002C800EE9400501C908015E0A3E02417F582748A
:1002D800803EF583E4F090801575F0011216A78032
:1002E800D590817B1217CF0007A1207B017A8179F5
:1002F80029C002C001908013E0FCA3E0FD7A807958
:100308008B9080F2121820D001D002122005908024
:10031800EBE4F0A3EFF07B017A8079EB908106E4BF
:10032800F0A304F07F717E2012229E9080EBE0FE05
:10033800A3E064014E60030209A37BFF7A2379E2FC
:10034800908106F0A37404F07F967E2012229E907E
:10035800808BE0FEA3E08EF012184F0387000103A4
:1003680087000205A900030628000406A700050760
:1003780026000607A500070824000800000A449084
:10038800808FE0FEA3E0C39402EE940050030205C0
:1003980090A3E0A3E0FEA3E0FCA3E0FDEE4CFEED9D
:1003A800FF9080D1EEF0A3EFF0908099E0A3E0FEFB
:1003B800A3E0FCA3E0FDEE4CFEEDFF9080D3EEF051
:1003C800A3EFF090809DE0A3E0FEA3E0FCA3E0FD96
:1003D800EE4CFEEDFF9080D5EEF0A3EFF09080A1FB
:1003E800E0A3E0FEA3E0FCA3E0FDEE4CFEEDFF90F1
:1003F80080D7EEF0A3EFF090805DE0FEA3E064010B
:100408004E70147B017A8079D7908106F0A304F0AE
:100418007F647E2012229E9080D3E0FEA3E0D394D6
:100428002DEE9400501F9080D974C6F0A37418F074
:100438007B017A8079D9908106E4F0A304F07F1DCE
:100448007E5A12229E9080D3E0FEA3E0D3942DEE34
:100458009400402A9080D3E0A3E09484EE94035063
:100468001D9080D974FCF0A3E4F07B017A8079D9DF
:10047800908106F0A304F07F1D7E5A12229E908080
:10048800D7E0FCA3E0FDE41211D3E4FBFA797A7813
:1004980044121028C004C005C006C0079080D5E0EB
:1004A800FCA3E0FDE41211D3A804A905AA06AB0732
:1004B800D007D006D005D004121131E4FBFA792018
:1004C800784112113190807D1217C39080D3E0FCDF
:1004D800A3E0FDE41211D37BAD7A4B798D783A1203
:1004E8001028C004C005C006C0079080D3E0FCA354
:1004F800E0FDE41211D3A804A905AA06AB07D007AA
:10050800D006D005D004121028E4FBFA797A784492
:100518001211319080851217C37B017A8079D390AC
:100528008106E4F0A304F07F817E2012229E7B01E5
:100538007A8079D7908106E4F0A304F07F837E2047
:1005480012229E7B017A8079D1908106E4F0A3740F
:1005580002F07F077E2012229E7B017A80797D90AF
:100568008106E4F0A37402F07F157E2112229E7B9F
:10057800017A807985908106E4F0A37402F07F19EE
:100588007E2112229E020A447BFF7A2379EA908117
:1005980006E4F0A37406F07F967E2012229E020ADB
:1005A8004490808FE0FEA3E0C39402EE94005003D1
:1005B800020A44A3E0A3E0FEA3E0FCA3E0FDEE4CA6
:1005C800FEEDFF908089EEF0A3EFF0908089E0FEC9
:1005D800A3E0EE30E70E908089A3E0FF908089EEDB
:1005E800F0A3EFF0908089E0FCA3E0FDE41211D3C2
:1005F800E4FBFA792078411211319080651217C313
:100608007B017A807965908106E4F0A37402F07F1B
:10061800857E2012229EE4908089F0A3F0020A448D
:1006280090808FE0FEA3E0C39402EE940050030292
:100638000A44A3E0A3E0FEA3E0FCA3E0FDEE4CFE29
:10064800EDFF908089EEF0A3EFF0908089E0FEA3A3
:10065800E0EE30E70E908089A3E0FF908089EEF00D
:10066800A3EFF0908089E0FCA3E0FDE41211D3E44D
:10067800FBFA792078411211319080691217C37BF7
:10068800017A807969908106E4F0A37402F07F878B
:100698007E2012229EE4908089F0A3F0020A449002
:1006A800808FE0FEA3E0C39402EE94005003020A98
:1006B80044A3E0A3E0FEA3E0FCA3E0FDEE4CFEEDC6
:1006C800FF908089EEF0A3EFF0908089E0FEA3E030
:1006D800EE30E70E908089A3E0FF908089EEF0A3CA
:1006E800EFF0908089E0FCA3E0FDE41211D3E4FB75
:1006F800FA7920784112113190806D1217C37B016D
:100708007A80796D908106E4F0A37402F07F897E87
:100718002012229EE4908089F0A3F0020A4490807F
:100728008FE0FEA3E0C39402EE94005003020A4453
:10073800A3E0A3E0FEA3E0FCA3E0FDEE4CFEEDFF8A
:10074800908089EEF0A3EFF0908089E0FEA3E0EEC0
:1007580030E70E908089A3E0FF908089EEF0A3EF48
:10076800F0908089E0FCA3E0FDE41211D3E4FBFAE9
:10077800792078411211319080711217C37B017A68
:10078800807971908106E4F0A37402F07F917E2055
:1007980012229EE4908089F0A3F0020A4490808F90
:1007A800E0FEA3E0C39402EE94005003020A44A3BF
:1007B800E0A3E0FEA3E0FCA3E0FDEE4CFEEDFF901D
:1007C8008089EEF0A3EFF0908089E0FEA3E0EE30A0
:1007D800E70E908089A3E0FF908089EEF0A3EFF008
:1007E800908089E0FCA3E0FDE41211D3E4FBFA79E0
:1007F8002078411211319080611217C37B017A80F1
:100808007961908106E4F0A37402F07F057E2012DE
:10081800229EE4908089F0A3F0020A4490808FE041
:10082800FEA3E0C39402EE94005003020A44A3E03E
:10083800A3E0FEA3E0FCA3E0FDEE4CFEEDFF9080FC
:10084800DFEEF0A3EFF0908095E0A3E0FEA3E0FCDC
:10085800A3E0FDEE4CFEEDFF9080E1EEF0A3EFF09B
:10086800908099E0A3E0FEA3E0FCA3E0FDEE4CFE3F
:10087800EDFF908089EEF0A3EFF090809DE0A3E07B
:10088800FEA3E0FCA3E0FDEE4CFEEDFF9080E3EE5E
:10089800F0A3EFF09080A1E0A3E0FEA3E0FCA3E0CA
:1008A800FDEE4CFEEDFF9080E5EEF0A3EFF09080BA
:1008B800A5E0A3E0FEA3E0FCA3E0FDEE4CFEEDFF07
:1008C8009080E7EEF0A3EFF09080A9E0A3E0FEA30C
:1008D800E0FCA3E0FDEE4CFEEDFF9080E9EEF0A316
:1008E800EFF07B017A8079E1908106E4F0A304F0CF
:1008F8007F257E2112229E9080E1E0FCA3E0FDECA2
:100908001211D3E4FBFA797A784412113190807984
:100918001217C37B017A807979908106E4F0A37479
:1009280002F07F397E2112229E7B017A8079DF9046
:100938008106E4F0A304F07F237E2112229E7B012E
:100948007A8079E3908106E4F0A304F07F297E2180
:1009580012229E7B017A8079E5908106E4F0A30457
:10096800F07F317E2112229E7B017A8079E7908187
:1009780006E4F0A304F07F337E2112229E7B017AE5
:100988008079E9908106E4F0A304F07F357E211296
:10099800229E020A44020A44020A449080EBE0FEC6
:1009A800A3E064634E702E7BFF7A2379F49081066E
:1009B800F0A37404F07F967E2012229E7F147E009E
:1009C800122982E4908177F0A3F07F807E25FDFCD8
:1009D80012000380679080EBE0FEA3E064624E7033
:1009E8002E7BFF7A2379FC908106F0A37404F07FB4
:1009F800967E2012229E7F147E00122982E4908126
:100A080077F0A3F07F807E25FDFC120003802D7B0C
:100A1800FF7A247904908106E4F0A37404F07F96A9
:100A28007E2012229E7F147E00122982E490817714
:100A3800F0A3F07F807E25FDFC120003E49081770F
:100A4800F0A3F0908013F0A3F0A3F0A3F09080152A
:100A5800E0FEA3E0C39440EE9400501C908015E0A3
:100A6800A3E02429F58274813EF583E4F090801593
:100A780075F0011216A780D59081277401F0908037
:100A88000DE06003020F33908175E0FEA3E0C3948C
:100A980009EE94004007E4908175F0A3F07F0F7E83
:100AA80000122982908175E0A3E075F00AA424223F
:100AB800F9E4FAFB787C7C00FDFE7F0A1216077BBE
:100AC800017A817975908106E4F0A304F07F007EB5
:100AD8002012229E787EE608E67898F67B007A0057
:100AE800797E908106E4F0A304F0FF7E2012229E16
:100AF8007B007A007980908106E4F0A304F07F02FD
:100B08007E2012229E7898E6B403187882E6FE08C2
:100B1800E625E0FFEE33FEEF2405FFE43E780FF60E
:100B280008A6077898E6B41007780F7600087608C4
:100B38007898E6B40507780F76000876087898E67E
:100B4800B40607780F76000876087898E6B40F0799
:100B5800780F76000876087B007A00790F90810676
:100B6800E4F0A37402F07F037E2012229E7B007AB9
:100B780000797C908106E4F0A304F07F047E2012C3
:100B8800229E9080091217CF0002710090800D7488
:100B980001F0E47896F608F6FB7A0079969080F2F0
:100BA800F0A304F07F797E201225D77B017A807923
:100BB800479080F2E4F0A304F07F647E201225D7EA
:100BC8007B017A8079D19080F2E4F0A304F07F73FE
:100BD8007E201225D79080D5E0FEA3E0FF908047C5
:100BE800E0FCA3E0C39FEC9E400E9080D5E0A3E01C
:100BF800908047EEF0A3EFF0908047E0FEA3E0FF7F
:100C08007886A60608A607908047E0FEA3E0FF08BE
:100C1800A60608A607908047E0FEA3E0FF08A60600
:100C280008A607908047E0FEA3E0FF08A60608A6EE
:100C3800079080D1E0FEA3E0FF08A60608A6077883
:100C480096E608E65402FF908049E4F0A3EFF01816
:100C5800E608E65404FFA3E4F0A3EFF018E608E67C
:100C68005408FFA3E4F0A3EFF018E608E65410FFD9
:100C7800A3E4F0A3EFF018E608E65420FF90805DA7
:100C8800E4F0A3EFF018E608E65440FF908059E43A
:100C9800F0A3EFF0908049E0FEA3E0FFEEC313EF6E
:100CA800135401FF908051E4F0A3EFF090804BE0E3
:100CB800FEA3E07802CEC313CE13D8F95401FF90F7
:100CC8008053E4F0A3EFF090804DE0FEA3E07803BA
:100CD800CEC313CE13D8F95401FF908055E4F0A386
:100CE800EFF090804FE0FEA3E0FFEEC4F854F0C8A8
:100CF80068EFC4540F485401FF908057E4F0A3EF05
:100D0800F0A3E0FEA3E07806CEC313CE13D8F954BF
:100D180001FF90805BE4F0A3EFF07B017A807951CA
:100D2800908106E4F0A304F07F057E2112229E7BC9
:100D3800017A807953908106E4F0A304F07F077E5E
:100D48002112229E7B017A807955908106E4F0A3D6
:100D580004F07F097E2112229E7B017A80795790C8
:100D68008106E4F0A304F07F117E2112229E7B010C
:100D78007A80795B908106E4F0A304F07F137E21EA
:100D880012229E90805BE0FEA3E064014E701F90EB
:100D9800800EE070197824F608760508F608F6083B
:100DA80076FF08F604F0A31217CF00000000908029
:100DB8005BE0FEA3E064014E703A90800EE0B4015F
:100DC800337FA07EBB7D0D7C00A31217B7C312171B
:100DD8008740217824760008760508760008760191
:100DE8000876FF08760090800E7401F0A31217CFE2
:100DF8000000000090805BE0FEA3E04E70207824A5
:100E0800F608760F08F608F608F608760808760158
:100E180008F690800EF0A31217CF00000000789615
:100E2800E608E6540118760008F67B007A00799403
:100E380018E608E69080F1F0E4FD1227B07B007A0E
:100E4800007994908049E0A3E09080F1F07D011250
:100E580027B07B007A00799490804BE0A3E09080E3
:100E6800F1F07D021227B07B007A00799490804DD2
:100E7800E0A3E09080F1F07D031227B07B007A00B8
:100E8800799490804FE0A3E09080F1F07D041227E0
:100E9800B07B007A00799490805DE0A3E09080F1C7
:100EA800F07D051227B07B007A007994908059E094
:100EB800A3E09080F1F07D061227B090805DE0FEFF
:100EC800A3E07805CEC313CE13D8F95401FF908060
:100ED8005DE4F0A3EFF07B007A007996908106E458
:100EE800F0A304F07F757E2012229E7B017A807920
:100EF8005D908106E4F0A304F07F607E2012229EBC
:100F08007B007A00797CC002C0017A0079869080E3
:100F1800F01218209080F37408F0D001D002121C4F
:100F2800FF90817B1217CF0007A12090800912172C
:100F3800AB74FFFBFAF9F812176C9080091217C30B
:100F480090800F1217ABE47B01FAF9F812176C9036
:100F5800800F1217C390800DE06401600302019AAC
:100F6800908127E0B4013D7BFF7A24790B908106BC
:100F7800E4F0A37409F07F427E2012229E908175CE
:100F8800E475F0011216A7E490800DF0908127F027
:100F98009080091217CF0002710090817B1217CF41
:100FA8000007A120E4FFFEFDFC9080091217B7C3DB
:100FB800121787600302019A7BFF7A24791D9081BA
:100FC80006F0A37409F07F427E2012229EE49080EE
:100FD80015F0A3F0908015E0FEA3E0C39430EE94E2
:100FE80000501C908015E0A3E02417F58274803E21
:100FF800F583E4F090801575F0011216A780D5905E
:101008008175E475F0011216A7E490800DF09081C7
:1010180027F090817B1217CF0007A12002019A22A6
:10102800EC4D6011E8497017ED33EC3304600DE4C2
:10103800FCFFFEFD22E933E8330470F8021278124F
:10104800124358046009E4CC248150062850090250
:10105800128228400302127FC0E0EB4A7044B98034
:1010680006D0E0FB02126EEF4E701CBD8008EBFF4D
:10107800EAFEE9FD80EBE98DF0A4FEE5F00211112E
:10108800E9CDF9EAFEEBFFEF89F0A4FCE5F0CE89A3
:10109800F0A42EFFE435F0CD89F0A42DFEE435F060
:1010A8008067EF4E7005BD80D780C3EF8BF0A4AC8E
:1010B800F0EE8BF0A42CFCE435F0F8EF8AF0A42CC9
:1010C800E5F038FCE433CB8DF0A42CFCE5F03BF8DC
:1010D800EE8AF0A42CFCE5F038F8E433CF89F0A4CC
:1010E8002CFCE5F038CF3400CE89F0A42FFFE5F0D2
:1010F8003EFEE433C98DF0A42EFEE5F039CD8AF02A
:10110800A42FFFE5F03EFEE43DFD33D0E0FB5007A1
:101118000BBB000F021282EC2CFCEF33FFEE33FE08
:10112800ED33FD02125A021282EC5D046005E859A3
:10113800047003021278121243580460F6EC4860F7
:10114800F2EC7004FDFEFF22C860DB2481C8500960
:10115800C3986002500602127F9850CAF582E929A6
:101168004B4A7005AB8202126E75F0007C1A7880CB
:10117800C3EF9BEE9AED99400DC3EF9BFFEE9AFEED
:10118800ED99FDE842F0DC23ACF0D0E0FFD0E0FEC2
:10119800D0E0FDAB8220E7101BEB60BAEC2CFCEF33
:1011A80033FFEE33FEED33FD02125AE803F830E761
:1011B80005C0F075F000EF2FFFEE33FEED33FD4074
:1011C800B830E7C280AA75F020800E75F01080054F
:1011D80075F0087D007E007F003392D530D503126C
:1011E8001779EC334010EF33FFEE33FEED33FDECAF
:1011F80033FCD5F0ED22E5F0247EA2D513CC92E79E
:10120800CDCEFF22EDD2E7CD33EC3392D524814009
:1012180006E4FFFEFDFC22FCE4CFCECDCC24E0505A
:101228001174FF80EDC3CC13CCCD13CDCE13CECF2C
:1012380013CF0470F030D5DE021779E9D2E7C9334D
:10124800E833F892D5EDD2E7CD33EC33FC5002B257
:10125800D522EC30E7100FBF000C0EBE00080DBD04
:1012680000040BEB6014A2D5EB13FCED92E7FD2212
:1012780074FFFCFDFEFF22E480F8A2D574FF13FC86
:101288007D80E480EFF920E73624F950037907E4FC
:10129800F42402FBE582158270021583DBF6E02454
:1012A800FB501BE96014E4F0E58215827002158397
:1012B800E004F0B40A08E4F0D9EE7401F00A22C29E
:1012C800D522ED33EC3392D5FA602AB4FF33EDC260
:1012D800E77BFF60067A1279EFE4227A1279F82028
:1012E800D5047A1279F3224E614E002B494E4600FE
:1012F8002D494E4600E47A08F0A3DAFC7B00740717
:1013080022C083C082ECC0E0EDC0E0EEC0E0EFC0D8
:10131800E0EA75F010A4CAABF075F04DA42BFBE41D
:1013280035F0FCEA2410FAEB34C5FBEC34D9FCEDBB
:10133800C2E7FF75F056A4F42411C5F0F434C58F44
:10134800F0A42AE5F03BE43CF020E7141214F7D0AF
:10135800E0FFD0E0FED0E0FDD0E0FC1211318014B7
:10136800F4041214F7D0E0FFD0E0FED0E0FDD0E0A6
:10137800FC121028D082D083E0FAEDD2E7CD33EC0E
:10138800332482FBE4C3CF33CFCE33CECD33CD333A
:10139800DBF37B0775F00A846004F0A31B0AE5F011
:1013A800F0A38FF0740AA4FFACF08EF0740AA42C9A
:1013B800FEACF050010C8DF0740AA42CFDE435F05D
:1013C800F0A3DBDE740722021278E86480F8E933C0
:1013D800E83360110460F0ED33EC337009E8FCE9A0
:1013E800FDEAFEEBFF220460DED3EB9FEA9EE99D57
:1013F800E8C2E78CF0C2F795F0400CE8CCF8E9CDEC
:10140800F9EACEFAEBCFFB12124385D0F0580470FC
:101418000320D5B3E80470075002B2D502128292B5
:10142800D5EC0460F7E4CCC0E0C398F8603B9418AE
:101438006008400DD0E0FB02125AE4FBFAC9FC80B8
:1014480028E830E406E4C9FBE4CAFCE830E305E434
:10145800C9CACBFCE854076010F8C3E913F9EA13CA
:10146800FAEB13FBEC13FCD8F130F52FC3E49CFC2A
:10147800EF9BFFEE9AFEED99FDD0E0FBEF4E4D4C51
:10148800701222DB0302127FEC2CFCEF33FFEE33E9
:10149800FEED33FDED30E7EB02125AEF2BFFEE3A8B
:1014A800FEED39FDD0E0FB50130BBB0003021282A6
:1014B800ED13FDEE13FEEF13FFEC13FC02125A3F7F
:1014C8008000004120000042C80000447A00004625
:1014D8001C400047C35000497424004B1896804CA8
:1014E800BEBC205A0E1BCA6753C21C749DC5AEFBF6
:1014F80060065407601C2323121525EB5438600935
:10150800121511121520121028ECF8EDF9EEFAEF69
:10151800CB22EB12152080F1543803241C9014C7F9
:10152800FE93FC0EEE93FD0EEE930ECE93FF22E794
:1015380009F608DFFA8046E709F208DFFA803E88F4
:10154800828C83E709F0A3DFFA8032E309F608DF2B
:10155800FA8078E309F208DFFA807088828C83E3E6
:1015680009F0A3DFFA806489828A83E0A3F608DFA2
:10157800FA805889828A83E0A3F208DFFA804C80D7
:10158800D280FA80C680D4806980F280338010804F
:10159800A680EA809A80A880DA80E280CA803389AF
:1015A800828A83ECFAE493A3C8C582C8CCC583CCED
:1015B800F0A3C8C582C8CCC583CCDFE9DEE7800DBF
:1015C80089828A83E493A3F608DFF9ECFAA9F0ED9F
:1015D800FB2289828A83ECFAE0A3C8C582C8CCC5FD
:1015E80083CCF0A3C8C582C8CCC583CCDFEADEE8CB
:1015F80080DB89828A83E493A3F208DFF980CC88B0
:10160800F0EF60010E4E60C388F0ED2402B40400D0
:1016180050B9F582EB2402B4040050AF232345826D
:101628002390158773BB010689828A83E0225002C2
:10163800E722BBFE02E32289828A83E49322BB016C
:101648000CE58229F582E5833AF583E0225006E924
:101658002582F8E622BBFE06E92582F8E222E58229
:1016680029F582E5833AF583E49322BB0106898252
:101678008A83F0225002F722BBFE01F322F8BB0155
:101688000DE58229F582E5833AF583E8F0225006D4
:10169800E92582C8F622BBFE05E92582C8F222C5E3
:1016A800F0F8A3E028F0C5F0F8E58215827002157D
:1016B80083E038F022BB010A89828A83E0F5F0A32F
:1016C800E022500687F009E71922BBFE07E3F5F090
:1016D80009E3192289828A83E493F5F0740193223D
:1016E800BB0110E58229F582E5833AF583E0F5F040
:1016F800A3E0225009E92582F886F008E622BBFE1D
:101708000AE92582F8E2F5F008E222E5832AF58362
:10171800E993F5F0A3E99322BB010A89828A83F051
:10172800E5F0A3F0225006F709A7F01922BBFE0640
:10173800F3E5F009F31922F8BB0111E58229F582D6
:10174800E5833AF583E8F0E5F0A3F0225009E925AE
:1017580082C8F608A6F022BBFE09E92582C8F2E590
:10176800F008F222EF2BFFEE3AFEED39FDEC38FCE3
:1017780022C3E49FFFE49EFEE49DFDE49CFC22EB73
:101788009FF5F0EA9E42F0E99D42F0E89C45F02280
:10179800E8600FECC313FCED13FDEE13FEEF13FF2F
:1017A800D8F122E0FCA3E0FDA3E0FEA3E0FF22E0E5
:1017B800F8A3E0F9A3E0FAA3E0FB22ECF0A3EDF034
:1017C800A3EEF0A3EFF022A8828583F0D083D08225
:1017D8001217E61217E61217E61217E6E473E493F7
:1017E800A3C583C5F0C583C8C582C8F0A3C583C592
:1017F800F0C583C8C582C822E0FBA3E0FAA3E0F9DC
:1018080022F8E0FBA3A3E0F925F0F0E58215827049
:10181800021583E0FA38F022EBF0A3EAF0A3E9F02E
:1018280022D083D082F8E4937012740193700DA3D0
:10183800A393F8740193F5828883E4737402936820
:1018480060EFA3A3A380DFD083D082F8E493701263
:10185800740193700DA3A393F8740193F5828883A0
:10186800E473740293B5F0067403936860E9A3A364
:10187800A3A380D8E50824F0F582E43480F583E05A
:101888000508229080ED3007039080F0E475F001A0
:1018980012180902162D2000E97F2ED2008018EFB9
:1018A800540F2490D43440D4FF30040BEF24BFB439
:1018B8001A0050032461FFE50960021509050CE5CB
:1018C8000C7002050B30070E9080EDE475F00112E4
:1018D8001809EF0216730229CB7403D2078003E4B8
:1018E800C207F5089080ED121820E4F509F50BF50C
:1018F8000CE50960077F201218BF80F5750AFFC242
:1019080001C200C202C203C205C206C20812188B75
:10191800FF700D3007057F001218D0AF0CAE0B22F8
:10192800B4255FC2D5C20412188BFF24D0B40A00B4
:10193800501A75F00A780930D50508B6FF0106C6B1
:10194800A426F620D5047002D20380D924CFB41A75
:1019580000EF5004C2E5D204021BC2D20180C6D2F5
:101968000080C0D20280BCD2D580BAD20580B47FB4
:10197800201218BF2002077401B5090040F112189F
:101988007CFF1218BF0218F9D208D20680951218E7
:101998007CFB12187CFA12187CF94A4B700679C045
:1019A8007A1C7BFF20022EE509602A7E008E827554
:1019B800830012164660060EEE650A70F0C2D5EB7B
:1019C800C0E0EAC0E0E9C0E0EE121C23D0E0F9D0A4
:1019D800E0FAD0E0FB12162DFF60AAEBC0E0EAC0E7
:1019E800E0E9C0E01218BFD0E02401F9D0E03400EB
:1019F800FAD0E0FBE50A0460DCD50AD98087D20278
:101A080080A2121C0560F7E50A70010412128DA964
:101A18000A600DE50A600914F50A121CADEF60F3BF
:101A2800EA30E702F404C3995079EAF4250A04304D
:101A3800E701E404F50A800D121C0560C1EA050AF5
:101A4800250A12128DEA90811CF030E701E4250A7C
:101A580004D50A0420050114121C23E4C0E0121C5A
:101A6800AD90811CE0601320E70714F01218A780DE
:101A78002204F0D0E014C0E07F001218A7E50A6045
:101A88000712189E150A800B30050312189ED0E025
:101A98000218F9D0E00480C4121C05609EE50A040F
:101AA80012128D90811CEAF0E50A200502600104FB
:101AB8002404121C2374FF04C0E0121CAD1218A7E2
:101AC800E50A200502600312189ED0E0B50AE87FF7
:101AD800451218B190811CE07F2B30E7047F2DF46C
:101AE80004C0E01218BFD0E075F00A84C0F01218E4
:101AF800A8D0E01218A80218F9791080027908C253
:101B080006C2088008D2D5790A8004790AC2D5E5C8
:101B18000A047002F50AE4FAFDFEFF12187CFC7B49
:101B28000820011312187CFD7B1030000A12187C63
:101B3800FE12187CFF7B20EC3382D592D55013C35C
:101B4800E43000069FFFE49EFEE42001039DFDE4CF
:101B58009CFCE4CBF8C201EC700CCFCECDCCE824D1
:101B6800F8F870F38017C3EF33FFEE33FEED33FD63
:101B7800EC33FCEB33FB994002FB0FD8E9EB300167
:101B880005F8D0E0C448B201C0E00AEC4D4E4F78E9
:101B9800207B0070C2EAB50A0040BCC0E0121C25D8
:101BA800D0F0D0E0200104C4C0E0C4B201C0F012FB
:101BB80018A8D0F0D5F0EB0218F912182919965385
:101BC8001B015819674C1963421B054F1B0D441B19
:101BD8000D49197C431B13551A40461AA0451A0A89
:101BE800471CE050196B2D196F2E19922B1973236E
:101BF8001990201CC92A192B480000198AE50AB433
:101C0800FF03750A0612187CFC12187CFD12187C5A
:101C1800FE12187CFF9081150212CA790AA2D520FB
:101C28000314300509B910020404B9080104A2D547
:101C38002006025001042002689202B509005034BF
:101C4800C0E07F203003197F30A20272067205506F
:101C58000F121C7CC202C206C205C2087F30800F68
:101C6800300503E9C0E01218BF300503D0E0F9D011
:101C7800E0B509CC3005177F30B9100C1218BF7FBA
:101C8800583004077F788003B908031218BF300260
:101C9800057F2D0218BF7F202008F87F2B2006F330
:101CA80022920280CF7F00B40700500B2415F582E2
:101CB800E43481F583E0FF22286E756C6C2900D22C
:101CC8000112187C3001F8C201780930D50108F6F4
:101CD80002192B2D5043495812187C2403B40500CF
:101CE8004001E4901CDB931218B0743A1218B0D279
:101CF80003750904021B019080ED1218209080EDF5
:101D08001218001216BD9080F4F09080ED121800A1
:101D18009000021216E89080F5F09080ED121800FD
:101D28009000021216E8640345F0704A9080ED12A4
:101D380018009000041216E8E5F09080F6F0908004
:101D4800ED1218009000041216E89080F7F09080C9
:101D5800ED1218009000061216E8E5F09080F8F0F1
:101D68009080ED1218009000061216E89080F9F0A5
:101D78009081187406F09080ED12180090000212FD
:101D880016E8640545F0704A9080ED12180090003E
:101D9800041216E8E5F09080F6F09080ED12180035
:101DA8009000041216E89080F7F09080ED12180069
:101DB8009000061216E8E5F09080F8F09080ED1299
:101DC80018009000061216E89080F9F090811874B7
:101DD80006F09080ED1218009000021216E86406D2
:101DE80045F0704A9080ED1218009000041216E831
:101DF800E5F09080F6F09080ED1218009000041243
:101E080016E89080F7F09080F012180090000C12FD
:101E180016E8E5F09080F8F09080F0121800900035
:101E28000E1216E89080F9F09081187406F09080F0
:101E3800ED1218009000021216E8640F45F0706F5A
:101E48009080ED1218009000041216E8E5F09080DA
:101E5800F6F09080ED1218009000041216E89080B9
:101E6800F7F09080ED1218009000061216E8E5F0E1
:101E78009080F8F09080ED1218009000061216E895
:101E88009080F9F09080ED1218009000081216E882
:101E9800E5F09080FAF09080ED121800900008129A
:101EA80016E89080FBF09081187408F0021FAC903F
:101EB80080ED1218009000021216E8641045F060D8
:101EC80003021FAC9080F3E025E0908119F0908028
:101ED800ED1218009000041216E8E5F09080F6F074
:101EE8009080ED1218009000041216E89080F7F028
:101EF8009080F3E0E49080F8F09080F3E09080F92F
:101F0800F0908119E09080FAF0E4908116F0A3F047
:101F18009080F3E0FF908116E0FCA3E0C39FEC946F
:101F2800005077908116E0FEA3E025E0FFEE33FE37
:101F38009080F01218008F828E831216E8E5F0FD6B
:101F4800908116E0FEA3E025E0FFEE33FE74FB2F40
:101F5800F58274803EF583EDF0908116E0FEA3E0F3
:101F680025E0FFEE33FE9080F01218008F828E83FA
:101F78001216E8FD908116E0FEA3E025E0FFEE339F
:101F8800FE74FC2FF58274803EF583EDF090811687
:101F9800E475F0011216A7021F18908119E02407B2
:101FA800908118F07B017A8079F4908118E0FD1215
:101FB80024D1908114EEF0A3EFF0908114E0A3E017
:101FC800FF908118E024F5F582E43480F583EFF082
:101FD800908114E0FEA3E0EEFF908118E024F4F570
:101FE80082E43480F583EFF0908118E02402F07BDE
:101FF800017A8079F4E0FD7C00122900229080EDBE
:102008001218209080F0ECF0A3EDF09080ED1218FB
:102018000012162DFF9080FDE4F0A3EFF09080ED04
:10202800121800900001121646FF9080FFE4F0A3FA
:10203800EFF07B017A8079FD908106E4F0A304F04B
:102048007F657E2012229E7B017A8079FF9081062F
:10205800E4F0A304F07F677E2012229E9080F0E0D7
:10206800FEA3E0C39404EE94005039E49080FBF0A2
:10207800A3F09080FBE0FEA3E0C39440EE940050F0
:10208800209080ED1218009080FBE0A3E0F5828E8E
:1020980083E41216859080FBE475F0011216A78080
:1020A800D17F63229080ED1218009080F0E0FEA3AB
:1020B800E024FEFFEE34FF8F82F583121646FE9071
:1020C80080ED1218009080F0E0FCA3E024FFFDEC06
:1020D80034FF8D82F583121646FDEEEDFF9080F5F4
:1020E800EEF0A3EFF09080ED1218009080F0E0A3DE
:1020F800E024FEFD1224D19080F7EEF0A3EFF090DB
:1021080080F7E0FEA3E0FF9080F5E0FCA3E06F70AD
:1021180002EC6E6039E49080FBF0A3F09080FBE065
:10212800FEA3E0C39440EE940050209080ED121876
:10213800009080FBE0A3E0F5828E83E41216859080
:1021480080FBE475F0011216A780D17F622290808F
:10215800ED12180012162DFF9080F2121800E48F6D
:10216800F01217209080ED12180090000112164608
:10217800FF9080F2121800900002E48FF012173FCF
:102188009080F21218009000021216E8640345F0DD
:10219800600302225F9080ED121800900002121670
:1021A80046FF9080F2121800900004E48FF0121796
:1021B8003FE49080F9F0A3F09080F21218009000AC
:1021C800041216E8FF9080F9E0FCA3E0C39FEC95A9
:1021D800F0504B9080ED1218009080F9E0FEA3E0DB
:1021E8002403FFE43E8F82F583121646FD9080F2A9
:1021F800121800E92406F9E43AFA9080F9E0A3E01D
:1022080025E0FFEE33FEE92FF9EA3EFAE48DF012FD
:1022180017209080F9E475F0011216A7809AE490CF
:1022280080FBF0A3F09080FBE0FEA3E0C39440EEB7
:10223800940050209080ED1218009080FBE0A3E0FD
:10224800F5828E83E41216859080FBE475F0011206
:1022580016A780D17F01229080F212180090000208
:102268001216E8640545F070037F01229080F2128F
:1022780018009000021216E8641045F070037F0100
:10228800229080F21218009000021216E8640F459E
:10229800F070027F0122908101EEF0A3EFF0A3120B
:1022A8001820908101E0A3E05401908108F090810A
:1022B80001E0FEA3E0FFEEC313FEEF13FF908101E0
:1022C800EEF0A3EFF0E4F5F1908101E0FEA3E0EE7B
:1022D800F5F2908101E0A3E0F5F375F40175F88F4C
:1022E80030FCFD908108E0603C908106E0FEA3E0B0
:1022F800D39400EE9400402D75F883908103E47523
:10230800F00112180912162DF5FC908103E475F0FE
:102318000112180912162DF5FDD2FE90810674FFE0
:10232800F5F01216A775F88F908106E0FEA3E0C3BA
:102338009402EE9400404B908103E475F00112186A
:102348000912162DF5FA908103E475F001121809A7
:1023580012162DF5FB908103E475F001121809128D
:10236800162DF5FC908103E475F001121809121678
:102378002DF5FDD2FE90810674FF75F0FE1216A7AA
:1023880080A6908106E0FEA3E04E602375F88C904D
:102398008103E475F00112180912162DF5FA9081DF
:1023A80003E475F00112180912162DF5FBD2FEE4AC
:1023B800F5F8222530325820002020202020202027
:1023C8002020202020202020202020202020202005
:1023D800202020202020202020004F4B20202020BB
:1023E8000A00444154415F4552520A004C656E67E9
:1023F80068740A004352432020200A004552524F75
:10240800520A0052656365697665642020202020A1
:102418002020200A0054696D656F757420202020E3
:1024280020202020200A00000100050000000000F4
:102438000000020003000000060000000200100077
:10244800000001000000030003000000010000007C
:102458000400030000000100000005000300000064
:102468000100000006000300000001000000070052
:10247800030000000100000008000300000007003E
:102488000000000000000000000000000000000044
:102498000000000000000000000000000000000034
:1024A8000000000000000000000000000000000024
:1024B8000000000000000000000000000000000014
:1024C80000000000000000000090811A12182090FF
:1024D800811DEDF074FFA3F0A3F0E4908124F0A334
:1024E800F090811DE0FF908124E0FCA3E0C39FEC05
:1024F8009400400302259690811A121800908124B6
:10250800E0FEA3E0F5828E83121646FF90811EE05E
:10251800FCA3E0FDECFEEF6DFF90811EEEF0A3EF53
:10252800F0E4908126F0908126E0C3940850529000
:10253800811EE0A3E05401FF908122E4F0A3EFF0B4
:1025480090811EE0FEA3E0FFEEC313FEEF13FF90A1
:10255800811EEEF0A3EFF0908122E0FEA3E04E6032
:102568001890811EE0FEA3E0FFEE64A0FEEF640178
:10257800FF90811EEEF0A3EFF0908126E004F0803A
:10258800A5908124E475F0011216A70224E9908130
:102598001EE0FEA3E0EEFFA3E4F0A3EFF090811E9F
:1025A800A3E0FEA3E0FCA3E0FDEE4CFEEDFF90816E
:1025B8001EEEF0A3EFF090811EE0FEA3E0FF9081F5
:1025C8001EEEF0A3EFF090811EE0FEA3E0FF229044
:1025D80080EDEEF0A3EFF0A31218209080EDE0A3B9
:1025E800E054019080F4F09080EDE0FEA3E0FFEE6F
:1025F800C313FEEF13FF9080EDEEF0A3EFF0E4F5C8
:10260800F19080EDE0FEA3E0EEF5F29080EDE0A31E
:10261800E0F5F375F40175F8AF30FCFD9080F2E059
:10262800FEA3E0D39400EE940050030226C4D2FE29
:1026380020FEFD9080F4E0703D9080F2E0FEA3E083
:10264800D39400EE9400402E9080EFE475F00112D0
:102658001809E5FA1216739080EFE475F001121864
:1026680009E5FB1216739080F47401F09080F274FF
:10267800FFF5F01216A79080F4E0B4019F9080F265
:10268800E0FEA3E0D39400EE940040909080EFE445
:1026980075F001121809E5FC1216739080EFE475C5
:1026A800F001121809E5FD121673E49080F4F09019
:1026B80080F274FFF5F01216A7022624E4F5F8223A
:1026C800C0E0C0F0C083C082C0D075D000C000C0D8
:1026D80004C005C006C00720980302279BC2989033
:1026E800817B1217CF0007A120908000E599F09018
:1026F8008177E0FEA3E0EE30E70302279B90817725
:10270800E0FEA3E0C39440EE9400503D908000E0CA
:10271800FF908177E0FCA3E02429F58274813CF5E1
:1027280083EFF0908177E475F0011216A790817716
:10273800E0FEA3E064024E701990812AE030E712AF
:10274800780F76000876058009908177E4F0A3F089
:102758008041908128E0FF780FE6FC08E6FDC3EF92
:102768009DE49C5003E004F0908128E0FF780FE698
:10277800FC08E6FDEFB5051BE4B50417908177E08A
:10278800FEA3E0FFEE4480908177F0A3EFF0908104
:1027980028E4F0D007D006D005D004D000D0D0D09F
:1027A80082D083D0F0D0E0329080ED121820908053
:1027B800F0EDF0E0C394105063A3E0602F9080ED3B
:1027C8001218001216BDFDACF09080F0E0FF740105
:1027D8007E00A807088005C333CE33CED8F9FFECB6
:1027E8004EFEED4FFFEE8FF0121720229080ED1273
:1027F80018001216BDFDACF09080F0E0FF74017E69
:1028080000A807088005C333CE33CED8F9F4FFEE0D
:10281800F45CFEED5FFFEE8FF0121720229080F13E
:102828001217C343C94053B7CF43B71075D8807543
:10283800985053877F9080F11217ABE41211CEA8FD
:1028480004A905AA06AB077F007EE07D447C4A12F6
:10285800113112120CC3E49FFF74049EFEE4FCFDC8
:102868009080F11217C39080F11217AB78081217F5
:1028780098EFE48FBA9080F11217ABEFE48FAAD2E9
:10288800ACD2AF908177F0A3F0908128F022C0E01D
:10289800C0F0C083C082C0D075D000C000C001C0E5
:1028A80002C003C004C005C006C007C2C690817B31
:1028B8001217ABEC4D4E4F601590817B1217AB741D
:1028C800FFFBFAF9F812176C90817B1217C3780D89
:1028D800E6FE08E64E6006E61618700116D007D028
:1028E80006D005D004D003D002D001D000D0D0D07B
:1028F80082D083D0F0D0E03290811A1218209081D3
:102908001DECF0A3EDF0C2ACE4A3F0A3F090811DA0
:10291800E0FEA3E0FFA3E0FCA3E0C39FEC9E5027EA
:1029280090811A12180090811FE0FEA3E0F5828EB4
:1029380083121646F5993099FDC29990811FE47566
:10294800F0011216A780C6D2AC22C2AFC2D3C2D43D
:10295800E4F58E75C870F593759401759502F5C9FF
:10296800F5F875F901F5A843B830F59AF5A9F5B960
:1029780053C9FDD2BDD2BCD2AF229080EDEEF0A3F8
:10298800EFF09080EDE0FEA3E0FF780DA60608A624
:1029980007780DE6FE08E64E70F72275C870E4F574
:1029A800CDF5CC75CBBC75CACD43A820D2C8D2AF63
:1029B8002290811EEFF0C2ACE0F5993099FDC299E2
:1029C800D2AC2290811DEFF0E0FF1229B990811D51
:0329D800E0FF22FB
:00000001FF
