:1000000002002E9080D91216C7C2ACE4F598F5BA5A
:0F001000F5AA53877F9080D91216AF12272922A5
:030023000225CCE7
:10002B0002279A787FE4F6D8FD7581980200750255
:10003B000103E493A3F8E493A34003F68001F208D1
:10004B00DFF48029E493A3F85407240CC8C333C40A
:10005B00540F4420C8834004F456800146F6DFE475
:10006B00800B01020408102040809000BAE47E014E
:10007B009360BCA3FF543F30E509541FFEE493A3E8
:10008B0060010ECF54C025E060A840B8E493A3FAFA
:10009B00E493A3F8E493A3C8C582C8CAC583CAF086
:1000AB00A3C8C582C8CAC583CADFE9DEE780BE0222
:1000BB000D000044816700000000458156010203DA
:1000CB00040542815F0001428165000441815500B6
:1000DB0044815B00000000428161000041811300FC
:0C00EB00020F0000001228561228A72265
:1000F800FFFF4457494E54350200757BFF7A237938
:100108003378227C007D007E007F5A12150B7BFF1E
:100118007A23798D78017C807D017E007F08121515
:100128000B9080091216D3000000007BFF7A237918
:100138009578177C807D017E007F3012150B7BFF40
:100148007A2379C578867C007D007E007F101215A1
:100158000BE49080D3F0A3F0A3F0A3F0A3F0A3F0F6
:100168001200F07F807E257D007C00122729E49014
:100178008161F0A3F090800DF09081671216D30092
:1001880007A120E490800EF0A31216D3000000000F
:10019800E4FFFEFDFC9081671216BBC312168B703C
:1001A8002290800DE0B4011B908163E0FEA3E04E35
:1001B8006011908163E0A3E0FFEE4480908163F0DA
:1001C800A3EFF0908163E0FEA3E0EE20E7030209CD
:1001D8008A908163A3E0FFEE547F908013F0A3EF31
:1001E800F07B017A8079139080F2E4F0A37402F036
:1001F8007F697E201221A2E490805FF0A3F09080B6
:1002080015F0A3F0908013E0FEA3E0FFA3E0FCA3A9
:10021800E0C39FEC9E505A90805FE0FEA3E0241755
:10022800F974803EFA7B01C003C002C0017BFF7AEB
:100238002279BF9080DC121724908015E0FEA3E09D
:100248002415F58274813EF583E0FF9080DFE4F0A9
:10025800A3EFF0D001D002D0031217E590805FEE33
:100268008FF01215AB908015E475F0011215AB8074
:10027800937BFF7A2279C59080F2E4F0A37410F0A2
:10028800FF7E201221A27B017A80791790805FE09F
:10029800FEA3E0FFEEC313FEEF132402FFE43E903B
:1002A80080F2F0A3EFF07F107E201221A2E490806C
:1002B80015F0A3F0908015E0FEA3E0C39430EE940F
:1002C80000501C908015E0A3E02417F58274803E4E
:1002D800F583E4F090801575F0011215AB80D59088
:1002E80081671216D30007A1207B017A817915C096
:1002F80002C001908013E0FCA3E0FD7A807983902E
:1003080080DE121724D001D002121F099080D7E492
:10031800F0A3EFF07B017A8079D79080F2E4F0A324
:1003280004F07F717E201221A29080D7E0FEA3E026
:1003380064014E60030208A77BFF7A2279E6908069
:10034800F2F0A37404F07F967E201221A29080839D
:10035800E0FEA3E08EF01217530385000103850029
:100368000205A700030626000406A50005072400C9
:100378000607A300070822000800000948908087A4
:10038800E0FEA3E0C39402EE9400500302058EA39E
:10039800E0A3E0FEA3E0FCA3E0FDEE4CFEEDFF9041
:1003A80080C9EEF0A3EFF0908091E0A3E0FEA3E017
:1003B800FCA3E0FDEE4CFEEDFF9080CBEEF0A3EF4A
:1003C800F0908095E0A3E0FEA3E0FCA3E0FDEE4CF6
:1003D800FEEDFF9080CDEEF0A3EFF0908099E0A3C2
:1003E800E0FEA3E0FCA3E0FDEE4CFEEDFF9080CF25
:1003F800EEF0A3EFF090805DE0FEA3E064014E70A4
:10040800147B017A8079CF9080F2F0A304F07F64A6
:100418007E201221A29080CBE0FEA3E0D3942DEEA3
:100428009400501F9080D174C6F0A37418F07B011B
:100438007A8079D19080F2E4F0A304F07F1D7E5A8F
:100448001221A29080CBE0FEA3E0D3942DEE94007D
:10045800402A9080CBE0A3E09484EE9403501D9052
:1004680080D174FCF0A3E4F07B017A8079D190808C
:10047800F2F0A304F07F1D7E5A1221A29080CFE0F3
:10048800FCA3E0FDE41210D7E4FBFA797A78441271
:100498000F2CC004C005C006C0079080CDE0FCA3A7
:1004A800E0FDE41210D7A804A905AA06AB07D007F7
:1004B800D006D005D004121035E4FBFA7920784133
:1004C8001210359080751216C79080CBE0FCA3E01F
:1004D800FDE41210D77BAD7A4B798D783A120F2C48
:1004E800C004C005C006C0079080CBE0FCA3E0FDB7
:1004F800E41210D7A804A905AA06AB07D007D006AE
:10050800D005D004120F2CE4FBFA797A7844121043
:100518003590807D1216C77B017A8079CB9080F266
:10052800E4F0A304F07F817E201221A27B017A806F
:1005380079CF9080F2E4F0A304F07F837E2012212B
:10054800A27B017A8079C99080F2E4F0A37402F06A
:100558007F077E201221A27B017A8079759080F234
:10056800E4F0A37402F07F157E211221A27B017AA8
:1005780080797D9080F2E4F0A37402F07F197E21E7
:100588001221A20209487BFF7A2279EE9080F2E4D8
:10059800F0A37406F07F967E201221A202094890EB
:1005A8008087E0FEA3E0C39402EE940050030209A2
:1005B80048A3E0A3E0FEA3E0FCA3E0FDEE4CFEEDC3
:1005C800FF908081EEF0A3EFF0908081E0FEA3E041
:1005D800EE30E70E908081A3E0FF908081EEF0A3DB
:1005E800EFF0908081E0FCA3E0FDE41210D7E4FB7B
:1005F800FA792078411210359080651216C77B0170
:100608007A8079659080F2E4F0A37402F07F857EA9
:10061800201221A2E4908081F0A3F0020948908082
:1006280087E0FEA3E0C39402EE9400500302094859
:10063800A3E0A3E0FEA3E0FCA3E0FDEE4CFEEDFF8B
:10064800908081EEF0A3EFF0908081E0FEA3E0EED1
:1006580030E70E908081A3E0FF908081EEF0A3EF59
:10066800F0908081E0FCA3E0FDE41210D7E4FBFAEF
:10067800792078411210359080691216C77B017A6B
:100688008079699080F2E4F0A37402F07F877E207D
:100698001221A2E4908081F0A3F00209489080879B
:1006A800E0FEA3E0C39402EE94005003020948A3BD
:1006B800E0A3E0FEA3E0FCA3E0FDEE4CFEEDFF901E
:1006C8008081EEF0A3EFF0908081E0FEA3E0EE30B1
:1006D800E70E908081A3E0FF908081EEF0A3EFF019
:1006E800908081E0FCA3E0FDE41210D7E4FBFA79E6
:1006F80020784112103590806D1216C77B017A80E0
:10070800796D9080F2E4F0A37402F07F897E201264
:1007180021A2E4908081F0A3F0020948908087E04C
:10072800FEA3E0C39402EE94005003020948A3E03C
:10073800A3E0FEA3E0FCA3E0FDEE4CFEEDFF9080FD
:1007480081EEF0A3EFF0908081E0FEA3E0EE30E7C9
:100758000E908081A3E0FF908081EEF0A3EFF090EF
:100768008081E0FCA3E0FDE41210D7E4FBFA7920D5
:1007780078411210359080711216C77B017A807902
:10078800719080F2E4F0A37402F07F917E20122130
:10079800A2E4908081F0A3F0020948908087E0FEEF
:1007A800A3E0C39402EE94005003020948A3E0A317
:1007B800E0FEA3E0FCA3E0FDEE4CFEEDFF9080819F
:1007C800EEF0A3EFF0908081E0FEA3E0EE30E70EBC
:1007D800908081A3E0FF908081EEF0A3EFF09080FD
:1007E80081E0FCA3E0FDE41210D7E4FBFA7920785D
:1007F800411210359080611216C77B017A807961A9
:100808009080F2E4F0A37402F07F057E201221A20A
:10081800E4908081F0A3F0020948908087E0FEA36D
:10082800E0C39402EE94005003020948A3E0A3E059
:10083800FEA3E0FCA3E0FDEE4CFEEDFF908081EE10
:10084800F0A3EFF0908081E0FEA3E0EE30E70E9099
:100858008081A3E0FF908081EEF0A3EFF09080818B
:10086800E0FCA3E0FDE41210D7E4FBFA792078411C
:100878001210359080611216C77B017A80796190D9
:1008880080F2E4F0A37402F07F057E201221A2E436
:10089800908081F0A3F002094802094802094890B3
:1008A80080D7E0FEA3E064634E702E7BFF7A227946
:1008B800F89080F2F0A37404F07F967E201221A2B3
:1008C8007F147E00122886E4908163F0A3F07F8075
:1008D8007E25FDFC12000380679080D7E0FEA3E030
:1008E80064624E702E7BFF7A2379009080F2F0A329
:1008F8007404F07F967E201221A27F147E001228B5
:1009080086E4908163F0A3F07F807E25FDFC1200D1
:1009180003802D7BFF7A2379089080F2E4F0A3749A
:1009280004F07F967E201221A27F147E0012288672
:10093800E4908163F0A3F07F807E25FDFC12000324
:10094800E4908163F0A3F0908013F0A3F0A3F0A3E8
:10095800F0908015E0FEA3E0C39440EE9400501C94
:10096800908015E0A3E02415F58274813EF583E4B8
:10097800F090801575F0011215AB80D59081137435
:1009880001F090800DE06003020E37908161E0FE77
:10099800A3E0C39409EE94004007E4908161F0A3BA
:1009A800F07F0F7E00122886908161E0A3E075F049
:1009B8000AA42422F9E4FAFB787C7C00FDFE7F0A75
:1009C80012150B7B017A8179619080F2E4F0A3041F
:1009D800F07F007E201221A2787EE608E67898F65D
:1009E8007B007A00797E9080F2E4F0A304F0FF7E29
:1009F800201221A27B007A0079809080F2E4F0A393
:100A080004F07F027E201221A27898E6B4031878B9
:100A180082E6FE08E625E0FFEE33FEEF2405FFE45C
:100A28003E780FF608A6077898E6B41007780F7690
:100A3800000876087898E6B40507780F76000876F7
:100A4800087898E6B40607780F760008760878984C
:100A5800E6B40F07780F76000876087B007A0079ED
:100A68000F9080F2E4F0A37402F07F037E2012213D
:100A7800A27B007A00797C9080F2E4F0A304F07FF6
:100A8800047E201221A29080091216D30002710060
:100A980090800D7401F0E47896F608F6FB7A0079F8
:100AA800969080DEF0A304F07F797E201224DB7B11
:100AB800017A8079479080DEE4F0A304F07F647EB9
:100AC800201224DB7B017A8079C99080DEE4F0A3D0
:100AD80004F07F737E201224DB9080CDE0FEA3E03B
:100AE800FF908047E0FCA3E0C39FEC9E400E9080FF
:100AF800CDE0A3E0908047EEF0A3EFF0908047E0D0
:100B0800FEA3E0FF7886A60608A607908047E0FEC9
:100B1800A3E0FF08A60608A607908047E0FEA3E02A
:100B2800FF08A60608A607908047E0FEA3E0FF0896
:100B3800A60608A6079080C9E0FEA3E0FF08A6065F
:100B480008A6077896E608E65402FF908049E4F084
:100B5800A3EFF018E608E65404FFA3E4F0A3EFF0CF
:100B680018E608E65408FFA3E4F0A3EFF018E60837
:100B7800E65410FFA3E4F0A3EFF018E608E65420CB
:100B8800FF90805DE4F0A3EFF018E608E65440FF1C
:100B9800908059E4F0A3EFF0908049E0FEA3E0FFD5
:100BA800EEC313EF135401FF908051E4F0A3EFF06C
:100BB80090804BE0FEA3E07802CEC313CE13D8F9A1
:100BC8005401FF908053E4F0A3EFF090804DE0FED5
:100BD800A3E07803CEC313CE13D8F95401FF908055
:100BE80055E4F0A3EFF090804FE0FEA3E0FFEEC4E1
:100BF800F854F0C868EFC4540F485401FF90805768
:100C0800E4F0A3EFF0A3E0FEA3E07806CEC313CE92
:100C180013D8F95401FF90805BE4F0A3EFF07B0157
:100C28007A8079519080F2E4F0A304F07F057E2168
:100C38001221A27B017A8079539080F2E4F0A30418
:100C4800F07F077E211221A27B017A80795590805E
:100C5800F2E4F0A304F07F097E211221A27B017A3D
:100C68008079579080F2E4F0A304F07F117E21127E
:100C780021A27B017A80795B9080F2E4F0A304F0F2
:100C88007F137E211221A290805BE0FEA3E0640125
:100C98004E701F90800EE070197824F608760508CB
:100CA800F608F60876FF08F604F0A31216D300003B
:100CB800000090805BE0FEA3E064014E703A9080F3
:100CC8000EE0B401337FA07EBB7D0D7C00A312161D
:100CD800BBC312168B402178247600087605087667
:100CE800000876010876FF08760090800E7401F0FF
:100CF800A31216D30000000090805BE0FEA3E04E34
:100D080070207824F608760F08F608F608F60876B4
:100D18000808760108F690800EF0A31216D300009A
:100D280000007896E608E6540118760008F67B007D
:100D38007A00799418E608E69080DDF0E4FD122642
:100D4800B47B007A007994908049E0A3E09080DD3C
:100D5800F07D011226B47B007A00799490804BE0F4
:100D6800A3E09080DDF07D021226B47B007A007942
:100D78009490804DE0A3E09080DDF07D031226B4CE
:100D88007B007A00799490804FE0A3E09080DDF0BA
:100D98007D041226B47B007A00799490805DE0A3EC
:100DA800E09080DDF07D051226B47B007A0079940E
:100DB800908059E0A3E09080DDF07D061226B49083
:100DC800805DE0FEA3E07805CEC313CE13D8F954B6
:100DD80001FF90805DE4F0A3EFF07B007A00799644
:100DE8009080F2E4F0A304F07F757E201221A27BAC
:100DF800017A80795D9080F2E4F0A304F07F607E50
:100E0800201221A27B007A00797CC002C0017A00FE
:100E180079869080DC1217249080DF7408F0D00166
:100E2800D002121C039081671216D30007A12090EC
:100E380080091216AF74FFFBFAF9F8121670908049
:100E4800091216C790800F1216AFE47B01FAF9F861
:100E580012167090800F1216C790800DE064016022
:100E680003020198908113E0B4013D7BFF7A237956
:100E78000F9080F2E4F0A37409F07F427E201221E3
:100E8800A2908161E475F0011215ABE490800DF039
:100E9800908113F09080091216D30002710090819E
:100EA800671216D30007A120E4FFFEFDFC9080091D
:100EB8001216BBC312168B60030201987BFF7A23BC
:100EC80079219080F2F0A37409F07F427E201221EC
:100ED800A2E4908015F0A3F0908015E0FEA3E0C393
:100EE8009430EE9400501C908015E0A3E02417F590
:100EF8008274803EF583E4F090801575F001121538
:100F0800AB80D5908161E475F0011215ABE4908057
:100F18000DF0908113F09081671216D30007A1207D
:100F280002019822EC4D6011E8497017ED33EC335B
:100F380004600DE4FCFFFEFD22E933E8330470F899
:100F480002117C12114758046009E4CC2481500630
:100F5800285009021186284003021183C0E0EB4A99
:100F68007044B98006D0E0FB021172EF4E701CBDD0
:100F78008008EBFFEAFEE9FD80EBE98DF0A4FEE5D1
:100F8800F0021015E9CDF9EAFEEBFFEF89F0A4FCB9
:100F9800E5F0CE89F0A42EFFE435F0CD89F0A42D3C
:100FA800FEE435F08067EF4E7005BD80D780C3EF53
:100FB8008BF0A4ACF0EE8BF0A42CFCE435F0F8EF49
:100FC8008AF0A42CE5F038FCE433CB8DF0A42CFC9B
:100FD800E5F03BF8EE8AF0A42CFCE5F038F8E433B1
:100FE800CF89F0A42CFCE5F038CF3400CE89F0A4EA
:100FF8002FFFE5F03EFEE433C98DF0A42EFEE5F0A8
:1010080039CD8AF0A42FFFE5F03EFEE43DFD33D054
:10101800E0FB50070BBB000F021186EC2CFCEF33F2
:10102800FFEE33FEED33FD02115E021186EC5D0426
:101038006005E85904700302117C121147580460D6
:10104800F6EC4860F2EC7004FDFEFF22C860DB2479
:1010580081C85009C398600250060211839850CA8B
:10106800F582E9294B4A7005AB8202117275F000CE
:101078007C1A7880C3EF9BEE9AED99400DC3EF9BE5
:10108800FFEE9AFEED99FDE842F0DC23ACF0D0E0EB
:10109800FFD0E0FED0E0FDAB8220E7101BEB60BA8A
:1010A800EC2CFCEF33FFEE33FEED33FD02115EE86E
:1010B80003F830E705C0F075F000EF2FFFEE33FEC0
:1010C800ED33FD40B830E7C280AA75F020800E7578
:1010D800F010800575F0087D007E007F003392D502
:1010E80030D50312167DEC334010EF33FFEE33FE9C
:1010F800ED33FDEC33FCD5F0ED22E5F0247EA2D5EE
:1011080013CC92E7CDCEFF22EDD2E7CD33EC33926C
:10111800D524814006E4FFFEFDFC22FCE4CFCECDC1
:10112800CC24E0501174FF80EDC3CC13CCCD13CD8B
:10113800CE13CECF13CF0470F030D5DE02167DE982
:10114800D2E7C933E833F892D5EDD2E7CD33EC33A3
:10115800FC5002B2D522EC30E7100FBF000C0EBED7
:1011680000080DBD00040BEB6014A2D5EB13FCEDD9
:1011780092E7FD2274FFFCFDFEFF22E480F8A2D571
:1011880074FF13FC7D80E480EFF920E73624F950E2
:10119800037907E4F42402FBE582158270021583C3
:1011A800DBF6E024FB501BE96014E4F0E5821582CD
:1011B80070021583E004F0B40A08E4F0D9EE740173
:1011C800F00A22C2D522ED33EC3392D5FA602AB464
:1011D800FF33EDC2E77BFF60067A1179F3E4227AE8
:1011E8001179FC20D5047A1179F7224E614E002B33
:1011F800494E46002D494E4600E47A08F0A3DAFC31
:101208007B00740722C083C082ECC0E0EDC0E0EE32
:10121800C0E0EFC0E0EA75F010A4CAABF075F04D7D
:10122800A42BFBE435F0FCEA2410FAEB34C5FBEC04
:1012380034D9FCEDC2E7FF75F056A4F42411C5F0CB
:10124800F434C58FF0A42AE5F03BE43CF020E71421
:101258001213FBD0E0FFD0E0FED0E0FDD0E0FC129E
:1012680010358014F4041213FBD0E0FFD0E0FED058
:10127800E0FDD0E0FC120F2CD082D083E0FAEDD252
:10128800E7CD33EC332482FBE4C3CF33CFCE33CE68
:10129800CD33CD33DBF37B0775F00A846004F0A30C
:1012A8001B0AE5F0F0A38FF0740AA4FFACF08EF0EF
:1012B800740AA42CFEACF050010C8DF0740AA42C16
:1012C800FDE435F0F0A3DBDE74072202117CE8644C
:1012D80080F8E933E83360110460F0ED33EC3370E3
:1012E80009E8FCE9FDEAFEEBFF220460DED3EB9F90
:1012F800EA9EE99DE8C2E78CF0C2F795F0400CE859
:10130800CCF8E9CDF9EACEFAEBCFFB12114785D03C
:10131800F05804700320D5B3E80470075002B2D522
:1013280002118692D5EC0460F7E4CCC0E0C398F8CB
:10133800603B94186008400DD0E0FB02115EE4FBAE
:10134800FAC9FC8028E830E406E4C9FBE4CAFCE8F2
:1013580030E305E4C9CACBFCE854076010F8C3E9D8
:1013680013F9EA13FAEB13FBEC13FCD8F130F52F61
:10137800C3E49CFCEF9BFFEE9AFEED99FDD0E0FBE9
:10138800EF4E4D4C701222DB03021183EC2CFCEF64
:1013980033FFEE33FEED33FDED30E7EB02115EEF88
:1013A8002BFFEE3AFEED39FDD0E0FB50130BBB00EE
:1013B80003021186ED13FDEE13FEEF13FFEC13FC91
:1013C80002115E3F8000004120000042C800004436
:1013D8007A0000461C400047C35000497424004B63
:1013E8001896804CBEBC205A0E1BCA6753C21C7488
:1013F8009DC5AEFB60065407601C2323121429EB1D
:1014080054386009121415121424120F2CECF8ED3C
:10141800F9EEFAEFCB22EB12142480F154380324AE
:101428001C9013CBFE93FC0EEE93FD0EEE930ECEA6
:1014380093FF22E709F608DFFA8046E709F208DF9A
:10144800FA803E88828C83E709F0A3DFFA8032E3D2
:1014580009F608DFFA8078E309F208DFFA80708875
:10146800828C83E309F0A3DFFA806489828A83E0AF
:10147800A3F608DFFA805889828A83E0A3F208DF9E
:10148800FA804C80D280FA80C680D4806980F2804D
:1014980033801080A680EA809A80A880DA80E28073
:1014A800CA803389828A83ECFAE493A3C8C582C8C8
:1014B800CCC583CCF0A3C8C582C8CCC583CCDFE932
:1014C800DEE7800D89828A83E493A3F608DFF9ECCE
:1014D800FAA9F0EDFB2289828A83ECFAE0A3C8C559
:1014E80082C8CCC583CCF0A3C8C582C8CCC583CC80
:1014F800DFEADEE880DB89828A83E493A3F208DFEF
:10150800F980CC88F0EF60010E4E60C388F0ED24BE
:1015180002B4040050B9F582EB2402B4040050AFC1
:10152800232345822390148B73BB010689828A8307
:10153800E0225002E722BBFE02E32289828A83E48A
:101548009322BB010CE58229F582E5833AF583E015
:10155800225006E92582F8E622BBFE06E92582F834
:10156800E222E58229F582E5833AF583E49322BBFA
:10157800010689828A83F0225002F722BBFE01F31A
:1015880022F8BB010DE58229F582E5833AF583E867
:10159800F0225006E92582C8F622BBFE05E925821D
:1015A800C8F222C5F0F8A3E028F0C5F0F8E58215E6
:1015B8008270021583E038F022BB010A89828A838F
:1015C800E0F5F0A3E022500687F009E71922BBFEF8
:1015D80007E3F5F009E3192289828A83E493F5F099
:1015E80074019322BB0110E58229F582E5833AF55F
:1015F80083E0F5F0A3E0225009E92582F886F00897
:10160800E622BBFE0AE92582F8E2F5F008E222E5C7
:10161800832AF583E993F5F0A3E99322BB010A89AC
:10162800828A83F0E5F0A3F0225006F709A7F019A3
:1016380022BBFE06F3E5F009F31922F8BB0111E518
:101648008229F582E5833AF583E8F0E5F0A3F022F4
:101658005009E92582C8F608A6F022BBFE09E9254B
:1016680082C8F2E5F008F222EF2BFFEE3AFEED39E0
:10167800FDEC38FC22C3E49FFFE49EFEE49DFDE4FC
:101688009CFC22EB9FF5F0EA9E42F0E99D42F0E8CF
:101698009C45F022E8600FECC313FCED13FDEE133C
:1016A800FEEF13FFD8F122E0FCA3E0FDA3E0FEA3C8
:1016B800E0FF22E0F8A3E0F9A3E0FAA3E0FB22ECC4
:1016C800F0A3EDF0A3EEF0A3EFF022A8828583F05B
:1016D800D083D0821216EA1216EA1216EA1216EA15
:1016E800E473E493A3C583C5F0C583C8C582C8F075
:1016F800A3C583C5F0C583C8C582C822E0FBA3E0A3
:10170800FAA3E0F922F8E0FBA3A3E0F925F0F0E55D
:1017180082158270021583E0FA38F022EBF0A3EA12
:10172800F0A3E9F022D083D082F8E4937012740118
:1017380093700DA3A393F8740193F5828883E473DF
:101748007402936860EFA3A3A380DFD083D082F8EC
:10175800E4937012740193700DA3A393F87401932A
:10176800F5828883E473740293B5F0067403936872
:1017780060E9A3A3A3A380D8E50824DCF582E434B8
:1017880080F583E00508229080D93007039080DC3B
:10179800E475F00112170D0215312000E97F2ED2F1
:1017A800008018EF540F2490D43440D4FF30040B39
:1017B800EF24BFB41A0050032461FFE50960021545
:1017C80009050CE50C7002050B30070E9080D9E472
:1017D80075F00112170DEF0215770228CF7403D2A6
:1017E800078003E4C207F5089080D9121724E4F5AE
:1017F80009F50BF50CE50960077F201217C380F582
:10180800750AFFC201C200C202C203C205C206C2F3
:101818000812178FFF700D3007057F001217D4AF1D
:101828000CAE0B22B4255FC2D5C20412178FFF2459
:10183800D0B40A00501A75F00A780930D50508B6F0
:10184800FF0106C6A426F620D5047002D20380D96B
:1018580024CFB41A00EF5004C2E5D204021AC6D24B
:101868000180C6D20080C0D20280BCD2D580BAD254
:101878000580B47F201217C32002077401B5090040
:1018880040F1121780FF1217C30217FDD208D206C3
:101898008095121780FB121780FA121780F94A4BAD
:1018A800700679C47A1B7BFF20022EE509602A7E28
:1018B800008E8275830012154A60060EEE650A7066
:1018C800F0C2D5EBC0E0EAC0E0E9C0E0EE121B27A9
:1018D800D0E0F9D0E0FAD0E0FB121531FF60AAEBB6
:1018E800C0E0EAC0E0E9C0E01217C3D0E02401F983
:1018F800D0E03400FAD0E0FBE50A0460DCD50AD970
:101908008087D20280A2121B0960F7E50A700104E1
:10191800121191A90A600DE50A600914F50A121B53
:10192800B1EF60F3EA30E702F404C3995079EAF4BE
:10193800250A0430E701E404F50A800D121B09604A
:10194800C1EA050A250A121191EA908108F030E7E8
:1019580001E4250A04D50A0420050114121B27E412
:10196800C0E0121BB1908108E0601320E70714F073
:101978001217AB802204F0D0E014C0E07F001217E9
:10198800ABE50A60071217A2150A800B300503128F
:1019980017A2D0E00217FDD0E00480C4121B096032
:1019A8009EE50A04121191908108EAF0E50A2005E3
:1019B800026001042404121B2774FF04C0E0121BF8
:1019C800B11217ABE50A20050260031217A2D0E096
:1019D800B50AE87F451217B5908108E07F2B30E7FC
:1019E800047F2DF404C0E01217C3D0E075F00A8418
:1019F800C0F01217ACD0E01217AC0217FD791080B6
:101A0800027908C206C2088008D2D5790A8004790A
:101A18000AC2D5E50A047002F50AE4FAFDFEFF12CF
:101A28001780FC7B08200113121780FD7B10300003
:101A38000A121780FE121780FF7B20EC3382D592A2
:101A4800D55013C3E43000069FFFE49EFEE4200156
:101A5800039DFDE49CFCE4CBF8C201EC700CCFCEF6
:101A6800CDCCE824F8F870F38017C3EF33FFEE33DA
:101A7800FEED33FDEC33FCEB33FB994002FB0FD852
:101A8800E9EB300105F8D0E0C448B201C0E00AEC47
:101A98004D4E4F78207B0070C2EAB50A0040BCC0AA
:101AA800E0121B29D0F0D0E0200104C4C0E0C4B289
:101AB80001C0F01217ACD0F0D5F0EB0217FD1217E9
:101AC8002D189A531A0558186B4C1867421A094F63
:101AD8001A11441A11491880431A175519444619FE
:101AE800A445190E471BE450186F2D18732E18962D
:101AF8002B1877231894201BCD2A182F480000187C
:101B08008EE50AB4FF03750A06121780FC121780C7
:101B1800FD121780FE121780FF9081010211CE7905
:101B28000AA2D5200314300509B910020404B90823
:101B38000104A2D52006025001042002689202B5D1
:101B480009005034C0E07F203003197F30A20272B0
:101B5800067205500F121B80C202C206C205C208D7
:101B68007F30800F300503E9C0E01217C33005034A
:101B7800D0E0F9D0E0B509CC3005177F30B9100CAA
:101B88001217C37F583004077F788003B9080312FF
:101B980017C33002057F2D0217C37F202008F87F66
:101BA8002B2006F322920280CF7F00B40700500B4F
:101BB8002401F582E43481F583E0FF22286E756CF8
:101BC8006C2900D2011217803001F8C2017809305F
:101BD800D50108F602182F2D5043495812178024B2
:101BE80003B405004001E4901BDF931217B4743A64
:101BF8001217B4D203750904021A059080D9121776
:101C0800249080D91217041215C19080E0F09080BA
:101C1800D91217049000021215EC9080E1F0908020
:101C2800D91217049000021215EC640345F0704AAB
:101C38009080D91217049000041215ECE5F09080FA
:101C4800E2F09080D91217049000041215EC9080ED
:101C5800E3F09080D91217049000061215ECE5F015
:101C68009080E4F09080D91217049000061215ECC9
:101C78009080E5F09081047406F09080D9121704E2
:101C88009000021215EC640545F0704A9080D91254
:101C980017049000041215ECE5F09080E2F09080B3
:101CA800D91217049000041215EC9080E3F090808C
:101CB800D91217049000061215ECE5F09080E4F0B4
:101CC8009080D91217049000061215EC9080E5F068
:101CD8009081047406F09080D912170490000212C3
:101CE80015EC640645F0704A9080D91217049000EC
:101CF800041215ECE5F09080E2F09080D9121704F8
:101D08009000041215EC9080E3F09080DC12170428
:101D180090000C1215ECE5F09080E4F09080DC1255
:101D2800170490000E1215EC9080E5F09081047471
:101D380006F09080D91217049000021215EC640F77
:101D480045F0706F9080D91217049000041215ECBA
:101D5800E5F09080E2F09080D91217049000041208
:101D680015EC9080E3F09080D912170490000612C9
:101D780015ECE5F09080E4F09080D91217049000FB
:101D8800061215EC9080E5F09080D91217049000A7
:101D9800081215ECE5F09080E6F09080D91217044F
:101DA8009000081215EC9080E7F09081047408F018
:101DB800021EB09080D91217049000021215EC642C
:101DC8001045F06003021EB09080DFE025E09081AE
:101DD80005F09080D91217049000041215ECE5F074
:101DE8009080E2F09080D91217049000041215EC4C
:101DF8009080E3F09080DFE0E49080E4F09080DF72
:101E0800E09080E5F0908105E09080E6F0E4908134
:101E180002F0A3F09080DFE0FF908102E0FCA3E0F5
:101E2800C39FEC94005077908102E0FEA3E025E088
:101E3800FFEE33FE9080DC1217048F828E8312151A
:101E4800ECE5F0FD908102E0FEA3E025E0FFEE3333
:101E5800FE74E72FF58274803EF583EDF0908102E1
:101E6800E0FEA3E025E0FFEE33FE9080DC121704CD
:101E78008F828E831215ECFD908102E0FEA3E0258F
:101E8800E0FFEE33FE74E82FF58274803EF583EDB3
:101E9800F0908102E475F0011215AB021E1C9081CE
:101EA80005E02407908104F07B017A8079E0908135
:101EB80004E0FD1223D5908100EEF0A3EFF09081AD
:101EC80000E0A3E0FF908104E024E1F582E434809F
:101ED800F583EFF0908100E0FEA3E0EEFF9081042F
:101EE800E024E0F582E43480F583EFF0908104E0AB
:101EF8002402F07B017A8079E0E0FD7C001228045E
:101F0800229080D91217249080DCECF0A3EDF09099
:101F180080D9121704121531FF9080E9E4F0A3EF7D
:101F2800F09080D912170490000112154AFF908092
:101F3800EBE4F0A3EFF07B017A8079E99080F2E49A
:101F4800F0A304F07F657E201221A27B017A8079BC
:101F5800EB9080F2E4F0A304F07F677E201221A2C8
:101F68009080DCE0FEA3E0C39404EE94005039E4D2
:101F78009080E7F0A3F09080E7E0FEA3E0C39440F0
:101F8800EE940050209080D91217049080E7E0A3C7
:101F9800E0F5828E83E41215899080E7E475F001FC
:101FA8001215AB80D17F63229080D91217049080DC
:101FB800DCE0FEA3E024FEFFEE34FF8F82F58312FF
:101FC800154AFE9080D91217049080DCE0FCA3E04B
:101FD80024FFFDEC34FF8D82F58312154AFDEEEDEA
:101FE800FF9080E1EEF0A3EFF09080D912170490F3
:101FF80080DCE0A3E024FEFD1223D59080E3EEF020
:10200800A3EFF09080E3E0FEA3E0FF9080E1E0FC26
:10201800A3E06F7002EC6E6039E49080E7F0A3F003
:102028009080E7E0FEA3E0C39440EE940050209037
:1020380080D91217049080E7E0A3E0F5828E83E44C
:102048001215899080E7E475F0011215AB80D17FF5
:1020580062229080D9121704121531FF9080DE1287
:102068001704E48FF01216249080D91217049000F8
:102078000112154AFF9080DE121704900002E48FC7
:10208800F01216439080DE1217049000021215EC2D
:10209800640345F060030221639080D9121704900D
:1020A800000212154AFF9080DE121704900004E423
:1020B8008FF0121643E49080E5F0A3F09080DE12D2
:1020C80017049000041215ECFF9080E5E0FCA3E0F3
:1020D800C39FEC95F0504B9080D91217049080E57F
:1020E800E0FEA3E02403FFE43E8F82F58312154A45
:1020F800FD9080DE121704E92406F9E43AFA90808C
:10210800E5E0A3E025E0FFEE33FEE92FF9EA3EFA29
:10211800E48DF01216249080E5E475F0011215ABF9
:10212800809AE49080E7F0A3F09080E7E0FEA3E0D7
:10213800C39440EE940050209080D91217049080E8
:10214800E7E0A3E0F5828E83E41215899080E7E446
:1021580075F0011215AB80D17F01229080DE121735
:10216800049000021215EC640545F070037F01220B
:102178009080DE1217049000021215EC641045F0EE
:1021880070037F01229080DE12170490000212155E
:10219800EC640F45F070027F01229080EDEEF0A311
:1021A800EFF0A31217249080EDE0A3E05401908093
:1021B800F4F09080EDE0FEA3E0FFEEC313FEEF1312
:1021C800FF9080EDEEF0A3EFF0E4F5F19080EDE004
:1021D800FEA3E0EEF5F29080EDE0A3E0F5F375F4F0
:1021E8000175F88F30FCFD9080F4E0603C9080F23F
:1021F800E0FEA3E0D39400EE9400402D75F88390A0
:1022080080EFE475F00112170D121531F5FC90807E
:10221800EFE475F00112170D121531F5FDD2FE909D
:1022280080F274FFF5F01215AB75F88F9080F2E02C
:10223800FEA3E0C39402EE9400404B9080EFE47557
:10224800F00112170D121531F5FA9080EFE475F0D0
:102258000112170D121531F5FB9080EFE475F001AE
:1022680012170D121531F5FC9080EFE475F001128C
:10227800170D121531F5FDD2FE9080F274FF75F03E
:10228800FE1215AB80A69080F2E0FEA3E04E60231C
:1022980075F88C9080EFE475F00112170D12153166
:1022A800F5FA9080EFE475F00112170D121531F56B
:1022B800FBD2FEE4F5F822253032582000202020F9
:1022C8002020202020202020202020202020202006
:1022D80020202020202020202020202020004F4BBC
:1022E800202020200A00444154415F4552520A00F0
:1022F8004C656E6768740A004352432020200A0028
:102308004552524F520A00526563656976656420EA
:10231800202020202020200A0054696D656F7574E4
:102328002020202020202020200A00000100050075
:10233800000000000000020003000000060000008A
:10234800020010000000010000000300030000006C
:102358000100000004000300000001000000050067
:102368000300000001000000060003000000010057
:10237800000007000300000001000000080003003F
:10238800000006000000000000000000000000003F
:102398000000000000000000000000000000000035
:1023A8000000000000000000000000000000000025
:1023B8000000000000000000000000000000000015
:1023C80000000000000000000000000000908106EE
:1023D800121724908109EDF074FFA3F0A3F0E490A4
:1023E8008110F0A3F0908109E0FF908110E0FCA338
:1023F800E0C39FEC9400400302249A9081061217D0
:1024080004908110E0FEA3E0F5828E8312154AFF46
:1024180090810AE0FCA3E0FDECFEEF6DFF90810ADD
:10242800EEF0A3EFF0E4908112F0908112E0C394F3
:1024380008505290810AE0A3E05401FF90810EE415
:10244800F0A3EFF090810AE0FEA3E0FFEEC313FED5
:10245800EF13FF90810AEEF0A3EFF090810EE0FEFB
:10246800A3E04E601890810AE0FEA3E0FFEE64A0AE
:10247800FEEF6401FF90810AEEF0A3EFF090811265
:10248800E004F080A5908110E475F0011215AB020C
:1024980023ED90810AE0FEA3E0EEFFA3E4F0A3EFB2
:1024A800F090810AA3E0FEA3E0FCA3E0FDEE4CFE61
:1024B800EDFF90810AEEF0A3EFF090810AE0FEA311
:1024C800E0FF90810AEEF0A3EFF090810AE0FEA30E
:1024D800E0FF229080D9EEF0A3EFF0A3121724902A
:1024E80080D9E0A3E054019080E0F09080D9E0FE2C
:1024F800A3E0FFEEC313FEEF13FF9080D9EEF0A325
:10250800EFF0E4F5F19080D9E0FEA3E0EEF5F2906B
:1025180080D9E0A3E0F5F375F40175F8AF30FCFD60
:102528009080DEE0FEA3E0D39400EE940050030216
:1025380025C8D2FE20FEFD9080E0E0703D9080DE50
:10254800E0FEA3E0D39400EE9400402E9080DBE4FC
:1025580075F00112170DE5FA1215779080DBE47516
:10256800F00112170DE5FB1215779080E07401F069
:102578009080DE74FFF5F01215AB9080E0E0B401B6
:102588009F9080DEE0FEA3E0D39400EE940040909C
:102598009080DBE475F00112170DE5FC12157790B9
:1025A80080DBE475F00112170DE5FD121577E49054
:1025B80080E0F09080DE74FFF5F01215AB0225285C
:1025C800E4F5F822C0E0C0F0C083C082C0D075D066
:1025D80000C000C004C005C006C00720980302263A
:1025E8009FC2989081671216D30007A1209080009F
:1025F800E599F0908163E0FEA3E0EE30E703022660
:102608009F908163E0FEA3E0C39440EE9400503DA8
:10261800908000E0FF908163E0FCA3E02415F58240
:1026280074813CF583EFF0908163E475F001121535
:10263800AB908163E0FEA3E064024E7019908116AE
:10264800E030E712780F76000876058009908163FC
:10265800E4F0A3F08041908114E0FF780FE6FC08D5
:10266800E6FDC3EF9DE49C5003E004F0908114E084
:10267800FF780FE6FC08E6FDEFB5051BE4B5041787
:10268800908163E0FEA3E0FFEE4480908163F0A3B5
:10269800EFF0908114E4F0D007D006D005D004D034
:1026A80000D0D0D082D083D0F0D0E0329080D91240
:1026B80017249080DCEDF0E0C394105063A3E06031
:1026C8002F9080D91217041215C1FDACF09080DC50
:1026D800E0FF74017E00A807088005C333CE33CE1F
:1026E800D8F9FFEC4EFEED4FFFEE8FF012162422C4
:1026F8009080D91217041215C1FDACF09080DCE06F
:10270800FF74017E00A807088005C333CE33CED8F6
:10271800F9F4FFEEF45CFEED5FFFEE8FF012162485
:10272800229080DD1216C743C94053B7CF43B71074
:1027380075D88075985053877F9080DD1216AFE466
:102748001210D2A804A905AA06AB077F007EE07D77
:10275800447C4A121035121110C3E49FFF74049E82
:10276800FEE4FCFD9080DD1216C79080DD1216AFE6
:10277800780812169CEFE48FBA9080DD1216AFEF3E
:10278800E48FAAD2ACD2AF908163F0A3F090811409
:10279800F022C0E0C0F0C083C082C0D075D000C0B5
:1027A80000C001C002C003C004C005C006C007C203
:1027B800C69081671216AFEC4D4E4F601590816739
:1027C8001216AF74FFFBFAF9F812167090816712AF
:1027D80016C7780DE6FE08E64E6006E61618700184
:1027E80016D007D006D005D004D003D002D001D02F
:1027F80000D0D0D082D083D0F0D0E03290810612C1
:102808001724908109ECF0A3EDF0C2ACE4A3F0A387
:10281800F0908109E0FEA3E0FFA3E0FCA3E0C39FE2
:10282800EC9E502790810612170490810BE0FEA3BE
:10283800E0F5828E8312154AF5993099FDC2999078
:10284800810BE475F0011215AB80C6D2AC22C2AF81
:10285800C2D3C2D4E4F58E75C870F593759401752A
:102868009502F5C9F5F875F901F5A843B830F59A58
:10287800F5A9F5B953C9FDD2BDD2BCD2AF2290801B
:10288800D9EEF0A3EFF09080D9E0FEA3E0FF780D39
:10289800A60608A607780DE6FE08E64E70F722752C
:1028A800C870E4F5CDF5CC75CBBC75CACD43A8206E
:1028B800D2C8D2AF2290810AEFF0C2ACE0F59930CD
:1028C80099FDC299D2AC22908109EFF0E0FF12285D
:0728D800BD908109E0FF2221
:00000001FF
