:1000000002002E9080C7121487C2ACE4F598F5BAAE
:0F001000F5AA53877F9080C712146F1224DF2246
:0300230002238233
:10002B00022550787FE4F6D8FD75818E02007502AB
:10003B000103E493A3F8E493A34003F68001F208D1
:10004B00DFF48029E493A3F85407240CC8C333C40A
:10005B00540F4420C8834004F456800146F6DFE475
:10006B00800B01020408102040809000BAE47E014E
:10007B009360BCA3FF543F30E509541FFEE493A3E8
:10008B0060010ECF54C025E060A840B8E493A3FAFA
:10009B00E493A3F8E493A3C8C582C8CAC583CAF086
:1000AB00A3C8C582C8CAC583CADFE9DEE780BE0222
:1000BB000D000044815500000000458144010203FE
:1000CB00040542814D0001428153000441814300EC
:1000DB004481490000000042814F00004181010032
:0C00EB00020F00000012260C12265D22FD
:1000F800FFFF4457494E54350200757BFF7A20793B
:10010800F378227C007D007E007F501212CB7BFFAB
:100118007A21794378017C807D017E007F08121264
:10012800CB908009121493000000007BFF7A21799C
:100138004B78177C807D017E007F301212CB7BFFCD
:100148007A21797B787C7C007D007E007F101212FA
:10015800CBE49080C1F0A3F0A3F0A3F0A3F0A3F048
:100168001200F07F807E257D007C001224DFE49061
:10017800814FF0A3F090800DF090815512149300F8
:1001880007A120E490800EF0A31214930000000051
:10019800E4FFFEFDFC90815512147BC312144B70D2
:1001A8002290800DE0B4011B908151E0FEA3E04E47
:1001B8006011908151E0A3E0FFEE4480908151F0FE
:1001C800A3EFF0908151E0FEA3E0EE20E7030207E1
:1001D8006D908151A3E0FFEE547F908013F0A3EF60
:1001E800F07B017A8079139080E0E4F0A37402F048
:1001F8007F697E20121F62E490805FF0A3F09080F8
:1002080015F0A3F0908013E0FEA3E0FFA3E0FCA3A9
:10021800E0C39FEC9E505A90805FE0FEA3E0241755
:10022800F974803EFA7B01C003C002C0017BFF7AEB
:1002380020797F9080CA1214E4908015E0FEA3E034
:100248002403F58274813EF583E0FF9080CDE4F0CD
:10025800A3EFF0D001D002D0031215A590805FEE75
:100268008FF012136B908015E475F00112136B80F8
:10027800937BFF7A2079859080E0E4F0A37410F0F6
:10028800FF7E20121F627B017A80791790805FE0E1
:10029800FEA3E0FFEEC313FEEF132402FFE43E903B
:1002A80080E0F0A3EFF07F107E20121F62E49080C0
:1002B80015F0A3F0908015E0FEA3E0C39430EE940F
:1002C80000501C908015E0A3E02417F58274803E4E
:1002D800F583E4F090801575F00112136B80D590CA
:1002E80081551214930007A1207B017A817903C0FC
:1002F80002C001908013E0FCA3E0FD7A807977903A
:1003080080CC1214E4D001D002121CC99080C5E43C
:10031800F0A3EFF07B017A8079C59080E0E4F0A348
:1003280004F07F717E20121F629080C5E0FEA3E07A
:1003380064014E600302068A7BFF7A2079A69080CA
:10034800E0F0A37404F07F967E20121F62908077FD
:10035800E0FEA3E08EF0121513072B0001038100C5
:100368000204090003048800040507000505860047
:1003780006060500070000072B90807BE0FEA3E03F
:10038800C39402EE94004060A3E0A3E0FEA3E0FC67
:10039800A3E0FDEE4CFEEDFF9080BDEEF0A3EFF084
:1003A800908085E0A3E0FEA3E0FCA3E0FDEE4CFE18
:1003B800EDFF9080BFEEF0A3EFF07B017A8079BF6C
:1003C8009080E0E4F0A304F07F817E20121F627B1E
:1003D800017A8079BD9080E0E4F0A37402F07F0791
:1003E8007E20121F6202072B7BFF7A2079AE908055
:1003F800E0E4F0A37406F07F967E20121F620207E5
:100408002B90807BE0FEA3E0C39402EE940050039F
:1004180002072BA3E0A3E0FEA3E0FCA3E0FDEE4C63
:10042800FEEDFF908075EEF0A3EFF0908075E0FE92
:10043800A3E0EE30E70E908075A3E0FF908075EEA4
:10044800F0A3EFF0908075E0FCA3E0FDE4120D91BD
:10045800E4FBFA79207841120CEF9080651214873A
:100468007B017A8079659080E0E4F0A37402F07FE4
:10047800857E20121F62E4908075F0A3F002072B9E
:1004880090807BE0FEA3E0C39402EE940050030248
:10049800072BA3E0A3E0FEA3E0FCA3E0FDEE4CFEE7
:1004A800EDFF908075EEF0A3EFF0908075E0FEA36D
:1004B800E0EE30E70E908075A3E0FF908075EEF0D7
:1004C800A3EFF0908075E0FCA3E0FDE4120D91E449
:1004D800FBFA79207841120CEF9080691214877B1F
:1004E800017A8079699080E0E4F0A37402F07F8754
:1004F8007E20121F62E4908075F0A3F002072B9013
:10050800807BE0FEA3E0C39402EE94005003020750
:100518002BA3E0A3E0FEA3E0FCA3E0FDEE4CFEED80
:10052800FF908075EEF0A3EFF0908075E0FEA3E0F9
:10053800EE30E70E908075A3E0FF908075EEF0A393
:10054800EFF0908075E0FCA3E0FDE4120D91E4FB70
:10055800FA79207841120CEF90806D1214877B0194
:100568007A80796D9080E0E4F0A37402F07F897E50
:1005780020121F62E4908075F0A3F002072B908090
:100588007BE0FEA3E0C39402EE9400500302072B25
:10059800A3E0A3E0FEA3E0FCA3E0FDEE4CFEEDFF2C
:1005A800908075EEF0A3EFF0908075E0FEA3E0EE8A
:1005B80030E70E908075A3E0FF908075EEF0A3EF12
:1005C800F0908075E0FCA3E0FDE4120D91E4FBFAE5
:1005D80079207841120CEF9080711214877B017A90
:1005E8008079719080E0E4F0A37402F07F917E201E
:1005F800121F62E4908075F0A3F002072B90807BB5
:10060800E0FEA3E0C39402EE9400500302072BA37C
:10061800E0A3E0FEA3E0FCA3E0FDEE4CFEEDFF90BE
:100628008075EEF0A3EFF0908075E0FEA3E0EE3069
:10063800E70E908075A3E0FF908075EEF0A3EFF0D1
:10064800908075E0FCA3E0FDE4120D91E4FBFA79DB
:10065800207841120CEF9080611214877B017A8018
:1006680079619080E0E4F0A37402F07F057E2012A7
:100678001F62E4908075F0A3F002072B02072B029B
:10068800072B9080C5E0FEA3E064634E702E7BFFCD
:100698007A2079B89080E0F0A37404F07F967E20E9
:1006A800121F627F147E0012263CE4908151F0A351
:1006B800F07F807E25FDFC12000380679080C5E0F6
:1006C800FEA3E064624E702E7BFF7A2079C0908092
:1006D800E0F0A37404F07F967E20121F627F147EE0
:1006E8000012263CE4908151F0A3F07F807E25FD26
:1006F800FC120003802D7BFF7A2079C89080E0E40B
:10070800F0A37404F07F967E20121F627F147E008F
:1007180012263CE4908151F0A3F07F807E25FDFCF9
:10072800120003E4908151F0A3F0908013F0A3F03D
:10073800A3F0A3F0908015E0FEA3E0C39440EE94EC
:1007480000501C908015E0A3E02403F58274813EDC
:10075800F583E4F090801575F00112136B80D59045
:1007680081017401F090800DE06003020BF7908125
:100778004FE0FEA3E0C39408EE94004007E49081A4
:100788004FF0A3F07F0F7E0012263C90814FE0A32C
:10079800E075F00AA42422F9E4FAFB78727C00FDE3
:1007A800FE7F0A1212CB7B017A81794F9080E0E4B8
:1007B800F0A304F07F007E20121F627874E608E63A
:1007C800788EF67B007A0079749080E0E4F0A304D8
:1007D800F0FF7E20121F627B007A0079769080E01D
:1007E800E4F0A304F07F027E20121F62788EE6B444
:1007F80003187878E6FE08E625E0FFEE33FEEF24DE
:1008080005FFE43E780FF608A607788EE6B41007D1
:10081800780F7600087608788EE6B40507780F76A4
:1008280000087608788EE6B40607780F7600087612
:1008380008788EE6B40F07780F76000876087B00F4
:100848007A00790F9080E0E4F0A37402F07F037ED1
:1008580020121F627B007A0079729080E0E4F0A396
:1008680004F07F047E20121F629080091214930006
:1008780002710090800D7401F0E4788CF608F6FBA4
:100888007A00798C9080CCF0A304F07F797E2012D6
:1008980022917B017A8079479080CCE4F0A304F020
:1008A8007F647E201222917B017A8079BD9080CC72
:1008B800E4F0A304F07F737E20122291908047E039
:1008C800FEA3E0FF787CA60608A607908047E0FE16
:1008D800A3E0FF08A60608A607908047E0FEA3E06D
:1008E800FF08A60608A607908047E0FEA3E0FF08D9
:1008F800A60608A6079080BDE0FEA3E0FF08A606AE
:1009080008A607788CE608E65402FF908049E4F0D0
:10091800A3EFF018E608E65404FFA3E4F0A3EFF011
:1009280018E608E65408FFA3E4F0A3EFF018E60879
:10093800E65410FFA3E4F0A3EFF018E608E654200D
:10094800FF90805DE4F0A3EFF018E608E65440FF5E
:10095800908059E4F0A3EFF0908049E0FEA3E0FF17
:10096800EEC313EF135401FF908051E4F0A3EFF0AE
:1009780090804BE0FEA3E07802CEC313CE13D8F9E3
:100988005401FF908053E4F0A3EFF090804DE0FE17
:10099800A3E07803CEC313CE13D8F95401FF908097
:1009A80055E4F0A3EFF090804FE0FEA3E0FFEEC423
:1009B800F854F0C868EFC4540F485401FF908057AA
:1009C800E4F0A3EFF0A3E0FEA3E07806CEC313CED5
:1009D80013D8F95401FF90805BE4F0A3EFF07B019A
:1009E8007A8079519080E0E4F0A304F07F057E21BD
:1009F800121F627B017A8079539080E0E4F0A304AF
:100A0800F07F077E21121F627B017A8079559080E2
:100A1800E0E4F0A304F07F097E21121F627B017AD3
:100A28008079579080E0E4F0A304F07F117E2112D2
:100A38001F627B017A80795B9080E0E4F0A304F088
:100A48007F137E21121F6290805BE0FEA3E06401A9
:100A58004E701F90800EE070197824F6087605080D
:100A6800F608F60876FF08F604F0A31214930000BF
:100A7800000090805BE0FEA3E064014E703A908035
:100A88000EE0B401337FA07EBB7D0D7C00A3121461
:100A98007BC312144B40217824760008760508762B
:100AA800000876010876FF08760090800E7401F041
:100AB800A31214930000000090805BE0FEA3E04EB8
:100AC80070207824F608760F08F608F608F60876F7
:100AD8000808760108F690800EF0A312149300001F
:100AE8000000788CE608E6540118760008F67B00CA
:100AF8007A00798A18E608E69080CBF0E4FD1224A3
:100B08006A7B007A00798A908049E0A3E09080CBE4
:100B1800F07D0112246A7B007A00798A90804BE08C
:100B2800A3E09080CBF07D0212246A7B007A0079E2
:100B38008A90804DE0A3E09080CBF07D0312246A78
:100B48007B007A00798A90804FE0A3E09080CBF018
:100B58007D0412246A7B007A00798A90805DE0A384
:100B6800E09080CBF07D0512246A7B007A00798AB8
:100B7800908059E0A3E09080CBF07D0612246A9023
:100B8800805DE0FEA3E07805CEC313CE13D8F954F8
:100B980001FF90805DE4F0A3EFF07B007A00798C90
:100BA8009080E0E4F0A304F07F757E20121F627B42
:100BB800017A80795D9080E0E4F0A304F07F607EA4
:100BC80020121F627B007A007972C002C0017A008D
:100BD800797C9080CA1214E49080CD7408F0D0011A
:100BE800D0021219C39081551214930007A12090C6
:100BF800800912146F74FFFBFAF9F8121430908010
:100C08000912148790800F12146FE47B01FAF9F827
:100C180012143090800F12148790800DE0640160E8
:100C280003020198908101E0B4013D7BFF7A2079AD
:100C3800CF9080E0E4F0A37409F07F427E20121F79
:100C48006290814FE475F00112136BE490800DF00F
:100C5800908101F090800912149300027100908134
:100C6800551214930007A120E4FFFEFDFC908009B3
:100C780012147BC312144B60030201987BFF7A2085
:100C880079E19080E0F0A37409F07F427E20121F82
:100C980062E4908015F0A3F0908015E0FEA3E0C315
:100CA8009430EE9400501C908015E0A3E02417F5D2
:100CB8008274803EF583E4F090801575F00112137C
:100CC8006B80D590814FE475F00112136BE490802E
:100CD8000DF0908101F09081551214930007A12026
:100CE80002019822020E40EC5D046005E859047088
:100CF80003020E36120E01580460F6EC4860F2EC5E
:100D08007004FDFEFF22C860DB2481C85009C39827
:100D180060025006020E3D9850CAF582E9294B4AF6
:100D28007005AB82020E2C75F0007C1A7880C3EF38
:100D38009BEE9AED99400DC3EF9BFFEE9AFEED995D
:100D4800FDE842F0DC23ACF0D0E0FFD0E0FED0E0DC
:100D5800FDAB8220E7101BEB60BAEC2CFCEF33FFF5
:100D6800EE33FEED33FD020E18E803F830E705C058
:100D7800F075F000EF2FFFEE33FEED33FD40B83095
:100D8800E7C280AA75F020800E75F010800575F016
:100D9800087D007E007F003392D530D50312143DC4
:100DA800EC334010EF33FFEE33FEED33FDEC33FC54
:100DB800D5F0ED22E5F0247EA2D513CC92E7CDCE76
:100DC800FF22EDD2E7CD33EC3392D524814006E4FF
:100DD800FFFEFDFC22FCE4CFCECDCC24E050117404
:100DE800FF80EDC3CC13CCCD13CDCE13CECF13CF14
:100DF8000470F030D5DE02143DE9D2E7C933E83398
:100E0800F892D5EDD2E7CD33EC33FC5002B2D522BF
:100E1800EC30E7100FBF000C0EBE00080DBD00043B
:100E28000BEB6014A2D5EB13FCED92E7FD2274FFE7
:100E3800FCFDFEFF22E480F8A2D574FF13FC7D8040
:100E4800E480EFF920E73624F950037907E4F42425
:100E580002FBE582158270021583DBF6E024FB5065
:100E68001BE96014E4F0E582158270021583E00442
:100E7800F0B40A08E4F0D9EE7401F00A22C2D522CF
:100E8800ED33EC3392D5FA602AB4FF33EDC2E77B39
:100E9800FF60067A0E79ADE4227A0E79B620D50481
:100EA8007A0E79B1224E614E002B494E46002D49EB
:100EB8004E4600E47A08F0A3DAFC7B00740722C0EF
:100EC80083C082ECC0E0EDC0E0EEC0E0EFC0E0EA35
:100ED80075F010A4CAABF075F04DA42BFBE435F007
:100EE800FCEA2410FAEB34C5FBEC34D9FCEDC2E77C
:100EF800FF75F056A4F42411C5F0F434C58FF0A49E
:100F08002AE5F03BE43CF020E7141211BBD0E0FFE7
:100F1800D0E0FED0E0FDD0E0FC120CEF8014F40429
:100F28001211BBD0E0FFD0E0FED0E0FDD0E0FC1213
:100F38001085D082D083E0FAEDD2E7CD33EC3324AC
:100F480082FBE4C3CF33CFCE33CECD33CD33DBF307
:100F58007B0775F00A846004F0A31B0AE5F0F0A390
:100F68008FF0740AA4FFACF08EF0740AA42CFEACC7
:100F7800F050010C8DF0740AA42CFDE435F0F0A3B8
:100F8800DBDE740722020E36E86480F8E933E833C2
:100F980060110460F0ED33EC337009E8FCE9FDEA18
:100FA800FEEBFF220460DED3EB9FEA9EE99DE8C2D8
:100FB800E78CF0C2F795F0400CE8CCF8E9CDF9EAF7
:100FC800CEFAEBCFFB120E0185D0F0580470032047
:100FD800D5B3E80470075002B2D5020E4092D5ECA2
:100FE8000460F7E4CCC0E0C398F8603B941860084C
:100FF800400DD0E0FB020E18E4FBFAC9FC8028E89B
:1010080030E406E4C9FBE4CAFCE830E305E4C9CAF5
:10101800CBFCE854076010F8C3E913F9EA13FAEBBC
:1010280013FBEC13FCD8F130F52FC3E49CFCEF9BC9
:10103800FFEE9AFEED99FDD0E0FBEF4E4D4C70129D
:1010480022DB03020E3DEC2CFCEF33FFEE33FEED0A
:1010580033FDED30E7EB020E18EF2BFFEE3AFEED15
:1010680039FDD0E0FB50130BBB0003020E40ED131B
:10107800FDEE13FEEF13FFEC13FC020E18EC4D60AF
:1010880011E8497017ED33EC3304600DE4FCFFFE02
:10109800FD22E933E8330470F8020E36120E0158C7
:1010A800046009E4CC24815006285009020E402827
:1010B8004003020E3DC0E0EB4A7044B98006D0E020
:1010C800FB020E2CEF4E701CBD8008EBFFEAFEE918
:1010D800FD80EBE98DF0A4FEE5F002116EE9CDF993
:1010E800EAFEEBFFEF89F0A4FCE5F0CE89F0A42E30
:1010F800FFE435F0CD89F0A42DFEE435F08067EFEC
:101108004E7005BD80D780C3EF8BF0A4ACF0EE8B9A
:10111800F0A42CFCE435F0F8EF8AF0A42CE5F038C4
:10112800FCE433CB8DF0A42CFCE5F03BF8EE8AF020
:10113800A42CFCE5F038F8E433CF89F0A42CFCE5C6
:10114800F038CF3400CE89F0A42FFFE5F03EFEE45E
:1011580033C98DF0A42EFEE5F039CD8AF0A42FFF17
:10116800E5F03EFEE43DFD33D0E0FB50070BBB004D
:101178000F020E40EC2CFCEF33FFEE33FEED33FD97
:10118800020E183F8000004120000042C8000044C1
:101198007A0000461C400047C35000497424004BA5
:1011A8001896804CBEBC205A0E1BCA6753C21C74CA
:1011B8009DC5AEFB60065407601C23231211E9EBA2
:1011C800543860091211D51211E4121085ECF8EDAB
:1011D800F9EEFAEFCB22EB1211E480F15438032434
:1011E8001C90118BFE93FC0EEE93FD0EEE930ECE2B
:1011F80093FF22E709F608DFFA8046E709F208DFDD
:10120800FA803E88828C83E709F0A3DFFA8032E314
:1012180009F608DFFA8078E309F208DFFA807088B7
:10122800828C83E309F0A3DFFA806489828A83E0F1
:10123800A3F608DFFA805889828A83E0A3F208DFE0
:10124800FA804C80D280FA80C680D4806980F2808F
:1012580033801080A680EA809A80A880DA80E280B5
:10126800CA803389828A83ECFAE493A3C8C582C80A
:10127800CCC583CCF0A3C8C582C8CCC583CCDFE974
:10128800DEE7800D89828A83E493A3F608DFF9EC10
:10129800FAA9F0EDFB2289828A83ECFAE0A3C8C59B
:1012A80082C8CCC583CCF0A3C8C582C8CCC583CCC2
:1012B800DFEADEE880DB89828A83E493A3F208DF31
:1012C800F980CC88F0EF60010E4E60C388F0ED2401
:1012D80002B4040050B9F582EB2402B4040050AF04
:1012E800232345822390124B73BB010689828A838C
:1012F800E0225002E722BBFE02E32289828A83E4CD
:101308009322BB010CE58229F582E5833AF583E057
:10131800225006E92582F8E622BBFE06E92582F876
:10132800E222E58229F582E5833AF583E49322BB3C
:10133800010689828A83F0225002F722BBFE01F35C
:1013480022F8BB010DE58229F582E5833AF583E8A9
:10135800F0225006E92582C8F622BBFE05E925825F
:10136800C8F222C5F0F8A3E028F0C5F0F8E5821528
:101378008270021583E038F022BB010A89828A83D1
:10138800E0F5F0A3E022500687F009E71922BBFE3A
:1013980007E3F5F009E3192289828A83E493F5F0DB
:1013A80074019322BB0110E58229F582E5833AF5A1
:1013B80083E0F5F0A3E0225009E92582F886F008D9
:1013C800E622BBFE0AE92582F8E2F5F008E222E50A
:1013D800832AF583E993F5F0A3E99322BB010A89EF
:1013E800828A83F0E5F0A3F0225006F709A7F019E6
:1013F80022BBFE06F3E5F009F31922F8BB0111E55B
:101408008229F582E5833AF583E8F0E5F0A3F02236
:101418005009E92582C8F608A6F022BBFE09E9258D
:1014280082C8F2E5F008F222EF2BFFEE3AFEED3922
:10143800FDEC38FC22C3E49FFFE49EFEE49DFDE43E
:101448009CFC22EB9FF5F0EA9E42F0E99D42F0E811
:101458009C45F022E8600FECC313FCED13FDEE137E
:10146800FEEF13FFD8F122E0FCA3E0FDA3E0FEA30A
:10147800E0FF22E0F8A3E0F9A3E0FAA3E0FB22EC06
:10148800F0A3EDF0A3EEF0A3EFF022A8828583F09D
:10149800D083D0821214AA1214AA1214AA1214AA5F
:1014A800E473E493A3C583C5F0C583C8C582C8F0B7
:1014B800A3C583C5F0C583C8C582C822E0FBA3E0E5
:1014C800FAA3E0F922F8E0FBA3A3E0F925F0F0E5A0
:1014D80082158270021583E0FA38F022EBF0A3EA55
:1014E800F0A3E9F022D083D082F8E493701274015B
:1014F80093700DA3A393F8740193F5828883E47322
:101508007402936860EFA3A3A380DFD083D082F82E
:10151800E4937012740193700DA3A393F87401936C
:10152800F5828883E473740293B5F00674039368B4
:1015380060E9A3A3A3A380D8E50824CAF582E4340C
:1015480080F583E00508229080C73007039080CAA1
:10155800E475F0011214CD0212F12000E97F2ED2B9
:10156800008018EF540F2490D43440D4FF30040B7B
:10157800EF24BFB41A0050032461FFE50960021587
:1015880009050CE50C7002050B30070E9080C7E4C6
:1015980075F0011214CDEF0213370226857403D2B9
:1015A800078003E4C207F5089080C71214E4E4F545
:1015B80009F50BF50CE50960077F2012158380F506
:1015C800750AFFC201C200C202C203C205C206C236
:1015D8000812154FFF700D3007057F00121594AFE4
:1015E8000CAE0B22B4255FC2D5C20412154FFF24DE
:1015F800D0B40A00501A75F00A780930D50508B633
:10160800FF0106C6A426F620D5047002D20380D9AD
:1016180024CFB41A00EF5004C2E5D204021886D2CF
:101628000180C6D20080C0D20280BCD2D580BAD296
:101638000580B47F201215832002077401B50900C4
:1016480040F1121540FF1215830215BDD208D206CB
:101658008095121540FB121540FA121540F94A4BB5
:10166800700679847A197BFF20022EE509602A7EAC
:10167800008E8275830012130A60060EEE650A70EA
:10168800F0C2D5EBC0E0EAC0E0E9C0E0EE1218E72E
:10169800D0E0F9D0E0FAD0E0FB1212F1FF60AAEB3B
:1016A800C0E0EAC0E0E9C0E0121583D0E02401F907
:1016B800D0E03400FAD0E0FBE50A0460DCD50AD9B2
:1016C8008087D20280A21218C960F7E50A70010467
:1016D800120E4BA90A600DE50A600914F50A1219E1
:1016E80071EF60F3EA30E702F404C3995079EAF441
:1016F800250A0430E701E404F50A800D1218C960D0
:10170800C1EA050A250A120E4BEA9080F6F030E786
:1017180001E4250A04D50A04200501141218E7E497
:10172800C0E01219719080F6E0601320E70714F00A
:1017380012156B802204F0D0E014C0E07F0012156F
:101748006BE50A6007121562150A800B3005031253
:101758001562D0E00215BDD0E00480C41218C9603B
:101768009EE50A04120E4B9080F6EAF0E50A200581
:101778000260010424041218E774FF04C0E012197F
:101788007112156BE50A2005026003121562D0E09C
:10179800B50AE87F451215759080F6E07F2B30E793
:1017A800047F2DF404C0E0121583D0E075F00A849C
:1017B800C0F012156CD0E012156C0215BD791080BE
:1017C800027908C206C2088008D2D5790A8004794D
:1017D8000AC2D5E50A047002F50AE4FAFDFEFF1212
:1017E8001540FC7B08200113121540FD7B103000CA
:1017F8000A121540FE121540FF7B20EC3382D59269
:10180800D55013C3E43000069FFFE49EFEE4200198
:10181800039DFDE49CFCE4CBF8C201EC700CCFCE38
:10182800CDCCE824F8F870F38017C3EF33FFEE331C
:10183800FEED33FDEC33FCEB33FB994002FB0FD894
:10184800E9EB300105F8D0E0C448B201C0E00AEC89
:101858004D4E4F78207B0070C2EAB50A0040BCC0EC
:10186800E01218E9D0F0D0E0200104C4C0E0C4B20E
:1018780001C0F012156CD0F0D5F0EB0215BD1214B2
:10188800ED165A5317C558162B4C16274217C94F31
:1018980017D14417D14916404317D755170446178F
:1018A800644516CE4719A450162F2D16332E1656FA
:1018B8002B163723165420198D2A15EF48000016C9
:1018C8004EE50AB4FF03750A06121540FC121540CE
:1018D800FD121540FE121540FF9080EF020E887928
:1018E8000AA2D5200314300509B910020404B90866
:1018F8000104A2D52006025001042002689202B514
:1019080009005034C0E07F203003197F30A20272F2
:10191800067205500F121940C202C206C205C2085B
:101928007F30800F300503E9C0E0121583300503CE
:10193800D0E0F9D0E0B509CC3005177F30B9100CEC
:101948001215837F583004077F788003B908031283
:1019580015833002057F2D0215837F202008F87F2C
:101968002B2006F322920280CF7F00B40700500B91
:1019780024EFF582E43480F583E0FF22286E756C4D
:101988006C2900D2011215403001F8C201780930E3
:10199800D50108F60215EF2D504349581215402479
:1019A80003B405004001E490199F93121574743A2A
:1019B800121574D2037509040217C59080C7121452
:1019C800E49080C71214C41213819080CEF09080E6
:1019D800C71214C49000021213AC9080CFF090800C
:1019E800C71214C49000021213AC640345F0704A85
:1019F8009080C71214C49000041213ACE5F09080D4
:101A0800D0F09080C71214C49000041213AC9080D8
:101A1800D1F09080C71214C49000061213ACE5F000
:101A28009080D2F09080C71214C49000061213ACB4
:101A38009080D3F09080F27406F09080C71214C49E
:101A48009000021213AC640545F0704A9080C712EA
:101A580014C49000041213ACE5F09080D0F090808C
:101A6800C71214C49000041213AC9080D1F0908077
:101A7800C71214C49000061213ACE5F09080D2F09F
:101A88009080C71214C49000061213AC9080D3F053
:101A98009080F27406F09080C71214C4900002126D
:101AA80013AC640645F0704A9080C71214C49000C5
:101AB800041213ACE5F09080D0F09080C71214C4E3
:101AC8009000041213AC9080D1F09080CA1214C414
:101AD80090000C1213ACE5F09080D2F09080CA12FE
:101AE80014C490000E1213AC9080D3F09080F2745E
:101AF80006F09080C71214C49000021213AC640F51
:101B080045F0706F9080C71214C49000041213AC93
:101B1800E5F09080D0F09080C71214C490000412B1
:101B280013AC9080D1F09080C71214C490000612B4
:101B380013ACE5F09080D2F09080C71214C49000E6
:101B4800061213AC9080D3F09080C71214C4900092
:101B5800081213ACE5F09080D4F09080C71214C43A
:101B68009000081213AC9080D5F09080F27408F0C1
:101B7800021C709080C71214C49000021213AC6447
:101B88001045F06003021C709080CDE025E0908045
:101B9800F3F09080C71214C49000041213ACE5F05F
:101BA8009080D0F09080C71214C49000041213AC37
:101BB8009080D1F09080CDE0E49080D2F09080CDFC
:101BC800E09080D3F09080F3E09080D4F0E49080AF
:101BD800F0F0A3F09080CDE0FF9080F0E0FCA3E06F
:101BE800C39FEC940050779080F0E0FEA3E025E0DE
:101BF800FFEE33FE9080CA1214C48F828E831213B4
:101C0800ACE5F0FD9080F0E0FEA3E025E0FFEE33C8
:101C1800FE74D52FF58274803EF583EDF09080F048
:101C2800E0FEA3E025E0FFEE33FE9080CA1214C464
:101C38008F828E831213ACFD9080F0E0FEA3E02526
:101C4800E0FFEE33FE74D62FF58274803EF583ED07
:101C5800F09080F0E475F00112136B021BDC9080A9
:101C6800F3E024079080F2F07B017A8079CE9080AF
:101C7800F2E0FD12218B9080EEEEF0A3EFF0908061
:101C8800EEE0A3E0FF9080F2E024CFF582E4348018
:101C9800F583EFF09080EEE0FEA3E0EEFF9080F297
:101CA800E024CEF582E43480F583EFF09080F2E012
:101CB8002402F07B017A8079CEE0FD7C001225BAFF
:101CC800229080C71214E49080CAECF0A3EDF09043
:101CD80080C71214C41212F1FF9080D7E4F0A3EF6A
:101CE800F09080C71214C490000112130AFF90806C
:101CF800D9E4F0A3EFF07B017A8079D79080E0E413
:101D0800F0A304F07F657E20121F627B017A807940
:101D1800D99080E0E4F0A304F07F677E20121F6270
:101D28009080CAE0FEA3E0C39404EE94005039E426
:101D38009080D5F0A3F09080D5E0FEA3E0C3944056
:101D4800EE940050209080C71214C49080D5E0A370
:101D5800E0F5828E83E41213499080D5E475F00192
:101D680012136B80D17F63229080C71214C49080B5
:101D7800CAE0FEA3E024FEFFEE34FF8F82F5831253
:101D8800130AFE9080C71214C49080CAE0FCA3E036
:101D980024FFFDEC34FF8D82F58312130AFDEEED6E
:101DA800FF9080CFEEF0A3EFF09080C71214C4909C
:101DB80080CAE0A3E024FEFD12218B9080D1EEF0D2
:101DC800A3EFF09080D1E0FEA3E0FF9080CFE0FC8D
:101DD800A3E06F7002EC6E6039E49080D5F0A3F058
:101DE8009080D5E0FEA3E0C39440EE94005020908C
:101DF80080C71214C49080D5E0A3E0F5828E83E4F6
:101E08001213499080D5E475F00112136B80D17FCD
:101E180062229080C71214C41212F1FF9080CC1273
:101E280014C4E48FF01213E49080C71214C4900015
:101E38000112130AFF9080CC1214C4900002E48FA0
:101E4800F01214039080CC1214C49000021213AC48
:101E5800640345F06003021F239080C71214C490E6
:101E6800000212130AFF9080CC1214C4900004E4FC
:101E78008FF0121403E49080D3F0A3F09080CC127A
:101E880014C49000041213ACFF9080D3E0FCA3E0CC
:101E9800C39FEC95F0504B9080C71214C49080D328
:101EA800E0FEA3E02403FFE43E8F82F58312130AC9
:101EB800FD9080CC1214C4E92406F9E43AFA908023
:101EC800D3E0A3E025E0FFEE33FEE92FF9EA3EFA7E
:101ED800E48DF01213E49080D3E475F00112136BD3
:101EE800809AE49080D5F0A3F09080D5E0FEA3E03E
:101EF800C39440EE940050209080C71214C4908080
:101F0800D5E0A3E0F5828E83E41213499080D5E4EE
:101F180075F00112136B80D17F01229080CC1214CE
:101F2800C49000021213AC640545F070037F0122CF
:101F38009080CC1214C49000021213AC641045F0C7
:101F480070037F01229080CC1214C49000021213F7
:101F5800AC640F45F070027F01229080DBEEF0A3A5
:101F6800EFF0A31214E49080DBE0A3E0540190802A
:101F7800E2F09080DBE0FEA3E0FFEEC313FEEF1378
:101F8800FF9080DBEEF0A3EFF0E4F5F19080DBE06A
:101F9800FEA3E0EEF5F29080DBE0A3E0F5F375F444
:101FA8000175F88F30FCFD9080E2E0603C9080E0A5
:101FB800E0FEA3E0D39400EE9400402D75F88390E2
:101FC80080DDE475F0011214CD1212F1F5FC908059
:101FD800DDE475F0011214CD1212F1F5FDD2FE9078
:101FE80080E074FFF5F012136B75F88F9080E0E0D5
:101FF800FEA3E0C39402EE9400404B9080DDE475AC
:10200800F0011214CD1212F1F5FA9080DDE475F0AA
:10201800011214CD1212F1F5FB9080DDE475F00188
:102028001214CD1212F1F5FC9080DDE475F0011266
:1020380014CD1212F1F5FDD2FE9080E074FF75F018
:10204800FE12136B80A69080E0E0FEA3E04E6023B2
:1020580075F88C9080DDE475F0011214CD1212F140
:10206800F5FA9080DDE475F0011214CD1212F1F545
:10207800FBD2FEE4F5F8222530325820002020203B
:102088002020202020202020202020202020202048
:1020980020202020202020202020202020004F4BFE
:1020A800202020200A00444154415F4552520A0032
:1020B8004C656E6768740A004352432020200A006A
:1020C8004552524F520A005265636569766564202D
:1020D800202020202020200A0054696D656F757427
:1020E8002020202020202020200A000001000500B8
:1020F80000000000000002000300000004000000CF
:1021080002001000000001000000030003000000AE
:1021180001000000040003000000010000000500A9
:102128000300000001000000060003000000010099
:10213800000007000300000001000000000000008C
:102148000000000000000000000000000000000087
:102158000000000000000000000000000000000077
:102168000000000000000000000000000000000067
:102178000000000000000000000000000000000057
:102188000000009080F41214E49080F7EDF074FFE2
:10219800A3F0A3F0E49080FEF0A3F09080F7E0FFB6
:1021A8009080FEE0FCA3E0C39FEC94004003022271
:1021B800509080F41214C49080FEE0FEA3E0F582F3
:1021C8008E8312130AFF9080F8E0FCA3E0FDECFE7A
:1021D800EF6DFF9080F8EEF0A3EFF0E4908100F04F
:1021E800908100E0C3940850529080F8E0A3E05436
:1021F80001FF9080FCE4F0A3EFF09080F8E0FEA3EC
:10220800E0FFEEC313FEEF13FF9080F8EEF0A3EFAC
:10221800F09080FCE0FEA3E04E60189080F8E0FEAD
:10222800A3E0FFEE64A0FEEF6401FF9080F8EEF0FB
:10223800A3EFF0908100E004F080A59080FEE475A3
:10224800F00112136B0221A39080F8E0FEA3E0EEE8
:10225800FFA3E4F0A3EFF09080F8A3E0FEA3E0FC76
:10226800A3E0FDEE4CFEEDFF9080F8EEF0A3EFF05A
:102278009080F8E0FEA3E0FF9080F8EEF0A3EFF086
:102288009080F8E0FEA3E0FF229080C7EEF0A3EF75
:10229800F0A31214E49080C7E0A3E054019080CE2C
:1022A800F09080C7E0FEA3E0FFEEC313FEEF13FF3C
:1022B8009080C7EEF0A3EFF0E4F5F19080C7E0FE60
:1022C800A3E0EEF5F29080C7E0A3E0F5F375F40122
:1022D80075F8AF30FCFD9080CCE0FEA3E0D394000D
:1022E800EE9400500302237ED2FE20FEFD9080CEA5
:1022F800E0703D9080CCE0FEA3E0D39400EE940023
:10230800402E9080C9E475F0011214CDE5FA12133D
:10231800379080C9E475F0011214CDE5FB1213372C
:102328009080CE7401F09080CC74FFF5F012136B9E
:102338009080CEE0B4019F9080CCE0FEA3E0D394DF
:1023480000EE940040909080C9E475F0011214CD1D
:10235800E5FC1213379080C9E475F0011214CDE53D
:10236800FD121337E49080CEF09080CC74FFF5F026
:1023780012136B0222DEE4F5F822C0E0C0F0C0833D
:10238800C082C0D075D000C000C004C005C006C05F
:1023980007209803022455C298908155121493007F
:1023A80007A120908000E599F0908151E0FEA3E01C
:1023B800EE30E703022455908151E0FEA3E0C39478
:1023C80040EE9400503D908000E0FF908151E0FC89
:1023D800A3E02403F58274813CF583EFF0908151EA
:1023E800E475F00112136B908151E0FEA3E06402E2
:1023F8004E7019908104E030E712780F7600087665
:10240800058009908151E4F0A3F08041908102E0B9
:10241800FF780FE6FC08E6FDC3EF9DE49C5003E05F
:1024280004F0908102E0FF780FE6FC08E6FDEFB5C6
:10243800051BE4B50417908151E0FEA3E0FFEE44CC
:1024480080908151F0A3EFF0908102E4F0D007D0A2
:1024580006D005D004D000D0D0D082D083D0F0D020
:10246800E0329080C71214E49080CAEDF0E0C39483
:10247800105063A3E0602F9080C71214C412138118
:10248800FDACF09080CAE0FF74017E00A8070880C8
:1024980005C333CE33CED8F9FFEC4EFEED4FFFEE39
:1024A8008FF01213E4229080C71214C4121381FD16
:1024B800ACF09080CAE0FF74017E00A80708800590
:1024C800C333CE33CED8F9F4FFEEF45CFEED5FFFF4
:1024D800EE8FF01213E4229080CB12148743C94088
:1024E80053B7CF43B71075D88075985053877F90EE
:1024F80080CB12146FE4120D8CA804A905AA06ABB0
:10250800077F007EE07D447C4A120CEF120DCAC39F
:10251800E49FFF74049EFEE4FCFD9080CB121487B8
:102528009080CB12146F780812145CEFE48FBA9085
:1025380080CB12146FEFE48FAAD2ACD2AF90815146
:10254800F0A3F0908102F022C0E0C0F0C083C08206
:10255800C0D075D000C000C001C002C003C004C014
:1025680005C006C007C2C690815512146FEC4D4EC7
:102578004F601590815512146F74FFFBFAF9F81229
:102588001430908155121487780DE6FE08E64E60E7
:1025980006E61618700116D007D006D005D004D06C
:1025A80003D002D001D000D0D0D082D083D0F0D0D8
:1025B800E0329080F41214E49080F7ECF0A3EDF090
:1025C800C2ACE4A3F0A3F09080F7E0FEA3E0FFA381
:1025D800E0FCA3E0C39FEC9E50279080F41214C443
:1025E8009080F9E0FEA3E0F5828E8312130AF59934
:1025F8003099FDC2999080F9E475F00112136B804F
:10260800C6D2AC22C2AFC2D3C2D4E4F58E75C870AC
:10261800F593759401759502F5C9F5F875F901F505
:10262800A843B830F59AF5A9F5B953C9FDD2BDD27A
:10263800BCD2AF229080C7EEF0A3EFF09080C7E045
:10264800FEA3E0FF780DA60608A607780DE6FE08AB
:10265800E64E70F72275C870E4F5CDF5CC75CBBCA5
:1026680075CACD43A820D2C8D2AF229080F8EFF027
:10267800C2ACE0F5993099FDC299D2AC229080F7AE
:0D268800EFF0E0FF1226739080F7E0FF22D4
:00000001FF
