:1000000002002E9080C212145BC2ACE4F598F5BADF
:0F001000F5AA53877F9080C21214431223FB225C
:0300230002229E18
:10002B0002246C787FE4F6D8FD75817C02007502A2
:10003B000103E493A3F8E493A34003F68001F208D1
:10004B00DFF48029E493A3F85407240CC8C333C40A
:10005B00540F4420C8834004F456800146F6DFE475
:10006B00800B01020408102040809000BAE47E014E
:10007B009360BCA3FF543F30E509541FFEE493A3E8
:10008B0060010ECF54C025E060A840B8E493A3FAFA
:10009B00E493A3F8E493A3C8C582C8CAC583CAF086
:1000AB00A3C8C582C8CAC583CADFE9DEE780BE0222
:1000BB000D00004481500000000045813F01020308
:1000CB000405428148000142814E000441813E00FB
:1000DB004481440000000042814A00004180FC0042
:0C00EB00020F00000012252812257922C7
:1000F800FFFF4457494E54350200757BFF7A21793A
:100108002578227C007D007E007F4012129F7BFFB5
:100118007A21796578017C807D017E007F08121242
:100128009F908009121467000000007BFF7A2179F4
:100138006D78127C807D017E007F3012129F7BFFDC
:100148007A21799D786A7C007D007E007F101212EA
:100158009FE49080BCF0A3F0A3F0A3F0A3F0A3F079
:100168001200F07F807E257D007C001223FBE49046
:10017800814AF0A3F090800DF0908150121467002E
:1001880007A120E4FFFEFDFC90815012144FC3121A
:10019800141F702290800DE0B4011B90814CE0FE8A
:1001A800A3E04E601190814CE0A3E0FFEE44809004
:1001B800814CF0A3EFF090814CE0FEA3E0EE20E745
:1001C800030207DF90814CA3E0FFEE547F90800E7E
:1001D800F0A3EFF07B017A80790E9080DBE4F0A346
:1001E8007402F07F697E20121E8EE490805AF0A37C
:1001F800F0908010F0A3F090800EE0FEA3E0FFA343
:10020800E0FCA3E0C39FEC9E505A90805AE0FEA306
:10021800E02412F974803EFA7B01C003C002C001D9
:100228007BFF7A2079B19080C51214B8908010E0D5
:10023800FEA3E024FEF58274803EF583E0FF908003
:10024800C8E4F0A3EFF0D001D002D00312157990E2
:10025800805AEE8FF012133F908010E475F001126F
:10026800133F80937BFF7A2079B79080DBE4F0A37B
:100278007410F0FF7E20121E8E7B017A8079129016
:10028800805AE0FEA3E0FFEEC313FEEF132402FF43
:10029800E43E9080DBF0A3EFF07F107E20121E8EEC
:1002A800E4908010F0A3F0908010E0FEA3E0C394E7
:1002B80030EE9400501C908010E0A3E02412F582E8
:1002C80074803EF583E4F090801075F00112133FBE
:1002D80080D59081501214670007A1207B017A8095
:1002E80079FEC002C00190800EE0FCA3E0FD7A8098
:1002F80079729080C71214B8D001D002121C1F90D6
:1003080080C0E4F0A3EFF07B017A8079C09080DBB5
:10031800E4F0A304F07F717E20121E8E9080C0E06E
:10032800FEA3E064014E60030206FC7BFF7A20799D
:10033800D89080DBF0A37404F07F967E20121E8E86
:10034800908072E0FEA3E08EF01214E703740001BF
:1003580003F30002047B000304FA00040579000596
:1003680005F80006067700070000079D908076E0F4
:10037800FEA3E0C39402EE9400500302079DA3E09D
:10038800A3E0FEA3E0FCA3E0FDEE4CFEEDFF9080B1
:1003980070EEF0A3EFF0908070E0FEA3E0EE30E79F
:1003A8000E908070A3E0FF908070EEF0A3EFF090C5
:1003B8008070E0FCA3E0FDE4120D65E4FBFA79200F
:1003C8007841120CC390805C12145B7B017A8079AF
:1003D8005C9080DBE4F0A37402F07F057E20121E9F
:1003E8008EE4908070F0A3F002079D908076E0FE86
:1003F800A3E0C39402EE94004060A3E0A3E0FEA350
:10040800E0FCA3E0FDEE4CFEEDFF9080B8EEF0A31B
:10041800EFF0908080E0A3E0FEA3E0FCA3E0FDEE17
:100428004CFEEDFF9080BAEEF0A3EFF07B017A80EE
:1004380079BA9080DBE4F0A304F07F817E20121E5D
:100448008E7B017A8079B89080DBE4F0A37402F0A7
:100458007F077E20121E8E02079D7BFF7A2079E09F
:100468009080DBE4F0A37406F07F967E20121E8E47
:1004780002079D908076E0FEA3E0C39402EE94000C
:10048800500302079DA3E0A3E0FEA3E0FCA3E0FD68
:10049800EE4CFEEDFF908070EEF0A3EFF0908070D0
:1004A800E0FEA3E0EE30E70E908070A3E0FF9080BE
:1004B80070EEF0A3EFF0908070E0FCA3E0FDE41292
:1004C8000D65E4FBFA79207841120CC39080601224
:1004D800145B7B017A8079609080DBE4F0A374027E
:1004E800F07F857E20121E8EE4908070F0A3F002CB
:1004F800079D908076E0FEA3E0C39402EE9400503E
:100508000302079DA3E0A3E0FEA3E0FCA3E0FDEE49
:100518004CFEEDFF908070EEF0A3EFF0908070E05D
:10052800FEA3E0EE30E70E908070A3E0FF908070AD
:10053800EEF0A3EFF0908070E0FCA3E0FDE4120D74
:1005480065E4FBFA79207841120CC3908064121498
:100558005B7B017A8079649080DBE4F0A37402F01D
:100568007F877E20121E8EE4908070F0A3F0020731
:100578009D908076E0FEA3E0C39402EE94005003C1
:1005880002079DA3E0A3E0FEA3E0FCA3E0FDEE4C80
:10059800FEEDFF908070EEF0A3EFF0908070E0FE2B
:1005A800A3E0EE30E70E908070A3E0FF908070EE3D
:1005B800F0A3EFF0908070E0FCA3E0FDE4120D657D
:1005C800E4FBFA79207841120CC390806812145B1E
:1005D8007B017A8079689080DBE4F0A37402F07F75
:1005E800897E20121E8EE4908070F0A3F002079D91
:1005F800908076E0FEA3E0C39402EE9400500302DC
:10060800079DA3E0A3E0FEA3E0FCA3E0FDEE4CFE03
:10061800EDFF908070EEF0A3EFF0908070E0FEA305
:10062800E0EE30E70E908070A3E0FF908070EEF06F
:10063800A3EFF0908070E0FCA3E0FDE4120D65E408
:10064800FBFA79207841120CC390806C12145B7B02
:10065800017A80796C9080DBE4F0A37402F07F91DA
:100668007E20121E8EE4908070F0A3F002079D9009
:100678008076E0FEA3E0C39402EE940050030207E4
:100688009DA3E0A3E0FEA3E0FCA3E0FDEE4CFEED9D
:10069800FF908070EEF0A3EFF0908070E0FEA3E092
:1006A800EE30E70E908070A3E0FF908070EEF0A32C
:1006B800EFF0908070E0FCA3E0FDE4120D65E4FB30
:1006C800FA79207841120CC390805C12145B7B018C
:1006D8007A80795C9080DBE4F0A37402F07F057E79
:1006E80020121E8EE4908070F0A3F002079D02078E
:1006F8009D02079D9080C0E0FEA3E064634E702ECB
:100708007BFF7A2079EA9080DBF0A37404F07F966F
:100718007E20121E8E7F147E00122558E490814C94
:10072800F0A3F07F807E25FDFC1200038067908097
:10073800C0E0FEA3E064624E702E7BFF7A2079F25F
:100748009080DBF0A37404F07F967E20121E8E7FCB
:10075800147E00122558E490814CF0A3F07F807E2F
:1007680025FDFC120003802D7BFF7A2079FA90800A
:10077800DBE4F0A37404F07F967E20121E8E7F14B3
:100788007E00122558E490814CF0A3F07F807E25EE
:10079800FDFC120003E490814CF0A3F090800EF071
:1007A800A3F0A3F0A3F0908010E0FEA3E0C3944070
:1007B800EE9400501C908010E0A3E024FEF58274B3
:1007C800803EF583E4F090801075F00112133F80AD
:1007D800D59080FC7401F090800DE06003020BE27C
:1007E80090814AE0FEA3E0C39408EE94004007E439
:1007F80090814AF0A3F07F0F7E0012255890814A1D
:10080800E0A3E075F008A42422F9E4FAFB78627CFE
:1008180000FDFE7F0812129F7B017A81794A908041
:10082800DBE4F0A304F07F007E20121E8E7864E6DD
:1008380008E6787CF67B007A0079649080DBE4F047
:10084800A304F0FF7E20121E8E7B007A007966904A
:1008580080DBE4F0A304F07F027E20121E8E787CF9
:10086800E6B403187868E6FE08E625E0FFEE33FEF6
:10087800EF2405FFE43E780FF608A607787CE6B477
:100888001007780F7600087608787CE6B4050778B4
:100898000F7600087608787CE6B40607780F7600AD
:1008A8000876087B007A00790F9080DBE4F0A37467
:1008B80002F07F037E20121E8E7B007A0079629000
:1008C80080DBE4F0A304F07F047E20121E8E90806B
:1008D800091214670002710090800D7401F0E47829
:1008E8007AF608F6FB7A00797A9080C7F0A304F0CC
:1008F8007F797E201221AD7B017A8079429080C772
:10090800E4F0A304F07F647E201221AD7B017A809D
:1009180079B89080C7E4F0A304F07F737E20122199
:10092800AD908042E0FEA3E0FF786AA60608A6071D
:10093800908042E0FEA3E0FF08A60608A607908084
:1009480042E0FEA3E0FF08A60608A607908042E062
:10095800FEA3E0FF08A60608A6079080B8E0FEA35D
:10096800E0FF08A60608A607787AE608E65402FF1C
:10097800908044E4F0A3EFF018E608E65404FFA3DF
:10098800E4F0A3EFF018E608E65408FFA3E4F0A3A8
:10099800EFF018E608E65410FFA3E4F0A3EFF01810
:1009A800E608E65420FF908058E4F0A3EFF018E63C
:1009B80008E65440FF908054E4F0A3EFF0908044A0
:1009C800E0FEA3E0FFEEC313EF135401FF90804C49
:1009D800E4F0A3EFF0908046E0FEA3E07802CEC3F7
:1009E80013CE13D8F95401FF90804EE4F0A3EFF032
:1009F800908048E0FEA3E07803CEC313CE13D8F965
:100A08005401FF908050E4F0A3EFF090804AE0FE9C
:100A1800A3E0FFEEC4F854F0C868EFC4540F48547C
:100A280001FF908052E4F0A3EFF0A3E0FEA3E0788A
:100A380006CEC313CE13D8F95401FF908056E4F0C4
:100A4800A3EFF07B017A80794C9080DBE4F0A3047B
:100A5800F07F057E21121E8E7B017A80794E908070
:100A6800DBE4F0A304F07F077E21121E8E7B017A5F
:100A78008079509080DBE4F0A304F07F097E211296
:100A88001E8E7B017A8079529080DBE4F0A304F01B
:100A98007F117E21121E8E7B017A8079569080DB31
:100AA800E4F0A304F07F137E21121E8E908056E09E
:100AB800FEA3E064014E7006782876FF08F6908061
:100AC80056E0FEA3E04E70057828F608F6787AE638
:100AD80008E6540118760008F67B007A0079781841
:100AE800E608E69080C6F0E4FD1223867B007A00D3
:100AF8007978908044E0A3E09080C6F07D011223CD
:100B0800867B007A007978908046E0A3E09080C6E2
:100B1800F07D021223867B007A007978908048E085
:100B2800A3E09080C6F07D031223867B007A0079CB
:100B38007890804AE0A3E09080C6F07D0412238676
:100B48007B007A007978908058E0A3E09080C6F026
:100B58007D051223867B007A007978908054E0A383
:100B6800E09080C6F07D06122386908058E0FEA3B0
:100B7800E07805CEC313CE13D8F95401FF908058FE
:100B8800E4F0A3EFF07B007A00797A9080DBE4F060
:100B9800A304F07F757E20121E8E7B017A8079581F
:100BA8009080DBE4F0A304F07F607E20121E8E7B31
:100BB800007A007962C002C0017A00796A9080C523
:100BC8001214B89080C87408F0D001D00212199796
:100BD8009081501214670007A120908009121443D5
:100BE80074FFFBFAF9F812140490800912145B9050
:100BF800800DE06401600302018B9080FCE0B40189
:100C08003B7A2179019080DBE4F0A37409F07F42FC
:100C18007E20121E8E90814AE475F00112133FE483
:100C280090800DF09080FCF090800912146700020B
:100C380071009081501214670007A120E4FFFEFDA7
:100C4800FC90800912144FC312141F600302018B19
:100C58007BFF7A2179139080DBF0A37409F07F423F
:100C68007E20121E8EE4908010F0A3F0908010E099
:100C7800FEA3E0C39430EE9400501C908010E0A3D3
:100C8800E02412F58274803EF583E4F090801075BC
:100C9800F00112133F80D590814AE475F0011213D8
:100CA8003FE490800DF09080FCF090815012146722
:100CB8000007A12002018B22020E14EC5D046005DE
:100CC800E859047003020E0A120DD5580460F6ECB8
:100CD8004860F2EC7004FDFEFF22C860DB2481C886
:100CE8005009C39860025006020E119850CAF58246
:100CF800E9294B4A7005AB82020E0075F0007C1A98
:100D08007880C3EF9BEE9AED99400DC3EF9BFFEE01
:100D18009AFEED99FDE842F0DC23ACF0D0E0FFD07C
:100D2800E0FED0E0FDAB8220E7101BEB60BAEC2CB4
:100D3800FCEF33FFEE33FEED33FD020DECE803F874
:100D480030E705C0F075F000EF2FFFEE33FEED330E
:100D5800FD40B830E7C280AA75F020800E75F0100B
:100D6800800575F0087D007E007F003392D530D570
:100D780003121411EC334010EF33FFEE33FEED3362
:100D8800FDEC33FCD5F0ED22E5F0247EA2D513CCA2
:100D980092E7CDCEFF22EDD2E7CD33EC3392D524C6
:100DA800814006E4FFFEFDFC22FCE4CFCECDCC243E
:100DB800E0501174FF80EDC3CC13CCCD13CDCE130E
:100DC800CECF13CF0470F030D5DE021411E9D2E78C
:100DD800C933E833F892D5EDD2E7CD33EC33FC5084
:100DE80002B2D522EC30E7100FBF000C0EBE00088F
:100DF8000DBD00040BEB6014A2D5EB13FCED92E7DC
:100E0800FD2274FFFCFDFEFF22E480F8A2D574FFEA
:100E180013FC7D80E480EFF920E73624F95003794C
:100E280007E4F42402FBE582158270021583DBF6E1
:100E3800E024FB501BE96014E4F0E582158270029F
:100E48001583E004F0B40A08E4F0D9EE7401F00A5E
:100E580022C2D522ED33EC3392D5FA602AB4FF339F
:100E6800EDC2E77BFF60067A0E7981E4227A0E797B
:100E78008A20D5047A0E7985224E614E002B494E80
:100E880046002D494E4600E47A08F0A3DAFC7B00C0
:100E9800740722C083C082ECC0E0EDC0E0EEC0E081
:100EA800EFC0E0EA75F010A4CAABF075F04DA42BC2
:100EB800FBE435F0FCEA2410FAEB34C5FBEC34D93A
:100EC800FCEDC2E7FF75F056A4F42411C5F0F43424
:100ED800C58FF0A42AE5F03BE43CF020E71412119A
:100EE8008FD0E0FFD0E0FED0E0FDD0E0FC120CC3D4
:100EF8008014F40412118FD0E0FFD0E0FED0E0FDA2
:100F0800D0E0FC121059D082D083E0FAEDD2E7CDC0
:100F180033EC332482FBE4C3CF33CFCE33CECD338F
:100F2800CD33DBF37B0775F00A846004F0A31B0A5A
:100F3800E5F0F0A38FF0740AA4FFACF08EF0740A09
:100F4800A42CFEACF050010C8DF0740AA42CFDE426
:100F580035F0F0A3DBDE740722020E0AE86480F89D
:100F6800E933E83360110460F0ED33EC337009E8DD
:100F7800FCE9FDEAFEEBFF220460DED3EB9FEA9E6C
:100F8800E99DE8C2E78CF0C2F795F0400CE8CCF890
:100F9800E9CDF9EACEFAEBCFFB120DD585D0F058A2
:100FA80004700320D5B3E80470075002B2D5020ECE
:100FB8001492D5EC0460F7E4CCC0E0C398F8603B29
:100FC80094186008400DD0E0FB020DECE4FBFAC970
:100FD800FC8028E830E406E4C9FBE4CAFCE830E316
:100FE80005E4C9CACBFCE854076010F8C3E913F953
:100FF800EA13FAEB13FBEC13FCD8F130F52FC3E43A
:101008009CFCEF9BFFEE9AFEED99FDD0E0FBEF4EC6
:101018004D4C701222DB03020E11EC2CFCEF33FF57
:10102800EE33FEED33FDED30E7EB020DECEF2BFF79
:10103800EE3AFEED39FDD0E0FB50130BBB00030286
:101048000E14ED13FDEE13FEEF13FFEC13FC020D6F
:10105800ECEC4D6011E8497017ED33EC3304600D8A
:10106800E4FCFFFEFD22E933E8330470F8020E0ABF
:10107800120DD558046009E4CC2481500628500983
:10108800020E14284003020E11C0E0EB4A7044B966
:101098008006D0E0FB020E00EF4E701CBD8008EB0E
:1010A800FFEAFEE9FD80EBE98DF0A4FEE5F0021110
:1010B80042E9CDF9EAFEEBFFEF89F0A4FCE5F0CEBA
:1010C80089F0A42EFFE435F0CD89F0A42DFEE43597
:1010D800F08067EF4E7005BD80D780C3EF8BF0A41A
:1010E800ACF0EE8BF0A42CFCE435F0F8EF8AF0A419
:1010F8002CE5F038FCE433CB8DF0A42CFCE5F03B78
:10110800F8EE8AF0A42CFCE5F038F8E433CF89F047
:10111800A42CFCE5F038CF3400CE89F0A42FFFE5ED
:10112800F03EFEE433C98DF0A42EFEE5F039CD8AF9
:10113800F0A42FFFE5F03EFEE43DFD33D0E0FB5088
:10114800070BBB000F020E14EC2CFCEF33FFEE3341
:10115800FEED33FD020DEC3F80000041200000420F
:10116800C80000447A0000461C400047C3500049AC
:101178007424004B1896804CBEBC205A0E1BCA67BC
:1011880053C21C749DC5AEFB60065407601C232324
:101198001211BDEB543860091211A91211B81210BE
:1011A80059ECF8EDF9EEFAEFCB22EB1211B880F119
:1011B800543803241C90115FFE93FC0EEE93FD0E31
:1011C800EE930ECE93FF22E709F608DFFA8046E792
:1011D80009F208DFFA803E88828C83E709F0A3DFF2
:1011E800FA8032E309F608DFFA8078E309F208DFCB
:1011F800FA807088828C83E309F0A3DFFA8064891F
:10120800828A83E0A3F608DFFA805889828A83E01D
:10121800A3F208DFFA804C80D280FA80C680D4809E
:101228006980F28033801080A680EA809A80A88046
:10123800DA80E280CA803389828A83ECFAE493A355
:10124800C8C582C8CCC583CCF0A3C8C582C8CCC5E4
:1012580083CCDFE9DEE7800D89828A83E493A3F6F5
:1012680008DFF9ECFAA9F0EDFB2289828A83ECFA0F
:10127800E0A3C8C582C8CCC583CCF0A3C8C582C8C2
:10128800CCC583CCDFEADEE880DB89828A83E493FD
:10129800A3F208DFF980CC88F0EF60010E4E60C33E
:1012A80088F0ED2402B4040050B9F582EB2402B4AE
:1012B800040050AF232345822390121F73BB0106FD
:1012C80089828A83E0225002E722BBFE02E3228958
:1012D800828A83E49322BB010CE58229F582E583A7
:1012E8003AF583E0225006E92582F8E622BBFE069D
:1012F800E92582F8E222E58229F582E5833AF58339
:10130800E49322BB010689828A83F0225002F722E5
:10131800BBFE01F322F8BB010DE58229F582E583C6
:101328003AF583E8F0225006E92582C8F622BBFE8A
:1013380005E92582C8F222C5F0F8A3E028F0C5F037
:10134800F8E582158270021583E038F022BB010AA5
:1013580089828A83E0F5F0A3E022500687F009E746
:101368001922BBFE07E3F5F009E3192289828A8373
:10137800E493F5F074019322BB0110E58229F5820C
:10138800E5833AF583E0F5F0A3E0225009E92582E8
:10139800F886F008E622BBFE0AE92582F8E2F5F0B5
:1013A80008E222E5832AF583E993F5F0A3E993227D
:1013B800BB010A89828A83F0E5F0A3F0225006F780
:1013C80009A7F01922BBFE06F3E5F009F31922F884
:1013D800BB0111E58229F582E5833AF583E8F0E55A
:1013E800F0A3F0225009E92582C8F608A6F022BB2E
:1013F800FE09E92582C8F2E5F008F222EF2BFFEE9C
:101408003AFEED39FDEC38FC22C3E49FFFE49EFE72
:10141800E49DFDE49CFC22EB9FF5F0EA9E42F0E996
:101428009D42F0E89C45F022E8600FECC313FCED08
:1014380013FDEE13FEEF13FFD8F122E0FCA3E0FD4D
:10144800A3E0FEA3E0FF22E0F8A3E0F9A3E0FAA3FB
:10145800E0FB22ECF0A3EDF0A3EEF0A3EFF022A85E
:10146800828583F0D083D08212147E12147E1214E7
:101478007E12147EE473E493A3C583C5F0C583C8C4
:10148800C582C8F0A3C583C5F0C583C8C582C82274
:10149800E0FBA3E0FAA3E0F922F8E0FBA3A3E0F95C
:1014A80025F0F0E582158270021583E0FA38F02203
:1014B800EBF0A3EAF0A3E9F022D083D082F8E4931A
:1014C8007012740193700DA3A393F8740193F582BD
:1014D8008883E4737402936860EFA3A3A380DFD0CA
:1014E80083D082F8E4937012740193700DA3A393D0
:1014F800F8740193F5828883E473740293B5F00657
:101508007403936860E9A3A3A3A380D8E50824C55E
:10151800F582E43480F583E00508229080C2300724
:10152800039080C5E475F0011214A10212C52000D1
:10153800E97F2ED2008018EF540F2490D43440D481
:10154800FF30040BEF24BFB41A0050032461FFE5F9
:101558000960021509050CE50C7002050B30070E31
:101568009080C2E475F0011214A1EF02130B02255A
:10157800A17403D2078003E4C207F5089080C21261
:1015880014B8E4F509F50BF50CE50960077F20129E
:10159800155780F5750AFFC201C200C202C203C214
:1015A80005C206C208121523FF700D3007057F001B
:1015B800121568AF0CAE0B22B4255FC2D5C2041257
:1015C8001523FF24D0B40A00501A75F00A780930A0
:1015D800D50508B6FF0106C6A426F620D504700274
:1015E800D20380D924CFB41A00EF5004C2E5D20444
:1015F80002185AD20180C6D20080C0D20280BCD262
:10160800D580BAD20580B47F2012155720020774FE
:1016180001B5090040F1121514FF12155702159172
:10162800D208D2068095121514FB121514FA121559
:1016380014F94A4B700679587A197BFF20022EE577
:1016480009602A7E008E827583001212DE60060E03
:10165800EE650A70F0C2D5EBC0E0EAC0E0E9C0E090
:10166800EE1218BBD0E0F9D0E0FAD0E0FB1212C5B8
:10167800FF60AAEBC0E0EAC0E0E9C0E0121557D06D
:10168800E02401F9D0E03400FAD0E0FBE50A046078
:10169800DCD50AD98087D20280A212189D60F7E5AE
:1016A8000A700104120E1FA90A600DE50A600914E8
:1016B800F50A121945EF60F3EA30E702F404C3991A
:1016C8005079EAF4250A0430E701E404F50A800DAC
:1016D80012189D60C1EA050A250A120E1FEA9080B9
:1016E800F1F030E701E4250A04D50A0420050114C5
:1016F8001218BBE4C0E01219459080F1E060132095
:10170800E70714F012153F802204F0D0E014C0E07F
:101718007F0012153FE50A6007121536150A800B7F
:10172800300503121536D0E0021591D0E00480C4CC
:1017380012189D609EE50A04120E1F9080F1EAF0CF
:10174800E50A20050260010424041218BB74FF0492
:10175800C0E012194512153FE50A20050260031280
:101768001536D0E0B50AE87F451215499080F1E0BA
:101778007F2B30E7047F2DF404C0E0121557D0E02A
:1017880075F00A84C0F0121540D0E0121540021519
:1017980091791080027908C206C2088008D2D579EA
:1017A8000A8004790AC2D5E50A047002F50AE4FA47
:1017B800FDFEFF121514FC7B08200113121514FD01
:1017C8007B1030000A121514FE121514FF7B20EC52
:1017D8003382D592D55013C3E43000069FFFE49EB0
:1017E800FEE42001039DFDE49CFCE4CBF8C201EC7F
:1017F800700CCFCECDCCE824F8F870F38017C3EF87
:1018080033FFEE33FEED33FDEC33FCEB33FB994055
:1018180002FB0FD8E9EB300105F8D0E0C448B2016B
:10182800C0E00AEC4D4E4F78207B0070C2EAB50A42
:101838000040BCC0E01218BDD0F0D0E0200104C4C4
:10184800C0E0C4B201C0F0121540D0F0D5F0EB02F0
:1018580015911214C1162E5317995815FF4C15FBE4
:1018680042179D4F17A54417A54916144317AB55A2
:1018780016D84617384516A24719785016032D165C
:10188800072E162A2B160B2316282019612A15C392
:101898004800001622E50AB4FF03750A061215145B
:1018A800FC121514FD121514FE121514FF9080EA8F
:1018B800020E5C790AA2D5200314300509B910027A
:1018C8000404B9080104A2D520060250010420022C
:1018D800689202B509005034C0E07F203003197FB8
:1018E80030A20272067205500F121914C202C20603
:1018F800C205C2087F30800F300503E9C0E0121529
:1019080057300503D0E0F9D0E0B509CC3005177F92
:1019180030B9100C1215577F583004077F788003B0
:10192800B908031215573002057F2D0215577F207D
:101938002008F87F2B2006F322920280CF7F00B484
:101948000700500B24EAF582E43480F583E0FF2297
:10195800286E756C6C2900D2011215143001F8C27A
:1019680001780930D50108F60215C32D50434958AE
:101978001215142403B405004001E490197393125E
:101988001548743A121548D203750904021799903C
:1019980080C21214B89080C2121498121355908005
:1019A800C9F09080C212149890000212138090809F
:1019B800CAF09080C2121498900002121380640337
:1019C80045F0704A9080C212149890000412138057
:1019D800E5F09080CBF09080C21214989000041229
:1019E80013809080CCF09080C21214989000061258
:1019F8001380E5F09080CDF09080C212149890008A
:101A0800061213809080CEF09080ED7406F09080DE
:101A1800C2121498900002121380640545F0704AAF
:101A28009080C2121498900004121380E5F0908000
:101A3800CBF09080C212149890000412138090800A
:101A4800CCF09080C2121498900006121380E5F032
:101A58009080CDF09080C2121498900006121380E6
:101A68009080CEF09080ED7406F09080C2121498A9
:101A7800900002121380640645F0704D9080C212E7
:101A88001498900004121380E5F09080CBF09080B9
:101A9800C21214989000041213809080CCF09080A9
:101AA800C512149890000C121380E5F09080CDF0C8
:101AB8009080C512149890000E1213809080CEF07A
:101AC8009080ED7406F0021BC69080C212149890A4
:101AD8000002121380641045F06003021BC6908058
:101AE800C8E025E09080EEF09080C2121498900033
:101AF80004121380E5F09080CBF09080C212149805
:101B08009000041213809080CCF09080C8E0E4909C
:101B180080CDF09080C8E09080CEF09080EEE0908C
:101B280080CFF0E49080EBF0A3F09080C8E0FF90C5
:101B380080EBE0FCA3E0C39FEC940050779080EB2F
:101B4800E0FEA3E025E0FFEE33FE9080C512149876
:101B58008F828E83121380E5F0FD9080EBE0FEA368
:101B6800E025E0FFEE33FE74D02FF58274803EF559
:101B780083EDF09080EBE0FEA3E025E0FFEE33FE7E
:101B88009080C51214988F828E83121380FD9080E6
:101B9800EBE0FEA3E025E0FFEE33FE74D12FF582E3
:101BA80074803EF583EDF09080EBE475F00112133C
:101BB8003F021B329080EEE024079080EDF07B011D
:101BC8007A8079C99080EDE0FD121FAB9080E9EE34
:101BD800F0A3EFF09080E9E0A3E0FF9080EDE0242F
:101BE800CAF582E43480F583EFF09080E9E0FEA343
:101BF800E0EEFF9080EDE024C9F582E43480F583BF
:101C0800EFF09080EDE02402F07B017A8079C9E062
:101C1800FD7C001224D6229080C21214B89080C590
:101C2800ECF0A3EDF09080C21214981212C5FF9048
:101C380080D2E4F0A3EFF09080C2121498900001D3
:101C48001212DEFF9080D4E4F0A3EFF07B017A80DB
:101C580079D29080DBE4F0A304F07F657E20121E29
:101C68008E7B017A8079D49080DBE4F0A304F07F46
:101C7800677E20121E8E9080C5E0FEA3E0C3940408
:101C8800EE94005039E49080D0F0A3F09080D0E03A
:101C9800FEA3E0C39440EE940050209080C212143A
:101CA800989080D0E0A3E0F5828E83E412131D9013
:101CB80080D0E475F00112133F80D17F63229080B9
:101CC800C21214989080C5E0FEA3E024FEFFEE3413
:101CD800FF8F82F5831212DEFE9080C21214989054
:101CE80080C5E0FCA3E024FFFDEC34FF8D82F58382
:101CF8001212DEFDEEEDFF9080CAEEF0A3EFF09039
:101D080080C21214989080C5E0A3E024FEFD121F43
:101D1800AB9080CCEEF0A3EFF09080CCE0FEA3E097
:101D2800FF9080CAE0FCA3E06F7002EC6E6039E4BB
:101D38009080D0F0A3F09080D0E0FEA3E0C3944060
:101D4800EE940050209080C21214989080D0E0A3A6
:101D5800E0F5828E83E412131D9080D0E475F001C3
:101D680012133F80D17F62229080C21214981212FF
:101D7800C5FF9080C7121498E48FF01213B89080B2
:101D8800C21214989000011212DEFF9080C712143C
:101D980098900002E48FF01213D79080C71214981D
:101DA800900002121380640345F06003021E7990CC
:101DB80080C21214989000021212DEFF9080C7129F
:101DC8001498900004E48FF01213D7E49080CEF0BA
:101DD800A3F09080C7121498900004121380FF900B
:101DE80080CEE0FCA3E0C39FEC95F0504B9080C2FE
:101DF8001214989080CEE0FEA3E02403FFE43E8F07
:101E080082F5831212DEFD9080C7121498E9240629
:101E1800F9E43AFA9080CEE0A3E025E0FFEE33FE45
:101E2800E92FF9EA3EFAE48DF01213B89080CEE477
:101E380075F00112133F809AE49080D0F0A3F090DF
:101E480080D0E0FEA3E0C39440EE94005020908040
:101E5800C21214989080D0E0A3E0F5828E83E41239
:101E6800131D9080D0E475F00112133F80D17F01DB
:101E7800229080C7121498900002121380641045B3
:101E8800F070027F01229080D6EEF0A3EFF0A3124B
:101E980014B89080D6E0A3E054019080DDF09080E3
:101EA800D6E0FEA3E0FFEEC313FEEF13FF9080D64B
:101EB800EEF0A3EFF0E4F5F19080D6E0FEA3E0EEBB
:101EC800F5F29080D6E0A3E0F5F375F40175F88F8C
:101ED80030FCFD9080DDE0603C9080DBE0FEA3E01C
:101EE800D39400EE9400402D75F8839080D8E47563
:101EF800F0011214A11212C5F5FC9080D8E475F017
:101F0800011214A11212C5F5FDD2FE9080DB74FFF8
:101F1800F5F012133F75F88F9080DBE0FEA3E0C365
:101F28009402EE9400404B9080D8E475F0011214AE
:101F3800A11212C5F5FA9080D8E475F0011214A127
:101F48001212C5F5FB9080D8E475F0011214A112A5
:101F580012C5F5FC9080D8E475F0011214A1121294
:101F6800C5F5FDD2FE9080DB74FF75F0FE12133FBD
:101F780080A69080DBE0FEA3E04E602375F88C908D
:101F880080D8E475F0011214A11212C5F5FA9080F8
:101F9800D8E475F0011214A11212C5F5FBD2FEE4C3
:101FA800F5F8229080EF1214B89080F2EDF074FFEB
:101FB800A3F0A3F0E49080F9F0A3F09080F2E0FFA2
:101FC8009080F9E0FCA3E0C39FEC9400400302205A
:101FD800709080EF1214989080F9E0FEA3E0F582EB
:101FE8008E831212DEFF9080F3E0FCA3E0FDECFE8E
:101FF800EF6DFF9080F3EEF0A3EFF0E49080FBF03C
:102008009080FBE0C3940850529080F3E0A3E05422
:1020180001FF9080F7E4F0A3EFF09080F3E0FEA3D7
:10202800E0FFEEC313FEEF13FF9080F3EEF0A3EF93
:10203800F09080F7E0FEA3E04E60189080F3E0FE99
:10204800A3E0FFEE64A0FEEF6401FF9080F3EEF0E2
:10205800A3EFF09080FBE004F080A59080F9E47590
:10206800F00112133F021FC39080F3E0FEA3E0EEDD
:10207800FFA3E4F0A3EFF09080F3A3E0FEA3E0FC5D
:10208800A3E0FDEE4CFEEDFF9080F3EEF0A3EFF041
:102098009080F3E0FEA3E0FF9080F3EEF0A3EFF072
:1020A8009080F3E0FEA3E0FF222530325820002084
:1020B8002020202020202020202020202020202018
:1020C8002020202020202020202020202020200028
:1020D8004F4B202020200A00444154415F45525272
:1020E8000A004C656E6768740A004352432020203A
:1020F8000A004552524F520A005265636569766577
:102108006420202020202020200A0054696D656F5B
:1021180075742020202020202020200A00000100A3
:102128000500000000000200030000000400020097
:10213800100000000100030003000000010004007B
:102148000300000001000500030000000100060074
:102158000300000001000700030000000100000068
:102168000000000000000000000000000000000067
:102178000000000000000000000000000000000057
:102188000000000000000000000000000000000047
:102198000000000000000000000000000000000037
:1021A80000000000009080C2EEF0A3EFF0A312142C
:1021B800B89080C2E0A3E054019080C9F09080C23A
:1021C800E0FEA3E0FFEEC313FEEF13FF9080C2EE24
:1021D800F0A3EFF0E4F5F19080C2E0FEA3E0EEF5A5
:1021E800F29080C2E0A3E0F5F375F40175F8AF3022
:1021F800FCFD9080C7E0FEA3E0D39400EE9400506D
:102208000302229AD2FE20FEFD9080C9E0703D9024
:1022180080C7E0FEA3E0D39400EE9400402E9080A7
:10222800C4E475F0011214A1E5FA12130B9080C4EE
:10223800E475F0011214A1E5FB12130B9080C97428
:1022480001F09080C774FFF5F012133F9080C9E049
:10225800B4019F9080C7E0FEA3E0D39400EE940001
:1022680040909080C4E475F0011214A1E5FC1213AB
:102278000B9080C4E475F0011214A1E5FD12130B54
:10228800E49080C9F09080C774FFF5F012133F0204
:1022980021FAE4F5F822C0E0C0F0C083C082C0D0C3
:1022A80075D000C000C004C005C006C00720980350
:1022B800022371C2989081501214670007A12090E0
:1022C8008000E599F090814CE0FEA3E0EE30E70352
:1022D80002237190814CE0FEA3E0C39440EE940089
:1022E800503D908000E0FF90814CE0FCA3E024FE8C
:1022F800F58274803CF583EFF090814CE475F00131
:1023080012133F90814CE0FEA3E064024E701990D6
:1023180080FFE030E712780F760008760580099094
:10232800814CE4F0A3F080419080FDE0FF780FE657
:10233800FC08E6FDC3EF9DE49C5003E004F09080A8
:10234800FDE0FF780FE6FC08E6FDEFB5051BE4B5F8
:10235800041790814CE0FEA3E0FFEE448090814C8E
:10236800F0A3EFF09080FDE4F0D007D006D005D0C0
:1023780004D000D0D0D082D083D0F0D0E03290808A
:10238800C21214B89080C5EDF0E0C394105063A356
:10239800E0602F9080C2121498121355FDACF09093
:1023A80080C5E0FF74017E00A807088005C333CE0E
:1023B80033CED8F9FFEC4EFEED4FFFEE8FF012133F
:1023C800B8229080C2121498121355FDACF0908078
:1023D800C5E0FF74017E00A807088005C333CE332B
:1023E800CED8F9F4FFEEF45CFEED5FFFEE8FF0124D
:1023F80013B8229080C612145B43C94053B7CF4329
:10240800B71075D88075985053877F9080C612147E
:1024180043E4120D60A804A905AA06AB077F007E55
:10242800E07D447C4A120CC3120D9EC3E49FFF74E6
:10243800049EFEE4FCFD9080C612145B9080C612D8
:1024480014437808121430EFE48FBA9080C612143F
:1024580043EFE48FAAD2ACD2AF90814CF0A3F090B6
:1024680080FDF022C0E0C0F0C083C082C0D075D02B
:1024780000C000C001C002C003C004C005C006C03F
:1024880007C2C6908150121443EC4D4E4F60159010
:10249800815012144374FFFBFAF9F8121404908166
:1024A8005012145B780DE6FE08E64E6006E6161834
:1024B800700116D007D006D005D004D003D002D0C2
:1024C80001D000D0D0D082D083D0F0D0E03290803C
:1024D800EF1214B89080F2ECF0A3EDF0C2ACE4A3D4
:1024E800F0A3F09080F2E0FEA3E0FFA3E0FCA3E0FD
:1024F800C39FEC9E50279080EF1214989080F4E0D0
:10250800FEA3E0F5828E831212DEF5993099FDC2A2
:10251800999080F4E475F00112133F80C6D2AC2282
:10252800C2AFC2D3C2D4E4F58E75C870F593759462
:1025380001759502F5C9F5F875F901F5A843B830A4
:10254800F59AF5A9F5B953C9FDD2BDD2BCD2AF22CF
:102558009080C2EEF0A3EFF09080C2E0FEA3E0FF0F
:10256800780DA60608A607780DE6FE08E64E70F771
:102578002275C870E4F5CDF5CC75CBBC75CACD43D2
:10258800A820D2C8D2AF229080F3EFF0C2ACE0F519
:10259800993099FDC299D2AC229080F2EFF0E0FF19
:0925A80012258F9080F2E0FF2261
:00000001FF
