:1000000002002E9080BE12132EC2ACE4F598F5BA11
:0F001000F5AA53877F9080BE12131612226A2220
:0300230002210DAA
:10002B000222DB787FE4F6D8FD758174020075023D
:10003B000103E493A3F8E493A34003F68001F208D1
:10004B00DFF48029E493A3F85407240CC8C333C40A
:10005B00540F4420C8834004F456800146F6DFE475
:10006B00800B01020408102040809000BAE47E014E
:10007B009360BCA3FF543F30E509541FFEE493A3E8
:10008B0060010ECF54C025E060A840B8E493A3FAFA
:10009B00E493A3F8E493A3C8C582C8CAC583CAF086
:1000AB00A3C8C582C8CAC583CADFE9DEE780BE0222
:1000BB000D000044814C0000000045813B01020310
:1000CB000405428144000142814A000441813A0007
:1000DB004481400000000042814600004180F8004E
:0C00EB00020F0000001223971223E822ED
:1000F800FFFF4457494E54350200757BFF7A1F793C
:100108009C78227C007D007E007F381211727BFF74
:100118007A1F79D478017C807D017E007F081211D6
:100128007290800912133A000000007BFF7A1F7951
:10013800DC78127C807D017E007F301211727BFF9B
:100148007A20790C78627C007D007E007F10121185
:1001580072E49080B8F0A3F0A3F0A3F0A3F0A3F0AA
:100168001200F07F807E257D007C0012226AE490D8
:100178008146F0A3F090800DF090814C12133A0064
:1001880007A120E4FFFEFDFC90814C121322C3124C
:1001980012F2702290800DE0B4011B908148E0FEBD
:1001A800A3E04E6011908148E0A3E0FFEE44809008
:1001B8008148F0A3EFF0908148E0FEA3E0EE20E74D
:1001C8000302075C908148A3E0FFEE547F90800E05
:1001D800F0A3EFF07B017A80790E9080D7E4F0A34A
:1001E8007402F07F697E20121D05E4908056F0A30A
:1001F800F0908010F0A3F090800EE0FEA3E0FFA343
:10020800E0FCA3E0C39FEC9E505A908056E0FEA30A
:10021800E02412F974803EFA7B01C003C002C001D9
:100228007BFF7A1F79289080C112138B908010E091
:10023800FEA3E024FAF58274803EF583E0FF908007
:10024800C4E4F0A3EFF0D001D002D00312144C9014
:100258008056EE8FF0121212908010E475F00112A1
:10026800121280937BFF7A1F792E9080D7E4F0A337
:100278007410F0FF7E20121D057B017A80791290A0
:100288008056E0FEA3E0FFEEC313FEEF132402FF47
:10029800E43E9080D7F0A3EFF07F107E20121D057A
:1002A800E4908010F0A3F0908010E0FEA3E0C394E7
:1002B80030EE9400501C908010E0A3E02412F582E8
:1002C80074803EF583E4F090801075F001121212EC
:1002D80080D590814C12133A0007A1207B017A80C7
:1002E80079FAC002C00190800EE0FCA3E0FD7A809C
:1002F800796E9080C312138BD001D00212186A90C5
:1003080080BCE4F0A3EFF07B017A8079BC9080D7C1
:10031800E4F0A304F07F717E20121D059080BCE0FC
:10032800FEA3E064014E60030206797BFF7A1F7921
:100338004F9080D7F0A37404F07F967E20121D059D
:1003480090806EE0FEA3E08EF01213BA03700001F5
:1003580003EF00020477000304F6000405750005A6
:1003680005F400060000071A908072E0FEA3E0C3BF
:100378009402EE9400500302071AA3E0A3E0FEA340
:10038800E0FCA3E0FDEE4CFEEDFF90806CEEF0A3E8
:10039800EFF090806CE0FEA3E0EE30E70E90806C0A
:1003A800A3E0FF90806CEEF0A3EFF090806CE0FC8F
:1003B800A3E0FDE4120C38E4FBFA79207841120B33
:1003C8009690805812132E7B017A8079589080D7A6
:1003D800E4F0A37402F07F057E20121D05E49080EE
:1003E8006CF0A3F002071A908072E0FEA3E0C394B9
:1003F80002EE94004060A3E0A3E0FEA3E0FCA3E0CB
:10040800FDEE4CFEEDFF9080B4EEF0A3EFF090808F
:100418007CE0A3E0FEA3E0FCA3E0FDEE4CFEEDFFD4
:100428009080B6EEF0A3EFF07B017A8079B69080E9
:10043800D7E4F0A304F07F817E20121D057B017AAA
:100448008079B49080D7E4F0A37402F07F077E200F
:10045800121D0502071A7BFF7A1F79579080D7E48F
:10046800F0A37406F07F967E20121D0502071A90ED
:100478008072E0FEA3E0C39402EE940050030207EA
:100488001AA3E0A3E0FEA3E0FCA3E0FDEE4CFEED22
:10049800FF90806CEEF0A3EFF090806CE0FEA3E09C
:1004A800EE30E70E90806CA3E0FF90806CEEF0A336
:1004B800EFF090806CE0FCA3E0FDE4120C38E4FB64
:1004C800FA79207841120B9690805C12132E7B01EA
:1004D8007A80795C9080D7E4F0A37402F07F857EFF
:1004E80020121D05E490806CF0A3F002071A90809A
:1004F80072E0FEA3E0C39402EE9400500302071AD0
:10050800A3E0A3E0FEA3E0FCA3E0FDEE4CFEEDFFBC
:1005180090806CEEF0A3EFF090806CE0FEA3E0EE2C
:1005280030E70E90806CA3E0FF90806CEEF0A3EFB4
:10053800F090806CE0FCA3E0FDE4120C38E4FBFAD8
:1005480079207841120B9690806012132E7B017AE5
:100558008079609080D7E4F0A37402F07F877E20D2
:10056800121D05E490806CF0A3F002071A908072C7
:10057800E0FEA3E0C39402EE9400500302071AA31E
:10058800E0A3E0FEA3E0FCA3E0FDEE4CFEEDFF904F
:10059800806CEEF0A3EFF090806CE0FEA3E0EE300C
:1005A800E70E90806CA3E0FF90806CEEF0A3EFF074
:1005B80090806CE0FCA3E0FDE4120C38E4FBFA79CF
:1005C800207841120B9690806412132E7B017A805A
:1005D80079649080D7E4F0A37402F07F897E2012BA
:1005E8001D05E490806CF0A3F002071A908072E079
:1005F800FEA3E0C39402EE9400500302071AA3E09E
:10060800A3E0FEA3E0FCA3E0FDEE4CFEEDFF90802E
:100618006CEEF0A3EFF090806CE0FEA3E0EE30E724
:100628000E90806CA3E0FF90806CEEF0A3EFF0904A
:10063800806CE0FCA3E0FDE4120C38E4FBFA7920BE
:100648007841120B9690806812132E7B017A80797C
:10065800689080D7E4F0A37402F07F917E20121D89
:1006680005E490806CF0A3F002071A02071A02074B
:100678001A9080BCE0FEA3E064634E702E7BFF7A84
:100688001F79619080D7F0A37404F07F967E2012C2
:100698001D057F147E001223C7E4908148F0A3F063
:1006A8007F807E25FDFC12000380679080BCE0FE01
:1006B800A3E064624E702E7BFF7A1F79699080D721
:1006C800F0A37404F07F967E20121D057F147E002F
:1006D8001223C7E4908148F0A3F07F807E25FDFCBB
:1006E800120003802D7BFF7A1F79719080D7E4F088
:1006F800A37404F07F967E20121D057F147E0012DD
:1007080023C7E4908148F0A3F07F807E25FDFC128A
:100718000003E4908148F0A3F090800EF0A3F0A3CA
:10072800F0A3F0908010E0FEA3E0C39440EE9400A4
:10073800501C908010E0A3E024FAF58274803EF506
:1007480083E4F090801075F00112121280D5908029
:10075800F87401F090800DE06003020AB5908146BC
:10076800E0FEA3E0C39407EE94004007E4908146BE
:10077800F0A3F07F0F7E001223C7908146E0A3E02C
:1007880075F008A42422F9E4FAFB785A7C00FDFEEF
:100798007F081211727B017A8179469080D7E4F044
:1007A800A304F07F007E20121D05785CE608E67839
:1007B80074F67B007A00795C9080D7E4F0A304F0AB
:1007C800FF7E20121D057B007A00795E9080D7E4B9
:1007D800F0A304F07F027E20121D057874E6B403AE
:1007E800187860E6FE08E625E0FFEE33FEEF240504
:1007F800FFE43E780FF608A6077874E6B410077889
:100808000F76000876087874E6B40607780F760045
:100818000876087B007A00790F9080D7E4F0A374FB
:1008280002F07F037E20121D057B007A00795A9022
:1008380080D7E4F0A304F07F047E20121D05908089
:100848000912133A0002710090800D7401F0E478E7
:1008580072F608F6FB7A0079729080C3F0A304F070
:100868007F797E2012201C7B017A8079429080C398
:10087800E4F0A304F07F647E2012201C7B017A80C0
:1008880079B49080C3E4F0A304F07F737E20122033
:100898001C908042E0FEA3E0FF7862A60608A60747
:1008A800908042E0FEA3E0FF08A60608A607908015
:1008B80042E0FEA3E0FF08A60608A607908042E0F3
:1008C800FEA3E0FF08A60608A6079080B4E0FEA3F2
:1008D800E0FF08A60608A6077872E608E65402FFB5
:1008E800908044E4F0A3EFF018E608E65404FFA370
:1008F800E4F0A3EFF018E608E65408FFA3E4F0A339
:10090800EFF018E608E65410FFA3E4F0A3EFF018A0
:10091800E608E65420FF908054E4F0A3EFF09080BE
:1009280044E0FEA3E0FFEEC313EF135401FF9080F1
:100938004CE4F0A3EFF0908046E0FEA3E07802CE0E
:10094800C313CE13D8F95401FF90804EE4F0A3EFFF
:10095800F0908048E0FEA3E07803CEC313CE13D80E
:10096800F95401FF908050E4F0A3EFF090804AE042
:10097800FEA3E0FFEEC4F854F0C868EFC4540F4873
:100988005401FF908052E4F0A3EFF07B017A807964
:100998004C9080D7E4F0A304F07F057E21121D055A
:1009A8007B017A8079509080D7E4F0A304F07F0926
:1009B8007E21121D057872E608E6540118760008B3
:1009C800F67B007A00797018E608E69080C2F0E4B9
:1009D800FD1221F57B007A007970908044E0A3E055
:1009E8009080C2F07D011221F57B007A0079709029
:1009F8008046E0A3E09080C2F07D021221F57B00E2
:100A08007A007970908048E0A3E09080C2F07D037E
:100A18001221F57B007A00797090804AE0A3E0907B
:100A280080C2F07D041221F57B007A0079709080F5
:100A380054E0A3E09080C2F07D051221F590805427
:100A4800E0FEA3E07805CEC313CE13D8F95401FF16
:100A5800908054E4F0A3EFF07B007A0079729080E4
:100A6800D7E4F0A304F07F757E20121D057B017A80
:100A78008079549080D7E4F0A304F07F607E201240
:100A88001D057B007A00795AC002C0017A0079629C
:100A98009080C112138B9080C47408F0D001D002EA
:100AA800121AD990814C12133A0007A1209080099C
:100AB80012131674FFFBFAF9F81212D79080091274
:100AC800132E90800DE06401600302018B9080F882
:100AD800E0B4013B7A1F79789080D7E4F0A37409D9
:100AE800F07F427E20121D05908146E475F00112C8
:100AF8001212E490800DF09080F8F09080091213A3
:100B08003A0002710090814C12133A0007A120E4C8
:100B1800FFFEFDFC908009121322C31212F260033B
:100B280002018B7BFF7A1F798A9080D7F0A3740922
:100B3800F07F427E20121D05E4908010F0A3F09013
:100B48008010E0FEA3E0C39430EE9400501C908027
:100B580010E0A3E02412F58274803EF583E4F0905F
:100B6800801075F00112121280D5908146E475F05C
:100B780001121212E490800DF09080F8F090814CF0
:100B880012133A0007A12002018B22020CE7EC5D48
:100B9800046005E859047003020CDD120CA858041F
:100BA80060F6EC4860F2EC7004FDFEFF22C860DBE2
:100BB8002481C85009C39860025006020CE498507A
:100BC800CAF582E9294B4A7005AB82020CD375F04D
:100BD800007C1A7880C3EF9BEE9AED99400DC3EF25
:100BE8009BFFEE9AFEED99FDE842F0DC23ACF0D0D5
:100BF800E0FFD0E0FED0E0FDAB8220E7101BEB6009
:100C0800BAEC2CFCEF33FFEE33FEED33FD020CBFE4
:100C1800E803F830E705C0F075F000EF2FFFEE337A
:100C2800FEED33FD40B830E7C280AA75F020800E93
:100C380075F010800575F0087D007E007F00339206
:100C4800D530D5031212E4EC334010EF33FFEE3306
:100C5800FEED33FDEC33FCD5F0ED22E5F0247EA269
:100C6800D513CC92E7CDCEFF22EDD2E7CD33EC33CE
:100C780092D524814006E4FFFEFDFC22FCE4CFCEA1
:100C8800CDCC24E0501174FF80EDC3CC13CCCD1330
:100C9800CDCE13CECF13CF0470F030D5DE0212E4E0
:100CA800E9D2E7C933E833F892D5EDD2E7CD33EC92
:100CB80033FC5002B2D522EC30E7100FBF000C0E07
:100CC800BE00080DBD00040BEB6014A2D5EB13FCAD
:100CD800ED92E7FD2274FFFCFDFEFF22E480F8A2FE
:100CE800D574FF13FC7D80E480EFF920E73624F902
:100CF80050037907E4F42402FBE58215827002159B
:100D080083DBF6E024FB501BE96014E4F0E5821570
:100D18008270021583E004F0B40A08E4F0D9EE7496
:100D280001F00A22C2D522ED33EC3392D5FA602ABB
:100D3800B4FF33EDC2E77BFF60067A0D7954E422F5
:100D48007A0D795D20D5047A0D7958224E614E00CE
:100D58002B494E46002D494E4600E47A08F0A3DAA6
:100D6800FC7B00740722C083C082ECC0E0EDC0E0C9
:100D7800EEC0E0EFC0E0EA75F010A4CAABF075F081
:100D88004DA42BFBE435F0FCEA2410FAEB34C5FB48
:100D9800EC34D9FCEDC2E7FF75F056A4F42411C574
:100DA800F0F434C58FF0A42AE5F03BE43CF020E7EA
:100DB80014121062D0E0FFD0E0FED0E0FDD0E0FCDD
:100DC800120B968014F404121062D0E0FFD0E0FEFB
:100DD800D0E0FDD0E0FC120F2CD082D083E0FAEDF9
:100DE800D2E7CD33EC332482FBE4C3CF33CFCE3309
:100DF800CECD33CD33DBF37B0775F00A846004F086
:100E0800A31B0AE5F0F0A38FF0740AA4FFACF08EE0
:100E1800F0740AA42CFEACF050010C8DF0740AA4F6
:100E28002CFDE435F0F0A3DBDE740722020CDDE8CC
:100E38006480F8E933E83360110460F0ED33EC3393
:100E48007009E8FCE9FDEAFEEBFF220460DED3EB63
:100E58009FEA9EE99DE8C2E78CF0C2F795F0400C46
:100E6800E8CCF8E9CDF9EACEFAEBCFFB120CA8856D
:100E7800D0F05804700320D5B3E80470075002B2CC
:100E8800D5020CE792D5EC0460F7E4CCC0E0C39837
:100E9800F8603B94186008400DD0E0FB020CBFE4FA
:100EA800FBFAC9FC8028E830E406E4C9FBE4CAFC84
:100EB800E830E305E4C9CACBFCE854076010F8C37E
:100EC800E913F9EA13FAEB13FBEC13FCD8F130F54C
:100ED8002FC3E49CFCEF9BFFEE9AFEED99FDD0E05A
:100EE800FBEF4E4D4C701222DB03020CE4EC2CFCA1
:100EF800EF33FFEE33FEED33FDED30E7EB020CBFD1
:100F0800EF2BFFEE3AFEED39FDD0E0FB50130BBBA3
:100F18000003020CE7ED13FDEE13FEEF13FFEC13D5
:100F2800FC020CBFEC4D6011E8497017ED33EC334F
:100F380004600DE4FCFFFEFD22E933E8330470F899
:100F4800020CDD120CA858046009E4CC2481500678
:100F5800285009020CE7284003020CE4C0E0EB4AE1
:100F68007044B98006D0E0FB020CD3EF4E701CBD74
:100F78008008EBFFEAFEE9FD80EBE98DF0A4FEE5D1
:100F8800F0021015E9CDF9EAFEEBFFEF89F0A4FCB9
:100F9800E5F0CE89F0A42EFFE435F0CD89F0A42D3C
:100FA800FEE435F08067EF4E7005BD80D780C3EF53
:100FB8008BF0A4ACF0EE8BF0A42CFCE435F0F8EF49
:100FC8008AF0A42CE5F038FCE433CB8DF0A42CFC9B
:100FD800E5F03BF8EE8AF0A42CFCE5F038F8E433B1
:100FE800CF89F0A42CFCE5F038CF3400CE89F0A4EA
:100FF8002FFFE5F03EFEE433C98DF0A42EFEE5F0A8
:1010080039CD8AF0A42FFFE5F03EFEE43DFD33D054
:10101800E0FB50070BBB000F020CE7EC2CFCEF3396
:10102800FFEE33FEED33FD020CBF3F800000412090
:10103800000042C80000447A0000461C400047C334
:101048005000497424004B1896804CBEBC205A0EA0
:101058001BCA6753C21C749DC5AEFB60065407606B
:101068001C2323121090EB5438600912107C1210C4
:101078008B120F2CECF8EDF9EEFAEFCB22EB1210F5
:101088008B80F1543803241C901032FE93FC0EEE32
:1010980093FD0EEE930ECE93FF22E709F608DFFAD2
:1010A8008046E709F208DFFA803E88828C83E709E8
:1010B800F0A3DFFA8032E309F608DFFA8078E30963
:1010C800F208DFFA807088828C83E309F0A3DFFAE4
:1010D800806489828A83E0A3F608DFFA80588982CF
:1010E8008A83E0A3F208DFFA804C80D280FA80C6B7
:1010F80080D4806980F28033801080A680EA809A4C
:1011080080A880DA80E280CA803389828A83ECFAF8
:10111800E493A3C8C582C8CCC583CCF0A3C8C58254
:10112800C8CCC583CCDFE9DEE7800D89828A83E4F9
:1011380093A3F608DFF9ECFAA9F0EDFB2289828A7D
:1011480083ECFAE0A3C8C582C8CCC583CCF0A3C899
:10115800C582C8CCC583CCDFEADEE880DB89828A19
:1011680083E493A3F208DFF980CC88F0EF60010EE6
:101178004E60C388F0ED2402B4040050B9F582EB48
:101188002402B4040050AF23234582239010F27345
:10119800BB010689828A83E0225002E722BBFE0255
:1011A800E32289828A83E49322BB010CE58229F534
:1011B80082E5833AF583E0225006E92582F8E622A3
:1011C800BBFE06E92582F8E222E58229F582E5835D
:1011D8003AF583E49322BB010689828A83F0225080
:1011E80002F722BBFE01F322F8BB010DE58229F5C7
:1011F80082E5833AF583E8F0225006E92582C8F6AD
:1012080022BBFE05E92582C8F222C5F0F8A3E02832
:10121800F0C5F0F8E582158270021583E038F022F7
:10122800BB010A89828A83E0F5F0A3E02250068791
:10123800F009E71922BBFE07E3F5F009E319228953
:10124800828A83E493F5F074019322BB0110E5824E
:1012580029F582E5833AF583E0F5F0A3E022500909
:10126800E92582F886F008E622BBFE0AE92582F81D
:10127800E2F5F008E222E5832AF583E993F5F0A385
:10128800E99322BB010A89828A83F0E5F0A3F02260
:101298005006F709A7F01922BBFE06F3E5F009F39B
:1012A8001922F8BB0111E58229F582E5833AF58315
:1012B800E8F0E5F0A3F0225009E92582C8F608A66F
:1012C800F022BBFE09E92582C8F2E5F008F222EF18
:1012D8002BFFEE3AFEED39FDEC38FC22C3E49FFF0C
:1012E800E49EFEE49DFDE49CFC22EB9FF5F0EA9E63
:1012F80042F0E99D42F0E89C45F022E8600FECC31B
:1013080013FCED13FDEE13FEEF13FFD8F122E0FC02
:10131800A3E0FDA3E0FEA3E0FF22E0F8A3E0F9A329
:10132800E0FAA3E0FB22ECF0A3EDF0A3EEF0A3EFCC
:10133800F022A8828583F0D083D082121351121331
:1013480051121351121351E473E493A3C583C5F0EA
:10135800C583C8C582C8F0A3C583C5F0C583C8C501
:1013680082C822E0FBA3E0FAA3E0F922F8E0FBA39D
:10137800A3E0F925F0F0E582158270021583E0FA02
:1013880038F022EBF0A3EAF0A3E9F022D083D08270
:10139800F8E4937012740193700DA3A393F8740189
:1013A80093F5828883E4737402936860EFA3A3A320
:1013B80080DFD083D082F8E4937012740193700DAB
:1013C800A3A393F8740193F5828883E4737402935A
:1013D800B5F0067403936860E9A3A3A3A380D8E5D6
:1013E8000824C1F582E43480F583E0050822908062
:1013F800BE3007039080C1E475F001121374021126
:10140800982000E97F2ED2008018EF540F2490D442
:101418003440D4FF30040BEF24BFB41A0050032427
:1014280061FFE50960021509050CE50C7002050B62
:1014380030070E9080BEE475F001121374EF0211AC
:10144800DE0224107403D2078003E4C207F5089073
:1014580080BE12138BE4F509F50BF50CE50960075E
:101468007F2012142A80F5750AFFC201C200C20249
:10147800C203C205C206C2081213F6FF700D300778
:10148800057F0012143BAF0CAE0B22B4255FC2D50A
:10149800C2041213F6FF24D0B40A00501A75F00AD9
:1014A800780930D50508B6FF0106C6A426F620D56A
:1014B800047002D20380D924CFB41A00EF5004C2BA
:1014C800E5D20402172DD20180C6D20080C0D20214
:1014D80080BCD2D580BAD20580B47F2012142A20CD
:1014E80002077401B5090040F11213E7FF12142A2C
:1014F800021464D208D20680951213E7FB1213E790
:10150800FA1213E7F94A4B7006792B7A187BFF20F9
:10151800022EE509602A7E008E827583001211B1C1
:1015280060060EEE650A70F0C2D5EBC0E0EAC0E0D6
:10153800E9C0E0EE12178ED0E0F9D0E0FAD0E0FB77
:10154800121198FF60AAEBC0E0EAC0E0E9C0E0121F
:10155800142AD0E02401F9D0E03400FAD0E0FBE509
:101568000A0460DCD50AD98087D20280A2121770DB
:1015780060F7E50A700104120CF2A90A600DE50A89
:10158800600914F50A121818EF60F3EA30E702F45C
:1015980004C3995079EAF4250A0430E701E404F514
:1015A8000A800D12177060C1EA050A250A120CF2AA
:1015B800EA9080EDF030E701E4250A04D50A04201A
:1015C80005011412178EE4C0E01218189080EDE09F
:1015D800601320E70714F0121412802204F0D0E000
:1015E80014C0E07F00121412E50A600712140915EE
:1015F8000A800B300503121409D0E0021464D0E00D
:101608000480C4121770609EE50A04120CF29080E0
:10161800EDEAF0E50A200502600104240412178EA1
:1016280074FF04C0E0121818121412E50A2005020B
:101638006003121409D0E0B50AE87F4512141C9023
:1016480080EDE07F2B30E7047F2DF404C0E0121416
:101658002AD0E075F00A84C0F0121413D0E01214F6
:1016680013021464791080027908C206C20880083F
:10167800D2D5790A8004790AC2D5E50A047002F540
:101688000AE4FAFDFEFF1213E7FC7B08200113129F
:1016980013E7FD7B1030000A1213E7FE1213E7FF71
:1016A8007B20EC3382D592D55013C3E43000069FDB
:1016B800FFE49EFEE42001039DFDE49CFCE4CBF8DE
:1016C800C201EC700CCFCECDCCE824F8F870F380D2
:1016D80017C3EF33FFEE33FEED33FDEC33FCEB3392
:1016E800FB994002FB0FD8E9EB300105F8D0E0C4C4
:1016F80048B201C0E00AEC4D4E4F78207B0070C222
:10170800EAB50A0040BCC0E0121790D0F0D0E02043
:101718000104C4C0E0C4B201C0F0121413D0F0D563
:10172800F0EB021464121394150153166C5814D27A
:101738004C14CE4216704F16784416784914E74375
:10174800167E5515AB46160B45157547184B5014A4
:10175800D62D14DA2E14FD2B14DE2314FB20183496
:101768002A149648000014F5E50AB4FF03750A0622
:101778001213E7FC1213E7FD1213E7FE1213E7FF3B
:101788009080E6020D2F790AA2D5200314300509AE
:10179800B910020404B9080104A2D52006025001B8
:1017A800042002689202B509005034C0E07F20305E
:1017B80003197F30A20272067205500F1217E7C292
:1017C80002C206C205C2087F30800F300503E9C097
:1017D800E012142A300503D0E0F9D0E0B509CC3086
:1017E80005177F30B9100C12142A7F583004077F70
:1017F800788003B9080312142A3002057F2D0214D9
:101808002A7F202008F87F2B2006F322920280CF1F
:101818007F00B40700500B24E6F582E43480F5839A
:10182800E0FF22286E756C6C2900D2011213E73094
:1018380001F8C201780930D50108F60214962D5036
:101848004349581213E72403B405004001E49018F3
:10185800469312141B743A12141BD203750904021E
:10186800166C9080BE12138B9080C1ECF0A3EDF043
:101878009080BE12136B121198FF9080CEE4F0A3F3
:10188800EFF09080BE12136B9000011211B1FF901F
:1018980080D0E4F0A3EFF07B017A8079CE9080D7F6
:1018A800E4F0A304F07F657E20121D057B017A8099
:1018B80079D09080D7E4F0A304F07F677E20121DD2
:1018C800059080C1E0FEA3E0C39404EE9400503973
:1018D800E49080CCF0A3F09080CCE0FEA3E0C39429
:1018E80040EE940050209080BE12136B9080CCE0A4
:1018F800A3E0F5828E83E41211F09080CCE475F0B9
:101908000112121280D17F63229080BE12136B9055
:1019180080C1E0FEA3E024FEFFEE34FF8F82F58352
:101928001211B1FE9080BE12136B9080C1E0FCA32F
:10193800E024FFFDEC34FF8D82F5831211B1FDEE3A
:10194800EDFF9080C6EEF0A3EFF09080BE12136B0F
:101958009080C1E0A3E024FEFD121E229080C8EE14
:10196800F0A3EFF09080C8E0FEA3E0FF9080C6E00F
:10197800FCA3E06F7002EC6E6039E49080CCF0A3B9
:10198800F09080CCE0FEA3E0C39440EE9400502099
:101998009080BE12136B9080CCE0A3E0F5828E831A
:1019A800E41211F09080CCE475F00112121280D18B
:1019B8007F62229080BE12136B121198FF9080C331
:1019C80012136BE48FF012128B9080BE12136B907F
:1019D80000011211B1FF9080C312136B900002E452
:1019E8008FF01212AA9080C312136B900002121289
:1019F80053640345F06003021AC49080BE12136B4F
:101A08009000021211B1FF9080C312136B90000472
:101A1800E48FF01212AAE49080CAF0A3F09080C379
:101A280012136B900004121253FF9080CAE0FCA3BB
:101A3800E0C39FEC95F0504B9080BE12136B9080E2
:101A4800CAE0FEA3E02403FFE43E8F82F58312116F
:101A5800B1FD9080C312136BE92406F9E43AFA90B9
:101A680080CAE0A3E025E0FFEE33FEE92FF9EA3E65
:101A7800FAE48DF012128B9080CAE475F00112120C
:101A880012809AE49080CCF0A3F09080CCE0FEA382
:101A9800E0C39440EE940050209080BE12136B90E7
:101AA80080CCE0A3E0F5828E83E41211F09080CC24
:101AB800E475F00112121280D17F01229080C312C6
:101AC800136B900002121253641045F070027F01EC
:101AD800229080BE12138B9080BE12136B121228B4
:101AE8009080C5F09080BE12136B900002121253C2
:101AF8009080C6F09080BE12136B900002121253B1
:101B0800640345F0704A9080BE12136B9000041273
:101B18001253E5F09080C7F09080BE12136B9000CE
:101B2800041212539080C8F09080BE12136B90007C
:101B380006121253E5F09080C9F09080BE12136B24
:101B48009000061212539080CAF09080E97406F053
:101B58009080BE12136B900002121253640645F077
:101B6800704D9080BE12136B900004121253E5F072
:101B78009080C7F09080BE12136B9000041212532D
:101B88009080C8F09080C112136B90000C12125311
:101B9800E5F09080C9F09080C112136B90000E128E
:101BA80012539080CAF09080E97406F0021CAC9041
:101BB80080BE12136B900002121253641045F0603D
:101BC80003021CAC9080C4E025E09080EAF090808D
:101BD800BE12136B900004121253E5F09080C7F008
:101BE8009080BE12136B9000041212539080C8F0BC
:101BF8009080C4E0E49080C9F09080C4E09080CAEE
:101C0800F09080EAE09080CBF0E49080E7F0A3F0D9
:101C18009080C4E0FF9080E7E0FCA3E0C39FEC94D1
:101C28000050779080E7E0FEA3E025E0FFEE33FE6A
:101C38009080C112136B8F828E83121253E5F0FDD0
:101C48009080E7E0FEA3E025E0FFEE33FE74CC2FA2
:101C5800F58274803EF583EDF09080E7E0FEA3E026
:101C680025E0FFEE33FE9080C112136B8F828E83C6
:101C7800121253FD9080E7E0FEA3E025E0FFEE336B
:101C8800FE74CD2FF58274803EF583EDF09080E7E9
:101C9800E475F001121212021C189080EAE0240781
:101CA8009080E9F07B017A8079C59080E9E0FD12A7
:101CB8001E229080E5EEF0A3EFF09080E5E0A3E02F
:101CC800FF9080E9E024C6F582E43480F583EFF0E4
:101CD8009080E5E0FEA3E0EEFF9080E9E024C5F502
:101CE80082E43480F583EFF09080E9E02402F07B11
:101CF800017A8079C5E0FD7C00122345229080D2CC
:101D0800EEF0A3EFF0A312138B9080D2E0A3E0547F
:101D1800019080D9F09080D2E0FEA3E0FFEEC313DB
:101D2800FEEF13FF9080D2EEF0A3EFF0E4F5F19010
:101D380080D2E0FEA3E0EEF5F29080D2E0A3E0F5D9
:101D4800F375F40175F88F30FCFD9080D9E0603CA4
:101D58009080D7E0FEA3E0D39400EE9400402D7568
:101D6800F8839080D4E475F001121374121198F579
:101D7800FC9080D4E475F001121374121198F5FDEB
:101D8800D2FE9080D774FFF5F012121275F88F907A
:101D980080D7E0FEA3E0C39402EE9400404B90800D
:101DA800D4E475F001121374121198F5FA9080D4E6
:101DB800E475F001121374121198F5FB9080D4E4C5
:101DC80075F001121374121198F5FC9080D4E47523
:101DD800F001121374121198F5FDD2FE9080D77499
:101DE800FF75F0FE12121280A69080D7E0FEA3E0E5
:101DF8004E602375F88C9080D4E475F0011213744A
:101E0800121198F5FA9080D4E475F0011213741247
:101E18001198F5FBD2FEE4F5F8229080EB12138BB3
:101E28009080EEEDF074FFA3F0A3F0E49080F5F05D
:101E3800A3F09080EEE0FF9080F5E0FCA3E0C39F64
:101E4800EC94004003021EE79080EB12136B908025
:101E5800F5E0FEA3E0F5828E831211B1FF9080EFCA
:101E6800E0FCA3E0FDECFEEF6DFF9080EFEEF0A349
:101E7800EFF0E49080F7F09080F7E0C394085052B8
:101E88009080EFE0A3E05401FF9080F3E4F0A3EF2B
:101E9800F09080EFE0FEA3E0FFEEC313FEEF13FF28
:101EA8009080EFEEF0A3EFF09080F3E0FEA3E04E19
:101EB80060189080EFE0FEA3E0FFEE64A0FEEF6400
:101EC80001FF9080EFEEF0A3EFF09080F7E004F0D0
:101ED80080A59080F5E475F001121212021E3A9066
:101EE80080EFE0FEA3E0EEFFA3E4F0A3EFF0908024
:101EF800EFA3E0FEA3E0FCA3E0FDEE4CFEEDFF90B7
:101F080080EFEEF0A3EFF09080EFE0FEA3E0FF900B
:101F180080EFEEF0A3EFF09080EFE0FEA3E0FF2269
:101F2800253032582000202020202020202020206A
:101F38002020202020202020202020202020202099
:101F4800202020202020004F4B202020200A004461
:101F58004154415F4552520A004C656E6768740AE5
:101F6800004352432020200A004552524F520A0093
:101F78005265636569766564202020202020202032
:101F88000A0054696D656F75742020202020202078
:101F980020200A00000300030000000100020003E3
:101FA800000000040002001000000001000300030C
:101FB8000000000100040003000000010005000308
:101FC80000000001000600030000000100000000FE
:101FD80000000000000000000000000000000000F9
:101FE80000000000000000000000000000000000E9
:101FF80000000000000000000000000000000000D9
:1020080000000000000000000000000000000000C8
:10201800000000009080BEEEF0A3EFF0A312138B37
:102028009080BEE0A3E054019080C5F09080BEE0AF
:10203800FEA3E0FFEEC313FEEF13FF9080BEEEF0A9
:10204800A3EFF0E4F5F19080BEE0FEA3E0EEF5F238
:102058009080BEE0A3E0F5F375F40175F8AF30FCAD
:10206800FD9080C3E0FEA3E0D39400EE94005003FB
:10207800022109D2FE20FEFD9080C5E0703D9080CF
:10208800C3E0FEA3E0D39400EE9400402E9080C0FD
:10209800E475F001121374E5FA1211DE9080C0E4C1
:1020A80075F001121374E5FB1211DE9080C57401FE
:1020B800F09080C374FFF5F01212129080C5E0B45E
:1020C800019F9080C3E0FEA3E0D39400EE9400400B
:1020D800909080C0E475F001121374E5FC1211DED3
:1020E8009080C0E475F001121374E5FD1211DEE46E
:1020F8009080C5F09080C374FFF5F0121212022090
:1021080069E4F5F822C0E0C0F0C083C082C0D07591
:10211800D000C000C004C005C006C0072098030254
:1021280021E0C29890814C12133A0007A1209080B8
:1021380000E599F0908148E0FEA3E0EE30E7030265
:1021480021E0908148E0FEA3E0C39440EE94005063
:102158003D908000E0FF908148E0FCA3E024FAF580
:102168008274803CF583EFF0908148E475F00112A9
:102178001212908148E0FEA3E064024E701990802C
:10218800FBE030E712780F76000876058009908129
:1021980048E4F0A3F080419080F9E0FF780FE6FC76
:1021A80008E6FDC3EF9DE49C5003E004F09080F93D
:1021B800E0FF780FE6FC08E6FDEFB5051BE4B50483
:1021C80017908148E0FEA3E0FFEE4480908148F03C
:1021D800A3EFF09080F9E4F0D007D006D005D00442
:1021E800D000D0D0D082D083D0F0D0E0329080BE62
:1021F80012138B9080C1EDF0E0C394105063A3E0FC
:10220800602F9080BE12136B121228FDACF09080E4
:10221800C1E0FF74017E00A807088005C333CE33F0
:10222800CED8F9FFEC4EFEED4FFFEE8FF012128B79
:10223800229080BE12136B121228FDACF09080C160
:10224800E0FF74017E00A807088005C333CE33CEB3
:10225800D8F9F4FFEEF45CFEED5FFFEE8FF012129A
:102268008B229080C212132E43C94053B7CF43B775
:102278001075D88075985053877F9080C2121316B6
:10228800E4120C33A804A905AA06AB077F007EE078
:102298007D447C4A120B96120C71C3E49FFF7404B0
:1022A8009EFEE4FCFD9080C212132E9080C2121391
:1022B800167808121303EFE48FBA9080C21213162F
:1022C800EFE48FAAD2ACD2AF908148F0A3F090800F
:1022D800F9F022C0E0C0F0C083C082C0D075D00041
:1022E800C000C001C002C003C004C005C006C007CA
:1022F800C2C690814C121316EC4D4E4F601590815A
:102308004C12131674FFFBFAF9F81212D790814C8D
:1023180012132E780DE6FE08E64E6006E6161870D3
:102328000116D007D006D005D004D003D002D001C2
:10233800D000D0D0D082D083D0F0D0E0329080EBE3
:1023480012138B9080EEECF0A3EDF0C2ACE4A3F096
:10235800A3F09080EEE0FEA3E0FFA3E0FCA3E0C3BF
:102368009FEC9E50279080EB12136B9080F0E0FE5C
:10237800A3E0F5828E831211B1F5993099FDC299C7
:102388009080F0E475F00112121280C6D2AC22C21D
:10239800AFC2D3C2D4E4F58E75C870F593759401B5
:1023A800759502F5C9F5F875F901F5A843B830F542
:1023B8009AF5A9F5B953C9FDD2BDD2BCD2AF2290C6
:1023C80080BEEEF0A3EFF09080BEE0FEA3E0FF78C1
:1023D8000DA60608A607780DE6FE08E64E70F72259
:1023E80075C870E4F5CDF5CC75CBBC75CACD43A8DE
:1023F80020D2C8D2AF229080EFEFF0C2ACE0F599BE
:102408003099FDC299D2AC229080EEEFF0E0FF1235
:0824180023FE9080EEE0FF229C
:00000001FF
